:100000000C9441120C9460120C9460120C946012C7
:100010000C9460120C9460120C9460120C94601298
:100020000C9460120C9460120C9460120C94601288
:100030000C940A130C9460120C9460120C946012CD
:100040000C9460120C94127D0C94C3140C946012E6
:100050000C9460120C9460120C9460120C94601258
:100060000C9460120C9460120C9460120C94601248
:100070000C9460120C9460120C9408420C94601260
:100080000C9460120C9460120C946012A213A013D2
:10009000A413A613A813AA13AC13AE13B013B21370
:1000A000B413B613B813C613BA13C613BC13BE13D6
:1000B000C613C013C213C413C613C613BA13AC13AA
:1000C000C613AE13B213B613C154D954EB54205512
:1000D000515567559C55D6551A5622563A5646568E
:1000E0007856B956D656F05630573755F25593567E
:1000F000BC5556576C577157AA57DB572058405874
:100100005E589858FB583F5DC157675DC75D815D7C
:10011000AC5D015EE15D1A5E355E475E0B592B59A1
:10012000525961597F599659C259D959055A255A78
:10013000565A655ABE5A355B495B245C245C5D5B4C
:10014000715B795B955BA95BB65BCD5BE45B025C45
:10015000275C3E5C555C6C5C835C9A5CB15CC85C03
:10016000D75CEE5C115D0B9027903A90699092906D
:100170000591179120915C918391CA91D4918F91AF
:10018000DA913790EC91F29194949894B494B09859
:10019000B098B098B0980695B0982895B0984795C3
:1001A000D09530965496E594B098E8956C96A496C0
:1001B000C196FD960D971E982E9873989298A498C4
:1001C000AA98AC98A79AAD9AB19AC89AE29AE69A78
:1001D000159B349B3A9B439B469B499B4C9B4F9B57
:1001E000529B589B5B9B5E9B689B2B9D849D929D25
:1001F000DA9DF09D079E309EE69EF49E739F1FA0A1
:1002000023A174A1BAA137A2CBA271A337A463A47E
:100210001CA539A54FA6B3A5FAA5F0A61EA733A71E
:1002200057A6DBA624A72CA791AB94AB56AC65AC24
:1002300098ACA8ACD6AC75AC84AC8EACE0ACEDACF4
:10024000F8ACFBACFEAC01AD04AD07AD0AAD0DAD35
:100250002FAD1DAD10AD28AD40AC00000001010177
:100260000509000000111111151511000000001002
:1002700010101412000F07030101010100001111F9
:10028000111111110000001E1C1810101010000098
:100290001F1B151717151B1F001414080807040649
:1002A0000400496E697469616C697A652E2E2E208E
:1002B000005761746368446F670042726F776E4FD6
:1002C00075740045787465726E616C00506F776567
:1002D000724F6E0001060206010D020D0114021498
:1002E00001080208030804080113021302030402B0
:1002F0000F0F010100000000010A020A030A0204B4
:1003000003030303030403044E2F410047696C6297
:100310006172636F005761796E65204441525400E9
:1003200054617473756E6F004C470008030C03151D
:1003300003200328034D722E426967002564005490
:10034000252E3264252E326425732573257325737B
:10035000257325733A00323025732F25732F2573AB
:100360002025733A25733A25730025730025730001
:100370002563252E32643A004354535250003A000C
:10038000466D74544D6F6E65793A257300466D74F1
:100390004D6F6E65793A257300544D6F6E65793AED
:1003A00025730054566F6C756D653A2573004D6F5B
:1003B0006E65793A257300566F6C756D653A2573D5
:1003C0000052656D6F7665643A2573004D696E75F0
:1003D000733A2573005261773A257300466F726D48
:1003E000617465643A2573002573002573002573D5
:1003F00000257300446174613A2573004E2F41005B
:100400002573000025642E2573257325730025644C
:100410002E2573257325732573257300544F54417E
:100420004C202573257300544F54414C20257325CF
:100430007325732573002573257300257325732594
:100440007325730025732D2D2D2D2D2D2D2D2D2D47
:100450002D2020202020202020202020202020208F
:10046000200025732D2D2D2D2D2D2D2D2D2D2D20C5
:1004700020202D2D2D2D2D2D2D2D2D2D2D2D2D00F3
:100480004177616C203A25732573004177616C20B8
:100490003A257325732573257300416B6869723A99
:1004A0002573257300416B6869723A25732573259E
:1004B000732573005025642E2564202D202573207C
:1004C000005025642E2564202D20257320257320BF
:1004D00025730048617267613A2052702E257300BF
:1004E0004E2F410050554D502D50524F44554354BE
:1004F000202020564F4C554D45284C2920202020A7
:10050000202020202020202020200050554D502D3C
:1005100050524F44554354202020564F4C554D4582
:10052000284C29202020205255504941482852501B
:100530002900416B686972205368696674203A200B
:10054000257320004177616C202053686966742010
:100550003A20257320005465726D696E616C2049E4
:1005600044203A20252E32642020202020202020E4
:10057000202020202020202020202000202020209B
:10058000202020204C61706F72616E20547574754C
:10059000702053686966743A20257320202020203B
:1005A00020002564002573003000300025730025ED
:1005B0007300257300257300257300412B423A25F3
:1005C0007300496E423A257300496E423A5F004912
:1005D0006E413A257300496E413A5F004F70657273
:1005E0006174696F6E204D756C7469706C7900254B
:1005F0007300303030303030303000202020202068
:1006000020202020202020202020202020202020EA
:1006100020202020202020202020202020200020FA
:100620002020202020202020202020204455504C15
:10063000494341544520434F505920202020202039
:10064000202000202020202D2D2D2D2D2D2D2D2D55
:100650002D2D2D2D2D2D2D2D2D2D2D2D2D2D2D2DCA
:100660002D2D2D2D2D002020202020537572636804
:100670006172676520416D743A2025730020202047
:100680002020537572636861726765204473633A12
:1006900020257300202020202D2D2D2D2D2D2D2DBA
:1006A0002D2D2D2D2D2D2D2D2D2D2D2D2D2D2D2D7A
:1006B0002D2D2D2D2D2D0020202020204D6F6E74EE
:1006C0006820436F6E732041203A2052702E2573AC
:1006D0000020202020204D6F6E746820436F6E73C1
:1006E0002056203A202573204C0020202020205422
:1006F0006F74616C2052656465656D203A202573C6
:100700000020202020204578706972792020202048
:100710002020203A202573002020202020437572BD
:100720007220506F696E747320203A202573002068
:10073000202020205072657620506F696E747320DF
:10074000203A2025730020202020204761696E2058
:10075000506F696E747320203A202573002020208A
:100760002020436F7270204E616D65202020203A5A
:10077000202573002020202020436F7270204944E0
:100780002020202020203A20257300202020202017
:100790004361726420486F6C64657220203A2025A2
:1007A00073200020202020204361726420494420CF
:1007B00020202020203A20257300202020202020E7
:1007C0002020204C4F59414C545920494E464F52FD
:1007D0004D4154494F4E2020202020200020202031
:1007E000202D2D2D2D2D2D2D2D2D2D2D2D2D2D2D46
:1007F0002D2D2D2D2D2D2D2D2D2D2D2D2D2D2D0056
:10080000202020202E2573002020202054616E649B
:10081000612054616E67616E2020285F5F5F5F5FBB
:100820005F5F5F5F5F5F5F5F5F29002020202020A8
:1008300020202020202020202020202020202020B8
:1008400020002020202020202020202020202020C8
:1008500020202020202020200020202020202020B8
:1008600020202020202020202020002020002020C8
:1008700020204170707220436F64653A2025730018
:100880002573202000202020204E616D6120202033
:1008900020203A2025730020202020202020202006
:1008A000202A2A2A2050554D502054455354202A9E
:1008B0002A2A202020202020200020202020566FBF
:1008C0007563686572204E6F3A20257300202020E2
:1008D000204B61727475204944203A202573002012
:1008E0002020202D2D2D2D2D2D2D2D2D2D2D2D2D5F
:1008F0002D2D2D2D2D2D2D2D2D2D2D2D2D2D2D2D28
:100900002D002020202020204F646F6D65746572BB
:10091000202020203A202573002020202020204E57
:100920006F2E506F6C6973692020203A2025730068
:10093000002020202020204A6D6C205275706961B3
:100940006820203A2052702E25730020202020207D
:10095000204A6D6C204C697465722020203A202555
:1009600073204C0000202020202020486172676105
:100970002F4C20202020203A2052702E257300205A
:10098000202020202050726F64756B2020202020B2
:10099000203A2025730020202020202050756C61F3
:1009A000752F506F6D7061203A205B25735D2D258A
:1009B0007300202020202D2D2D2D2D2D2D2D2D2D82
:1009C0002D2D2D2D2D2D2D2D2D2D2D2D2D2D2D2D57
:1009D0002D2D2D2D0020202020202057616B747597
:1009E0003A2025732025732000202020202020532A
:1009F000686966743A20257320204E6F2E54726108
:100A00006E733A2025732000200020202020202013
:100A1000202020202020204455504C49434154455B
:100A200020434F50592020202020202020004572B4
:100A3000726F72204E6F20436F6E6E656374696FC4
:100A40006E0050726F7365730053656E642052655B
:100A50007175657374005B2A5D43616E63656C201C
:100A600020205B235D456E746572005B2A5D4261E8
:100A7000636B20202020205B235D456E746572002F
:100A80005B2A5D43616E63656C20205B235D456E70
:100A900074657220004F646F6D657465723A5F20F3
:100AA00000506C6174204E6F3A20257320005B2A41
:100AB0005D43616E63656C2020205B235D456E7431
:100AC0006572005B2A5D4261636B20202020205B01
:100AD000235D456E746572005B2A5D43616E6365DC
:100AE0006C20205B235D456E74657220005F0049B9
:100AF0006E70757420506C6174204E6F3A20002324
:100B000029536176650034295465726D49443A254C
:100B10006420002329536176650034295465726D81
:100B200049443A2564200033294E6F746966203A9F
:100B300020202020202A2945786974003229442F5A
:100B4000542020203A0031294D6F6E6579203A00FB
:100B50003429437574203A20202A29457869740085
:100B600033294C6F676F3A20202329536176650043
:100B7000322953697A653A202036295370616365BA
:100B8000203A003129547970653A20203529536381
:100B9000726F6C6C3A002A2943616E63656C202089
:100BA000202020202329536176650054494D45209B
:100BB0003A200044415445203A20002A29457869CA
:100BC00074202020202020202023295361766500D6
:100BD00032294E323A202034294E343A2020362908
:100BE0004E363A0031294E313A202033294E333ADD
:100BF000202035294E353A0050726F647563742099
:100C0000464950252E326400436F6D706C657465E3
:100C1000640043616E63656C2020202020004964DD
:100C20005B25645D3D252E3264202000536176698A
:100C30006E672E2E002D50756D7049442D002020BA
:100C400020204E6F7420416C6C6F776564202020EB
:100C500020200020204475706C6963617465205009
:100C6000756D7049442020002020202020205761ED
:100C7000726E696E67212020202020200025642EBE
:100C800050252E3264207C2025642E50252E32647F
:100C900000232953617665002A294261636B002590
:100CA000642E50252E3264207C2025642E50252E63
:100CB000326400252E326400252E3264003429343B
:100CC0003A2020203829383A2020202A29457869DE
:100CD00074003329333A2020203729373A20202046
:100CE000232953617665003229323A2020203629A3
:100CF000363A003129313A2020203529353A005B37
:100D00002A5D4578697420205B235D4368616E67C6
:100D100065200025642E2573002D44697370656E6F
:100D2000736572204272616E642D002A29457869CC
:100D30007400322950726F6475637400312949441C
:100D4000002A29457869740025642E50252E3264C6
:100D5000207C2025642E50252E32642000252E3242
:100D600064005B2A5D4578697400362E4163743AED
:100D7000256400352E446C793A256400342E54697C
:100D80006D506F6F6C3A256400332E547279536541
:100D90006E643A256400322E6E4E6F50756D703A57
:100DA000256400312E4D617850756D703A256400D0
:100DB0005B2A5D4261636B202020202000434F4D61
:100DC00025643A25640020202020202D426175648E
:100DD000726174652D2020202020005B2A5D426115
:100DE000636B20202020202000332E434F4D333AC8
:100DF00034383500332E434F4D333A3233320033DB
:100E00002E434F4D333A54544C00322E4261756498
:100E10007261746500312E4D6F64653A5374616E72
:100E200064616C6F6E6500312E4D6F64653A536C72
:100E300061766500312E4D6F64653A4E6F6E6500C8
:100E4000496E76616C6964204F6C642050617373E5
:100E5000776F7264002020202020204552524F528C
:100E600020202020202020202000496E76616C69FF
:100E700064204E65772050617373776F7264002031
:100E800020202020204552524F5220202020202078
:100E90002020200020202050617373776F7264201F
:100EA0005361766564202020002020202020436F9D
:100EB0006D706C65746564202020202020005B2A02
:100EC0005D43616E63656C2020205B235D456E741D
:100ED0006572005B2A5D4261636B20202020205BED
:100EE000235D456E746572005B2A5D43616E6365C8
:100EF0006C2020205B235D456E746572004E657723
:100F00003A5F202020202020202020202020202088
:100F1000200056616C69646174696E672E2E005BF7
:100F20002A5D43616E63656C2020205B235D456E06
:100F3000746572005B2A5D4261636B202020202073
:100F40005B235D456E746572005B2A5D43616E6371
:100F5000656C2020205B235D456E746572004E65D4
:100F6000773A5F20202020202020202020202020D1
:100F70002020005B2A5D43616E63656C2020205B4E
:100F8000235D456E746572005B2A5D4261636B2070
:100F9000202020205B235D456E746572005B2A5D16
:100FA00043616E63656C2020205B235D456E746534
:100FB00072004E65773A5F202020202020202020DC
:100FC000202020202020005B2A5D43616E63656C39
:100FD0002020205B235D456E746572004F6C643A7F
:100FE0005F002D41646D696E6973747261746F7214
:100FF0002D002D53757065727669736F722D005BCD
:101000002A5D4261636B202020202000322E416443
:101010006D696E6973747261746F7200312E5375ED
:101020007065727669736F72002D4368616E6765D3
:101030002050617373776F72642D0053617665641D
:1010400020005B2A5D43616E63656C2020205B237A
:101050005D456E746572005B2A5D4261636B2020A2
:101060002020205B235D456E746572005B2A5D4E17
:101070006F202020205B235D5965730053617665E6
:101080003F004E6577204F70657261746F723A0051
:101090002573005B2A5D43616E63656C2020205BD5
:1010A000235D456E746572004E6577203A5F20209F
:1010B000202020202020202020202020004E616D94
:1010C000653A00257300322E4368616E67652050D3
:1010D000617373776F726400312E4368616E676568
:1010E000204F70657261746F72002A294261636BD0
:1010F00000342E5370617261746F723A2563200060
:10110000332E446563696D616C203A25632000329B
:101110002E542E4D6F6E6579203A25642000312EB5
:10112000542E566F6C756D653A25642020352E540B
:10113000657374005B2A5D4261636B20205B235DF5
:101140004E65787400332E4D6F6E6579203A2564B4
:1011500000322E566F6C756D653A256400312E5045
:1011600072696365203A25640034294272616E64B5
:1011700020202A29457869740033294C6162656C06
:10118000202000322950726F647563740031294940
:10119000442020202020002A294261636B20202047
:1011A0002023294F4B202020202020004E65773A15
:1011B0005F004F6C643A2573002A294261636B20FB
:1011C00020202023294F4B202020202020004E6566
:1011D000773A5F00456469742050726F6475637478
:1011E000204E616D65202020004F6C643A2573000D
:1011F0002A294261636B20202020202020003229F0
:1012000025730031292573002A294261636B00256B
:1012100064292573002A294261636B202020202045
:1012200020202020202020202000332950756D70A0
:10123000506F6F6C696E67202020202020200032C4
:101240002953797374656D202020202020202020D0
:101250002020200031294F70657261746F72202048
:10126000202020202020202000342944617465742F
:10127000696D65202A29457869742020200033296A
:10128000446563696D616C202037294E6578742050
:10129000202000322950756D702020202020362912
:1012A000486F737420202000312950726F64756379
:1012B00074202035295072696E746572002E0025E5
:1012C0006400202020002E00256400202020005BE8
:1012D0002A5D63616E63656C20205B235D6E6578BB
:1012E000742020004E65773A2020205F2E20202099
:1012F0002E2020202E202020004F6C643A202564D0
:101300002E25642E25642E25640053657276657241
:10131000204950002E00256400202020002E0025AA
:101320006400202020005B2A5D63616E63656C2091
:10133000205B235D6E6578742020004E65773A202F
:1013400020205F2E2020202E2020202E2020200054
:101350004F6C643A2025642E25642E25642E256466
:1013600000436C69656E7420495000257325730035
:101370005B2A5D4E6F205B235D5965730053617678
:101380006520466F6F7465722564203F005B2A5D9F
:101390004E6F20205B235D59657300416C69676E59
:1013A0002043656E7465723F005B2A5D4261636B2A
:1013B00020205B235D4F4B004564697420466F6FAE
:1013C000746572256420002A2945786974202020DC
:1013D000202020202020202020202000202020202D
:1013E00020202020202020202020202020202020FD
:1013F000003229466F6F7465723220203429466F9F
:101400006F74657234003129466F6F7465723120D4
:10141000203329466F6F746572330025732573007E
:101420005B2A5D4E6F205B235D59657300536176C7
:1014300065204865616465722564203F005B2A5D14
:101440004E6F20205B235D59657300416C69676EA8
:101450002043656E7465723F005B2A5D4261636B79
:1014600020205B235D4F4B00456469742048656113
:10147000646572256420002A29457869742020203B
:1014800020202020202020202020200033294865F3
:10149000616465723320203629486561646572365F
:1014A000003229486561646572322020352948651B
:1014B0006164657235003129486561646572312067
:1014C00020342948656164657234002A29457869A9
:1014D0007400332950617373776F72642020202069
:1014E000202020202020003229466F6F7465722052
:1014F0002020202020202020202020003129486585
:1015000061646572202020202020202020202020BF
:10151000003229466F6F74657220202020352953D0
:1015200065727665720031294865616465722020B4
:1015300020203429436C69656E7400536176696EAE
:1015400067205368696674446174612E2E200025FB
:1015500073202573005072696E74696E6720546F32
:1015600074616C697A65720043616E63656C0045F5
:1015700072726F72202D204E6F2050756D703A255B
:10158000642000576169742050756D703A2564209D
:1015900000576169742050756D703A2564200054BD
:1015A0006F74616C697A65722E2E002A29457869FC
:1015B0007400332E4C6F636B2050756D70202000CB
:1015C000322E436C6F736520446179202000312EE8
:1015D000436C6F73652053686966740034295365E2
:1015E0007474696E67732020202A294578697420F5
:1015F000003329436C6F73654461792020202020DB
:101600002020202020003229436C6F7365536869C5
:10161000667420202020202020200031295265508F
:1016200072696E742020202020202020202020009D
:1016300050617373776F726420526573746F726553
:101640006400496E76616C696420526573746F72D0
:101650006520200030303030300031313131310000
:101660005B2A5D43616E63656C2020205B235D45D2
:101670006E746572005B2A5D4261636B20202020DE
:10168000205B235D456E746572005B2A5D43616E6D
:1016900063656C2020205B235D456E746572005F7E
:1016A000202020202020202020202020202020203A
:1016B00020202000456E74657220526573746F722D
:1016C0006520436F64652020004B65792053746169
:1016D0006D703A25732000496E76616C6964204311
:1016E0006F6465202020202020202000002573002A
:1016F0002573005B2A5D43616E63656C2020205B6F
:10170000235D456E746572005B2A5D4261636B20E8
:10171000202020205B235D456E74657200005B2AEB
:101720005D43616E63656C2020205B235D456E74B4
:101730006572005F202020202020202020202020F3
:101740002020202020202000456E746572204765EF
:101750004E69557320436F6465202020005B2A5D2D
:10176000457869742020202020202020202020205F
:101770002000322E4368616E676520506173737775
:101780006F726420202000312E526573746F726571
:101790002050617373776F72642020002D5379732A
:1017A00074656D2041646D696E204C6576656C2DA5
:1017B00000257325730025730025630032302573DF
:1017C0000025730034323634363336005B2A5D43ED
:1017D000616E63656C2020205B235D456E746572CD
:1017E000005B2A5D4261636B20202020205B235D2B
:1017F000456E746572005B2A5D43616E63656C20A3
:1018000020205B235D456E746572005F005041537C
:1018100053574F52443A00416363657373204465E4
:101820006E696564005443502F4950204572726FB1
:1018300072004E6F205265706C79202020200020AD
:1018400020202020202000506C65617365205761A6
:1018500069740025730050554D5020544553540071
:101860002573002573002573002573002573005030
:10187000726F736573002D4D4F5020566F756368FE
:1018800065722D0050726F7365730049443A257379
:10189000005B2A5D4261636B202020205B235D4555
:1018A00078697400464950257300546170204B617B
:1018B0007274752052464944005B2A5D43616E6331
:1018C000656C2020205B235D456E746572005B2A89
:1018D0005D4261636B20202020205B235D456E7498
:1018E0006572005B2A5D43616E63656C2020205B3E
:1018F000235D456E7465720053757263686172672B
:10190000653A2020205F25002573005B2A5D426137
:10191000636B0025642E25730053656C656374202A
:1019200042616E6B005B2A5D43616E63656C2020D3
:10193000205B235D456E746572005B2A5D426163C6
:101940006B20202020205B235D456E746572005B58
:101950002A5D43616E63656C2020205B235D456ECC
:10196000746572005F004B6F646520566F75636825
:101970006572005B2A5D4261636B2020202020207D
:101980002020202020202000322E42616E6B20205B
:101990002020342E50756D705465737400312E41C3
:1019A00063636F756E7420332E566F75636865724E
:1019B000200020202053656C656374205061796D90
:1019C000656E7420202000435245444954434152DF
:1019D00044005B2A5D4261636B2020202020202090
:1019E00020202020202000322E437265646974205C
:1019F000436172642020202020202000312E446585
:101A00006269742F466C61736820436172642020A0
:101A10000053656C6563742043617264205479706F
:101A200065004E6F20436F6E6E656374696F6E0064
:101A30005443502F4950204552524F52200050726B
:101A400065737320416E79204B657900436D205694
:101A50006F6C3A257300434D20416D743A25730035
:101A6000506F696E74733A25730025733A257300BD
:101A700050726F7365730049443A2573005B2A5DA9
:101A80004261636B202020205B235D4578697400F0
:101A9000546170204B617274752052464944005B5A
:101AA0002A5D4261636B202020205B235D457869BD
:101AB0007400546170204B61727475205246494421
:101AC000004649503A2573005B2A5D4261636B20F2
:101AD00020202020202020202000322E4C6F7961F1
:101AE0006C7479205570646174652000312E456EE8
:101AF000717569727920202020202020200020206C
:101B00004D656E75204C6F79616C747920202000D2
:101B10004E6F20436F6E6E656374696F6E00544341
:101B2000502F4950204552524F5220005B2A5D42AF
:101B300061636B202020205B235D4578697400542D
:101B400061702053757065727669736F722043619E
:101B500072640052655072696E74204649503A258D
:101B6000732000546964616B204164612054726188
:101B70006E73616B73692000416363657373204406
:101B8000656E696564002A29457869740023294FC8
:101B90004B20002020202020004649503A5F00259D
:101BA000642E502573207C2025642E502573003030
:101BB00032257325732573257325732573257300CB
:101BC0003000202020202020202020202020202025
:101BD0002020202020200023257300252E326400A1
:101BE000404649503A00202020202020202020205C
:101BF00020202020202020202020005072696E7498
:101C0000696E672046495025732000443A256420B8
:101C1000433A25632020002573202573004E6F2052
:101C200050756D7020466F756E64005443502F4997
:101C300050204572726F720050756D70466F756EF0
:101C40006400436F6E6E656374656400202020201D
:101C500020202020202020202020202020202000A4
:101C60002573005363616E2050756D7000436F6E75
:101C70006E65637420202020202020202000436FE8
:101C80006E6E65637400436F6E6E65637420202012
:101C900020202020202000434F4D25643A25692034
:101CA0002020202020202020202000496E697469F7
:101CB000616C697A6520434F4D202E2E2E000A4715
:101CC000654E695573205469636B65742050726961
:101CD0006E746572200A2056657273696F6E3A25BC
:101CE000730A204C617374205570646174652025FB
:101CF00073200A2048616E696E646F204175746FAD
:101D00006D6174696F6E20536F6C7574696F6E735B
:101D1000200A207777772E68616E696E646F67722C
:101D20006F75702E636F6D0A0A0A0A0A0A0A0A00A2
:101D300031342F30322F3230313100322E333500F2
:101D400025732573257325733938252E326446395A
:101D5000363843464642004675656C696E672040DA
:101D60004649503A232564005472616E73616B7367
:101D7000692053656C657361690049443A20257395
:101D800000257300502573202573200046495020FC
:101D9000546964616B2053696170202020200041E8
:101DA0007574686F726973617369204265726861E6
:101DB00073696C00417574686F726973617369202F
:101DC000476167616C2020200020202020202020F7
:101DD0000020202020202020202020202020202023
:101DE0002020202020004D6F686F6E2054756E6794
:101DF00067752020202020202020002573005025FA
:101E000073202573200043616E63656C20547261FA
:101E10006E73616374696F6E2020005B2A5D42619E
:101E2000636B205B305D455343205B235D4F4B006C
:101E3000257320002046756C6C00257320202573C7
:101E4000200049443A20257300257320005B2A5D59
:101E50004261636B20205B235D4F4B202020004FAD
:101E6000646F6D657465723A5F2020202020202009
:101E70000025732000202025732025732000507535
:101E80006D702050726F6475637420416D6F756E54
:101E9000740050756D702050726F647563742056B5
:101EA0006F6C756D6500202054616E6B00202025DD
:101EB00073202573200050756D702050726F64750B
:101EC000637420202046756C6C002573005B2A5DCE
:101ED0004261636B20205B235D4F4B20202020203C
:101EE00020005B325D416D6F756E743A5F2020207B
:101EF0002020202020200020202020202020202002
:101F00002020202020202020202020005025732D5C
:101F1000257320005B2A5D4261636B20205B235D9B
:101F20004F4B202020202020002020202020202077
:101F300020202020202020202020202020005B3175
:101F40005D566F6C756D653A5F2020202020202043
:101F50002020005025732D2573200041004100569C
:101F6000005B2A5D4261636B202020205B235D4E75
:101F70006578742020005B325D416D6F756E742052
:101F800020202020202020202020005B315D566F63
:101F90006C756D652020202020202020202020002E
:101FA0005025732D257320002573005B2A5D426147
:101FB000636B2020202020202020202020202000B3
:101FC00020202020200025642E257300257300503A
:101FD0006F6D70612D257300252E326400252E3221
:101FE00064002A29457869740023294F4B2000207A
:101FF00020202020004649503A5F0025642E5025BD
:102000002E3264207C2025642E50252E3264005B05
:102010002A5D426174616C202020202020205B23F7
:102020005D4F4B0025732025730025730025730039
:102030002573004B6172747520546572626174611E
:102040007320202020202000546964616B20546597
:1020500072646166746172202020202000446174E3
:102060006120526563656976656420202020202008
:1020700020005443502F4950204572726F72202027
:102080002020202020200053656E64696E67204662
:1020900061696C6564202020202020002020202001
:1020A0002020200050726F7365730049443A2573F5
:1020B000002020204C6F63616C204163636F756E5C
:1020C0007420202000252E32640045393434353503
:1020D000313200257325730025732573257325730D
:1020E00039340045393434353531320025732573A0
:1020F00025730025732573257325730025732573B8
:102100002573257339320045393434353531320081
:1021100025732573002573257325732573393000C6
:10212000256446303030303030304531323334354C
:1021300036464646464625734539343435353132C0
:102140000025732573256425732573002573257376
:1021500025732573353800414639363843464642A3
:10216000002573002573353600257325732573000C
:102170004639363843464642002573257300257399
:1021800025732573257300257325732573257333F4
:1021900032002573257346393638434646420025BA
:1021A00073257325732573323800257325734639DB
:1021B000363843464642002573257325732573320E
:1021C0003400257346393638434646420025732588
:1021D0007325732573323200257325732573257398
:1021E000313046393638434646420025732573253B
:1021F00073257330342573314639363843464642A9
:102200000025732E25732E25732E25730025732E1E
:1022100025732E25732E2573002573202573003218
:102220002E33350047654E695573005072657373E0
:1022300020616E79206B65792E2E202020202000D1
:102240005B315D536C617665205B325D5374616E0A
:1022500064616C6F6E65003E00252E326400252E91
:1022600032640030003100256400252E32640025E0
:1022700073002573002573003C003C4F4B3E002546
:1022800064002564002564003C536176696E673EF6
:10229000004C656E6774683A2564002573002573E9
:1022A00000257300257300257300252E3264002558
:1022B00064002573002573002573002564004E2FEC
:1022C0004100256400257300257300546964616B27
:1022D00020416461205472616E73616B73692000E8
:1022E000546F74616C697A6572416C6C2020202097
:1022F0002000436C656172204461746120546F74E6
:10230000616C697A65720020202020202020202026
:10231000202020202020200052656164792E2E2E5E
:102320002020202020202020202020200052656115
:1023300064792E2E2E2020202020202020202020D6
:1023400020004E6F20526573706F6E73652E2E20C5
:1023500020202020202000506C656173652057618B
:1023600069742E2E202020202020200052656164D8
:10237000792E2E2E202020202020202020202020DA
:1023800000546964616B20416461205472616E7312
:10239000616B73692000536564616E6750726F737F
:1023A000657300343335364133314100202020201D
:1023B000202020202020202020202020202020201D
:1023C000002020202020202020202020202020202D
:1023D000202020202000202020202020202020201D
:1023E000202020202020202020200020202020200D
:1023F00020202020202020202020202020202000FD
:1024000030202E000000312E2C3F2100326162630B
:102410000000336465660000346768690000356A4F
:102420006B6C0000366D6E6F000037707172730058
:10243000387475760000397778797A0030202E006C
:1024400000003126402B2D0032414243000033442E
:1024500045460000344748490000354A4B4C0000CF
:10246000364D4E4F00003750515253003854555698
:102470000000395758595A000204030303030304A8
:10248000030411241FBECFEFD0E1DEBFCDBF11E0AA
:10249000A0E0B1E0EAE2F2E701E00BBF02C0079082
:1024A0000D92AE35B107D9F71EE0AEE5B1E001C03F
:1024B0001D92AF38B107E1F70E94F1120C9413B9E5
:1024C0000C94000010929A0404B600FE0BC014BED7
:1024D00081E061E04CEC52E00E9494AE81E0809398
:1024E0009A0418C004B601FE06C014BE81E061E083
:1024F00043EC52E00DC004B602FE06C014BE81E0FB
:1025000061E04AEB52E004C081E061E041EB52E05F
:102510000E9494AE14BE80EE9EE220E731E0F90105
:102520003197F1F70197D9F708950E94E2AD0E9423
:10253000C1AE0E940A160E94621284E061E042EA83
:1025400052E00E9494AE88EB9BE020E731E0F90175
:102550003197F1F70197D9F79FEF9BBB9ABBDB9AB5
:1025600098BB97BB8DE082BB89E081BB90937000E4
:102570008EE083B982B91B9A1A989093620080EF1B
:102580008093610080E061E00E94DAB0BB9AC39A58
:10259000BA98C29AB998C19A8EB588608EBD87B72D
:1025A000806187BF789488E09DE39BBD8ABD8EB52E
:1025B00083608EBD81E060E00E94DE730E94D69B46
:1025C00081E08093BF031092C003809165008D7FEE
:1025D000809365000E94264D0E94D9770E94C1AE6B
:1025E00008950E9495120E9480ABFDCF9C01E19955
:1025F000FECF3FBB2EBBE09A8DB308959C01E199BD
:10260000FECF3FBB2EBB6DBB0FB6F894E29AE19AAA
:102610000FBE08951F920F920FB60F9211242F93A1
:102620006F937F938F939F938091BF03813081F449
:102630008091C0038F5F8093C003863949F4109264
:10264000BF031092C0038091650082608093650093
:102650008091BD038F5F8093BD03863030F0109270
:10266000BD0383B194E0892783B98091D60190910D
:10267000D701009741F001979093D7018093D6013D
:10268000BD9AC59805C098B388B38095892B88BB3F
:102690008091D2019091D30101969093D3018093C0
:1026A000D2018091A5018F5F8093A5012091A601A1
:1026B0002F5F2093A601822F65E00E947AB89923AC
:1026C00071F48091A7018F5F8093A7018091CC0165
:1026D0009091CD0101969093CD018093CC01822FF2
:1026E0006AE00E947AB8992349F48091D8019091C8
:1026F000D90101969093D9018093D8018091A801C6
:102700009091A90101969093A9018093A8019F91AE
:102710008F917F916F912F910F900FBE0F901F900F
:10272000189586E10895E82FF0E0EE31F10570F597
:10273000EA5BFF4FEE0FFF1F0590F491E02D099427
:1027400081E3089585E4089582E3089583E308957D
:1027500084E3089585E3089589E608958EE6089553
:1027600081E6089584E608958FE4089586E4089547
:1027700083E508958DE2089580E5089589E408953C
:1027800086E5089584E5089584E7089588E7089527
:1027900080938A076093AE0D81E08093970108953E
:1027A000282F823039F481E08093B1031092AF0377
:1027B0001092AE038091B103813069F48091AE0331
:1027C0009091AF03FC01EB50F54F2083019690935D
:1027D000AF038093AE03233041F08091AE0390911C
:1027E000AF038D34910508F49BC01092B103309172
:1027F000F70A30518091F60A2AE0829FC001112425
:10280000380F3093B003333009F065C0E8EFFAE0D9
:10281000A1E6BEE081918D938AE0EE3FF807D1F703
:102820001092670E808180939C09818180939D091D
:1028300010929E093296ADE7BEE081918D938BE0B8
:10284000EF30F807D1F710928C0EA1E6BDE0819130
:102850008D938BE0E232F807D1F71092740D20E0EF
:1028600030E0F901EC51F64FD901AB50B54F9D96D0
:102870008C9180832F5F3F4F2630310591F7109266
:10288000EA0920E030E0F901EA5CF64FD901AB50EB
:10289000B54FD3968C9180832F5F3F4F2A303105FF
:1028A00091F71092400920E030E0F901E956F24F2B
:1028B000D901AB50B54FDD968C9180832F5F3F4F90
:1028C0002E30310591F71092A50D81E08093B00173
:1028D0008093B1010895343019F5E8EFFAE0A4EEE1
:1028E000B9E081918D938AE0EE3FF807D1F710921D
:1028F000EA09A6E3B9E081918D938BE0E830F8070F
:10290000D1F710924009A7E9BDE081918D938BE04A
:10291000E631F807D1F71092A50D81E08093B2015E
:1029200008950895982FE4E7FAE080818183319734
:102930008AE0E136F807C9F79F012F5F3F4F918387
:1029400084858230F9F48091630A8A30D9F4933017
:10295000C9F4F9013A96ACE2BEE080818D933197DB
:102960008AE0E436F807C9F71092340E81E08093CC
:10297000AF018093BF031092C003809165008D7FEB
:102980008093650008951F920F920FB60F92112445
:102990008F939F939CB18091C801813021F08091E9
:1029A000CA01813051F4933121F481E08093C9014F
:1029B00004C0913111F41092C9019F918F910F9031
:1029C0000FBE0F901F90189580E00895282F8091DA
:1029D000AC038936E9F48091AB038334C9F4809168
:1029E000AA038F36A9F48091A9038E3689F48091C9
:1029F000A803863669F48091A7038F3349F4809148
:102A0000A6038D3029F42A3019F482E08093C601A0
:102A100080919801813069F480919C0190919D0191
:102A2000FC01EB50F54F2083019690939D0180931C
:102A30009C018091A603843051F42034E9F481E0B4
:102A40008093980110929D0110929C0115C08530D1
:102A500099F4203589F480919C0190919D01909387
:102A60009F0180939E0110929D0110929C011092F3
:102A7000980181E08093C6018091AB038093AC0301
:102A80008091AA038093AB038091A9038093AA034A
:102A90008091A8038093A9038091A7038093A80342
:102AA0008091A6038093A7032093A6030895BD9A5F
:102AB000C5989093D7018093D601089508958F709B
:102AC000089582958F700895982F8A3010F4805D54
:102AD00008958A50863010F080E00895892F895C2F
:102AE0000895282FFB01982F92959F709A3018F423
:102AF000892F805D08C0892F8A50863010F080E0D1
:102B000002C0892F895C8083922F9F709A3018F4BD
:102B1000892F805D08C0892F8A50863010F080E0B0
:102B200002C0892F895C818312820895FC01808113
:102B30002AE0829F900111248051820F0895582F1E
:102B4000FB0164E60E947AB8A82F852F0E947AB80C
:102B5000892F6AE00E947AB8482F8CE99FEFA89FDE
:102B6000802D1124850F26EF3FEF429F902D1124D9
:102B7000980F543640F0A05DA083405D4183905D86
:102B80009283138208955B3018F4905D90831182D4
:102B9000089520E030E0F901EF59F24FD901A45D2A
:102BA000B14F8C9180832F5F3F4F2830310599F7CB
:102BB0001092690D0895CF93DF93DB01EC0120E0C3
:102BC00030E007C0FD01E20FF31F899180832F5F82
:102BD0003F4F2417B8F3A40FB11D1C92DF91CF9182
:102BE0000895CF93DF93DB01EC01C40FD11D40E0CA
:102BF00050E007C0FD01E40FF51F899180834F5F0E
:102C00005F4F4217B8F3A20FB11D1C92DF91CF9115
:102C10000895089581E08093BF031092C003E5E614
:102C2000F0E080818D7F808308952091A201309112
:102C3000A3012115310561F0809165008D7F80939E
:102C40006500215030403093A3012093A2010895E4
:102C5000809165008260809365000895823059F00C
:102C6000823018F0833021F409C020E835E208C032
:102C700020E030E005C020E03BE402C02BE936E173
:102C8000C9010895E199FECF84E491E09FBB8EBB1A
:102C9000E09A8DB380935F01E199FECF89E491E0E2
:102CA0009FBB8EBBE09A8DB3809360010895089519
:102CB00008950895862708950895882319F081308E
:102CC00049F511C0262F30E0240F311DC9016AE0FB
:102CD00070E00E94A7B8482FC9016AE070E00E9426
:102CE000A7B8460F18C0662309F461E0442309F42D
:102CF00041E0469F90011124C9016AE070E00E9402
:102D0000A7B8462FC9016AE070E00E94A7B8642FF7
:102D1000482FD8CF40E0842F089581E00895FF9296
:102D20000F931F93CF93DF93F0905F01EC0100E0CE
:102D300010E009C08EE00E9493139881981709F45F
:102D40001F5F0F5F21960F15A8F3812FDF91CF91A1
:102D50001F910F91FF9008950895089581E00895BF
:102D60000895FC018081841718F48F5F8083089593
:102D700060830895FC018081681718F48150808376
:102D8000089540830895582FFB01843600F164E6CE
:102D90000E947AB8482F852F0E947AB8892F6AE05E
:102DA0000E947AB8405D40834053805D81838053A8
:102DB000505D2CE93FEF429F402D1124450F26EF37
:102DC0003FEF829F802D1124840F828310C08A5090
:102DD0008A3578F480E38083852F6AE00E947AB890
:102DE000805D8183852F0E947AB8905D92831382E3
:102DF00008955A3030F480E380838183505D52839C
:102E000013820895813029F0823019F0833009F05F
:102E100080E008950895CF93DF93EB01DA01A80FC6
:102E2000B91F40E050E007C0FE01E40FF51F8D918F
:102E300080834F5F5F4F42175307B0F3C20FD31F1A
:102E40001882DF91CF9108950F931F93CF93DF9353
:102E50008C01DB01EB01C40FD51F60E070E007C0FF
:102E6000F801E60FF71F808189936F5F7F4F62172C
:102E70007307B0F3A40FB51FA20FB31F1C92DF910D
:102E8000CF911F910F910895FB01E80FF91F8081E9
:102E900008958091F50A813051F480919E019091BE
:102EA0009F018F9721F480911A0B8053089580E041
:102EB000089590911C0B20E030E0F901E956F54FA0
:102EC000D901AB50B54F97968C9180832F5F3F4FC0
:102ED0002431310591F71092AB0A20E030E0F9017E
:102EE000EA57F64FD901AB50B54FDB968C918083F2
:102EF0002F5F3F4F2431310591F710929A0920E05E
:102F000030E0F901EF5DF54FD901AC5BB44F8C9126
:102F100080832F5F3F4F2431310599F71092350A96
:102F200020E030E0F901EF54F24FD901A85AB44F34
:102F30008C9180832F5F3F4F2431310599F7109298
:102F4000C50D892F8053089520E030E0F901EF5935
:102F5000F24FD901AB50B54F95968C9180832F5F7E
:102F60003F4F2431310591F71092750D20E030E08C
:102F7000F901EC5FFA4FD901AB50B54FD9968C915E
:102F800080832F5F3F4F2E31310591F7109222053C
:102F900080914C0B80936A0510926B0520E030E025
:102FA000F901E65CF54FD901A35BB44F8C918083A6
:102FB0002F5F3F4F2830310599F71092420A20E0E9
:102FC00030E0F901E25AFA4FD901AB5AB44F8C9173
:102FD00080832F5F3F4F2A30310599F710926805A3
:102FE00020E030E0F901E853F24FD901A15AB44F83
:102FF0008C9180832F5F3F4F2A30310599F71092D3
:10300000D20D20E030E0F901E956F24FD901A7597D
:10301000B44F8C9180832F5F3F4F2331310599F757
:103020001092AA0D20E030E0F901E557F24FD901E6
:10303000A458B44F8C9180832F5F3F4F27303105C8
:1030400099F71092920D20E030E0F901E556FB4F20
:10305000D901AD57B44F8C9180832F5F3F4F2430FF
:10306000310599F710929F0480E00895CF93DF9384
:1030700080911A0B893511F490E801C090E080919D
:103080001B0B893509F4906480911C0B893509F478
:103090009062906180911D0B8053813108F4982BD0
:1030A000C091A001D091A10120E030E00BC0F90156
:1030B000E153FA4FD901AB50B54F9C968C91808368
:1030C0002F5F3F4F2C173D0790F3C153DA4F188203
:1030D000892FDF91CF91089520E030E006C0FC01F8
:1030E000E20FF31F40832F5F3F4F26173707B8F3D8
:1030F000089520E030E0F901EF59F14FD901AB50CC
:10310000B54F95968C9180832F5F3F4F26303105C8
:1031100091F71092670E8091200B80939C0980910B
:10312000210B80939D0910929E0920E030E0F90167
:10313000EF5EF54FD901AB50B54F9D968C918083D2
:103140002F5F3F4F2F30310591F71092200A20E07A
:1031500030E0F901EF57F84FD901AB50B54FDC968D
:103160008C9180832F5F3F4F2630310591F710926D
:10317000870720E030E0F901EB5AFA4FD901A95C4A
:10318000B44F8C9180832F5F3F4F2830310599F7E2
:1031900010925D0520E030E0F901E557F24FD901CA
:1031A000A15CB44F8C9180832F5F3F4F2830310555
:1031B00099F71092930D8091470B80936A051092B6
:1031C0006B0520E030E0F901E452FB4FD901A85B28
:1031D000B44F8C9180832F5F3F4F2930310599F791
:1031E0001092E50408951F93813009F05FC06F329B
:1031F000710521F080912401882321F481E08093DE
:10320000B5014AC06C36710511F0893021F481E0B6
:103210008093BA0141C092E06736790711F08B3094
:1032200021F481E08093B70137C06139710511F055
:10323000873121F481E08093B9012EC0663E71058B
:1032400011F0893321F481E08093BC0125C091E025
:103250006839790711F0833621F481E08093B60153
:103260001BC091E0663B790711F0813521F481E0C4
:103270008093BD0111C06C35710511F08B3521F4BF
:1032800081E08093BE0108C06635710511F085317B
:1032900019F481E08093B8011091BE01113031F42E
:1032A0001092BE010E9479181093AE011F910895EB
:1032B000FC01DC0180E090E202C09D938F5F8617E5
:1032C000E0F3E60FF11D108208956F927F928F92C6
:1032D0009F92AF92BF92CF92DF92EF92FF920F93A5
:1032E0001F93CF93DF93EC014115510561057105E3
:1032F00021F480E38883198248C04A015B0110E011
:1033000000E07724C12C9AECD92E9AE9E92E9BE3B0
:10331000F92E80E3682E8C149D04AE04BF04D0F017
:10332000C501B401A70196010E94BAB8122FC501C8
:10333000B401A70196010E94BAB8AC01CB01DA0131
:103340004C015D01FE01E00FF11D105D10830F5F68
:1033500011E007C0112329F0FE01E00FF11D60828A
:103360000F5F73948AE0781669F0C701B6012AE00E
:1033700030E040E050E00E94BAB8C901DA016C01C7
:103380007D01C9CFC00FD11D1882DF91CF911F9150
:103390000F91FF90EF90DF90CF90BF90AF909F90F4
:1033A0008F907F906F900895DC0120E030E09C9139
:1033B00090539A3008F090E011968C9111978053B9
:1033C0008A3008F080E0FB01E20FF31F8F709295C6
:1033D000907F982B90832F5F3F4F129626303105B8
:1033E00031F70895CF93DF93EB01DB0120E030E06C
:1033F000FC01E20FF31FE0814E2F42954F704A30DF
:1034000010F040E301C0405DEF70EA3010F0E0E3FF
:1034100001C0E05D4C931196EC9311972F5F3F4FE5
:1034200012962630310521F71C86DF91CF91089541
:10343000861708F4865F861B805D08958056860F88
:103440006AE00E9486B8892F805D08958A3010F066
:1034500080E30895805D089580538A3008F080E00D
:103460000895482FFB01181664F4562FDB0190E2F3
:103470009D938A2F851B8417D8F3E40FF11D1082CA
:10348000089580E2808311820895863051F187305B
:1034900070F4833011F1843028F48130C1F082302F
:1034A000C1F419C08430D9F0853099F422C0893034
:1034B000F1F08A3028F48730B1F0883051F415C02B
:1034C0008B30D9F08B30B8F08C3019F418C08AEDFD
:1034D000089580E0089582EC08958FEB089583ECC1
:1034E000089584EB089580EC089581EC089589EDAA
:1034F000089585EC089583EB089584EC08958DE09C
:103500000895BF92CF92DF92EF92FF920F931F9395
:10351000CF93DF93B82E8B01E42E6901F901C081AE
:10352000D1810C0F1D1FFF2407C08B2D0E94451A4F
:10353000F80181938F01F394FE14B8F3CE0DD11DE1
:10354000F601D183C083DF91CF911F910F91FF903E
:10355000EF90DF90CF90BF9008950895089508955B
:103560000895E82F282F2F70822F869586958695AF
:10357000A82FB0E0A155B24F4C91623059F427709A
:1035800081E090E002C0880F991F2A95E2F7482B4E
:103590004C9308956330B1F427708EEF90E001C032
:1035A000880F2A95EAF7E695E695E695F0E0E1556D
:1035B000F24F282F30E02095309535952795822BB6
:1035C0008423808308958F70E82FE695E695E6952D
:1035D000F0E0E155F24F9081292F30E0877002C072
:1035E000359527958A95E2F72130310511F482E06F
:1035F0000895232B11F483E0089580E00895DF936C
:10360000CF9300D000D00F92CDB7DEB7982FE199BD
:10361000FECF27E331E03FBB2EBBE09A8DB3891785
:1036200051F0E199FECF3FBB2EBB9DBB0FB6F89486
:10363000E29AE19A0FBE913019F0923071F408C00D
:10364000198283E08A831B8282E08C831D8205C0FD
:1036500019829A831B829C839D8329E330E0FE01BB
:103660003196E199FECF3FBB2EBBE09A8DB390819E
:10367000891751F0E199FECF3FBB2EBB9DBB0FB622
:10368000F894E29AE19A0FBE2F5F3F4F319680E0A7
:103690002E33380731F70F900F900F900F900F9047
:1036A000CF91DF910895DF93CF93CDB7DEB76297C7
:1036B0000FB6F894DEBF0FBECDBF20919A052F83C1
:1036C00020919B05288720919D052C8320919E05A4
:1036D0002D832091A00529832091A1052A83209183
:1036E000790A2A8720917A0A2B8720917C0A2D87D4
:1036F00020917D0A2E8720917F0A288B2091800AB5
:10370000298B1A8A1F861C861B821E8219862DB75A
:103710003EB7205130400FB6F8943EBF0FBE2DBFCC
:10372000EDB7FEB73196ADB7BEB712969C938E93A8
:10373000119786E593E093838283CE01019695836A
:103740008483CE01049697838683CE010796918762
:103750008087CE010A9693878287CE010D96958742
:103760008487CE014096978786870E94BAB52DB789
:103770003EB7205F3F4F0FB6F8943EBF0FBE2DBF40
:1037800062960FB6F894DEBF0FBECDBFCF91DF912A
:10379000089500D000D000D0EDB7FEB73196ADB798
:1037A000BEB712967C936E9311972DE53DE033835F
:1037B0002283848315820E94BAB58DB79EB7069680
:1037C0000FB6F8949EBF0FBE8DBF08958091D101B2
:1037D000843620F48F5F8093D10102C01092D10112
:1037E00000D000D000D0EDB7FEB731968BEA9DE057
:1037F000ADB7BEB712969C938E9311978DE59DE061
:10380000938382838091D101848315820E94BAB50B
:103810008DB79EB706960FB6F8949EBF0FBE8DBFAC
:103820000895E199FECF80E090E09FBB8EBBE09AC7
:103830008DB300D000D000D0EDB7FEB731962CECA0
:1038400035E0ADB7BEB712963C932E93119725EC99
:1038500030E23383228364E60E947AB8948315822F
:103860000E94BAB58DB79EB706960FB6F8949EBF64
:103870000FBE8DBF0895DF92EF92FF920F931F93BB
:10388000DF93CF93CDB7DEB7EC970FB6F894DEBFDA
:103890000FBECDBF00D000D08E01055F1F4FEDB72A
:1038A000FEB71283018385E393E0948383830E94B0
:1038B000BAB50F900F900F900F9085E190E0B8018E
:1038C00043E150E02EEF32E10E9496B5E0ECDE2EAF
:1038D000D98278EAE72EEA8260E1F62EFB8286E45E
:1038E0008C8388E290E08E010F5F1F4FB80144E0A7
:1038F00050E02EEF32E10E9496B5D982EA82FB8237
:1039000084EB8C838CE290E0B80144E050E02EEF31
:1039100032E10E9496B5E199FECF80E390E09FBB33
:103920008EBB81E08DBB0FB6F894E29AE19A0FBE90
:10393000E199FECF81E390E09FBB8EBB87E08DBB1A
:103940000FB6F894E29AE19A0FBEE199FECF82E3B6
:1039500090E09FBB8EBB85E08DBB0FB6F894E29ADA
:10396000E19A0FBEE199FECF83E390E09FBB8EBB4F
:1039700082E08DBB0FB6F894E29AE19A0FBEE1990E
:10398000FECF84E390E09FBB8EBB1DBA0FB6F894C8
:10399000E29AE19A0FBEE199FECF85E390E09FBBEA
:1039A0008EBB83E08DBB0FB6F894E29AE19A0FBE0E
:1039B000E199FECF86E390E09FBB8EBB1DBA0FB6A8
:1039C000F894E29AE19A0FBEE199FECF87E390E086
:1039D0009FBB8EBB81E08DBB0FB6F894E29AE19A53
:1039E0000FBEE199FECF88E390E09FBB8EBB81E0E4
:1039F0008DBB0FB6F894E29AE19A0FBEE199FECF23
:103A000089E390E09FBB8EBB1DBA0FB6F894E29A93
:103A1000E19A0FBEE199FECF8AE390E09FBB8EBB97
:103A200083E08DBB0FB6F894E29AE19A0FBEE1995C
:103A3000FECF8BE390E09FBB8EBB1DBA0FB6F89410
:103A4000E29AE19A0FBEE199FECF8CE390E09FBB32
:103A50008EBB82E08DBB0FB6F894E29AE19A0FBE5E
:103A6000E199FECF8DE390E09FBB8EBB1DBA0FB6F0
:103A7000F894E29AE19A0FBEE199FECF8EE390E0CE
:103A80009FBB8EBB8CE28DBB0FB6F894E29AE19A95
:103A90000FBEE199FECF8FE390E09FBB8EBB9EE20D
:103AA0009DBB0FB6F894E29AE19A0FBE8CE289832F
:103AB0009A8380E28B838FE28C838DE28D8380E416
:103AC00090E08E010F5F1F4FB80145E050E02EEFF0
:103AD00032E10E9496B581E0898382E08A831B826D
:103AE0001C821D821E821F8285E490E0B80148E09E
:103AF00050E02EEF32E10E9496B58DE490E0B801DF
:103B000048E050E02EEF32E10E9496B5EC960FB6F9
:103B1000F894DEBF0FBECDBFCF91DF911F910F9103
:103B2000FF90EF90DF900895AF92BF92CF92DF9217
:103B3000EF92FF920F931F93DF93CF93CDB7DEB732
:103B40002B970FB6F894DEBF0FBECDBF09E011E092
:103B5000AAE1EA2EABE0FA2E6E010894C11CD11C3A
:103B6000FBE0AF2EB12CAC0EBD1EF601D7018D913E
:103B70008193EA15FB05D9F71B86C801B6014BE016
:103B800050E02EEF32E10E9496B5055F1F4F8AE0AC
:103B900090E0E80EF91E91E00533190731F780E057
:103BA0002B960FB6F894DEBF0FBECDBFCF91DF913D
:103BB0001F910F91FF90EF90DF90CF90BF90AF904B
:103BC0000895FF920F931F93DF93CF93CDB7DEB786
:103BD00028970FB6F894DEBF0FBECDBFF82E8E012A
:103BE0000F5F1F4FC80165E470E048E050E026EF2A
:103BF00032E10E947AB5F8019E01275F3F4F9E2F68
:103C0000901B80818F1519F4892F8F5F05C0319625
:103C1000E217F307A1F780E028960FB6F894DEBF0D
:103C20000FBECDBFCF91DF911F910F91FF900895EF
:103C3000FF920F931F93CF93DF93282FF62E80319F
:103C400008F04EC0E199FECF87E391E09FBB8EBBA9
:103C5000E09A8DB3809361018150823008F4822F05
:103C60000E94E11D8823E1F18150C82FD0E080E15E
:103C70000E9493138E010E5E1E4FF80190819817DB
:103C8000B1F0F0E1FF1621F0FE01EE59FE4FF08297
:103C90008F2D0E9493138E010E5E1E4FF8018083BC
:103CA000F5E1FF16C1F4CE59DE4F888110C0FE0148
:103CB000EE59FE4F81E1F81611F4808108C0F082C0
:103CC0008BE0F81621F0F4E1FF1629F484E10E945C
:103CD0009313F80180831092220181E080931101F7
:103CE000DF91CF911F910F91FF9008951F93DF9364
:103CF000CF93CDB7DEB728970FB6F894DEBF0FBECF
:103D0000CDBF182FCE01019665E470E048E050E089
:103D100026EF32E10E947AB5812F8150873010F072
:103D200080E004C0FE01E10FF11D808128960FB6EE
:103D3000F894DEBF0FBECDBFCF91DF911F910895E4
:103D40000F931F93DF93CF9300D000D000D0CDB757
:103D5000DEB7962F4F702150263008F4522F88235B
:103D6000D9F464E2469FB0011124292F30E080E2AB
:103D700091E0FC012E9FC0012F9F900D3E9F900D62
:103D80001124680F791F86E0589FC0011124680F25
:103D9000791F6D537C4F1CC0813011F564E2469F42
:103DA000B0011124292F30E080E291E0FC012E9F28
:103DB000C0012F9F900D3E9F900D1124680F791F19
:103DC00086E0589FC0011124680F791F6D5F794FFD
:103DD000CE01019646E050E026EF32E10E947AB52E
:103DE000CE010196B8010E94F21926960FB6F894FA
:103DF000DEBF0FBECDBFCF91DF911F910F91089510
:103E0000EF92FF920F931F93DF93CF93CDB7DEB75F
:103E1000AC970FB6F894DEBF0FBECDBF9AA789A7A7
:103E20007CA76BA77A018E01055D1F4FC801BE01FB
:103E30006F5F7F4F26EF32E10E947AB5C801BE0165
:103E4000675D7F4FA7012EEF32E10E9496B5AC96D9
:103E50000FB6F894DEBF0FBECDBFCF91DF911F919B
:103E60000F91FF90EF900895DF92EF92FF920F93E2
:103E70001F93DF93CF9300D000D00F92CDB7DEB762
:103E8000D82E8E010F5F1F4FC80160E470E045E03F
:103E900050E026EF32E10E947AB5ED2D21E030E0CE
:103EA0007801D8018C91D81649F4C90165E070E019
:103EB0000E94A7B8F701E80FF91FE0810F5F1F4FBD
:103EC0002F5F3F4F2630310561F78E2F0F900F90F7
:103ED0000F900F900F90CF91DF911F910F91FF9056
:103EE000EF90DF900895CF92DF92EF92FF920F93C1
:103EF0001F93DF93CF93CDB7DEB764970FB6F894D7
:103F0000DEBF0FBECDBF8E010F5F1F4FC8016CE239
:103F100070E044E050E026EF32E10E947AB578018B
:103F20008E010B5F1F4F6801D7018D917D01B80194
:103F30000E94C3160C5F1F4FEC14FD04A9F7EDB7E8
:103F4000FEB73C970FB6F894FEBF0FBEEDBF31969B
:103F50008BEE99E0ADB7BEB712969C938E931197F6
:103F600081E092E293838283F582E482CE01099616
:103F700097838683CE010D9691878087CE014196E7
:103F8000938782870E94BAB5EDB7FEB73C960FB60D
:103F9000F894FEBF0FBEEDBF64960FB6F894DEBF77
:103FA0000FBECDBFCF91DF911F910F91FF90EF908A
:103FB000DF90CF900895CF92DF92EF92FF920F9310
:103FC0001F93DF93CF93CDB7DEB768970FB6F89402
:103FD000DEBF0FBECDBF8E010F5F1F4FC80168E26D
:103FE00070E044E050E026EF32E10E947AB57801BB
:103FF0008E010B5F1F4F6801D7018D917D01B801C4
:104000000E94C3160B5F1F4FEC14FD04A9F7EDB718
:10401000FEB73C970FB6F894FEBF0FBEEDBF3196CA
:104020008EEB99E0ADB7BEB712969C938E93119725
:104030008DE092E293838283F582E482CE010A9638
:1040400097838683CE010F9691878087CE01449611
:10405000938782870E94BAB5EDB7FEB73C960FB63C
:10406000F894FEBF0FBEEDBF68960FB6F894DEBFA2
:104070000FBECDBFCF91DF911F910F91FF90EF90B9
:10408000DF90CF900895CF92DF92EF92FF920F933F
:104090001F93DF93CF93CDB7DEB72F970FB6F8946A
:1040A000DEBF0FBECDBFE82E8B018F700E94E11DD9
:1040B000882309F42DC18150C82EDD2485E390E0CA
:1040C000C89EF001C99EF00DD89EF00D1124E55751
:1040D000F84F8081080F111DD8012C91CE01019657
:1040E000222369F06DE0269FB001112462557F4FB5
:1040F0004DE050E026EF32E10E947AB510C000D0CA
:1041000000D0EDB7FEB7928381838EEB92E2948369
:1041100083830E94BAB50F900F900F900F90E19992
:10412000FECF80E090E09FBB8EBBE09AFDB200D056
:1041300000D000D0ADB7BEB7119683E49EE0EDB7D6
:10414000FEB7928381838BEB92E213969C938E93BE
:10415000129785E390E0C89E8001C99E100DD89EFD
:10416000100D1124F801E557F84F828114968C93B5
:10417000149715961C920E94BAB5EDB7FEB731960A
:1041800081E69EE0ADB7BEB712969C938E931197D1
:1041900088EB92E293838283C8018257984F95837C
:1041A00084830E94BAB5EDB7FEB7319681E599E0F8
:1041B000ADB7BEB712969C938E93119785EB92E2A2
:1041C00093838283C8018B56984F958384830E9482
:1041D000BAB5EDB7FEB731968DE295E0ADB7BEB793
:1041E00012969C938E93119782EB92E29383828333
:1041F000C8018256984F958384830E94BAB5EDB763
:10420000FEB731968FEC9AE0ADB7BEB712969C938D
:104210008E9311978FEA92E293838283F4821582C0
:104220000E94BAB5EDB7FEB731968CE999E0ADB70B
:10423000BEB712969C938E9311978AEA92E293836B
:104240008283E48215820E94BAB5EDB7FEB731963B
:1042500081E19AE0ADB7BEB712969C938E93119709
:1042600087EA92E293838283CE01019695838483C9
:104270000E94BAB5EDB7FEB7319681E897E0ADB7C9
:10428000BEB712969C938E93119784EA92E2938321
:104290008283C8018955984F958384830E94BAB55B
:1042A000EDB7FEB7319685E595E0ADB7BEB712968E
:1042B0009C938E93119781EA92E293838283C80143
:1042C0008255984F958384830E94BAB5EDB7FEB7A7
:1042D00031968BE89DE0ADB7BEB712969C938E9356
:1042E00011978EE992E2938382830954184F1583C4
:1042F00004830E94BAB51092CF0181E08093C3017C
:10430000EDB7FEB736960FB6F894FEBF0FBEEDBF01
:104310002F960FB6F894DEBF0FBECDBFCF91DF91C1
:104320001F910F91FF90EF90DF90CF900895EF9243
:10433000FF920F931F93DF93CF9300D000D000D054
:10434000CDB7DEB7F82E062F0E94761EE82E0E940B
:10435000E11D182F882399F1013069F0EE2079F1E1
:1043600080E10E9493131150E12FF0E0EE5EFE4FCA
:104370009081981721F566E0F69EB0011124615BEB
:104380007F4FCE01019646E050E026EF32E10E94D9
:104390007AB5EF2DF0E0EF57FE4F8081813019F0B4
:1043A000002329F00CC0013011F4009392018E2DEE
:1043B000BE016F5F7F4F0E94432081E101C082E117
:1043C00026960FB6F894DEBF0FBECDBFCF91DF911A
:1043D0001F910F91FF90EF900895AC01DC010D90BB
:1043E0000020E9F71197A81BB90B20E030E090E01E
:1043F00006C0E40FF51F8081280F311D9F5FE92F54
:10440000F0E0EA17FB07A8F3C9016FEF70E00E9424
:1044100093B8882309F48FEF0895FF920F931F93A9
:10442000DF93CF93CDB7DEB72A970FB6F894DEBFF0
:104430000FBECDBFF82E00D000D08E010F5F1F4FF2
:10444000EDB7FEB71283018388E793E094838383FB
:104450000E94BAB5D8010D900020E9F71197A01B72
:10446000B10B90E00F900F900F900F90980108C043
:10447000E20FF31F80818F1511F481E007C09F5F69
:10448000E92FF0E0EA17FB0798F380E02A960FB6D1
:10449000F894DEBF0FBECDBFCF91DF911F910F917A
:1044A000FF9008950F931F93CF93DF93AC01FB010F
:1044B00001900020E9F731971E2F161BFC01019097
:1044C0000020E9F731970E2F081BDB0160E018C0D0
:1044D0009C91FA018081981789F4ED0120E030E089
:1044E00009C0FA01E20FF31F908189912F5F3F4FBE
:1044F000981721F42017A8F3862F05C06F5F119637
:10450000611730F3812F90E0DF91CF911F910F91D0
:1045100008957F928F929F92AF92BF92CF92DF9237
:10452000EF92FF920F931F93CF93DF935C016B0188
:104530004A01EC0109900020E9F72197C81BD90B2B
:10454000CB32D10510F0CAE2D0E0F4010081118134
:104550007601E00EF11E8AE00E94451A782EF701DE
:10456000808398012F5F3F4FD70190E007C0EA0D8D
:10457000FB1D80818C932F5F3F4F9F5FE92FF0E001
:104580001196EC17FD0798F3622FCA32D10591F00E
:10459000F601E20FF31F4AE250E04C1B5D0B70E2A4
:1045A00003C071932F5F3F4F822F861B90E08417CB
:1045B0009507B8F3F601E20FF31F7082C901019667
:1045C000C80ED91E2DE0F60120830196F4019183D7
:1045D0008083DF91CF911F910F91FF90EF90DF903B
:1045E000CF90BF90AF909F908F907F900895382F7D
:1045F000AB018150863068F5FB0101900020E9F79E
:104600003197E61BF70B7E2FEE2311F420E014C048
:1046100080E090E0632F605DFA01E80FF91FE08110
:104620003A3010F020E301C0262FE21791F0282F36
:104630002F5F0196871780F3622F70E03A3010F0F9
:1046400080E302C0832F805DFA01E60FF71F8083AD
:1046500011820895DC010D900020E9F71197A81B45
:10466000B90B20E030E006C0FC01E20FF31F10821E
:104670002F5F3F4F2A173B07B8F308956F927F9241
:104680008F929F92BF92CF92DF92EF92FF920F9301
:104690001F93DF93CF93CDB7DEB764970FB6F8942F
:1046A000DEBF0FBECDBF7C016A01BB2430E0062F08
:1046B00010E0005310403E010894611C711CB2E0F0
:1046C0008B2E912C8C0E9D1E24C01197A41BB50B14
:1046D000AE0DBF1D8C9190E0C097BC01609FC001E2
:1046E000619F900D709F900D1124232F280F822F12
:1046F0006AE00E947AB8382FF301E40FF51F822F89
:104700000E947AB8905D9083480D591DFA0110827D
:10471000B3944B2D50E0D7010D900020E9F711978D
:10472000AE19BF094A175B0780F2332389F0FE01F7
:104730003196DF010D900020E9F71197AE1BB0E034
:10474000EA0FFB1F305D3083AC0FBD1F12961C9229
:10475000DE011196FD0101900020E9F731979E2FAF
:104760009A1BA90FB11DF60102C08C91819311977C
:10477000AC17BD07D1F7C90ED11CF60110826496A3
:104780000FB6F894DEBF0FBECDBFCF91DF911F9162
:104790000F91FF90EF90DF90CF90BF909F908F9000
:1047A0007F906F900895AC01DC010D900020E9F737
:1047B0001197A81BB90B20E00AC0E40FF51F8081F8
:1047C000922F9F5F8D3211F4892F0895292FE22FA8
:1047D000F0E0EA17FB0788F380E008950E94D323F6
:1047E000811181E00895CF93DF93EC010E94EE23C5
:1047F000813019F5CE010E94D323DE010D900020F7
:10480000E9F71197AC1BB0E090E0A81BB90BAE0123
:10481000480F591F20E030E00AC0BE01620F731F2D
:10482000FA018191AF01FB0180832F5F3F4F2A176F
:104830003B0798F3AC0FBD1F1C92DF91CF910895F9
:10484000AC01272FFC0101900020E9F731977E2F62
:10485000781BA62FB22FFD0101900020E9F73197B8
:10486000E61BE71748F17E1749F5862F922F9C012A
:10487000D90120E030E01DC0FA01E20FF31FE08112
:10488000E053EA3010F060E001C06E2F8C9180534D
:104890008A3010F090E001C0982F961768F0EA3047
:1048A00008F0E0E08A3010F4E81740F02F5F3F4F47
:1048B0001196271708F302C081E0089580E008955B
:1048C000FC0101900020E9F73197E81BDC01AE0FF5
:1048D000B11D90E020E006C08C91803309F42F5F79
:1048E0009F5F11979E17C0F380E02E1709F481E0B7
:1048F0000895CF93DF9320E008C0FB01EC0FFD1F6C
:10490000E491C80FD91FE8832F5FC22FD0E0FB01CD
:1049100001900020E9F73197E61BF70BCE17DF0770
:1049200060F3DF91CF910895AC01DC010D90002080
:10493000E9F71197A81BB90B90E020E030E009C01F
:10494000FA01E20FF31F8081803209F09F5F2F5F31
:104950003F4F2A173B07A0F380E0992309F481E039
:1049600008959C01E199FECF8EE390E09FBB8EBB42
:10497000E09A5DB340E008C0F901E80FF91F8081BB
:10498000851709F410824F5F842F90E0F9010190A0
:104990000020E9F73197E21BF30B8E179F0760F3B6
:1049A0000895CF92DF92EF92FF920F931F93DF93C0
:1049B000CF93CDB7DEB767970FB6F894DEBF0FBEC3
:1049C000CDBF7C01D62EC42E00D000D0ADB7BEB76F
:1049D00012969C938E93119783E094E014969C9387
:1049E0008E9313970E94BAB50F900F900F900F906F
:1049F0008E01095F1F4FC80165E470E048E050E098
:104A000026EF32E10E947AB5F8019E01215F3F4F07
:104A10009E2F901B80818D1511F4892F05C0319632
:104A2000E217F307A9F780E0B5E0BC1508F441C030
:104A300066E0869FB00111246B5A7F4FCE0101962C
:104A400046E050E026EF32E10E947AB58E01015F28
:104A50001F4FFE01EC0DF11D608189E0689FB001E0
:104A6000112464587F4FC80149E050E026EF32E13D
:104A70000E947AB5C8010E94B12400D000D000D0B5
:104A8000EDB7FEB73196ADB7BEB71296FC92EE9277
:104A9000119780E094E093838283158304830E94BE
:104AA000BAB5EDB7FEB736960FB6F894FEBF0FBE97
:104AB000EDBF67960FB6F894DEBF0FBECDBFCF91A6
:104AC000DF911F910F91FF90EF90DF90CF900895AD
:104AD000DF93CF93CDB7DEB72B970FB6F894DEBF39
:104AE0000FBECDBF982F9B01FB01808589838185F7
:104AF0008A8387818B8385818C8386818D83848162
:104B00008E83992319F0913059F40FC0FB018081F5
:104B10008F83818188878281898783818A871B86A9
:104B200090E0AE014F5F5F4F0FC0FB0182818F832A
:104B3000838188871986F4CFF901EA0FFB1FA40F40
:104B4000B51F8C9180839F5FA92FB0E0FA0101907F
:104B50000020E9F73197E41BF50BAE17BF0760F3B0
:104B60002B960FB6F894DEBF0FBECDBFCF91DF916D
:104B70000895CF93DF93EC01FC0101900020E9F749
:104B80003197E81BE230D0F188818033B9F54C2FA2
:104B9000DE0190E08C91803369F411968C9111972D
:104BA000803311F49F5F06C08E3211F08C3241F4D5
:104BB000915006C011968A2F841B8E1758F301C09E
:104BC0009F5F9E1710F09E2F915040E0892F90E03C
:104BD0002E2F30E0281B390BBE01680F791F09C04A
:104BE000FE01EA0FFB1FA60FB71F8C918083118275
:104BF0004F5FA42FB0E0A217B30794F3DF91CF91DA
:104C00000895CF93DF93EC01FC0101900020E9F7B8
:104C100031976E2F681B6230E0F188818032C9F5D0
:104C20004C2FFE0120E090E08081803241F48181B0
:104C3000803221F4222319F49F5F01C021E03196D4
:104C40008E2F841B861780F3392F3F5F20E0432F80
:104C500050E009C0FE01E80FF91FDF01A40FB51FE6
:104C60008C9180832F5F822F90E0FE0101900020C5
:104C7000E9F73197EC1BFD0B8E179F0758F3862F32
:104C8000831B05C0FE01E80FF11D10828F5F8617A0
:104C9000C8F3DF91CF9108950F931F93CF93DF93C4
:104CA000EC01DC010D900020E9F71197A81BB0E0A2
:104CB00020E030E06A2F70E08B0101501040A150DD
:104CC00016C0AB01481B590BFE01E40FF51F3297CC
:104CD0008081803289F4FA013197EC0FFD1F2F5F3C
:104CE0003F4F8081803241F41082BA2FB21B822F55
:104CF00090E0801791072CF3FE01EB0FF11D8081EE
:104D0000803209F410828881803209F41882FE0111
:104D100001900020E9F73197EC1BFD0BEC0FFD1F14
:104D20001082DF91CF911F910F9108951F931091E1
:104D30002E0B20E030E0F901EB50F54FD901AF59CF
:104D4000B24F95968C9180832F5F3F4F2431310570
:104D500091F71092090B81E69DE00E94012620E068
:104D600030E0F901EC5FFA4FD901AB50B54FDC965A
:104D70008C9180832F5F3F4F2832310591F710923D
:104D80002C0584E095E00E944C2620E030E0F901FB
:104D9000E55CFA4FD901A357B44F8C9180832F5F04
:104DA0003F4F2931310599F7109254058BE395E077
:104DB0000E944C268091A60B8093C5041092C604D5
:104DC00020E030E0F901ED52F24FD901A955B44F7E
:104DD0008C9180832F5F3F4F2D30310599F71092D2
:104DE000E00D83ED9DE00E94012620E030E0F90116
:104DF000EE52F54FD901AC54B44F8C9180832F5FA4
:104E00003F4F2A30310599F71092DC0A82ED9AE083
:104E10000E944C2620E030E0F901E45AF64FD90117
:104E2000A254B44F8C9180832F5F3F4F24313105C2
:104E300099F7109270098CE599E00E944C26812F19
:104E40008F521F91089520E030E006C0FC01E20F70
:104E5000F31F10822F5F3F4FFC0101900020E9F704
:104E60003197E81BF90B2E173F0780F30895BF9287
:104E7000CF92DF92EF92FF920F931F93DF93CF9326
:104E8000CDB7DEB76E970FB6F894DEBF0FBECDBFBD
:104E90008C01FC0101900020E9F731972E2F281B8F
:104EA0002617E0F57E010894E11CF11CF701BE2CE9
:104EB00090E301C091938E2F8B198617D8F3462F5C
:104EC00050E0CE010196FC01E40FF51F1082762F11
:104ED000721B6C0130E0241B350B0CC0E72FF0E097
:104EE000D601AE0FBF1FE00FF11FE20FF31F80814D
:104EF0008C937F5F761790F34C0D5D1DDA011C9249
:104F0000F80104C0D7018D917D0181938E2D8B19FD
:104F10008617C0F3060F111DF80110826E960FB6AA
:104F2000F894DEBF0FBECDBFCF91DF911F910F91DF
:104F3000FF90EF90DF90CF90BF9008950F931F9355
:104F4000CF93DF93182F062FEA01CA016DE00E946C
:104F50003727812F0E94E11D482F882339F04150C7
:104F600081E061E0202F8E010E94A01EDF91CF9191
:104F70001F910F9108950F931F93CF93DF93182FD5
:104F8000062FEA01CA016BE00E943727812F0E9499
:104F9000E11D482F882339F0415080E061E0202F47
:104FA0008E010E94A01EDF91CF911F910F91089555
:104FB000EF92FF920F931F93082F7B01CB016AE0C2
:104FC0000E94372700D000D000D0EDB7FEB7319651
:104FD000ADB7BEB71296FC92EE9211978AE693E0B7
:104FE0009383828310E00F70107085E390E09C0142
:104FF000029FC001039F900D129F900D11248954B0
:10500000984F958384830E94BAB58DB79EB7069654
:105010000FB6F8949EBF0FBE8DBF1F910F91FF90EA
:10502000EF900895EF92FF920F931F93082F7B014B
:10503000CB016AE00E94372700D000D000D0EDB746
:10504000FEB73196ADB7BEB71296FC92EE921197AD
:105050008DE693E09383828310E00F70107085E3F8
:1050600090E09C01029FC001039F900D129F900D44
:1050700011248255984F958384830E94BAB58DB7C9
:105080009EB706960FB6F8949EBF0FBE8DBF1F91B8
:105090000F91FF90EF900895AF92BF92CF92DF9261
:1050A000EF92FF920F931F93DF93CF93CDB7DEB7AD
:1050B00065970FB6F894DEBF0FBECDBFD82EC62EB3
:1050C000B42EA22ED8010D900020E9F71197A01B55
:1050D000B10B87E0E82EF12CEC0EFD1EAD30B105D2
:1050E00058F500D000D000D0EDB7FEB73196ADB77F
:1050F000BEB71296FC92EE9211978FEE95E09383D5
:105100008283158304830E94BAB5F70101900020C1
:10511000E9F73197EE19FF096DB77EB76A5F7F4FE8
:105120000FB6F8947EBF0FBE6DBF3C97A0F4C701C9
:105130006CE00E9437270FC08A2F8C50F801E80FCF
:10514000F11DD7019E012D5E3F4F81918D93A217D6
:10515000B307D9F71B8A0B2D0F701A2D115016307B
:1051600008F010E0CE0107967E010894E11CF11CC6
:10517000B7010E94D419DD20D9F484E2089FC00150
:1051800011244C2D50E020E231E0D9014A9F9001DA
:105190004B9F300D5A9F300D1124820F931F26E034
:1051A000129F90011124820F931F8D539C4F1DC09D
:1051B000B1E0DB1609F584E2089FC00111244C2DF3
:1051C00050E020E231E0B901469F9001479F300D49
:1051D000569F300D1124820F931F26E0129F9001DD
:1051E0001124820F931F8D5F994FB70146E050E065
:1051F0002EEF32E10E9496B565960FB6F894DEBFA9
:105200000FBECDBFCF91DF911F910F91FF90EF9017
:10521000DF90CF90BF90AF9008954F925F927F92B2
:105220008F929F92AF92BF92CF92DF92EF92FF92B6
:105230000F931F93DF93CF93CDB7DEB72F970FB6A2
:10524000F894DEBF0FBECDBF772473944E0108944F
:10525000811C911C90E1492E512C4C0E5D1E872D16
:105260000E94E11D882391F1A82EAA94BB24B39437
:105270002AC0F70111927F01E415F505D1F780E00E
:1052800061E04A2D2B2D84010E94A01E80E060E089
:105290004A2D2B2D0E944C28F60111926F01EE151C
:1052A000FF05D1F781E061E04A2D2B2D84010E949A
:1052B000A01E81E060E04A2D2B2D0E944C28B39463
:1052C000F7E0BF1619F064017401D3CF739481E144
:1052D000781629F62F960FB6F894DEBF0FBECDBF15
:1052E000CF91DF911F910F91FF90EF90DF90CF90C2
:1052F000BF90AF909F908F907F905F904F90089558
:10530000AF92BF92CF92DF92EF92FF920F931F93D3
:10531000DF93CF93CDB7DEB729970FB6F894DEBFF2
:105320000FBECDBFA82E00D000D06E010894C11CC6
:10533000D11CEDB7FEB7D282C18282EF95E0948393
:1053400083830E94BAB5EE24E3940F900F900F90E0
:105350000F908E2D0E94E11D8823A9F0B82EBA94DB
:10536000FF24F39480E06A2D4B2D2F2D86010E949F
:105370004C2881E06A2D4B2D2F2D0E944C28F39450
:10538000F7E0FF1679F7E39481E1E81611F7299623
:105390000FB6F894DEBF0FBECDBFCF91DF911F9146
:1053A0000F91FF90EF90DF90CF90BF90AF90089556
:1053B000CF93DF93EC01DC010D900020E9F711970A
:1053C000A81BB90BA61760F48A2F90E3FE01E80F23
:1053D000F11D90838F5F8617C8F3C60FD11D188209
:1053E000DF91CF9108953F924F925F926F927F929B
:1053F0008F929F92AF92BF92CF92DF92EF92FF92E5
:105400000F931F93DF93CF93CDB7DEB7C855D0402E
:105410000FB6F894DEBF0FBECDBF682E67967FAF84
:105420006EAF679769965FAF4EAF69975901FE01FE
:105430003196CE0145961192E817F907E1F7CE01B2
:1054400089961192E817F907E1F7FE01FD96CF0161
:1054500044961192E817F907E1F700D000D000D088
:10546000EDB7FEB731968E010F5F1F4FADB7BEB7D8
:1054700012961C930E93119788EB95E09383828389
:1054800067962EAD3FAD6797358324830E94BAB5EA
:10549000EDB7FEB73196CE014596ADB7BEB71296C1
:1054A0009C938E93119785EB95E093838283699605
:1054B0002EAD3FAD6997358324830E94BAB58DB771
:1054C0009EB706960FB6F8949EBF0FBE8DBFC8015B
:1054D0000E94EE23813021F065961FAE659707C0CC
:1054E000C8010E94F32391E065969FAF65978E01F6
:1054F0000B5E1F4FC8010E94EE23813021F064969D
:105500001FAE649707C0C8010E94F323A1E0649610
:10551000AFAF6497FE013196DF010D900020E9F7EF
:10552000CD0101978E1B9F0BDE015596FD01019069
:105530000020E9F731971E2F1A1B181708F4182FAF
:105540001F5F7E010894E11CF11CC701612F0E94BE
:105550003727F5E1CF2ED12CCC0EDD1EC601612FF1
:105560000E943727F70101900020E9F731977E2E3E
:105570007E18F60101900020E9F731979E2E9C18C5
:10558000C601B7010E942024813011F080E042C0A2
:1055900000D000D000D0EDB7FEB731968E01075D88
:1055A0001F4FADB7BEB712961C930E93119782EBA7
:1055B00095E093838283F582E4820E94BAB5EDB7C9
:1055C000FEB73196ADB7BEB71296FC92EE92119728
:1055D0008FEA95E093838283D582C4820E94BAB514
:1055E000EDB7FEB73196ADB7BEB71296DC92CE924C
:1055F00011978CEA95E093838283158304830E943C
:10560000BAB581E0EDB7FEB736960FB6F894FEBF97
:105610000FBEEDBF662039F5813099F46596FFAD78
:105620006597F13039F464962FAD6497213009F015
:105630009EC142C064963FAD6497313009F08EC17F
:1056400092C165968FAD6597813039F464969FADB0
:105650006497913009F08BC181C16496AFAD6497B6
:10566000A13051F580C1B1E06B1631F5813091F474
:105670006596EFAD6597E13031F46496FFAD6497C0
:10568000F130D1F474C164962FAD6497213009F0E4
:105690006AC164C165963FAD6597313039F464964F
:1056A0008FAD6497813009F059C161C164969FAD97
:1056B0006497913009F057C162961FAE6297E72C4C
:1056C000FF2467010894C108D108AE01435C5F4F15
:1056D0004C0D5D1DCE0101968C010C0D1D1DBE01F2
:1056E000690D711D6C5E7F4F99242C01E9E38E2EAC
:1056F0009AE052C0D8018C9180538A3010F020E09B
:1057000001C0282FFB01308130533A3010F42317A9
:1057100040F08A3008F080E03A3008F030E0831B37
:105720002DC08A3010F4831780F5292D0AC0F601A8
:10573000E21BF109D201AE0FBF1F8C91803329F417
:105740008C922F5F271598F310C0282F20532A30F2
:1057500008F020E0822F81508A3010F080E302C0F0
:10576000822F815DE40DF51D8083F8012081205397
:105770002A3008F020E0892F831B820F8A3010F036
:1057800080E301C0805DDA018C93939441505040D6
:105790000150104061507040971408F4ABCF8E0157
:1057A000035C1F4FE00EF11EF7011082C8010E943A
:1057B000B925F80101900020E9F731973E2F301B01
:1057C000D80120E090E04DE213C0222351F462960C
:1057D000FFAD6297F13029F4F501E90FF11D408327
:1057E0009F5FF501E90FF11D8D9180839F5F2F5F12
:1057F000231758F3F501E90FF11D1082A0C07DE3D6
:10580000E72EF12CEC0EFD1EAE01490D511D4C5E34
:105810005F4F072D10E04801089481089108CE01E0
:1058200001966C01C80CD91C30E020E02C0160E32B
:10583000362E47C0D6019C9190539A3008F090E0E4
:10584000FA01808180538A3008F080E0890F8A3025
:1058500018F4805DD70128C06AE00E947AB89A30B7
:1058600010F090E301C0905DF7019083832F0EC08C
:10587000D401A81BB109F201EA0FFB1F90819053DC
:105880009A3008F079C0993029F430828F5F8715FB
:1058900078F30DC0892F8F5F8A3010F080E302C04B
:1058A000892F8F5CA40DB51D8C9320E001C021E0F1
:1058B0003F5F0894E11CF11C415050400894C1081E
:1058C000D108371508F4B6CF205DDE01DD96FD0165
:1058D000E00FF11F20830C0F1D1FF80116AEFD0114
:1058E00001900020E9F731975E2F5A1B252F30E0F9
:1058F000215030402A0F3B1F40E090E06DE216C07F
:10590000442351F46396FFAD6397F13029F4F50118
:10591000E90FF11D60839F5FF501E90FF11DD901CA
:105920008C9180839F5F4F5F21503040451740F33B
:10593000F501E90FF11D1082C5010E94B925B2E001
:105940006B16E1F467968EAD9FAD679769966EAD65
:105950007FAD6997A5010E94D72C10C0E1E0629647
:10596000EFAF6297ACCE63961FAE639748CFF1E07E
:105970006396FFAF639743CF90E08CCFC85ADF4F59
:105980000FB6F894DEBF0FBECDBFCF91DF911F9150
:105990000F91FF90EF90DF90CF90BF90AF909F90CE
:1059A0008F907F906F905F904F903F9008954F92AF
:1059B0005F926F927F928F929F92AF92BF92CF929F
:1059C000DF92EF92FF920F931F93DF93CF93CDB7A8
:1059D000DEB7A8970FB6F894DEBF0FBECDBF3C016F
:1059E0006B012A010E94B925C6010E94B925D60182
:1059F0000D900020E9F711978A2E8C1800D000D066
:105A00008E010F5F1F4FADB7BEB712961C930E935A
:105A100011978AEA95E014969C938E9313970E94AF
:105A2000BAB5A5E1EA2EF12CEC0EFD1EEDB7FEB7DE
:105A3000F282E18288EA95E0948383830E94BAB57A
:105A4000BB240F900F900F900F90A02E912E082D39
:105A500010E0015010401FC0F801E81BF90BEC0DDD
:105A6000FD1DC3016081A7010E943E23F701019043
:105A70000020E9F73197EE19FF096B2D6E0FC70172
:105A80000E94D82981E06A2D792DA7012A2D392D70
:105A90000E94F329B394F60101900020E9F73197B1
:105AA000EC19FD098B2D90E08E179F07A8F200D00E
:105AB00000D000D0EDB7FEB73196ADB7BEB71296A5
:105AC0005C924E92119785EA95E093838283A4823B
:105AD00095820E94BAB5EDB7FEB736960FB6F89428
