:100000000C9448120C9467120C9467120C946712AB
:100010000C9467120C9467120C9467120C9467127C
:100020000C9467120C9467120C9467120C9467126C
:100030000C9411130C9467120C9467120C946712B1
:100040000C9467120C949F7D0C94AD140C94671261
:100050000C9467120C9467120C9467120C9467123C
:100060000C9467120C9467120C9467120C9467122C
:100070000C9467120C9467120C9460410C946712F4
:100080000C9467120C9467120C9467128C138A13E9
:100090008E13901392139413961398139A139C1320
:1000A0009E13A013A213B013A413B013A613A81386
:1000B000B013AA13AC13AE13B013B013A41396135A
:1000C000B01398139C13A013ED53055417544E54BA
:1000D0007D549354CE540655485550556856745621
:1000E000A656E35600571A575A5763542055BF5621
:1000F000EC546855AC55C855E25530564E5692579B
:10010000A857AD57E65715585A5878589658D058AA
:100110003359775DFB57A05D8D5E495E745EC75EA7
:10012000A75EDE5EF75E095FBA5D125E2F5E435921
:1001300063598A599959B759CE59FA59115A3D5AA2
:100140005D5A8E5A9D5AF65A6D5B815B5C5C5C5CB5
:10015000955BA95BB15BCD5BE15BEE5B055C1C5C19
:100160003A5C5F5C765C8D5CA45CBB5CD25CE95CF9
:10017000005D0F5D265D495D6A9086909990C890FC
:10018000F190649173917C91B891DF9126923092B5
:10019000EB913692969045924B92E394E7940395B7
:1001A000E798E798E798E7984C95E7986C95E79873
:1001B000899512966D9690962F95E7982596A89614
:1001C000E096F8963497449755986598AA98C998F8
:1001D000DB98E198E398DE9AE49AE89AFF9A199BF3
:1001E0001D9B489B629B689B709B739B769B799B36
:1001F0007C9B7F9B839B869B899B919B529DA79D0C
:10020000B69DF89D0A9E1F9E429EF89E029FD6A50F
:10021000619F6EA0BDA003A17BA10CA22FA2F5A29D
:100220001FA3D8A3F1A3FBA469A4ABA495A5C3A560
:10023000D6A501A584A5C8A5CFA538AA3BAADBAA47
:10024000EAAA1DAB2BAB57ABFAAA09AB13AB61AB58
:100250006EAB79AB7CAB7FAB82AB85AB88AB8BAB4A
:100260008EABB0AB9EAB91ABA9ABC5AA496E69741E
:1002700069616C697A652E2E2E200057617463685F
:10028000446F670042726F776E4F757400457874E3
:1002900065726E616C00506F7765724F6E0001067B
:1002A0000206010D020D01140214010802080308E0
:1002B000040801130213020304020F0F01010000DE
:1002C0000000010A020A030A0204030303030304F1
:1002D00003044E2F410047696C626172636F0057DF
:1002E00061796E6520444152540054617473756E97
:1002F0006F004C4700D202D602DF02EA02F2024D42
:10030000722E4269670025640054252E3264252E22
:1003100032642573257325732573257325733A007D
:10032000323025732F25732F25732025733A2573BB
:100330003A2573002573002573002563252E32644A
:100340003A004354535250003A00466D74544D6F76
:100350006E65793A257300466D744D6F6E65793A16
:10036000257300544D6F6E65793A25730054566FAE
:100370006C756D653A2573004D6F6E65793A25731E
:1003800000566F6C756D653A25730052656D6F761A
:1003900065643A2573004D696E75733A2573005292
:1003A00061773A257300466F726D617465643A2512
:1003B00073002573002573002573002573004461C5
:1003C00074613A2573004E2F4100257300002564A7
:1003D0002E2573257325730025642E25732573251B
:1003E000732573257300544F54414C202573257396
:1003F00000544F54414C20257325732573257300F9
:1004000025732573002573257325732573002573C4
:100410002D2D2D2D2D2D2D2D2D2D2D20202020204D
:1004200020202020202020202020200025732D2D7A
:100430002D2D2D2D2D2D2D2D2D2020202D2D2D2D13
:100440002D2D2D2D2D2D2D2D2D004177616C203A38
:1004500025732573004177616C203A257325732538
:1004600073257300416B6869723A257325730041E7
:100470006B6869723A2573257325732573005025BF
:10048000642E2564202D20257320005025642E2500
:1004900064202D2025732025732025730048617268
:1004A00067613A2052702E2573004E2F410050553F
:1004B0004D502D50524F44554354202020564F4C00
:1004C000554D45284C292020202020202020202068
:1004D000202020200050554D502D50524F44554360
:1004E00054202020564F4C554D45284C2920202083
:1004F000205255504941482852502900416B6869A3
:1005000072205368696674203A2025732000417771
:10051000616C20205368696674203A20257320009E
:100520005465726D696E616C204944203A20252E15
:100530003264202020202020202020202020202065
:1005400020202020200020202020202020204C615E
:10055000706F72616E20547574757020536869668F
:10056000743A2025732020202020200025640025B7
:1005700073003000300025730025730025730025BB
:100580007300257300412B423A257300496E423AAD
:10059000257300496E423A5F00496E413A25730067
:1005A000496E413A5F004F7065726174696F6E20E9
:1005B0004D756C7469706C79002573003030303083
:1005C00030303030004F70657261746F723A2025A0
:1005D00073002D2D2D2D2D2D2D2D2D2D2D2D2D2D32
:1005E0002D2D2D2D2D2D2D2D2D2D2D2D2D2D2D2D3B
:1005F0002D2D2D00202020202020202020202020F4
:1006000020202020202020202020202020202020EA
:1006100020202020202020002020202020202020FA
:1006200020202020204455504C494341544520432C
:100630004F50592020202020202020002020202042
:10064000204F70657261746F723A2025730020200C
:1006500020202D2D2D2D2D2D2D2D2D2D2D2D2D2DE4
:100660002D2D2D2D2D2D2D2D2D2D2D2D2D2D2D2DBA
:100670000020202020205375726368617267652016
:10068000416D743A2025730020202020205375727C
:10069000636861726765204473633A2025730020A4
:1006A0002020202D2D2D2D2D2D2D2D2D2D2D2D2DA1
:1006B0002D2D2D2D2D2D2D2D2D2D2D2D2D2D2D2D6A
:1006C0002D0020202020204D6F6E746820436F6E17
:1006D000732041203A2052702E25730020202020C4
:1006E000204D6F6E746820436F6E732056203A2041
:1006F0002573204C002020202020546F74616C2032
:1007000052656465656D203A202573002020202005
:1007100020457870697279202020202020203A20FE
:1007200025730020202020204375727220506F69AD
:100730006E747320203A2025730020202020205042
:1007400072657620506F696E747320203A2025738D
:100750000020202020204761696E20506F696E7450
:100760007320203A202573002020202020436F7220
:1007700070204E616D65202020203A2025730020D6
:1007800020202020436F7270204944202020202008
:10079000203A20257300202020202043617264200D
:1007A000486F6C64657220203A2025732000202059
:1007B00020202043617264204944202020202020F2
:1007C0003A202573002020202020202020204C4F7C
:1007D00059414C545920494E464F524D4154494F6E
:1007E0004E20202020202000202020202D2D2D2DC7
:1007F0002D2D2D2D2D2D2D2D2D2D2D2D2D2D2D2D29
:100800002D2D2D2D2D2D2D2D2D2D00202020202E78
:100810002573002020202054616E64612054616E95
:1008200067616E2020285F5F5F5F5F5F5F5F5F5F74
:100830005F5F5F5F290020202020202020202020D3
:1008400020202020202020202020202000202020C8
:100850002020202020202020202020202020202098
:1008600020202000202020202020202020202020A8
:1008700020202020200020200020202020417070F7
:100880007220436F64653A20257300257320200091
:10089000202020204E616D6120202020203A20253C
:1008A0007300202020202020202020202A2A2A20F7
:1008B00050554D502054455354202A2A2A20202098
:1008C000202020200020202020566F75636865724C
:1008D000204E6F3A20257300202020204B61727437
:1008E00075204944203A20257300202020202D2DFA
:1008F0002D2D2D2D2D2D2D2D2D2D2D2D2D2D2D2D28
:100900002D2D2D2D2D2D2D2D2D2D2D2D002020206B
:100910002020204F646F6D65746572202020203A7E
:10092000202573002020202020204E6F2E506F6C39
:100930006973692020203A202573000020202020A0
:1009400020204A6D6C2052757069616820203A2021
:1009500052702E2573002020202020204A6D6C200C
:100960004C697465722020203A202573204C0000C9
:1009700020202020202048617267612F4C202020F9
:1009800020203A2052702E25730020202020202085
:1009900050726F64756B2020202020203A20257330
:1009A0000020202020202050756C61752F506F6D25
:1009B0007061203A205B25735D2D25730020202077
:1009C000202D2D2D2D2D2D2D2D2D2D2D2D2D2D2D64
:1009D0002D2D2D2D2D2D2D2D2D2D2D2D2D2D2D0074
:1009E00020202020202057616B74753A2025732029
:1009F0002573200020202020202053686966743A47
:100A000020257320204E6F2E5472616E733A20257C
:100A100073200020002020202020202020202020C3
:100A200020204455504C494341544520434F505990
:100A30002020202020202020004572726F72204E3E
:100A40006F20436F6E6E656374696F6E0050726FD6
:100A50007365730053656E642052657175657374B8
:100A6000005B2A5D43616E63656C2020205B235D23
:100A7000456E746572005B2A5D4261636B202020C5
:100A800020205B235D456E746572005B2A5D4361C7
:100A90006E63656C20205B235D456E74657220007B
:100AA0004F646F6D657465723A5F2000506C6174BD
:100AB000204E6F3A20257320005B2A5D43616E63F0
:100AC000656C2020205B235D456E746572005B2A97
:100AD0005D4261636B20202020205B235D456E74A6
:100AE0006572005B2A5D43616E63656C20205B2349
:100AF0005D456E74657220005F00496E70757420EC
:100B0000506C6174204E6F3A200023295361766542
:100B10000034295465726D49443A256420002564E7
:100B200000256400232953617665003429546572D9
:100B30006D49443A2564200033294E6F746966205C
:100B40003A20202020202A2945786974003229443F
:100B50002F542020203A0031294D6F6E6579203ABC
:100B600000252E326400256400252E3264002564A1
:100B7000003429437574203A20202A294578697465
:100B80000033294C6F676F3A202023295361766523
:100B900000322953697A653A2020362953706163FF
:100BA00065203A003129547970653A20203529535F
:100BB00063726F6C6C3A002A2943616E63656C2026
:100BC00020202020202329536176650054494D457B
:100BD000203A200044415445203A20002564002555
:100BE00064002A29457869742020202020202020B4
:100BF0002329536176650032294E323A2020342968
:100C00004E343A202036294E363A0031294E313AB8
:100C1000202033294E333A202035294E353A0050D2
:100C2000726F6475637420464950252E3264004308
:100C30006F6D706C657465640043616E63656C20F4
:100C4000202020200049645B25645D3D252E326410
:100C5000202000536176696E672E2E002D50756D31
:100C60007049442D00202020204E6F7420416C6C70
:100C70006F77656420202020200020204475706C50
:100C800069636174652050756D70494420200020AF
:100C900020202020205761726E696E67212020205D
:100CA0002020200025642E50252E3264207C202513
:100CB000642E50252E326400232953617665002A64
:100CC000294261636B0025642E50252E3264207CFE
:100CD0002025642E50252E326400252E32640025F6
:100CE0002E3264003429343A2020203829383A2022
:100CF00020202A2945786974003329333A2020209E
:100D00003729373A2020202329536176650032297C
:100D1000323A2020203629363A003129313A202033
:100D2000203529353A005B2A5D4578697420205BBF
:100D3000235D4368616E6765200025642E2573007E
:100D40002D44697370656E736572204272616E64C2
:100D50002D002A294578697400322950726F647514
:100D600063740031294944002A29457869740025B3
:100D7000642E50252E3264207C2025642E50252E92
:100D800032642000252E3264005B2A5D4578697448
:100D900000362E4163743A256400352E446C793A4E
:100DA000256400342E54696D506F6F6C3A256400D1
:100DB000332E54727953656E643A256400322E6E78
:100DC0004E6F50756D703A256400312E4D6178502C
:100DD000756D703A2564005B2A5D4261636B20206B
:100DE00020202000434F4D25643A25640020202018
:100DF00020202D42617564726174652D20202020B1
:100E000020005B2A5D4261636B20202020202000AF
:100E1000332E434F4D333A34383500332E434F4D44
:100E2000333A32333200332E434F4D333A54544C1D
:100E300000322E426175647261746500312E4D6F0F
:100E400064653A5374616E64616C6F6E6500312E37
:100E50004D6F64653A536C61766500312E4D6F6459
:100E6000653A4E6F6E6500496E76616C6964204F1D
:100E70006C642050617373776F72640020202020AF
:100E800020204552524F5220202020202020202078
:100E900000496E76616C6964204E657720506173FD
:100EA00073776F7264002020202020204552524F1B
:100EB00052202020202020202020002020205061AF
:100EC0007373776F7264205361766564202020000D
:100ED0002020202020436F6D706C65746564202095
:100EE00020202020005B2A5D43616E63656C20201A
:100EF000205B235D456E746572005B2A5D42616311
:100F00006B20202020205B235D456E746572005BA2
:100F10002A5D43616E63656C2020205B235D456E16
:100F2000746572004E65773A5F20202020202020D3
:100F300020202020202020200056616C69646174EC
:100F4000696E672E2E005B2A5D43616E63656C20BF
:100F500020205B235D456E746572005B2A5D4261F3
:100F6000636B20202020205B235D456E746572003A
:100F70005B2A5D43616E63656C2020205B235D45C9
:100F80006E746572004E65773A5F20202020202025
:100F9000202020202020202020005B2A5D43616E3D
:100FA00063656C2020205B235D456E746572005B79
:100FB0002A5D4261636B20202020205B235D456E0B
:100FC000746572005B2A5D43616E63656C2020204E
:100FD0005B235D456E746572004E65773A5F202035
:100FE00020202020202020202020202020005B2ADC
:100FF0005D43616E63656C2020205B235D456E74EC
:101000006572004F6C643A5F002D41646D696E69D2
:1010100073747261746F722D002D537570657276E2
:1010200069736F722D005B2A5D4261636B20202023
:10103000202000322E41646D696E69737472617490
:101040006F7200312E53757065727669736F72001E
:101050002D4368616E67652050617373776F7264AA
:101060002D00536176656420005B2A5D43616E63E9
:10107000656C2020205B235D456E746572005B2AE1
:101080005D4261636B20202020205B235D456E74F0
:101090006572005B2A5D4E6F202020205B235D5926
:1010A000657300536176653F004E6577204F70652C
:1010B0007261746F723A002573005B2A5D43616E42
:1010C00063656C2020205B235D456E746572004E65
:1010D0006577203A5F20202020202020202020201B
:1010E000202020004E616D653A002573005B2A5D6B
:1010F0004261636B2020202020202020202000320D
:101100002E4368616E67652050617373776F7264F8
:1011100000312E4368616E6765204F70657261749F
:101120006F72002A294261636B00342E5370617222
:1011300061746F723A25632000332E446563696DD4
:10114000616C203A25632000322E542E4D6F6E655F
:1011500079203A25642000312E542E566F6C756D1F
:10116000653A25642020352E54657374005B2A5D32
:101170004261636B20205B235D4E65787400332EE3
:101180004D6F6E6579203A256400322E566F6C756E
:101190006D653A256400312E5072696365203A25E9
:1011A000640034294272616E6420202A29457869DE
:1011B000740033294C6162656C2020003229507222
:1011C0006F64756374003129494420202020200079
:1011D0002A294261636B2020202023294F4B2020A5
:1011E00020202020004E65773A5F004F6C643A253E
:1011F00073002A294261636B2020202023294F4B52
:10120000202020202020004E65773A5F0045646949
:10121000742050726F64756374204E616D65202078
:1012200020004F6C643A2573002A294261636B20C9
:101230002020202020200032292573003129257309
:10124000002A294261636B002564292573002A293D
:101250004261636B2020202020202020202020209D
:10126000202000332950756D70506F6F6C696E6768
:101270002020202020202000322953797374656DAE
:101280002020202020202020202020200031294F35
:1012900070657261746F7220202020202020202031
:1012A000200034294461746574696D65202A2945DC
:1012B000786974202020003329446563696D616C6E
:1012C000202037294E65787420202000322950755F
:1012D0006D7020202020203629486F737420202034
:1012E00000312950726F6475637420203529507263
:1012F000696E746572002E00256400202020002E87
:1013000000256400202020005B2A5D63616E636518
:101310006C20205B235D6E6578742020004E65771D
:101320003A2020205F2E2020202E2020202E20203A
:1013300020004F6C643A2025642E25642E25642EEF
:10134000256400536572766572204950002E002591
:101350006400202020002E00256400202020005B57
:101360002A5D63616E63656C20205B235D6E65782A
:10137000742020004E65773A2020205F2E20202008
:101380002E2020202E202020004F6C643A2025643F
:101390002E25642E25642E256400436C69656E74C9
:1013A0002049500025732573005B2A5D4E6F205B3A
:1013B000235D596573005361766520466F6F7465D0
:1013C000722564203F005B2A5D4E6F20205B235D09
:1013D00059657300416C69676E2043656E74657270
:1013E0003F005B2A5D4261636B20205B235D4F4BB6
:1013F000004564697420466F6F746572256420002F
:101400002A294578697420202020202020202020AF
:1014100020202020002020202020202020202020EC
:10142000202020202020202020003229466F6F74A9
:1014300065723220203429466F6F74657234003132
:1014400029466F6F7465723120203329466F6F749F
:101450006572330025732573005B2A5D4E6F205B38
:10146000235D596573005361766520486561646545
:10147000722564203F005B2A5D4E6F20205B235D58
:1014800059657300416C69676E2043656E746572BF
:101490003F005B2A5D4261636B20205B235D4F4B05
:1014A00000456469742048656164657225642000A4
:1014B0002A294578697420202020202020202020FF
:1014C0002020202000332948656164657233202084
:1014D0003629486561646572360032294865616461
:1014E00065723220203529486561646572350031A6
:1014F000294865616465723120203429486561643A
:10150000657234002A294578697400332950617363
:1015100073776F726420202020202020202020005C
:101520003229466F6F7465722020202020202020F1
:101530002020202000312948656164657220202028
:10154000202020202020202020003229466F6F7488
:10155000657220202020352953657276657200312E
:1015600029486561646572202020203429436C6914
:10157000656E7400536176696E672053686966749E
:10158000446174612E2E2000257320257300507253
:10159000696E74696E6720546F74616C697A6572E4
:1015A0000043616E63656C004572726F72202D207E
:1015B0004E6F2050756D703A256420005761697434
:1015C0002050756D703A2564200057616974205071
:1015D000756D703A25642000546F74616C697A658A
:1015E000722E2E002A294578697400332E4C6F63C1
:1015F0006B2050756D70202000322E436C6F736528
:1016000020446179202000312E436C6F7365205394
:101610006869667400342953657474696E67732051
:1016200020202A294578697420003329436C6F7380
:1016300065446179202020202020202020200032B5
:1016400029436C6F736553686966742020202020DD
:1016500020202000312952655072696E74202020AC
:1016600020202020202020200050617373776F728B
:101670006420526573746F72656400496E76616CA4
:10168000696420526573746F7265202000303030B9
:101690003030003131313131005B2A5D43616E639E
:1016A000656C2020205B235D456E746572005B2AAB
:1016B0005D4261636B20202020205B235D456E74BA
:1016C0006572005B2A5D43616E63656C2020205B60
:1016D000235D456E746572005F202020202020204D
:1016E00020202020202020202020202000456E7453
:1016F000657220526573746F726520436F64652054
:1017000020004B6579205374616D703A2573200079
:10171000496E76616C696420436F646520202020E7
:101720002020202000002573002573005B2A5D43E4
:10173000616E63656C2020205B235D456E7465726D
:10174000005B2A5D4261636B20202020205B235DCB
:10175000456E74657200005B2A5D43616E63656C63
:101760002020205B235D456E746572005F20202081
:101770002020202020202020202020202020202069
:1017800000456E7465722047654E69557320436F3E
:101790006465202020005B2A5D4578697420202044
:1017A0002020202020202020202000322E4368618D
:1017B0006E67652050617373776F7264202020001C
:1017C000312E526573746F72652050617373776F39
:1017D00072642020002D53797374656D2041646D0F
:1017E000696E204C6576656C2D0025732573002588
:1017F00073002563003230257300257300343236C0
:1018000034363336005B2A5D43616E63656C20209D
:10181000205B235D456E746572005B2A5D426163E7
:101820006B20202020205B235D456E746572005B79
:101830002A5D43616E63656C2020205B235D456EED
:10184000746572005F0050415353574F52443A0041
:101850004163636573732044656E69656400544336
:10186000502F4950204572726F72004E6F205265A2
:10187000706C7920202020002020202020202000B3
:10188000506C656173652057616974002573005061
:10189000554D5020544553540025730025730025A1
:1018A000730025730025730050726F736573002DEC
:1018B0004D4F5020566F75636865722D0050726FE2
:1018C0007365730049443A2573005B2A5D42616386
:1018D0006B202020205B235D4578697400464950C9
:1018E000257300546170204B617274752052464913
:1018F00044005B2A5D43616E63656C2020205B239E
:101900005D456E746572005B2A5D4261636B2020E9
:101910002020205B235D456E746572005B2A5D4369
:10192000616E63656C2020205B235D456E7465727B
:10193000005375726368617267653A2020205F25E5
:10194000002573005B2A5D4261636B0025642E25D0
:10195000730053656C6563742042616E6B005B2A93
:101960005D43616E63656C2020205B235D456E7472
:101970006572005B2A5D4261636B20202020205B42
:10198000235D456E746572005B2A5D43616E63651D
:101990006C2020205B235D456E746572005F004BF8
:1019A0006F646520566F7563686572005B2A5D42DF
:1019B00061636B2020202020202020202020202058
:1019C00000322E42616E6B20202020342E50756D27
:1019D000705465737400312E4163636F756E7420AB
:1019E000332E566F75636865722000202020536582
:1019F0006C656374205061796D656E7420202000E1
:101A000043524544495443415244005B2A5D42617C
:101A1000636B202020202020202020202020200058
:101A2000322E437265646974204361726420202001
:101A30002020202000312E44656269742F466C619D
:101A40007368204361726420200053656C65637481
:101A500020436172642054797065004E6F20436F9B
:101A60006E6E656374696F6E005443502F49502049
:101A70004552524F522000507265737320416E7967
:101A8000204B657900436D20566F6C3A25730043F7
:101A90004D20416D743A257300506F696E74733A2E
:101AA00025730025733A25730050726F73657300B8
:101AB00049443A2573005B2A5D4261636B20202014
:101AC000205B235D4578697400546170204B61721E
:101AD00074752052464944005B2A5D4261636B2065
:101AE0002020205B235D4578697400546170204B91
:101AF000617274752052464944004649503A257334
:101B0000005B2A5D4261636B202020202020202082
:101B1000202000322E4C6F79616C747920557064EE
:101B20006174652000312E456E71756972792020CF
:101B30002020202020200020204D656E75204C6F35
:101B400079616C7479202020004E6F20436F6E6E97
:101B5000656374696F6E005443502F49502045529D
:101B6000524F5220005B2A5D4261636B202020208F
:101B70005B235D457869740054617020537570650E
:101B8000727669736F72204361726400526550729D
:101B9000696E74204649503A257320005469646187
:101BA0006B20416461205472616E73616B736920B4
:101BB000004163636573732044656E696564002545
:101BC0002E3264002A29457869740023294F4B205E
:101BD000002020202020004649503A5F0025642E36
:101BE000502573207C2025642E502573003032252B
:101BF00073257325732573257325732573003000B2
:101C000020202020202020202020202020202020D4
:101C1000202020200023257300252E32640040461A
:101C200049503A0020202020202020202020202061
:101C30002020202020202020005072696E74696EC0
:101C4000672046495025732000443A256420433AD2
:101C500025632020002573202573004E6F205075CA
:101C60006D7020466F756E64005443502F495020AC
:101C70004572726F720050756D70466F756E6400BC
:101C8000436F6E6E65637465640020202020202001
:101C9000202020202020202020202020200025730C
:101CA000005363616E2050756D7000436F6E6E65FA
:101CB000637420202020202020202000436F6E6E9F
:101CC00065637400436F6E6E65637420202020206E
:101CD0002020202000434F4D25643A2569202020F4
:101CE000202020202020202000496E697469616C2A
:101CF000697A6520434F4D202E2E2E000A47654EEF
:101D0000695573205469636B6574205072696E74F1
:101D10006572200A2056657273696F6E3A25730AE0
:101D2000204C6173742055706461746520257320A4
:101D30000A2048616E696E646F204175746F6D6131
:101D400074696F6E20536F6C7574696F6E73200ABF
:101D5000207777772E68616E696E646F67726F7532
:101D6000702E636F6D0A0A0A0A0A0A0A0A003134E1
:101D70002F30322F3230313100322E33360025737E
:101D80002573257325733938252E32644639363844
:101D900043464642004675656C696E672040464979
:101DA000503A232564005472616E73616B7369202D
:101DB00053656C657361690049443A2025730025B9
:101DC0007300502573202573200046495020546924
:101DD00064616B205369617020202020004175747C
:101DE000686F7269736173692042657268617369B3
:101DF0006C00417574686F72697361736920476123
:101E000067616C202020002020202020202000203E
:101E100020202020202020202020202020202020C2
:101E2000202020004D6F686F6E2054756E676775B7
:101E30002020202020202020002573005025732002
:101E40002573200043616E63656C205472616E736C
:101E5000616374696F6E2020005B2A5D4261636B71
:101E6000205B305D455343205B235D4F4B00257362
:101E700020002046756C6C002573202025732000FF
:101E800049443A20257300257320005B2A5D426196
:101E9000636B20205B235D4F4B202020004F646F3D
:101EA0006D657465723A5F20202020202020002577
:101EB00073200020202573202573200050756D703D
:101EC0002050726F6475637420416D6F756E74007D
:101ED00050756D702050726F6475637420566F6C0E
:101EE000756D6500202054616E6B002020257320E5
:101EF0002573200050756D702050726F6475637487
:101F000020202046756C6C005B2A5D4261636B206B
:101F1000205B235D4F4B202020202020005B325D82
:101F2000416D6F756E743A5F2020202020202020A4
:101F300020002020202020202020202020202020C1
:101F4000202020202020005025732D257320005BA9
:101F50002A5D4261636B20205B235D4F4B20202074
:101F60002020200020202020202020202020202091
:101F70002020202020202020005B315D566F6C75D2
:101F80006D653A5F20202020202020202000502551
:101F9000732D257320004100410056005B2A5D42ED
:101FA00061636B202020205B235D4E6578742020C8
:101FB000005B325D416D6F756E7420202020202003
:101FC0002020202020005B315D566F6C756D6520F0
:101FD00020202020202020202020005025732D2587
:101FE0007320002573005B2A5D4261636B20202013
:101FF0002020202020202020202000202020202001
:102000000025642E257300257300506F6D70612DBF
:10201000257300252E326400252E3264005B2A5D74
:10202000426174616C202020202020205B235D4FC2
:102030004B0025732025730025730025730025733D
:10204000004B617274752054657262617461732013
:10205000202020202000546964616B205465726444
:102060006166746172202020202000446174612028
:102070005265636569766564202020202020200059
:102080005443502F4950204572726F7220202020F7
:10209000202020200053656E64696E6720466169C8
:1020A0006C6564202020202020002020202020207B
:1020B000200050726F7365730049443A2573002005
:1020C00020204C6F63616C204163636F756E7420D8
:1020D000202000252E326400453934343535313224
:1020E00000257325730025732573257325733934F3
:1020F0000045393434353531320025732573257365
:1021000000257325732573257300257325732573A7
:102110002573393200453934343535313200257371
:1021200025730025732573257325733930002564C5
:102130004630303030303030453132333435364649
:102140004646464625734539343435353132002507
:1021500073257325642573257300257325732573F3
:102160002573353800414639363843464642002506
:1021700073002573353600257325732573004639A2
:102180003638434646420025732573002573257370
:10219000257325730025732573257325733332004A
:1021A0002573257346393638434646420025732544
:1021B00073257325733238002573257346393638F5
:1021C0004346464200257325732573257332340038
:1021D0002573463936384346464200257325732514
:1021E00073257332320025732573257325733130BF
:1021F00046393638434646420025732573257325F4
:10220000733034257331463936384346464200250B
:10221000732E25732E25732E25730025732E25739B
:102220002E25732E257300257320257300322E333F
:10223000360047654E6955730050726573732061AF
:102240006E79206B65792E2E2020202020005B31B6
:102250005D536C617665205B325D5374616E6461C1
:102260006C6F6E65003E00252E326400252E3264B0
:102270000030003100256400252E326400257300F3
:102280002573002573003C003C4F4B3E0025640045
:102290002564002564003C536176696E673E004CFE
:1022A000656E6774683A2564002573002573002500
:1022B0007300257300257300252E32640025640009
:1022C0002573002573002573002564004E2F4100FF
:1022D000256400257300257300546964616B2041F7
:1022E0006461205472616E73616B73692000546F76
:1022F00074616C697A6572416C6C2020202020002A
:10230000436C656172204461746120546F74616C28
:10231000697A6572002020202020202020202020A3
:1023200020202020200052656164792E2E2E20204E
:102330002020202020202020202000526561647968
:102340002E2E2E2020202020202020202020200083
:102350004E6F20526573706F6E73652E2E20202095
:102360002020202000506C656173652057616974DE
:102370002E2E202020202020200052656164792EFE
:102380002E2E20202020202020202020202000541D
:102390006964616B20416461205472616E73616B8A
:1023A00073692000536564616E6750726F73657363
:1023B00000343335364133314100202020202020A5
:1023C000202020202020202020202020202000202D
:1023D00020202020202020202020202020202020FD
:1023E000202020002020202020202020202020200D
:1023F00020202020202020200020202020202020FD
:1024000020202020202020202020202020003020DC
:102410002E000000312E2C3F21003261626300004B
:10242000336465660000346768690000356A6B6C68
:102430000000366D6E6F0000377071727300387473
:1024400075760000397778797A0030202E00000008
:102450003126402B2D003241424300003344454693
:102460000000344748490000354A4B4C0000364DC7
:102470004E4F00003750515253003854555600000B
:10248000395758595A000204030303030304030491
:1024900011241FBECFEFD0E1DEBFCDBF11E0A0E021
:1024A000B1E0E8E1FFE601E00BBF02C007900D924A
:1024B000AE34B107D9F71DE0AEE4B1E001C01D9222
:1024C000AC3EB107E1F70E94F8120C948AB70C9465
:1024D00000001092C90304B600FE0BC014BE81E0D8
:1024E00061E046E952E00E9412AD81E08093C903A9
:1024F00018C004B601FE06C014BE81E061E04DE8DC
:1025000052E00DC004B602FE06C014BE81E061E0D8
:1025100044E852E004C081E061E04BE752E00E94F1
:1025200012AD14BE80EE9EE220E731E0F901319752
:10253000F1F70197D9F708950E9460AC0E943FAD72
:102540000E94F2150E94691284E061E04CE652E0BC
:102550000E9412AD88EB9BE020E731E0F901319752
:10256000F1F70197D9F79FEF9BBB9ABBDB9A98BB1A
:1025700097BB8DE082BB89E081BB909370008EE0B9
:1025800083B982B91B9A1A989093620080EF809366
:10259000610080E061E00E9458AFBB9AC39ABA988C
:1025A000C29AB998C19A8EB588608EBD87B780618E
:1025B00087BF789488E09DE39BBD8ABD8EB583601C
:1025C0008EBD81E060E00E9472740E94F99B81E000
:1025D0008093020310920303809165008D7F8093A6
:1025E00065000E94484C0E9466780E943FAD0895A5
:1025F0000E949C120E9427AAFDCF9C01E199FECF68
:102600003FBB2EBBE09A8DB308959C01E199FECFAC
:102610003FBB2EBB6DBB0FB6F894E29AE19A0FBE9A
:1026200008951F920F920FB60F9211242F936F935C
:102630007F938F939F9380910203813081F48091E7
:1026400003038F5F80930303863949F410920203DA
:1026500010920303809165008260809365008091F1
:10266000BF01882331F081508093BF01BD9AC59886
:1026700005C098B388B38095892B88BB8091BD0134
:102680008F5F8093BD01809193018F5F8093930151
:10269000209194012F5F20939401822F65E00E9486
:1026A000F1B6992371F483B194E0892783B98091BD
:1026B00095018F5F809395018091B8018F5F809322
:1026C000B801822F6AE00E94F1B6992329F4809123
:1026D000BE018F5F8093BE018091AF0D8F5F8093AD
:1026E000AF0D9F918F917F916F912F910F900FBEA2
:1026F0000F901F90189586E10895E82FF0E0EE31D5
:10270000F10570F5EA5BFF4FEE0FFF1F0590F491A6
:10271000E02D099481E3089585E4089582E3089506
:1027200083E3089584E3089585E3089589E6089591
:102730008EE6089581E6089584E608958FE408956D
:1027400086E4089583E508958DE2089580E508956F
:1027500089E4089586E5089584E5089584E7089559
:1027600088E708958093B90660930A0D81E080930D
:1027700087010895282F823039F481E08093F70291
:102780001092F5021092F4028091F702813069F400
:102790008091F4029091F502FC01EF5AF54F2083ED
:1027A00001969093F5028093F402233041F08091DA
:1027B000F4029091F5028D34910508F49BC01092BB
:1027C000F7023091530A30518091520A2AE0829FD9
:1027D000C0011124380F3093F602333009F065C080
:1027E000E4E5FAE0AEEBBDE081918D938AE0EA3555
:1027F000F807D1F71092C40D80818093CB088181B6
:102800008093CC081092CD083296AAEDBDE081915C
:102810008D938AE0EB36F807D1F71092E90DADEB16
:10282000BCE081918D938AE0EE37F807D1F71092E2
:10283000D00C20E030E0F901ED5EF64FD901AF5A3F
:10284000B54F9D968C9180832F5F3F4F2630310589
:1028500091F71092190920E030E0F901EB59F74F98
:10286000D901AF5AB54FD3968C9180832F5F3F4FDC
:102870002A30310591F710926F0820E030E0F9011D
:10288000ED50F34FD901AF5AB54FDD968C9180834F
:102890002F5F3F4F2E30310591F71092010D81E0EF
:1028A00080939C0180939D010895343019F5E4E5EF
:1028B000FAE0A3E1B9E081918D938AE0EA35F80767
:1028C000D1F710921909A5E6B8E081918D938AE0BD
:1028D000E436F807D1F710926F08A3EFBCE08191BE
:1028E0008D938AE0E237F807D1F71092010D81E06D
:1028F00080939E0108950895982FE3EAF9E080817E
:102900008183319789E0E039F807C9F79F012F5F8C
:102910003F4F918384858230F9F4809192098A3007
:10292000D9F49330C9F4F9013A96A8E8BDE0808162
:102930008D93319789E0E339F807C9F71092900D2C
:1029400081E080939B0180930203109203038091A6
:1029500065008D7F8093650008951F920F920FB6DA
:102960000F9211248F939F939CB18091B401813079
:1029700021F08091B601813051F4933121F481E04E
:102980008093B50104C0913111F41092B5019F916B
:102990008F910F900FBE0F901F90189580E00895B3
:1029A000282F8091F2028936E9F48091F102833474
:1029B000C9F48091F0028F36A9F48091EF028E362F
:1029C00089F48091EE02863669F48091ED028F33AE
:1029D00049F48091EC028D3029F42A3019F482E018
:1029E0008093B20180918801813069F480918C01DB
:1029F00090918D01FC01EF5AF54F20830196909341
:102A00008D0180938C018091EC02843051F420344C
:102A1000E9F481E08093880110928D0110928C017D
:102A200015C0853099F4203589F480918C019091FE
:102A30008D0190938F0180938E0110928D011092E1
:102A40008C011092880181E08093B2018091F102A3
:102A50008093F2028091F0028093F1028091EF0264
:102A60008093F0028091EE028093EF028091ED025C
:102A70008093EE028091EC028093ED022093EC02B1
:102A80000895BD9AC5988093BF01089508958F70E9
:102A9000089582958F700895982F8A3010F4805D84
:102AA00008958A50863010F080E00895892F895C5F
:102AB0000895282FFB01982F92959F709A3018F453
:102AC000892F805D08C0892F8A50863010F080E001
:102AD00002C0892F895C8083922F9F709A3018F4EE
:102AE000892F805D08C0892F8A50863010F080E0E1
:102AF00002C0892F895C818312820895FC01808144
:102B00002AE0829F900111248051820F0895582F4E
:102B1000FB0164E60E94F1B6A82F852F0E94F1B652
:102B2000892F6AE00E94F1B6482F8CE99FEFA89F99
:102B3000802D1124850F26EF3FEF429F902D112409
:102B4000980F543640F0A05DA083405D4183905DB6
:102B50009283138208955B3018F4905D9083118204
:102B6000089520E030E0F901E354F34FD901A8576C
:102B7000B24F8C9180832F5F3F4F2830310599F7FA
:102B80001092C50C0895CF93DF93DB01EC0120E098
:102B900030E007C0FD01E20FF31F899180832F5FB2
:102BA0003F4F2417B8F3A40FB11D1C92DF91CF91B2
:102BB0000895CF93DF93DB01EC01C40FD11D40E0FA
:102BC00050E007C0FD01E40FF51F899180834F5F3E
:102BD0005F4F4217B8F3A20FB11D1C92DF91CF9146
:102BE0000895089581E08093020310920303E5E6BF
:102BF000F0E080818D7F80830895823059F08230AB
:102C000018F0833021F409C020E835E208C020E044
:102C100030E005C020E03BE402C02BE936E1C90109
:102C20000895E199FECF84E491E09FBB8EBBE09ACA
:102C30008DB380934F01E199FECF89E491E09FBB72
:102C40008EBBE09A8DB38093500108950895089546
:102C50000895862708950895882319F0813049F54D
:102C600011C0262F30E0240F311DC9016AE070E049
:102C70000E941EB7482FC9016AE070E00E941EB78B
:102C8000460F18C0662309F461E0442309F441E0CB
:102C9000469F90011124C9016AE070E00E941EB7AE
:102CA000462FC9016AE070E00E941EB7642F482FCA
:102CB000D8CF40E0842F089581E00895FF920F93CC
:102CC0001F93CF93DF93F0904F01EC0100E010E0F1
:102CD00009C08EE00E947D139881981709F41F5F48
:102CE0000F5F21960F15A8F3812FDF91CF911F91D0
:102CF0000F91FF9008950895089581E00895089533
:102D0000FC018081841718F48F5F808308956083AD
:102D10000895FC018081681718F48150808308951C
:102D200040830895582FFB01843600F164E60E9429
:102D3000F1B6482F852F0E94F1B6892F6AE00E94D4
:102D4000F1B6405D40834053805D81838053505D88
:102D50002CE93FEF429F402D1124450F26EF3FEF16
:102D6000829F802D1124840F828310C08A508A355F
:102D700078F480E38083852F6AE00E94F1B6805D5D
:102D80008183852F0E94F1B6905D9283138208950E
:102D90005A3030F480E380838183505D5283138204
:102DA0000895813029F0823019F0833009F080E0F5
:102DB00008950895CF93DF93EB01DA01A80FB91FAF
:102DC00040E050E007C0FE01E40FF51F8D918083C5
:102DD0004F5F5F4F42175307B0F3C20FD31F1882E4
:102DE000DF91CF9108950F931F93CF93DF938C01C1
:102DF000DB01EB01C40FD51F60E070E007C0F801F4
:102E0000E60FF71F808189936F5F7F4F621773070B
:102E1000B0F3A40FB51FA20FB31F1C92DF91CF9187
:102E20001F910F910895FB01E80FF91F808108950C
:102E30008091510A813051F480918E0190918F01DF
:102E40008F9721F48091760A8053089580E0089549
:102E50009091780A20E030E0F901EA53F64FD90169
:102E6000AF5AB54F97968C9180832F5F3F4F243197
:102E7000310591F71092DA0920E030E0F901EB54C6
:102E8000F74FD901AF5AB54FDB968C9180832F5FF6
:102E90003F4F2431310591F71092C90820E030E00E
:102EA000F901E05BF64FD901A056B54F8C918083B4
:102EB0002F5F3F4F2431310599F71092640920E0CC
:102EC00030E0F901E35FF24FD901AC54B54F8C917A
:102ED00080832F5F3F4F2431310599F71092210DE8
:102EE000892F8053089520E030E0F901E354F34F37
:102EF000D901AF5AB54F95968C9180832F5F3F4F84
:102F00002431310591F71092D10C20E030E0F90125
:102F1000ED5CFB4FD901AF5AB54FD9968C918083A8
:102F20002F5F3F4F2E31310591F710925104809160
:102F3000A80A8093990410929A0420E030E0F901E5
:102F4000E759F64FD901A755B54F8C9180832F5F74
:102F50003F4F2830310599F71092710920E030E099
:102F6000F901E357FB4FD901AF54B54F8C918083E2
:102F70002F5F3F4F2A30310599F71092970420E0D8
:102F800030E0F901EC5DF24FD901A554B54F8C91B9
:102F900080832F5F3F4F2A30310599F710922E0D15
:102FA00020E030E0F901ED50F34FD901AB53B54FBC
:102FB0008C9180832F5F3F4F2331310599F7109219
:102FC000060D20E030E0F901E951F34FD901A85294
:102FD000B54F8C9180832F5F3F4F2730310599F794
:102FE0001092EE0C20E030E0F901E653FC4FD901DD
:102FF000A152B54F8C9180832F5F3F4F2430310514
:1030000099F71092CE0380E00895CF93DF938091DB
:10301000760A893511F490E801C090E08091770A32
:10302000893509F490648091780A893509F49062B1
:1030300090618091790A8053813108F4982BC09176
:103040009001D091910120E030E00BC0F901E250F5
:10305000FB4FD901AF5AB54F9C968C9180832F5F5F
:103060003F4F2C173D0790F3C250DB4F1882892F3A
:10307000DF91CF91089520E030E006C0FC01E20F1F
:10308000F31F40832F5F3F4F26173707B8F308958C
:1030900020E030E0F901E254F24FD901AF5AB54FC8
:1030A00095968C9180832F5F3F4F2630310591F7A5
:1030B0001092C40D80917C0A8093CB0880917D0A88
:1030C0008093CC081092CD0820E030E0F901E05C5C
:1030D000F64FD901AF5AB54F9D968C9180832F5FE3
:1030E0003F4F2F30310591F710924F0920E030E02B
:1030F000F901E055F94FD901AF5AB54FDC968C91E3
:1031000080832F5F3F4F2630310591F71092B6062E
:1031100020E030E0F901EC57FB4FD901AD56B54F37
:103120008C9180832F5F3F4F2830310599F71092A3
:103130008C0420E030E0F901E951F34FD901A556A4
:10314000B54F8C9180832F5F3F4F2830310599F721
:103150001092EF0C8091A30A8093990410929A0424
:1031600020E030E0F901E55FFB4FD901AC55B54FE8
:103170008C9180832F5F3F4F2930310599F7109252
:10318000140408951F93813009F05FC06F327105F8
:1031900021F080911401882321F481E08093A10122
:1031A0004AC06C36710511F0893021F481E08093BA
:1031B000A60141C092E06736790711F08B3021F407
:1031C00081E08093A30137C06139710511F0873127
:1031D00021F481E08093A5012EC0663E710511F0B7
:1031E000893321F481E08093A80125C091E06839FA
:1031F000790711F0833621F481E08093A2011BC08E
:1032000091E0663B790711F0813521F481E08093EC
:10321000A90111C06C35710511F08B3521F481E0E5
:103220008093AA0108C06635710511F0853119F443
:1032300081E08093A4011091AA01113031F4109221
:10324000AA010E94481810939A011F910895FC0149
:10325000DC0180E090E202C09D938F5F8617E0F36F
:10326000E60FF11D10820895DC0120E030E09C9112
:1032700090539A3008F090E011968C9111978053FA
:103280008A3008F080E0FB01E20FF31F8F70929507
:10329000907F982B90832F5F3F4F129626303105F9
:1032A00031F70895CF93DF93EB01DB0120E030E0AD
:1032B000FC01E20FF31FE0814E2F42954F704A3020
:1032C00010F040E301C0405DEF70EA3010F0E0E341
:1032D00001C0E05D4C931196EC9311972F5F3F4F27
:1032E00012962630310521F71C86DF91CF91089583
:1032F000861708F4865F861B805D08958056860FCA
:103300006AE00E94FDB6892F805D08958A3010F032
:1033100080E30895805D089580538A3008F080E04E
:103320000895482FFB01181664F4562FDB0190E234
:103330009D938A2F851B8417D8F3E40FF11D10820B
:10334000089580E2808311820895863051F187309C
:1033500070F4833011F1843028F48130C1F0823070
:10336000C1F419C08430D9F0853099F422C0893075
:10337000F1F08A3028F48730B1F0883051F415C06C
:103380008B30D9F08B30B8F08C3019F418C08AED3E
:10339000089580E0089582EC08958FEB089583EC02
:1033A000089584EB089580EC089581EC089589EDEB
:1033B000089585EC089583EB089584EC08958DE0DD
:1033C0000895BF92CF92DF92EF92FF920F931F93D7
:1033D000CF93DF93B82E8B01E42E6901F901C081F0
:1033E000D1810C0F1D1FFF2407C08B2D0E94A51932
:1033F000F80181938F01F394FE14B8F3CE0DD11D23
:10340000F601D183C083DF91CF911F910F91FF907F
:10341000EF90DF90CF90BF9008950895089508959C
:103420000895E82F282F2F70822F869586958695F0
:10343000A82FB0E0A55FB24F4C91623059F42770CD
:1034400081E090E002C0880F991F2A95E2F7482B8F
:103450004C9308956330B1F427708EEF90E001C073
:10346000880F2A95EAF7E695E695E695F0E0E55FA0
:10347000F24F282F30E02095309535952795822BF7
:103480008423808308958F70E82FE695E695E6956E
:10349000F0E0E55FF24F9081292F30E0877002C0A5
:1034A000359527958A95E2F72130310511F482E0B0
:1034B0000895232B11F483E0089580E00895DF93AD
:1034C000CF9300D000D00F92CDB7DEB7982FE199FF
:1034D000FECF27E331E03FBB2EBBE09A8DB38917C7
:1034E00051F0E199FECF3FBB2EBB9DBB0FB6F894C8
:1034F000E29AE19A0FBE913019F0923071F408C04F
:10350000198283E08A831B8282E08C831D8205C03E
:1035100019829A831B829C839D8329E330E0FE01FC
:103520003196E199FECF3FBB2EBBE09A8DB39081DF
:10353000891751F0E199FECF3FBB2EBB9DBB0FB663
:10354000F894E29AE19A0FBE2F5F3F4F319680E0E8
:103550002E33380731F70F900F900F900F900F9088
:10356000CF91DF910895DF93CF93CDB7DEB7629708
:103570000FB6F894DEBF0FBECDBF2091C9042F83D4
:103580002091CA0428872091CC042C832091CD045B
:103590002D832091CF0429832091D0042A83209168
:1035A000A8092A872091A9092B872091AB092D878B
:1035B0002091AC092E872091AE09288B2091AF096C
:1035C000298B1A8A1F861C861B821E8219862DB79C
:1035D0003EB7205130400FB6F8943EBF0FBE2DBF0E
:1035E000EDB7FEB73196ADB7BEB712969C938E93EA
:1035F000119780E293E093838283CE0101969583B5
:103600008483CE01049697838683CE0107969187A3
:103610008087CE010A9693878287CE010D96958783
:103620008487CE014096978786870E9431B42DB754
:103630003EB7205F3F4F0FB6F8943EBF0FBE2DBF81
:1036400062960FB6F894DEBF0FBECDBFCF91DF916B
:10365000089500D000D000D0EDB7FEB73196ADB7D9
:10366000BEB712967C936E93119724E83DE03383A6
:103670002283848315820E9431B48DB79EB706964B
:103680000FB6F8949EBF0FBE8DBF08958091BC0108
:10369000843620F48F5F8093BC0102C01092BC017D
:1036A00000D000D000D0EDB7FEB7319687E09DE0A6
:1036B000ADB7BEB712969C938E93119784E89DE0A8
:1036C000938382838091BC01848315820E9431B4EC
:1036D0008DB79EB706960FB6F8949EBF0FBE8DBFEE
:1036E0000895E199FECF80E090E09FBB8EBBE09A09
:1036F0008DB300D000D000D0EDB7FEB731962BEFE0
:1037000034E0ADB7BEB712963C932E93119723EDDC
:1037100030E23383228364E60E94F1B694831582FB
:103720000E9431B48DB79EB706960FB6F8949EBF2F
:103730000FBE8DBF0895DF92EF92FF920F931F93FC
:10374000DF93CF93CDB7DEB7EC970FB6F894DEBF1B
:103750000FBECDBF00D000D08E01055F1F4FEDB76B
:10376000FEB7128301838FEF92E0948383830E94DC
:1037700031B40F900F900F900F9085E190E0B80159
:1037800043E150E025E033E10E940DB440ECD42E3B
:10379000D98238EAE32EEA8220E1F22EFB8286E427
:1037A0008C8388E290E08E010F5F1F4FB80144E0E8
:1037B00050E025E033E10E940DB4D982EA82FB8219
:1037C00084EB8C838CE290E0B80144E050E025E08B
:1037D00033E10E940DB4E199FECF80E390E09FBBFE
:1037E0008EBB81E08DBB0FB6F894E29AE19A0FBED2
:1037F000E199FECF81E390E09FBB8EBB87E08DBB5C
:103800000FB6F894E29AE19A0FBEE199FECF82E3F7
:1038100090E09FBB8EBB85E08DBB0FB6F894E29A1B
:10382000E19A0FBEE199FECF83E390E09FBB8EBB90
:1038300082E08DBB0FB6F894E29AE19A0FBEE1994F
:10384000FECF84E390E09FBB8EBB1DBA0FB6F89409
:10385000E29AE19A0FBEE199FECF85E390E09FBB2B
:103860008EBB83E08DBB0FB6F894E29AE19A0FBE4F
:10387000E199FECF86E390E09FBB8EBB1DBA0FB6E9
:10388000F894E29AE19A0FBEE199FECF87E390E0C7
:103890009FBB8EBB81E08DBB0FB6F894E29AE19A94
:1038A0000FBEE199FECF88E390E09FBB8EBB81E025
:1038B0008DBB0FB6F894E29AE19A0FBEE199FECF64
:1038C00089E390E09FBB8EBB1DBA0FB6F894E29AD5
:1038D000E19A0FBEE199FECF8AE390E09FBB8EBBD9
:1038E00083E08DBB0FB6F894E29AE19A0FBEE1999E
:1038F000FECF8BE390E09FBB8EBB1DBA0FB6F89452
:10390000E29AE19A0FBEE199FECF8CE390E09FBB73
:103910008EBB82E08DBB0FB6F894E29AE19A0FBE9F
:10392000E199FECF8DE390E09FBB8EBB1DBA0FB631
:10393000F894E29AE19A0FBEE199FECF8EE390E00F
:103940009FBB8EBB8CE28DBB0FB6F894E29AE19AD6
:103950000FBEE199FECF8FE390E09FBB8EBB9EE24E
:103960009DBB0FB6F894E29AE19A0FBE8CE2898370
:103970009A8380E28B838FE28C838DE28D8380E457
:1039800090E08E010F5F1F4FB80145E050E025E049
:1039900033E10E940DB481E0898382E08A831B8237
:1039A0001C821D821E821F8285E490E0B80148E0DF
:1039B00050E025E033E10E940DB48DE490E0B801C1
:1039C00048E050E025E033E10E940DB4EC960FB6DC
:1039D000F894DEBF0FBECDBFCF91DF911F910F9145
:1039E000FF90EF90DF900895AF92BF92CF92DF9259
:1039F000EF92FF920F931F93DF93CF93CDB7DEB774
:103A00002B970FB6F894DEBF0FBECDBF09E011E0D3
:103A100066E7E62E6AE0F62E6E010894C11CD11C02
:103A20005BE0A52EB12CAC0EBD1EF601D7018D9129
:103A30008193EA15FB05D9F71B86C801B6014BE057
:103A400050E025E033E10E940DB4055F1F4F8AE08E
:103A500090E0E80EF91E91E00533190731F780E098
:103A60002B960FB6F894DEBF0FBECDBFCF91DF917E
:103A70001F910F91FF90EF90DF90CF90BF90AF908C
:103A80000895FF920F931F93DF93CF93CDB7DEB7C7
:103A900028970FB6F894DEBF0FBECDBFF82E8E016B
:103AA0000F5F1F4FC80165E470E048E050E02DEF64
:103AB00032E10E94F1B3F8019E01275F3F4F9E2F34
:103AC000901B80818F1519F4892F8F5F05C0319667
:103AD000E217F307A1F780E028960FB6F894DEBF4F
:103AE0000FBECDBFCF91DF911F910F91FF90089531
:103AF000FF920F931F93CF93DF93282FF62E8031E1
:103B000008F04EC0E199FECF87E391E09FBB8EBBEA
:103B1000E09A8DB3809351018150823008F4822F56
:103B20000E94411D8823E1F18150C82FD0E080E13F
:103B30000E947D138E010E5F1E4FF8019081981731
:103B4000B1F0F0E1FF1621F0FE01EE5AFE4FF082D7
:103B50008F2D0E947D138E010E5F1E4FF801808312
:103B6000F5E1FF16C1F4CE5ADE4F888110C0FE0188
:103B7000EE5AFE4F81E1F81611F4808108C0F08200
:103B80008BE0F81621F0F4E1FF1629F484E10E949D
:103B90007D13F80180831092120181E0809301016E
:103BA000DF91CF911F910F91FF9008951F93DF93A5
:103BB000CF93CDB7DEB728970FB6F894DEBF0FBE10
:103BC000CDBF182FCE01019665E470E048E050E0CB
:103BD0002DEF32E10E94F1B3812F8150873010F038
:103BE00080E004C0FE01E10FF11D808128960FB630
:103BF000F894DEBF0FBECDBFCF91DF911F91089526
:103C00000F931F93DF93CF9300D000D000D0CDB798
:103C1000DEB7962F4F702150263008F4522F88239C
:103C2000D9F464E2469FB0011124292F30E080E2EC
:103C300091E0FC012E9FC0012F9F900D3E9F900DA3
:103C40001124680F791F86E0589FC0011124680F66
:103C5000791F6D537C4F1CC0813011F564E2469F83
:103C6000B0011124292F30E080E291E0FC012E9F69
:103C7000C0012F9F900D3E9F900D1124680F791F5A
:103C800086E0589FC0011124680F791F6D5F794F3E
:103C9000CE01019646E050E02DEF32E10E94F1B3F3
:103CA000CE010196B8010E94521926960FB6F894DB
:103CB000DEBF0FBECDBFCF91DF911F910F91089551
:103CC000EF92FF920F931F93DF93CF93CDB7DEB7A1
:103CD000AC970FB6F894DEBF0FBECDBF9AA789A7E9
:103CE0007CA76BA77A018E01055D1F4FC801BE013D
:103CF0006F5F7F4F2DEF32E10E94F1B3C801BE012B
:103D0000675D7F4FA70125E033E10E940DB4AC96BB
:103D10000FB6F894DEBF0FBECDBFCF91DF911F91DC
:103D20000F91FF90EF900895DF92EF92FF920F9323
:103D30001F93DF93CF9300D000D00F92CDB7DEB7A3
:103D4000D82E8E010F5F1F4FC80160E470E045E080
:103D500050E02DEF32E10E94F1B3ED2D21E030E093
:103D60007801D8018C91D81649F4C90165E070E05A
:103D70000E941EB7F701E80FF91FE0810F5F1F4F88
:103D80002F5F3F4F2630310561F78E2F0F900F9038
:103D90000F900F900F90CF91DF911F910F91FF9097
:103DA000EF90DF900895CF92DF92EF92FF920F9302
:103DB0001F93DF93CF93CDB7DEB764970FB6F89418
:103DC000DEBF0FBECDBF8E010F5F1F4FC8016CE27B
:103DD00070E044E050E02DEF32E10E94F1B3780151
:103DE0008E010B5F1F4F6801D7018D917D01B801D6
:103DF0000E9492160C5F1F4FEC14FD04A9F7EDB75B
:103E0000FEB73C970FB6F894FEBF0FBEEDBF3196DC
:103E10008AE199E0ADB7BEB712969C938E93119745
:103E20008FE092E293838283F582E482CE01099649
:103E300097838683CE010D9691878087CE01419628
:103E4000938782870E9431B4EDB7FEB73C960FB6D8
:103E5000F894FEBF0FBEEDBF64960FB6F894DEBFB8
:103E60000FBECDBFCF91DF911F910F91FF90EF90CB
:103E7000DF90CF900895CF92DF92EF92FF920F9351
:103E80001F93DF93CF93CDB7DEB768970FB6F89443
:103E9000DEBF0FBECDBF8E010F5F1F4FC80168E2AE
:103EA00070E044E050E02DEF32E10E94F1B3780180
:103EB0008E010B5F1F4F6801D7018D917D01B80105
:103EC0000E9492160B5F1F4FEC14FD04A9F7EDB78B
:103ED000FEB73C970FB6F894FEBF0FBEEDBF31960C
:103EE0008DEE98E0ADB7BEB712969C938E93119766
:103EF0008BE192E293838283F582E482CE010A967B
:103F000097838683CE010F9691878087CE01449652
:103F1000938782870E9431B4EDB7FEB73C960FB607
:103F2000F894FEBF0FBEEDBF68960FB6F894DEBFE3
:103F30000FBECDBFCF91DF911F910F91FF90EF90FA
:103F4000DF90CF900895CF92DF92EF92FF920F9380
:103F50001F93DF93CF93CDB7DEB72F970FB6F894AB
:103F6000DEBF0FBECDBFE82E8B018F700E94411DBA
:103F7000882309F42DC18150C82EDD2485E390E00B
:103F8000C89EF001C99EF00DD89EF00D1124E65494
:103F9000F94F8081080F111DD8012C91CE01019697
:103FA000222369F06DE0269FB001112462557F4FF6
:103FB0004DE050E02DEF32E10E94F1B310C000D08F
:103FC00000D0EDB7FEB7928381838CEC92E29483AC
:103FD00083830E9431B40F900F900F900F90E1995E
:103FE000FECF80E090E09FBB8EBBE09AFDB200D098
:103FF00000D000D0ADB7BEB711968FE99DE0EDB708
:10400000FEB79283818389EC92E213969C938E9300
:10401000129785E390E0C89E8001C99E100DD89E3E
:10402000100D1124F801E654F94F828114968C93F7
:10403000149715961C920E9431B4EDB7FEB73196D5
:104040008EEB9DE0ADB7BEB712969C938E93119701
:1040500086EC92E293838283C8018354994F9583BF
:1040600084830E9431B4EDB7FEB7319680E898E0C2
:10407000ADB7BEB712969C938E93119783EC92E2E4
:1040800093838283C8018C53994F958384830E94C4
:1040900031B4EDB7FEB731968CE594E0ADB7BEB75D
:1040A00012969C938E93119780EC92E29383828375
:1040B000C8018353994F958384830E9431B4EDB72F
:1040C000FEB731968BE29AE0ADB7BEB712969C93DD
:1040D0008E9311978DEB92E293838283F482158203
:1040E0000E9431B4EDB7FEB731968BEC98E0ADB7D6
:1040F000BEB712969C938E93119788EB92E29383AE
:104100008283E48215820E9431B4EDB7FEB7319606
:1041100080E499E0ADB7BEB712969C938E93119749
:1041200085EB92E293838283CE010196958384830B
:104130000E9431B4EDB7FEB7319680EB96E0ADB793
:10414000BEB712969C938E93119782EB92E2938363
:104150008283C8018A52994F958384830E9431B427
:10416000EDB7FEB7319684E894E0ADB7BEB71296CE
:104170009C938E9311978FEA92E293838283C80176
:104180008352994F958384830E9431B4EDB7FEB773
:10419000319687EE9CE0ADB7BEB712969C938E9396
:1041A00011978CEA92E2938382830A51194F158307
:1041B00004830E9431B41092BA0181E08093AF0170
:1041C000EDB7FEB736960FB6F894FEBF0FBEEDBF43
:1041D0002F960FB6F894DEBF0FBECDBFCF91DF9103
:1041E0001F910F91FF90EF90DF90CF900895EF9285
:1041F000FF920F931F93DF93CF9300D000D000D096
:10420000CDB7DEB7F82E062F0E94D61DE82E0E94ED
:10421000411D182F882399F1013069F0EE2079F1C2
:1042200080E10E947D131150E12FF0E0EE5FFE4F20
:104230009081981721F566E0F69EB0011124615B2C
:104240007F4FCE01019646E050E02DEF32E10E9413
:10425000F1B3EF2DF0E0EF58FE4F8081813019F07F
:10426000002329F00CC0013011F4009382018E2D3F
:10427000BE016F5F7F4F0E94A31F81E101C082E1F9
:1042800026960FB6F894DEBF0FBECDBFCF91DF915B
:104290001F910F91FF90EF900895AC01DC010D90FC
:1042A0000020E9F71197A81BB90B20E030E090E05F
:1042B00006C0E40FF51F8081280F311D9F5FE92F95
:1042C000F0E0EA17FB07A8F3C9016FEF70E00E9466
:1042D0000AB7882309F48FEF0895FF920F931F9375
:1042E000DF93CF93CDB7DEB72A970FB6F894DEBF32
:1042F0000FBECDBFF82E00D000D08E010F5F1F4F34
:10430000EDB7FEB71283018382E493E09483838345
:104310000E9431B4D8010D900020E9F71197A01B3D
:10432000B10B90E00F900F900F900F90980108C084
:10433000E20FF31F80818F1511F481E007C09F5FAA
:10434000E92FF0E0EA17FB0798F380E02A960FB612
:10435000F894DEBF0FBECDBFCF91DF911F910F91BB
:10436000FF9008950F931F93CF93DF93AC01FB0150
:1043700001900020E9F731971E2F161BFC010190D8
:104380000020E9F731970E2F081BDB0160E018C011
:104390009C91FA018081981789F4ED0120E030E0CA
:1043A00009C0FA01E20FF31F908189912F5F3F4FFF
:1043B000981721F42017A8F3862F05C06F5F119678
:1043C000611730F3812F90E0DF91CF911F910F9112
:1043D00008957F928F929F92AF92BF92CF92DF9279
:1043E000EF92FF920F931F93CF93DF935C016B01CA
:1043F0004A01EC0109900020E9F72197C81BD90B6D
:10440000CB32D10510F0CAE2D0E0F4010081118175
:104410007601E00EF11E8AE00E94A519782EF701C0
:10442000808398012F5F3F4FD70190E007C0EA0DCE
:10443000FB1D80818C932F5F3F4F9F5FE92FF0E042
:104440001196EC17FD0798F3622FCA32D10591F04F
:10445000F601E20FF31F4AE250E04C1B5D0B70E2E5
:1044600003C071932F5F3F4F822F861B90E084170C
:104470009507B8F3F601E20FF31F7082C9010196A8
:10448000C80ED91E2DE0F60120830196F401918318
:104490008083DF91CF911F910F91FF90EF90DF907C
:1044A000CF90BF90AF909F908F907F900895382FBE
:1044B000AB018150863068F5FB0101900020E9F7DF
:1044C0003197E61BF70B7E2FEE2311F420E014C08A
:1044D00080E090E0632F605DFA01E80FF91FE08152
:1044E0003A3010F020E301C0262FE21791F0282F78
:1044F0002F5F0196871780F3622F70E03A3010F03B
:1045000080E302C0832F805DFA01E60FF71F8083EE
:1045100011820895DC010D900020E9F71197A81B86
:10452000B90B20E030E006C0FC01E20FF31F10825F
:104530002F5F3F4F2A173B07B8F308956F927F9282
:104540008F929F92BF92CF92DF92EF92FF920F9342
:104550001F93DF93CF93CDB7DEB764970FB6F89470
:10456000DEBF0FBECDBF7C016A01BB2430E0062F49
:1045700010E0005310403E010894611C711C72E071
:10458000872E912C8C0E9D1E24C01197A41BB50B59
:10459000AE0DBF1D8C9190E0C097BC01609FC00123
:1045A000619F900D709F900D1124232F280F822F53
:1045B0006AE00E94F1B6382FF301E40FF51F822F55
:1045C0000E94F1B6905D9083480D591DFA0110824A
:1045D000B3944B2D50E0D7010D900020E9F71197CF
:1045E000AE19BF094A175B0780F2332389F0FE0139
:1045F0003196DF010D900020E9F71197AE1BB0E076
:10460000EA0FFB1F305D3083AC0FBD1F12961C926A
:10461000DE011196FD0101900020E9F731979E2FF0
:104620009A1BA90FB11DF60102C08C9181931197BD
:10463000AC17BD07D1F7C90ED11CF60110826496E4
:104640000FB6F894DEBF0FBECDBFCF91DF911F91A3
:104650000F91FF90EF90DF90CF90BF909F908F9041
:104660007F906F900895AC01DC010D900020E9F778
:104670001197A81BB90B20E00AC0E40FF51F808139
:10468000922F9F5F8D3211F4892F0895292FE22FE9
:10469000F0E0EA17FB0788F380E008950E943323D7
:1046A000811181E00895CF93DF93EC010E944E23A6
:1046B000813019F5CE010E943323DE010D900020D8
:1046C000E9F71197AC1BB0E090E0A81BB90BAE0165
:1046D000480F591F20E030E00AC0BE01620F731F6F
:1046E000FA018191AF01FB0180832F5F3F4F2A17B1
:1046F0003B0798F3AC0FBD1F1C92DF91CF9108953B
:10470000AC01272FFC0101900020E9F731977E2FA3
:10471000781BA62FB22FFD0101900020E9F73197F9
:10472000E61BE71748F17E1749F5862F922F9C016B
:10473000D90120E030E01DC0FA01E20FF31FE08153
:10474000E053EA3010F060E001C06E2F8C9180538E
:104750008A3010F090E001C0982F961768F0EA3088
:1047600008F0E0E08A3010F4E81740F02F5F3F4F88
:104770001196271708F302C081E0089580E008959C
:10478000FC0101900020E9F73197E81BDC01AE0F36
:10479000B11D90E020E006C08C91803309F42F5FBA
:1047A0009F5F11979E17C0F380E02E1709F481E0F8
:1047B0000895CF93DF9320E008C0FB01EC0FFD1FAD
:1047C000E491C80FD91FE8832F5FC22FD0E0FB010F
:1047D00001900020E9F73197E61BF70BCE17DF07B2
:1047E00060F3DF91CF910895AC01DC010D900020C2
:1047F000E9F71197A81BB90B90E020E030E009C061
:10480000FA01E20FF31F8081803209F09F5F2F5F72
:104810003F4F2A173B07A0F380E0992309F481E07A
:1048200008959C01E199FECF8EE390E09FBB8EBB83
:10483000E09A5DB340E008C0F901E80FF91F8081FC
:10484000851709F410824F5F842F90E0F9010190E1
:104850000020E9F73197E21BF30B8E179F0760F3F7
:104860000895CF92DF92EF92FF920F931F93DF9301
:10487000CF93CDB7DEB767970FB6F894DEBF0FBE04
:10488000CDBF7C01D62EC42E00D000D0ADB7BEB7B0
:1048900012969C938E9311978DEC93E014969C93B3
:1048A0008E9313970E9431B40F900F900F900F903A
:1048B0008E01095F1F4FC80165E470E048E050E0D9
:1048C0002DEF32E10E94F1B3F8019E01215F3F4FCD
:1048D0009E2F901B80818D1511F4892F05C0319674
:1048E000E217F307A9F780E0B5E0BC1508F441C072
:1048F00066E0869FB00111246B5A7F4FCE0101966E
:1049000046E050E02DEF32E10E94F1B38E01015FED
:104910001F4FFE01EC0DF11D608189E0689FB00121
:10492000112464587F4FC80149E050E02DEF32E177
:104930000E94F1B3C8010E94112400D000D000D021
:10494000EDB7FEB73196ADB7BEB71296FC92EE92B8
:1049500011978AEC93E093838283158304830E94EA
:1049600031B4EDB7FEB736960FB6F894FEBF0FBE62
:10497000EDBF67960FB6F894DEBF0FBECDBFCF91E7
:10498000DF911F910F91FF90EF90DF90CF900895EE
:10499000DF93CF93CDB7DEB72B970FB6F894DEBF7A
:1049A0000FBECDBF982F9B01FB0180858983818538
:1049B0008A8387818B8385818C8386818D838481A3
:1049C0008E83992319F0913059F40FC0FB01808137
:1049D0008F83818188878281898783818A871B86EB
:1049E00090E0AE014F5F5F4F0FC0FB0182818F836C
:1049F000838188871986F4CFF901EA0FFB1FA40F82
:104A0000B51F8C9180839F5FA92FB0E0FA010190C0
:104A10000020E9F73197E41BF50BAE17BF0760F3F1
:104A20002B960FB6F894DEBF0FBECDBFCF91DF91AE
:104A30000895CF93DF93EC01FC0101900020E9F78A
:104A40003197E81BE230D0F188818033B9F54C2FE3
:104A5000DE0190E08C91803369F411968C9111976E
:104A6000803311F49F5F06C08E3211F08C3241F416
:104A7000915006C011968A2F841B8E1758F301C0DF
:104A80009F5F9E1710F09E2F915040E0892F90E07D
:104A90002E2F30E0281B390BBE01680F791F09C08B
:104AA000FE01EA0FFB1FA60FB71F8C9180831182B6
:104AB0004F5FA42FB0E0A217B30794F3DF91CF911B
:104AC0000895CF93DF93EC01FC0101900020E9F7FA
:104AD00031976E2F681B6230E0F188818032C9F512
:104AE0004C2FFE0190E020E08081803241F48181F2
:104AF000803221F4222319F49F5F01C021E0319616
:104B00008E2F841B861780F3392F3F5F20E0432FC1
:104B100050E009C0FE01E80FF91FDF01A40FB51F27
:104B20008C9180832F5F822F90E0FE010190002006
:104B3000E9F73197EC1BFD0B8E179F0758F3862F73
:104B4000831B05C0FE01E80FF11D10828F5F8617E1
:104B5000C8F3DF91CF9108950F931F93CF93DF9305
:104B6000EC01DC010D900020E9F71197A81BB0E0E3
:104B700020E030E06A2F70E08B0101501040A1501E
:104B800016C0AB01481B590BFE01E40FF51F32970D
:104B90008081803289F4FA013197EC0FFD1F2F5F7D
:104BA0003F4F8081803241F41082BA2FB21B822F96
:104BB00090E0801791072CF3FE01EB0FF11D80812F
:104BC000803209F410828881803209F41882FE0153
:104BD00001900020E9F73197EC1BFD0BEC0FFD1F56
:104BE0001082DF91CF911F910F9108951F93109123
:104BF0008A0A20E030E0F901EF5AF54FD901A354B9
:104C0000B34F95968C9180832F5F3F4F24313105B0
:104C100091F71092650A8DEB9CE00E94612520E0DF
:104C200030E0F901ED5CFB4FD901AF5AB54FDC968E
:104C30008C9180832F5F3F4F2832310591F710927E
:104C40005B0483E394E00E94AC2520E030E0F901AE
:104C5000E659FB4FD901A751B54F8C9180832F5F47
:104C60003F4F2931310599F7109283048AE694E089
:104C70000E94AC258091020B8093F4031092F503FF
:104C800020E030E0F901E15DF24FD901AD5FB44FB2
:104C90008C9180832F5F3F4F2D30310599F7109213
:104CA0003C0D8FE29DE00E94612520E030E0F9019B
:104CB000E25DF54FD901A05FB44F8C9180832F5FE7
:104CC0003F4F2A30310599F71092380A8EE29AE068
:104CD0000E94AC2520E030E0F901E557F74FD901FB
:104CE000A65EB44F8C9180832F5F3F4F24313105F6
:104CF00099F710929F088BE898E00E94AC25812FCD
:104D00008F521F91089520E030E006C0FC01E20FB1
:104D1000F31F10822F5F3F4FFC0101900020E9F745
:104D20003197E81BF90B2E173F0780F30895BF92C8
:104D3000CF92DF92EF92FF920F931F93DF93CF9367
:104D4000CDB7DEB76E970FB6F894DEBF0FBECDBFFE
:104D50008C01FC0101900020E9F731972E2F281BD0
:104D60002617E0F57E010894E11CF11CF701BE2C2A
:104D700090E301C091938E2F8B198617D8F3462F9D
:104D800050E0CE010196FC01E40FF51F1082762F52
:104D9000721B6C0130E0241B350B0CC0E72FF0E0D8
:104DA000D601AE0FBF1FE00FF11FE20FF31F80818E
:104DB0008C937F5F761790F34C0D5D1DDA011C928A
:104DC000F80104C0D7018D917D0181938E2D8B193F
:104DD0008617C0F3060F111DF80110826E960FB6EC
:104DE000F894DEBF0FBECDBFCF91DF911F910F9121
:104DF000FF90EF90DF90CF90BF9008950F931F9397
:104E0000CF93DF93182F062FEA01CA016DE00E94AD
:104E10009726812F0E94411D482F882339F0415049
:104E200081E061E0202F8E010E94001EDF91CF9172
:104E30001F910F9108950F931F93CF93DF93182F16
:104E4000062FEA01CA016BE00E949726812F0E947B
:104E5000411D482F882339F0415080E061E0202F28
:104E60008E010E94001EDF91CF911F910F91089536
:104E7000EF92FF920F931F93082F7B01CB016AE003
:104E80000E94972600D000D000D0EDB7FEB7319633
:104E9000ADB7BEB71296FC92EE92119784E393E001
:104EA0009383828310E00F70107085E390E09C0183
:104EB000029FC001039F900D129F900D11248A51F3
:104EC000994F958384830E9431B48DB79EB706961F
:104ED0000FB6F8949EBF0FBE8DBF1F910F91FF902C
:104EE000EF900895EF92FF920F931F93082F7B018D
:104EF000CB016AE00E94972600D000D000D0EDB729
:104F0000FEB73196ADB7BEB71296FC92EE921197EE
:104F100087E393E09383828310E00F70107085E342
:104F200090E09C01029FC001039F900D129F900D85
:104F300011248352994F958384830E9431B48DB795
:104F40009EB706960FB6F8949EBF0FBE8DBF1F91F9
:104F50000F91FF90EF900895AF92BF92CF92DF92A2
:104F6000EF92FF920F931F93DF93CF93CDB7DEB7EE
:104F700065970FB6F894DEBF0FBECDBFD82EC62EF4
:104F8000B42EA22ED8010D900020E9F71197A01B96
:104F9000B10BE7E0EE2EF12CEC0EFD1EAD30B105AD
:104FA00058F500D000D000D0EDB7FEB73196ADB7C0
:104FB000BEB71296FC92EE92119789EB95E093831F
:104FC0008283158304830E9431B4F701019000208D
:104FD000E9F73197EE19FF096DB77EB76A5F7F4F2A
:104FE0000FB6F8947EBF0FBE6DBF3C97A0F4C7010B
:104FF0006CE00E9497260FC08A2F8C50F801E80FB2
:10500000F11DD7019E012D5E3F4F81918D93A21717
:10501000B307D9F71B8A0B2D0F701A2D11501630BC
:1050200008F010E0CE0107967E010894E11CF11C07
:10503000B7010E943419DD20D9F484E2089FC00131
:1050400011244C2D50E020E231E0D9014A9F90011B
:105050004B9F300D5A9F300D1124820F931F26E075
:10506000129F90011124820F931F8D539C4F1DC0DE
:10507000B1E0DB1609F584E2089FC00111244C2D34
:1050800050E020E231E0B901469F9001479F300D8A
:10509000569F300D1124820F931F26E0129F90011E
:1050A0001124820F931F8D5F994FB70146E050E0A6
:1050B00025E033E10E940DB465960FB6F894DEBF8B
:1050C0000FBECDBFCF91DF911F910F91FF90EF9059
:1050D000DF90CF90BF90AF9008954F925F927F92F4
:1050E0008F929F92AF92BF92CF92DF92EF92FF92F8
:1050F0000F931F93DF93CF93CDB7DEB72F970FB6E4
:10510000F894DEBF0FBECDBF772473944E01089490
:10511000811C911CF0E14F2E512C4C0E5D1E872DF1
:105120000E94411D882391F1A82EAA94BB24B39418
:105130002AC0F70111927F01E415F505D1F780E04F
:1051400061E04A2D2B2D84010E94001E80E060E06A
:105150004A2D2B2D0E94AC27F60111926F01EE15FE
:10516000FF05D1F781E061E04A2D2B2D84010E94DB
:10517000001E81E060E04A2D2B2D0E94AC27B394E5
:10518000F7E0BF1619F064017401D3CF739481E185
:10519000781629F62F960FB6F894DEBF0FBECDBF56
:1051A000CF91DF911F910F91FF90EF90DF90CF9003
:1051B000BF90AF909F908F907F905F904F90089599
:1051C000AF92BF92CF92DF92EF92FF920F931F9315
:1051D000DF93CF93CDB7DEB729970FB6F894DEBF34
:1051E0000FBECDBFA82E00D000D06E010894C11C08
:1051F000D11CEDB7FEB7D282C1828CEB95E09483CF
:1052000083830E9431B4EE24E3940F900F900F90AB
:105210000F908E2D0E94411D8823A9F0B82EBA94BC
:10522000FF24F39480E06A2D4B2D2F2D86010E94E0
:10523000AC2781E06A2D4B2D2F2D0E94AC27F394D3
:10524000F7E0FF1679F7E39481E1E81611F7299664
:105250000FB6F894DEBF0FBECDBFCF91DF911F9187
:105260000F91FF90EF90DF90CF90BF90AF90089597
:10527000CF93DF93EC01DC010D900020E9F711974B
:10528000A81BB90BA61760F48A2F90E3FE01E80F64
:10529000F11D90838F5F8617C8F3C60FD11D18824A
:1052A000DF91CF9108953F924F925F926F927F92DC
:1052B0008F929F92AF92BF92CF92DF92EF92FF9226
:1052C0000F931F93DF93CF93CDB7DEB7C855D04070
:1052D0000FB6F894DEBF0FBECDBF682E67967FAFC6
:1052E0006EAF679769965FAF4EAF69975901FE0140
:1052F0003196CE0145961192E817F907E1F7CE01F4
:1053000089961192E817F907E1F7FE01FD96CF01A2
:1053100044961192E817F907E1F700D000D000D0C9
:10532000EDB7FEB731968E010F5F1F4FADB7BEB719
:1053300012961C930E93119782E895E093838283D3
:1053400067962EAD3FAD6797358324830E9431B4B5
:10535000EDB7FEB73196CE014596ADB7BEB7129602
:105360009C938E9311978FE795E093838283699640
:105370002EAD3FAD6997358324830E9431B48DB73C
:105380009EB706960FB6F8949EBF0FBE8DBFC8019C
:105390000E944E23813021F065961FAE659707C0AD
:1053A000C8010E94532391E065969FAF65978E01D7
:1053B0000B5E1F4FC8010E944E23813021F064967E
:1053C0001FAE649707C0C8010E945323A1E06496F2
:1053D000AFAF6497FE013196DF010D900020E9F731
:1053E000CD0101978E1B9F0BDE015596FD010190AB
:1053F0000020E9F731971E2F1A1B181708F4182FF1
:105400001F5F7E010894E11CF11CC701612F0E94FF
:10541000972695E1C92ED12CCC0EDD1EC601612F39
:105420000E949726F70101900020E9F731977E2E20
:105430007E18F60101900020E9F731979E2E9C1806
:10544000C601B7010E948023813011F080E042C084
:1054500000D000D000D0EDB7FEB731968E01075DC9
:105460001F4FADB7BEB712961C930E9311978CE7E2
:1054700095E093838283F582E4820E9431B4EDB794
:10548000FEB73196ADB7BEB71296FC92EE92119769
:1054900089E795E093838283D582C4820E9431B4E8
:1054A000EDB7FEB73196ADB7BEB71296DC92CE928D
:1054B000119786E795E093838283158304830E9486
:1054C00031B481E0EDB7FEB736960FB6F894FEBF63
:1054D0000FBEEDBF662039F5813099F46596FFADBA
:1054E0006597F13039F464962FAD6497213009F057
:1054F0009EC142C064963FAD6497313009F08EC1C1
:1055000092C165968FAD6597813039F464969FADF1
:105510006497913009F08BC181C16496AFAD6497F7
:10552000A13051F580C1B1E06B1631F5813091F4B5
:105530006596EFAD6597E13031F46496FFAD649701
:10554000F130D1F474C164962FAD6497213009F025
:105550006AC164C165963FAD6597313039F4649690
:105560008FAD6497813009F059C161C164969FADD8
:105570006497913009F057C162961FAE6297E72C8D
:10558000FF2467010894C108D108AE01435C5F4F56
:105590004C0D5D1DCE0101968C010C0D1D1DBE0133
:1055A000690D711D6C5E7F4F99242C0189E3882E53
:1055B0009AE052C0D8018C9180538A3010F020E0DC
:1055C00001C0282FFB01308130533A3010F42317EB
:1055D00040F08A3008F080E03A3008F030E0831B79
:1055E0002DC08A3010F4831780F5292D0AC0F601EA
:1055F000E21BF109D201AE0FBF1F8C91803329F459
:105600008C922F5F271598F310C0282F20532A3033
:1056100008F020E0822F81508A3010F080E302C031
:10562000822F815DE40DF51D8083F80120812053D8
:105630002A3008F020E0892F831B820F8A3010F077
:1056400080E301C0805DDA018C9393944150504017
:105650000150104061507040971408F4ABCF8E0198
:10566000035C1F4FE00EF11EF7011082C8010E947B
:105670001925F80101900020E9F731973E2F301BE2
:10568000D80120E090E04DE213C0222351F462964D
:10569000FFAD6297F13029F4F501E90FF11D408368
:1056A0009F5FF501E90FF11D8D9180839F5F2F5F53
:1056B000231758F3F501E90FF11D1082A0C0BDE3D7
:1056C000EB2EF12CEC0EFD1EAE01490D511D4C5E72
:1056D0005F4F072D10E04801089481089108CE0122
:1056E00001966C01C80CD91C30E020E02C01A0E32D
:1056F0003A2E47C0D6019C9190539A3008F090E022
:10570000FA01808180538A3008F080E0890F8A3066
:1057100018F4805DD70128C06AE00E94F1B69A3083
:1057200010F090E301C0905DF7019083832F0EC0CD
:10573000D401A81BB109F201EA0FFB1F908190531D
:105740009A3008F079C0993029F430828F5F87153C
:1057500078F30DC0892F8F5F8A3010F080E302C08C
:10576000892F8F5CA40DB51D8C9320E001C021E032
:105770003F5F0894E11CF11C415050400894C1085F
:10578000D108371508F4B6CF205DDE01DD96FD01A6
:10579000E00FF11F20830C0F1D1FF80116AEFD0155
:1057A00001900020E9F731975E2F5A1B252F30E03A
:1057B000215030402A0F3B1F40E090E06DE216C0C0
:1057C000442351F46396FFAD6397F13029F4F5015A
:1057D000E90FF11D60839F5FF501E90FF11DD9010C
:1057E0008C9180839F5F4F5F21503040451740F37D
:1057F000F501E90FF11D1082C5010E941925B2E0E3
:105800006B16E1F467968EAD9FAD679769966EADA6
:105810007FAD6997A5010E94372C10C0E1E0629628
:10582000EFAF6297ACCE63961FAE639748CFF1E0BF
:105830006396FFAF639743CF90E08CCFC85ADF4F9A
:105840000FB6F894DEBF0FBECDBFCF91DF911F9191
:105850000F91FF90EF90DF90CF90BF90AF909F900F
:105860008F907F906F905F904F903F9008954F92F0
:105870005F926F927F928F929F92AF92BF92CF92E0
:10588000DF92EF92FF920F931F93DF93CF93CDB7E9
:10589000DEB7A8970FB6F894DEBF0FBECDBF3C01B0
:1058A0006B012A010E941925C6010E941925D60103
:1058B0000D900020E9F711978A2E8C1800D000D0A7
:1058C0008E010F5F1F4FADB7BEB712961C930E939C
:1058D000119784E795E014969C938E9313970E94FA
:1058E00031B425E1E22EF12CEC0EFD1EEDB7FEB732
:1058F000F282E18282E795E0948383830E9431B44F
:10590000BB240F900F900F900F90A02E912E082D7A
:1059100010E0015010401FC0F801E81BF90BEC0D1E
:10592000FD1DC3016081A7010E949E22F701019025
:105930000020E9F73197EE19FF096B2D6E0FC701B3
:105940000E94382981E06A2D792DA7012A2D392D51
:105950000E945329B394F60101900020E9F7319792
:10596000EC19FD098B2D90E08E179F07A8F200D04F
:1059700000D000D0EDB7FEB73196ADB7BEB71296E6
:105980005C924E9211978FE695E093838283A48276
:1059900095820E9431B4EDB7FEB736960FB6F894F3
:1059A000FEBF0FBEEDBFA8960FB6F894DEBF0FBEC8
:1059B000CDBFCF91DF911F910F91FF90EF90DF90BE
:1059C000CF90BF90AF909F908F907F906F905F909F
:1059D0004F900895CF92DF92EF92FF920F931F9313
:1059E000DF93CF93CDB7DEB764970FB6F894DEBFE1
:1059F0000FBECDBFD82EC92EA82FB92FFD01019003
:105A00000020E9F731974E2F481B20E030E07E015F
:105A10000894E11CF11C042F10E00EC0F701E20F06
:105A2000F31FC801821B930B642F70E00E941EB706
:105A3000605D60832F5F3F4F241780F30E0D1F1DA5
:105A4000F801108281E0B7014D2D5C2D2D2D3C2DEC
:105A50000E94532964960FB6F894DEBF0FBECDBFE7
:105A6000CF91DF911F910F91FF90EF90DF90CF903A
:105A70000895BF92CF92DF92EF92FF920F931F9300
:105A8000DF93CF93CDB7DEB7E2970FB6F894DEBFC2
:105A90000FBECDBF8C01FC0101900020E9F73197CA
:105AA0002E2F281B2617E0F57E010894E11CF11C1F
:105AB000F701BE2C90E201C091938E2F8B198617AF
:105AC000D8F3462F50E0CE010196FC01E40FF51FFC
:105AD0001082762F721B6C0130E0241B350B0CC03A
