:100000000C94ED000C940A010C940A010C940A0162
:100010000C940A010C940A010C940A010C940A0134
:100020000C940A010C940A010C940A010C940A0124
:100030000C940A010C940A010C940A010C940A0114
:100040000C940A010C940C010C94600E0C9497070C
:100050000C9460070C940A010C940A010C940A0198
:100060000C940A010C940A010C940A010C940A01E4
:1000700009084F086108680870087B089008B008F4
:100080003C09B209DB09800943095009880995092F
:100090006B0AE209EF09FB096B0AC009FD09D708E1
:1000A000E508CC091B0A2E0A350A420A530A550AEA
:1000B000610A9C0BBA0B540EA00C1E0C490C540E7A
:1000C000540ECD0C0C0D540E540E370D540E080E5C
:1000D0000D0E120E540E540E3D0D640D930DBA0DFF
:1000E000E10D540E540E1B0E496E697469616C6902
:1000F0007A656400524649443A2573002573257396
:10010000003032252E3264003031252E3264252E07
:100110003164252E316425732573257300506F6F6C
:100120006C52657374617274656400506F6F6C54C7
:10013000727953656E643A25640044656C61794E4A
:1001400065787450756D703A256400506F6F6C540B
:10015000696D656F75743A256400506F6F6C5472E9
:100160007953656E643A2564004D617850756D7001
:100170003A2564004E6F50756D70436F756E743A1A
:1001800025640050756D70556E4C6F636B3A256435
:100190000050756D704C6F636B3A25640052657149
:1001A0005472616E733A256400434F4D3A25642CB6
:1001B00025690050554D50414C4C0053435F544FFE
:1001C00054414C495A4552005374616E64616C6FDE
:1001D0006E6500536C617665000011241FBECFEF81
:1001E000D4E0DEBFCDBF11E0A0E0B1E0E6EBF6E287
:1001F00002C005900D92A830B107D9F713E0A8E02E
:10020000B1E001C01D92A13EB107E1F70E944E0B83
:100210000C9459130C9400001F920F920FB60F927A
:1002200011242F933F935F936F937F938F939F93AB
:10023000AF93BF9380910001823011F485E005C037
:1002400080910001813019F484E1809380038091D2
:100250002F018F5F80932F01609180030E94E01235
:10026000992321F487B194E0892787B9209112015D
:10027000309113012F5F3F4F3093130120931201F0
:1002800020FD09C08091CE039091CF0301969093F9
:10029000CF038093CE03C90164E670E00E94EC12A4
:1002A000892B29F480918C028F5F80938C0280913E
:1002B0007E0390917F03019690937F0380937E034A
:1002C00080911601909117010196909317018093E8
:1002D0001601BF91AF919F918F917F916F915F9127
:1002E0003F912F910F900FBE0F901F90189508957A
:1002F00081E0809300010895823059F0823018F037
:10030000833021F409C020E835E208C020E030E065
:1003100005C020E03BE402C02BE936E1C9010895A5
:1003200080E008950895809100018230A9F4209121
:100330001C0180912A01821710F410928C02909176
:100340008C028091E003891728F410928C0281E0DE
:100350008093030120932A01089580E090E02EE02D
:10036000FC01EC5DFD4F1082FC01E254FC4F108259
:10037000FC01EB5CFD4F2083FC01E95DFC4F208319
:10038000FC01E053FC4F1082FC01E758FD4F108246
:1003900001968031910521F7089598E991B986E099
:1003A0008CBF1CBE8FE580B99AB910BC8EE989B9A3
:1003B00086EA80BD7894089583B7856083BF89B746
:1003C000826089BF08958F70089582958F70089517
:1003D0005D9BFECF8CB90895FC0120E030E02F5FDB
:1003E0003F4F8181819362177307C8F70895282FC3
:1003F00080912101863041F1873030F4843051F012
:10040000853009F056C017C0873079F18A3009F07D
:1004100050C03BC090912001913029F4822F8F7001
:100420008093300143C0923009F040C0822F8F701A
:1004300080938E023BC0909120019923B9F5822FC1
:100440008F708093A40232C0293F09F440C090917C
:100450002001E92FF0E0822F8F708A3010F080E3C6
:1004600001C0805DE65AFD4F1FC02A3F91F1909177
:100470002001E92FF0E0822F8F708A3010F080E3A6
:1004800001C0805DE550FE4F0FC02B3FF1F0909111
:100490002001E92FF0E0822F8F708A3010F080E386
:1004A00001C0805DE35EFC4F808311829F5F90936B
:1004B0002001283F11F484E00FC0263F11F485E0AD
:1004C0000BC0273F11F486E007C0293F11F487E0F5
:1004D00003C02A3F31F48AE0809321011092200169
:1004E00008952B3F29F48BE0809321011092200185
:1004F0000895382F80911F018230B9F0833009F4BC
:100500003FC0813009F062C090911E01992349F4E7
:10051000832F8F7080938902853018F085E0809357
:1005200089029F5F90931E0151C0832F807F803E80
:1005300009F04CC080918902E82FF0E020911E0163
:10054000422F50E0832F8F708A3010F060E302C09A
:10055000682F605D84E190E0E89FD001E99FB00DD5
:10056000F89FB00D1124FD01E40FF51FEB55FD4F71
:100570006083AB55BD4FA40FB51F11961C9223C0CD
:10058000832F807F803E11F580918902A82FB0E0F3
:1005900020911E01622F70E0832F8F708A3010F03F
:1005A00040E302C0482F405D84E190E0A89FF00145
:1005B000A99FF00DB89FF00D1124EB55FD4FE60FEC
:1005C000F71F428713862F5F20931E01363F21F4C9
:1005D00010921E0181E00FC0393F11F482E003C088
:1005E0003A3F31F483E080931F0110921E01089579
:1005F000343F21F488E080931F010895353F19F4BA
:1006000089E080931F010895CF93DF93EC0120E0F0
:100610000BC0FE01E80FF91FDA01A81BB90BA60FEA
:10062000B71F8C9180832F5F822F90E084179507EE
:1006300080F3C40FD51F1882DF91CF9108958F707A
:1006400008958A3010F080E30895805D0895982F12
:10065000ECE7F3E080818183319783E0E137F807AD
:10066000C9F791830895809304010895809104014E
:100670000895CF93DF93EB01DA01A80FB91F40E093
:1006800050E007C0FE01E40FF51F8D9180834F5F9E
:100690005F4F42175307B0F3C20FD31F1882DF9189
:1006A000CF910895FB01E80FF91F808108958A30EA
:1006B00010F4805D0895803110F080E30895895C26
:1006C0000895CF93DF93EB01DA01A80FB91F40E043
:1006D00050E00EC08C918F708A3010F080E301C022
:1006E000805DFE01E40FF51F80834F5F5F4F119720
:1006F0004217530778F3C20FD31F1882DF91CF91AF
:10070000089598E991B986E08CBF1CBE8FE580B949
:100710009AB910BC8EE989B986EA80BD089520E0B7
:1007200030E006C0FC01E20FF31F40832F5F3F4F14
:1007300026173707B8F3089581E061E048EE50E0EE
:100740000E9416100895BF92CF92DF92EF92FF920F
:100750000F931F93DF93CF93CDB7DEB764970FB698
:10076000F894DEBF0FBECDBF8C01FC0101900020CC
:10077000E9F731972E2F281B2617E0F57E01089404
:10078000E11CF11CF701BE2C90E301C091938E2F68
:100790008B198617D8F3462F50E0CE010196FC0145
:1007A000E40FF51F1082762F721B6C0130E0241BC2
:1007B000350B0CC0E72FF0E0D601AE0FBF1FE00FE6
:1007C000F11FE20FF31F80818C937F5F761790F308
:1007D0004C0D5D1DDA011C92F80104C0D7018D910A
:1007E0007D0181938E2D8B198617C0F3060F111D85
:1007F000F801108264960FB6F894DEBF0FBECDBF2D
:10080000CF91DF911F910F91FF90EF90DF90CF90EC
:10081000BF900895DF93CF93CDB7DEB764970FB63F
:10082000F894DEBF0FBECDBFAC01FC0101900020EB
:10083000E9F731972E2F281BA22FB0E01197A80FB0
:10084000B91FBE016F5F7F4FFB0103C08C91819385
:1008500011978E2F861B8217C8F3CE010196FC01DB
:10086000E20FF11D108260E09C0109C0FA01EA0F5D
:10087000FB1FA20FB31F8C91808311826F5FA62F85
:10088000B0E0F90101900020E9F73197E21BF30B8A
:10089000AE17BF0758F364960FB6F894DEBF0FBECD
:1008A000CDBFCF91DF910895EF92FF920F931F93E9
:1008B000CF93DF93082FECE7F3E0808181833197BA
:1008C00083E0E137F807C9F7018390910401933081
:1008D000D1F1943030F4913069F0923009F094C045
:1008E00014C0953009F447C09530C0F1963009F036
:1008F0008BC06DC0802F82958F70809331010F70F7
:1009000000930801909309017FC090911801E92F8D
:10091000F0E0802F8F708A3010F080E301C0805D9E
:10092000E65EFD4F8083118210927F0310927E035A
:10093000892F8F5F80931801873008F465C081E0AC
:1009400080930A0161C00F3F09F05EC010921D0143
:1009500010927F0310927E0386E00AC00F3F09F0D9
:1009600053C010921D0110927F0310927E0385E008
:100970008093040149C0802F0E947902003F39F022
:1009800080917E0390917F03893C9105E8F1C0E05E
:10099000D0E084E1E82EF12CCE9D8001CF9D100D9A
:1009A000DE9D100D1124C80181559D4F0E940A043F
:1009B000C8018B559D4F0E940A042196C630D1056F
:1009C00059F781E08093040180930C011DC0802FB2
:1009D0000E94F701003F39F080917E0390917F03E0
:1009E000893C910588F08AE592E00E940A048BEF29
:1009F00091E00E940A048DE193E00E940A0481E0E4
:100A00008093040180930B01DF91CF911F910F918F
:100A1000FF90EF9008950F931F93982FE7E7F2E070
:100A200080818183319782E0E436F807C9F79F011E
:100A30002F5F3F4F91839330B1F581E0809319018F
:100A4000D9011A96E9E6F3E08C918193119792E02F
:100A5000A736B907C9F71092710300D000D000D0B3
:100A6000EDB7FEB731968D0102501040ADB7BEB75D
:100A700012961C930E93119784EF90E093838283D8
:100A800089E693E0958384830E943F108DB79EB7DB
:100A900006960FB6F8949EBF0FBE8DBF81E060E052
:100AA000A8010E94EE0F1F910F910895282FAB010E
:100AB000E199FECF84E090E09FBB8EBBE09A8DB3BE
:100AC000882321F0822F61E00E94EE0F08950E949A
:100AD000400F0895E0918A02F0918B023097D1F097
:100AE000EC5BFD4F80810E94400F40918A02509143
:100AF0008B02E5E4F2E020E030E02F5F3F4F8181A0
:100B0000819342175307C8F74150504050938B02CE
:100B100040938A020895FF920F931F93CF93DF9320
:100B20008C01FF2406C0C00FD11F88810E94400F96
:100B3000F394CF2DD0E0F80101900020E9F7319730
:100B4000E01BF10BCE17DF0770F3DF91CF911F9100
:100B50000F91FF90089580E061E00E941E0FBE9A01
:100B6000C69ABD98C59ABF98C79A8A9A929A0895CC
:100B700081E060E00E941E0FBE98C69ABC9ABD9AA2
:100B8000BF9AC79A8A9A929808952F923F924F924D
:100B90005F926F927F928F929F92AF92BF92CF920D
:100BA000DF92EF92FF920F931F93DF93CF93CDB716
:100BB000DEB7A8970FB6F894DEBF0FBECDBF803169
:100BC00010F4F82E02C040E1F42E0E94B80585E032
:100BD0000E94400F80E50E94400F1E010894211CD6
:100BE000311C6101CE018996D6011D926D01A817B5
:100BF000B907D1F700D000D000D0EDB7FEB73196DD
:100C00008E010F5F1F4FADB7BEB712961C930E93A8
:100C1000119781E091E093838283F48215820E9490
:100C20003F10EDB7FEB736960FB6F894FEBF0FBE75
:100C3000EDBFC8010E948B05EE24FF2434E1432E52
:100C4000512C48012CEF622E20E0722EE49C800192
:100C5000E59C100DF49C100D11249FEAA92E92E042
:100C6000B92EA00EB11EC50168E00E94A3030B556A
:100C70001D4FC80168E00E94A303F1011192EC1519
:100C8000FD05E1F78DB79EB708970FB6F8949EBFA4
:100C90000FBE8DBFEDB7FEB73196ADB7BEB711969B
:100CA0008C92119712969C927382628215830483B0
:100CB000B782A6820E943F10EDB7FEB738960FB6F6
:100CC000F894FEBF0FBEEDBFC4010E948B050894CF
:100CD000E11CF11CF6E0EF16F10409F0B7CF86E055
:100CE0000E94400F80E60E94400F0E94AB058AEFF1
:100CF00090E00197F1F7A8960FB6F894DEBF0FBE0B
:100D0000CDBFCF91DF911F910F91FF90EF90DF90BA
:100D1000CF90BF90AF909F908F907F906F905F909B
:100D20004F903F902F9008957F928F929F92AF9215
:100D3000BF92CF92DF92EF92FF920F931F93DF93B8
:100D4000CF93CDB7DEB76E970FB6F894DEBF0FBE68
:100D5000CDBF782EB42EA22E4801C80166E00E94B5
:100D6000A303C70167E00E94A303C60167E00E94D6
:100D7000A30383E08B1510F04B2D01C044E093E0FA
:100D80009A1510F02A2D01C024E0AFE0A71510F04D
:100D9000372D01C030E18DB79EB740970FB6F8945C
:100DA0009EBF0FBE8DBFEDB7FEB731968E010F5FB0
:100DB0001F4FADB7BEB712961C930E93119788E0E4
:100DC00091E0938382833483158246831782208740
:100DD000118693868286F586E486D786C6860E942B
:100DE0003F108DB79EB740960FB6F8949EBF0FBECA
:100DF0008DBF0E94B80585E00E94400F80E50E94EB
:100E0000400FFF2406C0A00FB11F8C910E94400F1D
:100E1000F394F80101900020E9F73197E01BF10B02
:100E2000AF2DB0E0AE17BF0770F386E00E94400F11
:100E300080E60E94400F0E94AB056E960FB6F894B4
:100E4000DEBF0FBECDBFCF91DF911F910F91FF90FD
:100E5000EF90DF90CF90BF90AF909F908F907F905A
:100E600008950F931F93082F162F0E94B80587E04F
:100E70000E94400F1F700295007F802F812B0E94DF
:100E8000400F88E00E94400F0E94AB051F910F9118
:100E900008950F931F93182F062F0E94B80589E01D
:100EA0000E94400F812F0E94400F802F0E94400F10
:100EB0008AE00E94400F0E94AB051F910F91089598
:100EC0001F920F920FB60F9211241F932F933F93EF
:100ED0004F935F936F937F938F939F93AF93BF9342
:100EE000EF93FF9313B180911A01882321F0809131
:100EF0000001813039F40E94B805812F0E94400F13
:100F00000E94AB0581E080930F01FF91EF91BF91AB
:100F1000AF919F918F917F916F915F914F913F9191
:100F20002F911F910F900FBE0F901F9018951F9239
:100F30000F920FB60F9211241F932F933F934F934D
:100F40005F936F937F938F939F93AF93BF93EF9331
:100F5000FF931CB180911A01882321F08091000138
:100F6000813039F40E94B805812F0E94400F0E9401
:100F7000AB0580910E01813021F410921001109286
:100F80000E01812F0E945404FF91EF91BF91AF9108
:100F90009F918F917F916F915F914F913F912F9191
:100FA0001F910F900FBE0F901F9018956295607F54
:100FB000482F4F70462B80E061E00E94D70F0895C4
:100FC000CF92DF92EF92FF920F931F9380910301D4
:100FD000813079F4109203018AE1609129010E9425
:100FE000490781E061E04DE151E00E941610109246
:100FF000290180912901E82FF0E0E132F10508F0A4
:1010000071C2E85CFF4FEE0FFF1F0590F491E02DD9
:10101000099481E080932601109225011092CF035C
:101020001092CE03E199FECF88E090E09FBB8EBB8B
:10103000E09A8DB380932301E199FECF87E090E0A1
:101040009FBB8EBBE09A8DB380932201E199FECFC6
:1010500089E090E09FBB8EBBE09A8DB38093240122
:1010600089E160911C010E944907E199FECF8AE065
:1010700090E09FBB8EBBE09A8DB380932801E199ED
:10108000FECF8BE090E09FBB8EBBE09A8DB3809348
:10109000270180911C018F5F80931C011FC09091DC
:1010A000260180912201981738F482E0809329016B
:1010B0009F5F9093260102C0109229011092250192
:1010C00011C2109209011092060181E0809304017F
:1010D00080910401813011F484E002C282E000C2F8
:1010E0008091260160E00E94D6071092CF031092F3
:1010F000CE0386E0F5C180912601E82FF0E0EF7085
:10110000F070E053FC4F80818F5F808390912301CA
:10111000981708F0AFC0108281E080930601ECC000
:101120008091280190E02091CE033091CF03821767
:10113000930780F4809125018F5F80932501909122
:101140002401891710F482E003C0981718F485E091
:101150008093290180910901813009F0C3C1C1C088
:10116000909126019F70909305018091060188233C
:1011700039F4E92FF0E0E95DFC4F8091310107C0BF
:10118000813031F4E92FF0E0E95DFC4F8EE080839F
:10119000892F90E0FC01E95DFC4F2081FC01EB5CB4
:1011A000FD4F8081281779F0208387E199C18091D4
:1011B0002601E82FEF70E0930501F0E0E95DFC4FB8
:1011C00060810E94310788E18BC1809126018F7078
:1011D0008093050190913101983009F441C0993014
:1011E00028F4963041F09730D9F516C0993079F14E
:1011F0009B30B1F523C0A82FB0E0FD01EC5DFD4FA1
:101200008081813011F1A254BC4F8C91813011F456
:101210008BE127C081E025C0282F30E0F901E75895
:10122000FD4F80818823F9F4F901EC5DFD4F808149
:10123000882311F481E0808388E013C0E82FF0E078
:10124000EC5DFD4F8081813059F48AE00AC0E82FBF
:10125000F0E0EC5DFD4F8081882311F481E0808314
:1012600084E18093290180910601813009F03AC11F
:101270001092060184E134C181E080930401109250
:1012800025018CE02DC11092CF031092CE03109255
:1012900009018091260161E00E94D6078DE020C1FE
:1012A0008091280190E02091CE033091CF038217E6
:1012B000930780F4809125018F5F809325019091A1
:1012C0002401891710F48CE003C0981718F485E006
:1012D0008093290180910901813009F003C11092A6
:1012E00009012091260130E02F70307080910801B3
:1012F00090E02817390711F487E0F2C089E0F0C0C8
:101300001092180182E0809304011092250125C0FB
:101310001092CF031092CE0310920A018091260101
:1013200066E00E94D6078FE0DBC080910A01882327
:10133000D9F48091280190E02091CE033091CF0321
:101340008217930708F0CEC0809125018F5F8093AC
:10135000250190912401891710F48EE0C1C09817DF
:1013600008F0C0C085E0BCC0813009F0BBC010925D
:101370000A01809126018F708093050180E1B0C041
:101380008091270190E020911601309117012817D4
:10139000390709F0A7C060C0E0912601EF70E09323
:1013A0000501F0E0EC5DFD4F8081882311F08AE0BB
:1013B00097C08AE195C083E08093040110922501D3
:1013C00081E18EC01092CF031092CE0310920B01D8
:1013D0008091260164E00E94D60782E181C080915D
:1013E0000B01813009F057C0809126018F708093E6
:1013F000050183E14EC086E173C080912601982FDC
:101400009F70909305016091300140918E02209170
:10141000A4020AE512E07BEFE72E71E0F72E5DE112
:10142000C52E53E0D52E0E949406E0910501F0E010
:10143000EC5DFD4F4FC0E0912601EF70E093050198
:10144000F0E0E254FC4F8081813011F48BE148C020
:10145000109217011092160181E042C084E080933F
:101460000401109225018CE13BC01092CF03109231
:10147000CE0310920C018091260165E00E94D607F0
:101480008DE12EC080910C01813029F410920C0165
:101490008EE1809329018091CE039091CF03893C06
:1014A000910500F11CC08FE11BC080912601982F8F
:1014B0009F70909305010E94C50510920D0180E276
:1014C0000FC080910D01813069F4E0910501F0E0D9
:1014D000E254FC4F1082109217011092160185E120
:1014E000809329011F910F91FF90EF90DF90CF9093
:1014F00008951F93CF93DF93182FEB01E199FECF4F
:1015000084E090E09FBB8EBBE09A8DB3882341F4CA
:101510000CC02196F9014491812F61E00E94D70F00
:101520009E01FE0184918823A1F7DF91CF911F9145
:101530000895959A11BA8FEF8BBB8ABBD498D8982F
:1015400087B986B983B7856083BF89B7826089BF51
:10155000E199FECF86E090E09FBB8EBBE09A8DB311
:10156000823059F0823018F0833021F409C080E8CD
:1015700095E208C080E090E005C080E09BE402C0F6
:101580008BE996E1AC01662757FD6095762F81E0E7
:101590000E94AB0FE199FECF80E090E09FBB8EBB35
:1015A000E09A8DB380930001E199FECF83E090E053
:1015B0009FBB8EBBE09A8DB380931B01809100018D
:1015C000813019F4E199FECF06C08091000182308C
:1015D00011F5E199FECF85E090E09FBB8EBBE09ACC
:1015E0008DB3823059F0823018F0833021F409C075
:1015F00080E895E208C080E090E005C080E09BE4D0
:1016000002C08BE996E1AC01662757FD6095762F05
:1016100080E00E94AB0F8FE487BB8FEF88BB82BB5B
:101620008A9A929A80E061E00E941E0F789481E08D
:1016300080931A011092150110921401E199FECFC6
:101640008CE090E09FBB8EBBE09A8DB38093E0036B
:1016500080E090E02EE0FC01EC5DFD4F1082FC018B
:10166000E254FC4F1082FC01EB5CFD4F2083FC0137
:10167000E95DFC4F2083FC01E053FC4F1082FC012C
:10168000E758FD4F108201968031910521F781E0E6
:1016900061E048EE50E00E94161008951F930E94EA
:1016A000990A11E0809100018230E1F780910001F8
:1016B0008230A1F420911C0180912A01821710F43C
:1016C00010928C0290918C028091E003891720F493
:1016D00010928C021093030120932A010E94E007CC
:1016E000E1CFDF92EF92FF920F931F93CF93DF939F
:1016F00090912D0190932E01D0902C01D0922D012C
:10170000F0902B01F0922C0180932B01863009F090
:10171000CFC2953009F0CCC28D2D90E0FC013197FD
:10172000EB31F10508F0C0C2E75AFF4FEE0FFF1F83
:101730000590F491E02D099410921A0181E08093B4
:10174000000120910001E199FECF80E090E09FBB75
:101750008EBB2DBB0FB6F894E29AE19A0FBE81E0E2
:1017600063ED71E00E94790A80E040E855E260E0B4
:1017700070E0E3C080E090E02EE0FC01EC5DFD4F06
:101780001082FC01E254FC4F1082FC01EB5CFD4F27
:101790002083FC01E95DFC4F2083FC01E053FC4FFA
:1017A0001082FC01E758FD4F1082019680319105AF
:1017B00021F781E080931A0182E08093000120915B
:1017C0000001E199FECF80E090E09FBB8EBB2DBB76
:1017D0000FB6F894E29AE19A0FBE81E068EC71E0EE
:1017E0000E94790A81E080930301E199FECF85E0B0
:1017F00090E09FBB8EBBE09A8DB3823059F082306F
:1018000018F0833021F409C080E895E208C080E038
:1018100090E005C080E09BE402C08BE996E1AC015A
:10182000662757FD6095762F80E00E94AB0F84E01D
:101830008F1508F439C2F092010136C281E061E0EF
:101840004BEB51E00E9416108F2D8150803148F4EF
:10185000EF2DF0E0EF70F070E254FC4F81E08083F8
:1018600023C292E1F91609F01FC281E061E043EB67
:1018700051E00E94161081E090E021E0FC01EF7041
:10188000F070E254FC4F2083019681319105B1F74D
:101890000BC2EF2CE294EFE0EE22ADEFEA0E2F2D1B
:1018A0002F70223051F0223028F0233049F0C0E070
:1018B000D0E008C0C0E8D5E205C0C0E0DBE402C06B
:1018C000CBE9D6E1E199FECF8E2D90E08B5F9F4F63
:1018D0009FBB8EBB2DBB0FB6F894E29AE19A0FBE68
:1018E0008DB79EB708970FB6F8949EBF0FBE8DBFF9
:1018F000EDB7FEB731960FE812E0ADB7BEB712965E
:101900001C930E93119789EA91E093838283E4827A
:101910001582D783C6830E943F108DB79EB7089665
:101920000FB6F8949EBF0FBE8DBF81E0B8010E9434
:101930005605AE0160E070E08E2D0E94AB0FB4C181
:1019400090E19F1548F0EF2DF0E0EF70F070E25459
:10195000FC4F81E0808310C0A2E1FA1669F481E0B7
:1019600090E021E0FC01EF70F070E254FC4F208326
:10197000019681319105B1F700D000D000D0EDB7CC
:10198000FEB731960FE812E0ADB7BEB712961C93C2
:101990000E9311978DE991E02CC090E19F1548F0CE
:1019A000EF2DF0E0EF70F070E758FD4F81E080839D
:1019B00010C0A2E1FA1669F481E090E021E0FC0198
:1019C000EF70F070E758FD4F20830196813191054B
:1019D000B1F700D000D000D0EDB7FEB731960FE8D8
:1019E00012E0ADB7BEB712961C930E93119781E922
:1019F00091E093838283F48215820E943F108DB719
:101A00009EB706960FB6F8949EBF0FBE8DBF81E0BD
:101A1000B8010E94560548C190E19F1540F0EF2D96
:101A2000F0E0EF70F070E758FD4F10820FC0A2E1B8
:101A3000FA1661F481E090E0FC01EF70F070E75875
:101A4000FD4F1082019681319105B1F700D000D091
:101A500000D0EDB7FEB731960FE812E0ADB7BEB7D4
:101A600012961C930E93119783E891E0C2CF81E008
:101A700080930D01F0928D0217C100D000D000D0EC
:101A8000EDB7FEB731960FE812E0ADB7BEB71296CC
:101A90001C930E93119784E791E093838283F482E1
:101AA00015820E943F108DB79EB706960FB6F89428
:101AB0009EBF0FBE8DBF81E0B8010E945605E1991F
:101AC000FECF88E090E026C000D000D000D0EDB777
:101AD000FEB731960FE812E0ADB7BEB712961C9371
:101AE0000E93119789E691E093838283F4821582A5
:101AF0000E943F108DB79EB706960FB6F8949EBF12
:101B00000FBE8DBF81E0B8010E945605E199FECF5E
:101B100087E090E09FBB8EBBFDBA0FB6F894E29AC7
:101B2000E19A0FBEBEC000D000D000D0EDB7FEB726
:101B300031960FE812E0ADB7BEB712961C930E9324
:101B400011978AE591E093838283F48215820E9443
:101B50003F108DB79EB706960FB6F8949EBF0FBE86
:101B60008DBF81E0B8010E945605E199FECF89E062
:101B700090E0D0CF00D000D000D0EDB7FEB73196C6
:101B80000FE812E0ADB7BEB712961C930E931197F3
:101B90008BE491E093838283F48215820E943F104C
:101BA0008DB79EB706960FB6F8949EBF0FBE8DBF39
:101BB00081E0B8010E945605E199FECF8AE090E0ED
:101BC000A9CF00D000D000D0EDB7FEB731960FE816
:101BD00012E0ADB7BEB712961C930E9311978AE32D
:101BE00091E093838283F48215820E943F108DB727
:101BF0009EB706960FB6F8949EBF0FBE8DBF81E0CC
:101C0000B8010E945605E199FECF8BE090E082CFAB
:101C1000E199FECF88E090E009C0E199FECF87E02E
:101C200090E004C0E199FECF89E090E09FBB8EBBBD
:101C3000E09AFDB239C000D000D000D0EDB7FEB7B9
:101C400031960FE812E0ADB7BEB712961C930E9313
:101C500011978BE291E093838283F48215820E9434
:101C60003F108DB79EB706960FB6F8949EBF0FBE75
:101C70008DBF81E0B8010E945605E199FECF8CE04E
:101C800090E09FBB8EBBFDBA0FB6F894E29AE19A42
:101C90000FBEE199FECF9FBB8EBBE09A8DB38093C0
:101CA000E00381E0809303018D2D6F2D0E94490791
:101CB000DF91CF911F910F91FF90EF90DF900895EA
:101CC0001F920F920FB60F9211241F932F933F93E1
:101CD0004F935F936F937F938F939F93AF93BF9334
:101CE000EF93FF931FB180910001813029F480E0D0
:101CF00061E0412F0E94D70F812F0E94710BFF914D
:101D0000EF91BF91AF919F918F917F916F915F9173
:101D10004F913F912F911F910F900FBE0F901F90E9
:101D20001895282F207F25BBA89AAA9AAA9890E0F8
:101D300024E0880F991F2A95E1F785BBA89AAA9AF3
:101D4000AA988AEF90E00197F1F70895282F207F55
:101D500025BBA898AA9A2AEF30E0F9013197F1F74C
:101D6000AA98F9013197F1F790E044E0880F991FA4
:101D70004A95E1F785BBA898AA9AC9010197F1F79E
:101D8000AA9884EF91E00197F1F7089586EA9EE022
:101D90000197F1F715BA8FEF84BB80E385BBAA9A50
:101DA0002AEF30E0F9013197F1F7AA98E2EEF4E07A
:101DB0003197F1F785BBAA9AF9013197F1F7AA9803
:101DC000F9013197F1F785BBAA9AC9010197F1F79B
:101DD000AA98C9010197F1F780E285BBAA9AC901C7
:101DE0000197F1F7AA98C9010197F1F788E20E94DB
:101DF000A60E8CE00E94A60E86E00E94A60E089514
:101E0000EF92FF921F93CF93DF93EC0110E054EF1A
:101E1000E52E51E0F52E06C0D7011197F1F70E948B
:101E2000910E1F5FFE01E10FF11D80818823A1F754
:101E3000DF91CF911F91FF90EF900895882341F09B
:101E400080EA87BB662311F082ED0AC082E508C0F4
:101E500080E487BB662321F080EC8DB978940895E7
:101E60008DB90895882331F0662311F03B980895C9
:101E700092980895662311F03B9A0895929A0895D6
:101E80008FB9779BFECF8FB1089581E008956623C7
:101E900019F03B983B9A02C09298929A80E008957C
:101EA00080E00895FB019BE79093640180936501B6
:101EB0008081882311F492E016C088E28093660145
:101EC00083E005C0AC59BE4F9C93822F3196908120
:101ED000A82FB0E0282F2F5F9923A1F7AC59BE4F50
:101EE00089E28C93922FE92FF0E0EC59FE4F8DE7B9
:101EF00080839F5FE92FF0E0EC59FE4F1082089538
:101F00001F93182F9A01AB01CA01B9016050704E9E
:101F1000834E9F4FF3E0660F771F881F991FFA9536
:101F2000D1F7E4E0220F331F441F551FEA95D1F784
:101F30000E9400132150304040405040BB27A52F45
:101F4000942F832F112319F020B98CBF02C029B917
:101F500080BD1F910895EF92FF920F931F93982FCA
:101F60007A018B01882329F088E981B986E08CBF4A
:101F700004C088E98AB986E080BD892FB801A7012D
:101F80000E94800F8BE9E81686E1F80680E00807DA
:101F900080E0180739F488E98AB986EA80BD10BC68
:101FA0008EE989B91F910F91FF90EF9008958823D2
:101FB00051F0662321F0159BFECF43B909C0179B52
:101FC000FECF83B10895662329F05D9BFECF4CB907
:101FD00081E008955F9BFECF8CB108950F931F930E
:101FE000CF93DF93182F062FEA018881882331F4DD
:101FF00008C02196812F61E00E94D70F48814423B9
:10200000C1F7002351F0812F61E04DE00E94D70F0E
:10201000812F61E04AE00E94D70F82EE94E00197A1
:10202000F1F7DF91CF911F910F9108950F931F93B7
:10203000CF93DF93182F062FEA0107C02196F901ED
:102040004491812F61E00E94D70F9E01FE0184918F
:102050008823A1F7002351F0812F61E04DE00E9419
:10206000D70F812F61E04AE00E94D70F86EA9EE0F9
:102070000197F1F7DF91CF911F910F910895AEE095
:10208000B0E0E5E4F0E10C9430130D891E898EE098
:102090008C831A8309838FEF9FE79E838D839E0134
:1020A000275E3F4FCE0101966F89788DA9010E946E
:1020B00063102F813885020F131FF80110822E96AE
:1020C000E4E00C944C13ABE0B0E0E9E6F0E10C94F2
:1020D00022133C012B015A01FC01178216828381D5
:1020E00081FD03C06FEF7FEFC6C19AE0892E1E010C
:1020F0000894211C311CF3012381F20123FD8591F9
:1021000023FF81912F01882309F4B2C1853239F46C
:1021100023FD859123FF81912F01853229F490E0E1
:10212000B3010E945612E7CF982FFF24EE24992482
:10213000FFE1FF15D0F09B3269F09C3228F4903219
:1021400059F0933291F40EC09D3249F0903369F406
:1021500041E024C052E0F52A84E0F82A28C098E043
:10216000F92A25C0E0E1FE2A22C0F7FC29C0892F08
:1021700080538A3070F4F6FE05C0989C902C112490
:10218000980E15C0E89CE02C1124E80EF0E2FF2A1E
:102190000EC09E3229F4F6FC6BC140E4F42A07C05D
:1021A0009C3619F450E8F52A02C0983649F4F20139
:1021B00023FD959123FF91912F01992309F0B8CF29
:1021C000892F8554833018F08052833038F444E0EE
:1021D00050E0A40EB51E5FE359830FC0933631F073
:1021E000933779F0933509F056C020C0F50180810E
:1021F000898342E050E0A40EB51E610101E010E0C9
:1022000012C0F501C080D180F6FC03C06FEF7FEFF4
:1022100002C0692D70E042E050E0A40EB51EC60178
:102220000E944B128C015FE7F52214C0F501C080BB
:10223000D180F6FC03C06FEF7FEF02C0692D70E024
:1022400042E050E0A40EB51EC6010E9440128C016F
:1022500050E8F52AF3FE07C01AC080E290E0B3010F
:102260000E945612EA948E2D90E008171907A8F3E1
:102270000EC0F601F7FC8591F7FE81916F0190E0A9
:10228000B3010E945612E110EA940150104001156A
:10229000110579F7EAC0943611F0993669F5F7FE21
:1022A00008C0F501208131814281538184E090E0B2
:1022B0000AC0F501808191819C01442737FD40953A
:1022C000542F82E090E0A80EB91E9FE6F92257FF36
:1022D00009C050954095309521953F4F4F4F5F4F26
:1022E000E0E8FE2ACA01B901A1012AE030E00E941B
:1022F0008212D82ED21840C0953729F41F2D1F7E88
:102300002AE030E01DC01F2D197F9F3661F0903705
:1023100020F4983509F0ACC00FC0903739F09837E9
:1023200009F0A6C004C028E030E00AC0106114FD26
:10233000146020E130E004C014FD166020E132E0BA
:1023400017FF08C0F501608171818281938144E0AB
:1023500050E008C0F50180819181BC0180E090E0EF
:1023600042E050E0A40EB51EA1010E948212D82EB8
:10237000D2188FE7F82EF122F6FE0BC05EEFF522A1
:10238000D91438F4F4FE07C0F2FC05C08FEEF82231
:1023900002C01D2D01C0192DF4FE0DC0FE01ED0D72
:1023A000F11D8081803319F499EEF92208C01F5F76
:1023B000F2FE05C003C08F2D867809F01F5F0F2D38
:1023C000F3FC14C0F0FE0FC01E1510F09D2C0BC0C6
:1023D0009D2C9E0C911A1E2D06C080E290E0B30148
:1023E0000E9456121F5F1E15C0F304C01E1510F484
:1023F000E11A01C0EE2404FF0FC080E390E0B301B6
:102400000E94561202FF1DC001FD03C088E790E044
:102410000EC088E590E00BC0802F867891F001FF18
:1024200002C08BE201C080E2F7FC8DE290E0B301D4
:102430000E94561206C080E390E0B3010E9456123B
:102440009A94D914C0F3DA94F101ED0DF11D808155
:1024500090E0B3010E945612DD20A9F706C080E289
:1024600090E0B3010E945612EA94EE20C1F743CEE9
:10247000F30166817781CB012B96E2E10C943E1348
:10248000FC010590615070400110D8F7809590953F
:102490008E0F9F1F0895FC01615070400190011044
:1024A000D8F7809590958E0F9F1F08950F931F93D7
:1024B000CF93DF938C01EB018B8181FF1BC082FFE7
:1024C0000DC02E813F818C819D812817390764F4CE
:1024D000E881F9810193F983E88306C0E885F985ED
:1024E000802F0995892B31F48E819F8101969F83DE
:1024F0008E8302C00FEF1FEFC801DF91CF911F91B4
:102500000F910895FA01AA27283051F1203181F165
:10251000E8946F936E7F6E5F7F4F8F4F9F4FAF4FEB
:10252000B1E03ED0B4E03CD0670F781F891F9A1FFE
:10253000A11D680F791F8A1F911DA11D6A0F711DB2
:10254000811D911DA11D20D009F468943F912AE0BE
:10255000269F11243019305D3193DEF6CF010895A6
:10256000462F4770405D4193B3E00FD0C9F7F6CFD7
:10257000462F4F70405D4A3318F0495D31FD40529F
:10258000419302D0A9F7EACFB4E0A6959795879535
:1025900077956795BA95C9F7009761057105089514
:1025A0009B01AC010A2E06945795479537952795C0
:1025B000BA95C9F7620F731F841F951FA01D089558
:1025C000991B79E004C0991F961708F0961B881F85
:1025D0007A95C9F780950895AA1BBB1B51E107C0E6
:1025E000AA1FBB1FA617B70710F0A61BB70B881FA3
:1025F000991F5A95A9F780959095BC01CD01089532
:10260000A1E21A2EAA1BBB1BFD010DC0AA1FBB1FF6
:10261000EE1FFF1FA217B307E407F50720F0A21B68
:10262000B30BE40BF50B661F771F881F991F1A94D5
:1026300069F760957095809590959B01AC01BD01FF
:10264000CF0108952F923F924F925F926F927F92A7
:102650008F929F92AF92BF92CF92DF92EF92FF92B2
:102660000F931F93CF93DF93CDB7DEB7CA1BDB0B5E
:102670000FB6F894DEBF0FBECDBF09942A88398803
:1026800048885F846E847D848C849B84AA84B9840A
:10269000C884DF80EE80FD800C811B81AA81B98116
:1026A000CE0FD11D0FB6F894DEBF0FBECDBFED012A
:0626B0000895F894FFCF2D
:0826B600010101010101010015
:00000001FF
