:100000000C9485120C94A4120C94A4120C94A412B7
:100010000C94A4120C94A4120C94A4120C94A41288
:100020000C94A4120C94A4120C94A4120C94A41278
:100030000C9456130C94A4120C94A4120C94A412B5
:100040000C94A4120C9429820C94EB140C94A4121A
:100050000C94A4120C94A4120C94A4120C94A41248
:100060000C94A4120C94A4120C94A4120C94A41238
:100070000C94A4120C94A4120C94F8460C94A412A0
:100080000C94A4120C94A4120C94A412CC13CA13B2
:10009000CE13D013D213D413D613D813DA13DC1320
:1000A000DE13E013E213F013E413F013E613E81386
:1000B000F013EA13EC13EE13F013F013E413D6135A
:1000C000F013D813DC13E013A950C150D3500A51D8
:1000D00039514F518A51C25104520C522F533B5344
:1000E0006D53AA53C753E15321541F51DC5186531A
:1000F000A851245273528F52A952F75215535B5490
:1001000071547654AF54DE54235541555F5599557B
:10011000FC55405AC454695A575B135B3E5B915B74
:10012000715BA85BC15BD35B835ADC5AF95A0C56EE
:100130002C565356625680569756C356DA56065773
:10014000265757576657BF5736584A582559255985
:100150005E5872587A589658AA58B758CE58E558EB
:10016000035928593F5956596D5984599B59B259C9
:10017000C959D859EF59125ABB8FD78FEA8F1990A6
:100180004290B590C490CD90099130917791819132
:100190003C918791E78F96919C913194359451943D
:1001A00035983598359835989A943598BA94359805
:1001B000D7946095BB95DE957D9435987395F695AB
:1001C0002E96469682969296A397B397F89717988D
:1001D00029982F9831986F98C498D3981599279992
:1001E0003C995F99159A1F9AF3A07E9A8B9BDA9B94
:1001F000209C989C299D4C9D129E3C9EF59E0E9F96
:1002000018A0869FC89FB2A0E0A0F3A01EA0A1A046
:10021000E5A0ECA0EEA2F4A2F8A20FA329A32DA3BF
:1002200058A372A378A380A383A386A389A38CA3D6
:100230008FA393A396A399A3A1A31AA41DA4BDA4BD
:10024000CCA4FDA40BA537A5DCA4E9A4F3A441A587
:100250004EA559A55CA55FA562A565A568A56BA57A
:100260006EA590A57EA571A589A5A7A4496E697400
:1002700069616C697A652E2E2E200057617463685F
:10028000446F670042726F776E4F757400457874E3
:1002900065726E616C00506F7765724F6E0001067B
:1002A0000206010D020D01140214010802080308E0
:1002B000040801130213020304020F0F01010000DE
:1002C0000000010A020A030A0204030303030304F1
:1002D00003044E2F410047696C626172636F0057DF
:1002E00061796E6520444152540054617473756E97
:1002F0006F004C4700D202D602DF02EA02F202533C
:100300006563746F72207772697474656E005772DA
:1003100069746520736563746F722E2E0046696C74
:100320006C2044617461002D2D2D2D2D2D2D2D2D32
:100330002D2D2D2D2D2D2D2D2D2D2D2D2D2D002027
:100340002564002D2D2D2D2D2D2D2D2D2D2D2D2DDB
:100350002D2D2D2D2D2D2D2D2D2D00536563746FDD
:10036000723D25642000536563746F72205265618D
:1003700064005265616420536563746F722E2E00B1
:10038000436C656172204275666665722E2E004E62
:100390006F7420496E697469616C697A65640043A1
:1003A0006172642050726F746563746564004E6F8F
:1003B0007420496E697469616C697A656400496E7C
:1003C00069742054696D656F757400496E69742095
:1003D00054696D656F757400496E69742046616972
:1003E0006C656400496E697469616C697A65642042
:1003F0002000496E697469616C697A656420202007
:1004000000496E697469616C697A65204D4D4300DD
:10041000496E697469616C697A65204D4D432E2E71
:1004200000526573657420436172642000526573E5
:100430006574204361726420004361726420466FDA
:10044000756E642000436172642050726573656E3E
:10045000742020202020004E6F4361726420466F7C
:10046000756E6400446574656374204D4D4300509F
:100470004F5254473D252E3258004D722E42696727
:100480000025640054252E3264252E326425732500
:100490007325732573257325733A00323025732F26
:1004A00025732F25732025733A25733A257300256C
:1004B00073002573002563252E32643A004354539C
:1004C0005250003A004E2F41002573000025642E43
:1004D0002573257325730025642E257325732573D5
:1004E0002573257300544F54414C20257325730008
:1004F000544F54414C2025732573257325730025D3
:100500007325730025732573257325730025732DBB
:100510002D2D2D2D2D2D2D2D2D2D20202020202059
:10052000202020202020202020200025732D2D2D6C
:100530002D2D2D2D2D2D2D2D2020202D2D2D2D2D12
:100540002D2D2D2D2D2D2D2D004177616C203A253F
:10055000732573004177616C203A257325732573E9
:10056000257300416B6869723A2573257300416BEE
:100570006869723A257325732573257300502564C5
:100580002E2564202D20257320005025642E2564FF
:10059000202D202573202573202573004861726764
:1005A000613A2052702E2573004E2F410050554D58
:1005B000502D50524F44554354202020564F4C55F7
:1005C0004D45284C2920202020202020202020209C
:1005D0002020200050554D502D50524F445543542B
:1005E000202020564F4C554D45284C2920202020B6
:1005F0005255504941482852502900416B68697250
:10060000205368696674203A202573200041776181
:100610006C20205368696674203A202573200054AA
:1006200065726D696E616C204944203A20252E3236
:100630006420202020202020202020202020202076
:10064000202020200020202020202020204C61700D
:100650006F72616E2054757475702053686966748A
:100660003A202573202020202020002564002573B7
:1006700000300030002573002573002573002573BA
:1006800000257300257300303030303030303000BA
:100690004F70657261746F723A202573002D2D2D95
:1006A0002D2D2D2D2D2D2D2D2D2D2D2D2D2D2D2D7A
:1006B0002D2D2D2D2D2D2D2D2D2D2D2D2D2D0020A4
:1006C000202020202020202020202020202020202A
:1006D000202020202020202020202020202020201A
:1006E000202000202020202020202020202020202A
:1006F0004455504C494341544520434F50592020C4
:100700002020202020200020202020204F706572F3
:1007100061746F723A20257300202020202D2D2D2A
:100720002D2D2D2D2D2D2D2D2D2D2D2D2D2D2D2DF9
:100730002D2D2D2D2D2D2D2D2D2D2D00202020204A
:100740002053757263686172676520416D743A2049
:100750002573002020202020537572636861726722
:1007600065204473633A20257300202020202D2D1E
:100770002D2D2D2D2D2D2D2D2D2D2D2D2D2D2D2DA9
:100780002D2D2D2D2D2D2D2D2D2D2D2D00202020ED
:1007900020204D6F6E746820436F6E732041203AA5
:1007A0002052702E25730020202020204D6F6E7463
:1007B0006820436F6E732056203A202573204C002A
:1007C0002020202020546F74616C20526564656580
:1007D0006D203A2025730020202020204578706964
:1007E0007279202020202020203A2025730020200C
:1007F0002020204375727220506F696E7473202020
:100800003A20257300202020202050726576205049
:100810006F696E747320203A2025730020202020F9
:10082000204761696E20506F696E747320203A20F2
:100830002573002020202020436F7270204E616DB0
:1008400065202020203A20257300202020202043EE
:100850006F72702049442020202020203A202573E8
:100860000020202020204361726420486F6C646562
:100870007220203A20257320002020202020436170
:1008800072642049442020202020203A2025730033
:100890002020202020202020204C4F59414C54590A
:1008A00020494E464F524D4154494F4E2020202062
:1008B000202000202020202D2D2D2D2D2D2D2D2DE3
:1008C0002D2D2D2D2D2D2D2D2D2D2D2D2D2D2D2D58
:1008D0002D2D2D2D2D00202020202E2573002020B1
:1008E000202054616E64612054616E67616E202027
:1008F000285F5F5F5F5F5F5F5F5F5F5F5F5F5F2975
:100900000020202020202020202020202020202007
:1009100020202020202020002020202020202020F7
:1009200020202020202020202020202020200020E7
:1009300020202020202020202020202020202020B7
:1009400000202000202020204170707220436F641E
:10095000653A202573002573202000202020204E9A
:10096000616D6120202020203A2025730020202066
:10097000202020202020202A2A2A2050554D502097
:1009800054455354202A2A2A2020202020202000A9
:1009900020202020566F7563686572204E6F3A20C4
:1009A000257300202020204B61727475204944205B
:1009B0003A20257300202020202D2D2D2D2D2D2D8A
:1009C0002D2D2D2D2D2D2D2D2D2D2D2D2D2D2D2D57
:1009D0002D2D2D2D2D2D2D002020202020204F6469
:1009E0006F6D65746572202020203A2025730020E9
:1009F00020202020204E6F2E506F6C6973692020BC
:100A0000203A20257300002020202020204A6D6CF1
:100A10002052757069616820203A2052702E25732B
:100A2000002020202020204A6D6C204C69746572C3
:100A30002020203A202573204C0000202020202058
:100A40002048617267612F4C20202020203A2052DC
:100A5000702E25730020202020202050726F647596
:100A60006B2020202020203A2025730020202020E9
:100A7000202050756C61752F506F6D7061203A2089
:100A80005B25735D2D257300202020202D2D2D2D1D
:100A90002D2D2D2D2D2D2D2D2D2D2D2D2D2D2D2D86
:100AA0002D2D2D2D2D2D2D2D2D2D002020202020E4
:100AB0002057616B74753A20257320257320002020
:100AC000202020202053686966743A202573202056
:100AD0004E6F2E5472616E733A20257320002000F1
:100AE000202020202020202020202020204455507D
:100AF0004C494341544520434F5059202020202049
:100B0000202020004572726F72204E6F20436F6E5E
:100B10006E656374696F6E0050726F736573005316
:100B2000656E642052657175657374005B2A5D4360
:100B3000616E63656C2020205B235D456E74657279
:100B4000005B2A5D4261636B20202020205B235DD7
:100B5000456E746572005B2A5D43616E63656C204F
:100B6000205B235D456E74657220004F646F6D6578
:100B70007465723A5F2000506C6174204E6F3A20A9
:100B8000257320005B2A5D43616E63656C20202025
:100B90005B235D456E746572005B2A5D4261636B29
:100BA00020202020205B235D456E746572005B2A47
:100BB0005D43616E63656C20205B235D456E7465EB
:100BC0007220005F00496E70757420506C61742053
:100BD0004E6F3A200023295361766500342954650D
:100BE000726D49443A256420002564002564002381
:100BF00029536176650034295465726D49443A255C
:100C000064200033294E6F746966203A202020202A
:100C1000202A2945786974003229442F5420202045
:100C20003A0031294D6F6E6579203A00252E3264E5
:100C300000256400252E32640025640034294375A4
:100C400074203A20202A29457869740033294C6F92
:100C5000676F3A2020232953617665003229536952
:100C60007A653A202036295370616365203A003155
:100C700029547970653A202035295363726F6C6C62
:100C80003A002A2943616E63656C202020202020D1
:100C90002329536176650054494D45203A2000448C
:100CA000415445203A20002564002564002A294546
:100CB0007869742020202020202020232953617669
:100CC000650032294E323A202034294E343A202011
:100CD00036294E363A0031294E313A202033294EFA
:100CE000333A202035294E353A0050726F647563CF
:100CF0007420464950252E326400436F6D706C6538
:100D00007465640043616E63656C202020202000C0
:100D100049645B25645D3D252E32642020005361CB
:100D200076696E672E2E002D50756D7049442D002A
:100D3000202020204E6F7420416C6C6F77656420FA
:100D4000202020200020204475706C696361746548
:100D50002050756D70494420200020202020202044
:100D60005761726E696E67212020202020200025A7
:100D7000642E50252E3264207C2025642E50252E92
:100D8000326400232953617665002A294261636B2E
:100D90000025642E50252E3264207C2025642E50A0
:100DA000252E326400252E326400252E3264003454
:100DB00029343A2020203829383A2020202A294571
:100DC000786974003329333A2020203729373A20B4
:100DD0002020232953617665003229323A202020D1
:100DE0003629363A003129313A2020203529353A42
:100DF000005B2A5D4578697420205B235D43686150
:100E00006E6765200025642E2573002D446973707C
:100E1000656E736572204272616E642D002A2945E9
:100E200078697400322950726F64756374003129D7
:100E30004944002A29457869740025642E50252EDE
:100E40003264207C2025642E50252E32642000251B
:100E50002E3264005B2A5D4578697400362E41634A
:100E6000743A256400352E446C793A256400342E9A
:100E700054696D506F6F6C3A256400332E5472794B
:100E800053656E643A256400322E6E4E6F50756D58
:100E9000703A256400312E4D617850756D703A2599
:100EA00064005B2A5D4261636B20202020200043A8
:100EB0004F4D25643A25640020202020202D4261DA
:100EC0007564726174652D2020202020005B2A5DEE
:100ED0004261636B20202020202000332E434F4DA1
:100EE000333A34383500332E434F4D333A323332B0
:100EF00000332E434F4D333A54544C00322E42614E
:100F000075647261746500312E4D6F64653A537477
:100F1000616E64616C6F6E6500312E4D6F64653A71
:100F2000536C61766500312E4D6F64653A4E6F6E7D
:100F30006500496E76616C6964204F6C6420506175
:100F40007373776F72640020202020202045525256
:100F50004F5220202020202020202000496E766142
:100F60006C6964204E65772050617373776F72648B
:100F7000002020202020204552524F5220202020A7
:100F800020202020200020202050617373776F7272
:100F900064205361766564202020002020202020DA
:100FA000436F6D706C6574656420202020202000E4
:100FB0005B2A5D43616E63656C2020205B235D4589
:100FC0006E746572005B2A5D4261636B2020202095
:100FD000205B235D456E746572005B2A5D43616E24
:100FE00063656C2020205B235D456E746572004E46
:100FF00065773A5F202020202020202020202020FC
:101000002020200056616C69646174696E672E2E21
:10101000005B2A5D43616E63656C2020205B235D6D
:10102000456E746572005B2A5D4261636B2020200F
:1010300020205B235D456E746572005B2A5D436111
:101040006E63656C2020205B235D456E74657200C5
:101050004E65773A5F20202020202020202020206D
:1010600020202020005B2A5D43616E63656C202098
:10107000205B235D456E746572005B2A5D4261638F
:101080006B20202020205B235D456E746572005B21
:101090002A5D43616E63656C2020205B235D456E95
:1010A000746572004E65773A5F2020202020202052
:1010B0002020202020202020005B2A5D43616E63D9
:1010C000656C2020205B235D456E746572004F6C5B
:1010D000643A5F002D41646D696E69737472617466
:1010E0006F722D002D53757065727669736F722D56
:1010F000005B2A5D4261636B202020202000322E9D
:1011000041646D696E6973747261746F7200312E1F
:1011100053757065727669736F72002D4368616EE6
:1011200067652050617373776F72642D0053617629
:10113000656420005B2A5D43616E63656C2020203E
:101140005B235D456E746572005B2A5D4261636B73
:1011500020202020205B235D456E746572005B2A91
:101160005D4E6F202020205B235D59657300536125
:1011700076653F004E6577204F70657261746F72BF
:101180003A002573005B2A5D43616E63656C202025
:10119000205B235D456E746572004E6577203A5F73
:1011A0002020202020202020202020202020004E31
:1011B000616D653A002573005B2A5D4261636B20B7
:1011C00020202020202020202000322E4368616E25
:1011D00067652050617373776F726400312E4368C6
:1011E000616E6765204F70657261746F72002A29A5
:1011F0004261636B00342E5370617261746F723A96
:1012000025632000332E446563696D616C203A25A7
:10121000632000322E542E4D6F6E6579203A25647E
:101220002000312E542E566F6C756D653A25642062
:10123000005B2A5D4261636B20205B235D4E657815
:101240007400332E4D6F6E6579203A256400322E7E
:10125000566F6C756D653A256400312E5072696366
:1012600065203A25640034294272616E6420202A88
:1012700029457869740033294C6162656C2020002F
:10128000322950726F6475637400312949442020FB
:10129000202020002A294261636B2020202023295E
:1012A0004F4B202020202020004E65773A5F004FD2
:1012B0006C643A2573002A294261636B2020202048
:1012C00023294F4B202020202020004E65773A5FB5
:1012D00000456469742050726F64756374204E61B8
:1012E0006D65202020004F6C643A2573002A294246
:1012F00061636B20202020202020003229257300EC
:1013000031292573002A294261636B002564292550
:1013100073002A294261636B202020202020202096
:1013200020202020202000332950756D70506F6FD1
:101330006C696E67202020202020200032295379FC
:101340007374656D20202020202020202020202064
:101350000031294F70657261746F72202020202047
:1013600020202020200034294461746574696D6553
:10137000202A294578697420202000332944656398
:10138000696D616C202037294E657874202020001B
:10139000322950756D7020202020203629486F7327
:1013A0007420202000312950726F647563742020EE
:1013B00035295072696E746572002E002564002014
:1013C0002020002E00256400202020005B2A5D6381
:1013D000616E63656C20205B235D6E6578742020F0
:1013E000004E65773A2020205F2E2020202E2020DE
:1013F000202E202020004F6C643A2025642E256486
:101400002E25642E2564005365727665722049503E
:10141000002E00256400202020002E0025640020DE
:101420002020005B2A5D63616E63656C20205B2376
:101430005D6E6578742020004E65773A2020205F2D
:101440002E2020202E2020202E202020004F6C64D3
:101450003A2025642E25642E25642E256400436CD5
:1014600069656E742049500025732573005B2A5D01
:101470004E6F205B235D596573005361766520468E
:101480006F6F7465722564203F005B2A5D4E6F208C
:10149000205B235D59657300416C69676E2043656D
:1014A0006E7465723F005B2A5D4261636B20205B56
:1014B000235D4F4B004564697420466F6F746572FD
:1014C000256420002A2945786974202020202020C6
:1014D000202020202020202000202020202020202C
:1014E0002020202020202020202020202000322901
:1014F000466F6F7465723220203429466F6F7465B1
:101500007234003129466F6F74657231202033299F
:10151000466F6F746572330025732573005B2A5D17
:101520004E6F205B235D59657300536176652048DB
:1015300065616465722564203F005B2A5D4E6F2003
:10154000205B235D59657300416C69676E204365BC
:101550006E7465723F005B2A5D4261636B20205BA5
:10156000235D4F4B00456469742048656164657272
:10157000256420002A294578697420202020202015
:101580002020202020202020003329486561646528
:10159000723320203629486561646572360032292D
:1015A000486561646572322020352948656164654B
:1015B0007235003129486561646572312020342913
:1015C00048656164657234002A294578697400337E
:1015D0002950617373776F726420202020202020AF
:1015E000202020003229466F6F7465722020202051
:1015F00020202020202020200031294865616465BA
:10160000722020202020202020202020200032298D
:10161000466F6F74657220202020352953657276DD
:10162000657200312948656164657220202020348C
:1016300029436C69656E7400536176696E67205347
:1016400068696674446174612E2E2000257320251C
:1016500073005072696E74696E6720546F74616CA8
:10166000697A65720043616E63656C004572726FE2
:1016700072202D204E6F2050756D703A2564200029
:10168000576169742050756D703A25642000576168
:1016900069742050756D703A25642000546F746130
:1016A0006C697A65722E2E002A2945786974003398
:1016B0002E4C6F636B2050756D70202000322E43CE
:1016C0006C6F736520446179202000312E436C6F6C
:1016D00073652053686966740034295365747469AE
:1016E0006E67732020202A294578697420003329E9
:1016F000436C6F73654461792020202020202020D6
:101700002020003229436C6F73655368696674202A
:101710002020202020202000312952655072696E3F
:1017200074202020202020202020202000506173C1
:1017300073776F726420526573746F7265640049C9
:101740006E76616C696420526573746F72652020D7
:10175000003030303030003131313131005B2A5DC2
:1017600043616E63656C2020205B235D456E74656C
:1017700072005B2A5D4261636B20202020205B2386
:101780005D456E746572005B2A5D43616E63656CD6
:101790002020205B235D456E746572005F20202051
:1017A0002020202020202020202020202020202039
:1017B00000456E74657220526573746F72652043C4
:1017C0006F64652020004B6579205374616D703A19
:1017D00025732000496E76616C696420436F6465EF
:1017E00020202020202020200000257300257300C9
:1017F0005B2A5D43616E63656C2020205B235D4541
:101800006E746572005B2A5D4261636B202020204C
:10181000205B235D456E74657200005B2A5D436149
:101820006E63656C2020205B235D456E74657200DD
:101830005F20202020202020202020202020202069
:101840002020202000456E7465722047654E695542
:101850007320436F6465202020005B2A5D45786912
:101860007420202020202020202020202020003232
:101870002E4368616E67652050617373776F726481
:1018800020202000312E526573746F7265205061E4
:101890007373776F72642020002D53797374656DB4
:1018A0002041646D696E204C6576656C2D00257352
:1018B00025730025730025630032302573002573DE
:1018C0000034323634363336005B2A5D43616E6352
:1018D000656C2020205B235D456E746572005B2A79
:1018E0005D4261636B20202020205B235D456E7488
:1018F0006572005B2A5D43616E63656C2020205B2E
:10190000235D456E746572005F0050415353574F1D
:1019100052443A004163636573732044656E6965A0
:1019200064005443502F4950204572726F72004E2C
:101930006F205265706C792020202000202020200C
:1019400020202000506C6561736520576169740028
:1019500025730050554D50205445535400257300B5
:1019600025730025730025730025730050726F7373
:101970006573002D4D4F5020566F75636865722D4D
:101980000050726F7365730049443A2573005B2AF7
:101990005D4261636B202020205B235D4578697484
:1019A00000464950257300546170204B6172747574
:1019B0002052464944005B2A5D43616E63656C209A
:1019C00020205B235D456E746572005B2A5D426179
:1019D000636B20202020205B235D456E74657200C0
:1019E0005B2A5D43616E63656C2020205B235D454F
:1019F0006E746572005375726368617267653A2030
:101A000020205F25002573005B2A5D4261636B0027
:101A100025642E25730053656C6563742042616EE6
:101A20006B005B2A5D43616E63656C2020205B2345
:101A30005D456E746572005B2A5D4261636B2020B8
:101A40002020205B235D456E746572005B2A5D4338
:101A5000616E63656C2020205B235D456E7465724A
:101A6000005F004B6F646520566F75636865720098
:101A70005B2A5D4261636B202020202020202020F3
:101A80002020202000322E42616E6B202020203446
:101A90002E50756D705465737400312E4163636F01
:101AA000756E7420332E566F756368657220002042
:101AB000202053656C656374205061796D656E7488
:101AC0002020200043524544495443415244005B86
:101AD0002A5D4261636B20202020202020202020CE
:101AE00020202000322E43726564697420436172A5
:101AF000642020202020202000312E44656269745B
:101B00002F466C6173682043617264202000536526
:101B10006C65637420436172642054797065004E73
:101B20006F20436F6E6E656374696F6E005443502F
:101B30002F4950204552524F522000507265737306
:101B400020416E79204B657900436D20566F6C3AC9
:101B5000257300434D20416D743A257300506F6921
:101B60006E74733A25730025733A25730050726FB3
:101B70007365730049443A2573005B2A5D426163D3
:101B80006B202020205B235D4578697400546170D0
:101B9000204B617274752052464944005B2A5D42B5
:101BA00061636B202020205B235D457869740054BD
:101BB0006170204B61727475205246494400464959
:101BC000503A2573005B2A5D4261636B2020202020
:101BD00020202020202000322E4C6F79616C7479F7
:101BE000205570646174652000312E456E717569F1
:101BF000727920202020202020200020204D656E9A
:101C000075204C6F79616C7479202020004E6F2014
:101C1000436F6E6E656374696F6E005443502F4955
:101C200050204552524F5220005B2A5D4261636B47
:101C3000202020205B235D4578697400546170206A
:101C400053757065727669736F72204361726400B8
:101C500052655072696E74204649503A25732000CF
:101C6000546964616B20416461205472616E7361D8
:101C70006B736920004163636573732044656E690B
:101C8000656400252E3264002A2945786974002392
:101C9000294F4B20002020202020004649503A5F49
:101CA0000025642E502573207C2025642E5025733A
:101CB000003032257325732573257325732573250D
:101CC00073003000202020202020202020202020F1
:101CD00020202020202020200023257300252E32C4
:101CE0006400404649503A00202020202020202037
:101CF0002020202020202020202020200050726939
:101D00006E74696E672046495025732000443A2559
:101D10006420433A25632020002573202573004E5C
:101D20006F2050756D7020466F756E64005443507F
:101D30002F4950204572726F720050756D70466F5A
:101D4000756E6400436F6E6E656374656420202059
:101D500020202020202020200020202020202020A3
:101D6000202020202020202020202020002573005B
:101D70005363616E2050756D7000436F6E6E6563C6
:101D80007420202020202020202000436F6E6E65CC
:101D9000637400436F6E6E656374202020202020E2
:101DA00020202000434F4D25643A25692020202023
:101DB0002020202020202000496E697469616C6910
:101DC0007A6520434F4D202E2E2E000A47654E691E
:101DD0005573205469636B6574205072696E746525
:101DE00072200A2056657273696F6E3A25730A2055
:101DF0004C61737420557064617465202573200AEA
:101E00002048616E696E646F204175746F6D6174F6
:101E1000696F6E20536F6C7574696F6E73200A2042
:101E20007777772E68616E696E646F67726F757011
:101E30002E636F6D0A0A0A0A0A0A0A0A0032342F50
:101E400030322F3230313100322E33374600467572
:101E5000656C696E6720404649503A2325640054FA
:101E600072616E73616B73692053656C6573616930
:101E70000049443A2025730025730050257320251E
:101E800073200046495020546964616B2053696196
:101E9000702020202000417574686F72697361732F
:101EA0006920426572686173696C00417574686F7E
:101EB00072697361736920476167616C202020003B
:101EC0002020202020202000202020202020202032
:101ED000202020202020202020202020004D6F685E
:101EE0006F6E2054756E676775202020202020209B
:101EF0002000257300502573202573200043616E58
:101F000063656C205472616E73616374696F6E20D7
:101F100020005B2A5D4261636B205B305D4553436B
:101F2000205B235D4F4B00257320002046756C6CB1
:101F300000257320202573200049443A2025730092
:101F4000257320005B2A5D4261636B20205B235D6B
:101F50004F4B202020004F646F6D657465723A5FAF
:101F60002020202020202000257320002020257301
:101F7000202573200050756D702050726F6475635A
:101F80007420416D6F756E740050756D70205072C5
:101F90006F6475637420566F6C756D6500202054F6
:101FA000616E6B0020202573202573200050756D15
:101FB000702050726F6475637420202046756C6CBD
:101FC000005B2A5D4261636B20205B235D4F4B20E9
:101FD0002020202020005B325D416D6F756E743AC9
:101FE0005F202020202020202020002020202020D2
:101FF0002020202020202020202020202020200001
:102000005025732D257320005B2A5D4261636B2090
:10201000205B235D4F4B202020202020002020200B
:1020200020202020202020202020202020202020B0
:1020300020005B315D566F6C756D653A5F20202026
:10204000202020202020005025732D2573200041C2
:1020500000410056005B2A5D4261636B2020202016
:102060005B235D4E6578742020005B325D416D6FAF
:10207000756E742020202020202020202020005B4E
:10208000315D566F6C756D6520202020202020204A
:10209000202020005025732D257320002573005B20
:1020A0002A5D4261636B20202020202020202020F8
:1020B0002020200020202020200025642E257300D1
:1020C000257300506F6D70612D257300252E3264CD
:1020D00000252E3264005B2A5D426174616C202011
:1020E00020202020205B235D4F4B0025732025738B
:1020F000002573002573002573004B6172747520F1
:102100005465726261746173202020202020005485
:102110006964616B20546572646166746172202029
:1021200020202000446174612052656365697665F2
:102130006420202020202020005443502F4950208C
:102140004572726F722020202020202020005365CD
:102150006E64696E67204661696C6564202020208A
:10216000202000202020202020200050726F736546
:10217000730049443A2573002020204C6F63616C42
:10218000204163636F756E7420202000252E326419
:1021900000463936384346464200257300257325EC
:1021A0007325730025732573257325730025732507
:1021B00073002573004630303030303030453132D6
:1021C0003334353646464646460025732573256426
:1021D000002573257325640025730025732573007E
:1021E000257325730025732573002573257300253A
:1021F00073257300257300257300252E32580025A2
:102200002E33642E252E33642E252E33642E252E58
:10221000336400252E33642E252E33642E252E3371
:10222000642E252E336400252E326400252E326460
:1022300000257320257300322E3337460047654E44
:1022400069557300507265737320616E79206B65F8
:10225000792E2E2020202020005B315D536C61768A
:1022600065205B325D5374616E64616C6F6E6500F6
:102270003E00252E326400252E32640030003100ED
:10228000256400252E326400257300257300257314
:10229000003C003C4F4B3E00256400256400256453
:1022A000003C536176696E673E004C656E677468EA
:1022B0003A256400257300257300257300257300FB
:1022C000257300252E3264002564002573002573D4
:1022D000002573002564004E2F41002564002573FE
:1022E00000257300546964616B204164612054725D
:1022F000616E73616B73692000546F74616C697AED
:102300006572416C6C202020202000436C65617256
:10231000204461746120546F74616C697A65720045
:1023200020202020202020202020202020202020AD
:102330000052656164792E2E2E202020202020203E
:1023400020202020200052656164792E2E2E20202E
:1023500020202020202020202020004E6F205265A9
:1023600073706F6E73652E2E202020202020200099
:10237000506C6561736520576169742E2E20202092
:10238000202020200052656164792E2E2E202020EE
:1023900020202020202020202000546964616B2010
:1023A000416461205472616E73616B7369200053E4
:1023B0006564616E6750726F7365730034333536D0
:1023C00041333141002020202020202020202020C7
:1023D000202020202020202020002020202020201D
:1023E000202020202020202020202020202000200D
:1023F00020202020202020202020202020202020DD
:1024000020202000202020202020202020202020EC
:1024100020202020202020200030202E000000310D
:102420002E2C3F2100326162630000336465660038
:1024300000346768690000356A6B6C0000366D6EA9
:102440006F00003770717273003874757600003950
:102450007778797A0030202E0000003126402B2D2D
:1024600000324142430000334445460000344748AF
:10247000490000354A4B4C0000364D4E4F000037A6
:102480005051525300385455560000395758595A34
:1024900000020403030303030403044D4D432057C8
:1024A00072697465204661696C656400577269746D
:1024B000652053756365737366756C6C00436D645A
:1024C00020526573706F6E7365204F4B00535044FC
:1024D000523D252E3258002D6D6D635F7772697401
:1024E000652D005265616420526573706F6E73656F
:1024F000204661696C6564005265616420526573B1
:10250000706F6E7365204F4B000011241FBECFEF1C
:10251000D0E1DEBFCDBF11E0A0E0B1E0EEE2F9E630
:1025200001E00BBF02C007900D92AE34B107D9F79E
:102530001EE0AEE4B1E001C01D92AC3CB107E1F792
:102540000E943D130C9495B40C9400001092C302A9
:1025500004B600FE0BC014BE81E061E046E952E023
:102560000E9479A781E08093C30218C004B601FEDF
:1025700006C014BE81E061E04DE852E00DC004B633
:1025800002FE06C014BE81E061E044E852E004C0EF
:1025900081E061E04BE752E00E9479A714BE80EE33
:1025A0009EE220E731E0F9013197F1F70197D9F781
:1025B00008950E94C7A60E94A6A70E9434160E94F2
:1025C000A61284E061E04CE652E00E9479A788EB15
:1025D0009BE020E731E0F9013197F1F70197D9F756
:1025E0009FEF9BBB9ABBDB9A98BB97BB8DE082BBEE
:1025F00089E081BB909370008EE083B982B91B9A09
:102600001A989093620080EF8093610080E061E00F
:102610000E94BFA9BB9AC39ABA98C29AB998C19AA4
:102620008EB588608EBD87B7806187BF789488E05B
:102630009DE39BBD8ABD8EB583608EBD81E060E069
:102640000E94F4780E9417A681E08093B70210924E
:10265000B802809165008D7F809365000E94274CB1
:102660000E94A6A781E060E00E94BFA982E00E94CC
:10267000D2A9BB98C39ABA9A08950E94D9120E940F
:10268000DF1CFDCF9C01E199FECF3FBB2EBBE09A42
:102690008DB308959C01E199FECF3FBB2EBB6DBB6E
:1026A0000FB6F894E29AE19A0FBE08951F920F9226
:1026B0000FB60F9211242F936F937F938F939F9355
:1026C0008091B702813059F48091B8028F5F809376
:1026D000B802863921F41092B7021092B8028091A4
:1026E000BE01882331F081508093BE01BD9AC59808
:1026F00005C098B388B38095892B88BB8091BC01B5
:102700008F5F8093BC01809192018F5F80939201D3
:10271000209193012F5F20939301822F65E00E9407
:10272000FCB3992371F483B194E0892783B9809134
:1027300094018F5F809394018091B8018F5F8093A3
:10274000B801822F6AE00E94FCB3992329F480919A
:10275000BD018F5F8093BD018091910E8F5F80934B
:10276000910E9F918F917F916F912F910F900FBE3E
:102770000F901F90189586E10895E82FF0E0EE3154
:10278000F10570F5EA5BFF4FEE0FFF1F0590F49126
:10279000E02D099481E3089585E4089582E3089586
:1027A00083E3089584E3089585E3089589E6089511
:1027B0008EE6089581E6089584E608958FE40895ED
:1027C00086E4089583E508958DE2089580E50895EF
:1027D00089E4089586E5089584E5089584E70895D9
:1027E00088E708958093B0056093E00D81E08093C1
:1027F00086010895282F823039F481E08093AC025D
:102800001092AB021092AA028091AC02813069F45E
:102810008091AA029091AB02FC01EA5DF44F208303
:1028200001969093AB028093AA02233041F08091ED
:10283000AA029091AB028D34910508F499C01092D0
:10284000AC023091280B30518091270B2AE0829FF7
:10285000C0011124380F333009F065C0E9E2FBE014
:10286000A0EABEE081918D938BE0EF32F807D1F7BB
:102870001092A60E80818093C20781818093C30746
:102880001092C4073296ACEBBEE081918D938BE041
:10289000E034F807D1F71092CB0EA2E9BDE08191A8
:1028A0008D938BE0E335F807D1F71092A50D20E06A
:1028B00030E0F901E750F84FD901AA5DB44F9D9679
:1028C0008C9180832F5F3F4F2630310591F7109216
:1028D000FF0720E030E0F901E45AF84FD901AA5D82
:1028E000B44FD3968C9180832F5F3F4F2A303105B0
:1028F00091F71092660720E030E0F901E853F24FBB
:10290000D901AA5DB44FDD968C9180832F5F3F4F34
:102910002E30310591F71092D60D81E080939B0106
:1029200080939C010895343019F5E9E2FBE0A9EFAA
:10293000B7E081918D938BE0EF32F807D1F71092D9
:10294000FF07ACE5B7E081918D938BE0E933F807A1
:10295000D1F710926607A8ECBDE081918D938BE0D2
:10296000E734F807D1F71092D60D81E080939D01EE
:1029700008950895982FE8E7F8E0808181833197E2
:1029800088E0E536F807C9F79F012F5F3F4F918335
:1029900084858230F9F4809167088A30D9F49330C5
:1029A000C9F4F9013A96A6E6BEE080818D9331978D
:1029B00088E0E836F807C9F710926E0E81E0809340
:1029C0009A018093B7021092B802809165008D7FC2
:1029D0008093650008951F920F920FB60F921124F5
:1029E0008F939F939CB18091B401813021F08091AD
:1029F000B601813051F4933121F481E08093B50127
:102A000004C0913111F41092B5019F918F910F90F4
:102A10000FBE0F901F90189580E00895282F809189
:102A2000A8028936E9F48091A7028334C9F4809121
:102A3000A6028F36A9F48091A5028E3689F4809182
:102A4000A402863669F48091A3028F3349F4809101
:102A5000A2028D3029F42A3019F482E08093B20169
:102A600080918701813069F480918B0190918C0174
:102A7000FC01EA5DF44F2083019690938C018093D2
:102A80008B018091A202843051F42034E9F481E07A
:102A90008093870110928C0110928B0115C08530B4
:102AA00099F4203589F480918B0190918C01909359
:102AB0008E0180938D0110928C0110928B011092E7
:102AC000870181E08093B2018091A7028093A802E0
:102AD0008091A6028093A7028091A5028093A6020E
:102AE0008091A4028093A5028091A3028093A40206
:102AF0008091A2028093A3022093A2020895BD9A1E
:102B0000C5988093BE01089508958F7008958295A9
:102B10008F700895982F8A3010F4805D08958A5040
:102B2000863010F080E00895892F895C0895282F61
:102B3000FB01982F92959F709A3018F4892F805D31
:102B400008C0892F8A50863010F080E002C0892F9B
:102B5000895C8083922F9F709A3018F4892F805D52
:102B600008C0892F8A50863010F080E002C0892F7B
:102B7000895C818312820895FC0180812AE0829F12
:102B8000900111248051820F0895582FFB0164E6B3
:102B90000E94FCB3A82F852F0E94FCB3892F6AE006
:102BA0000E94FCB3482F8CE99FEFA89F802D112431
:102BB000850F26EF3FEF429F902D1124980F54363A
:102BC00040F0A05DA083405D4183905D92831382BD
:102BD00008955B3018F4905D9083118208950895F4
:102BE00008950895089520E030E0F901EE56F24F7F
:102BF000D901AA59B14F8C9180832F5F3F4F283064
:102C0000310599F710929A0D0895CF93DF93DB0168
:102C1000EC0120E030E007C0FD01E20FF31F8991D5
:102C200080832F5F3F4F2417B8F3A40FB11D1C9270
:102C3000DF91CF910895CF93DF93DB01EC01C40FB7
:102C4000D11D40E050E007C0FD01E40FF51F899160
:102C500080834F5F5F4F4217B8F3A20FB11D1C92E4
:102C6000DF91CF910895089581E08093B70210928B
:102C7000B802E5E6F0E080818D7F808308958230A0
:102C800059F0823018F0833021F409C020E835E291
:102C900008C020E030E005C020E03BE402C02BE9A2
:102CA00036E1C9010895E199FECF84E491E09FBB2C
:102CB0008EBBE09A8DB380934E01E199FECF89E4FB
:102CC00091E09FBB8EBBE09A8DB380934F01089536
:102CD000089508950895862708950895882319F082
:102CE000813049F511C0262F30E0240F311DC90174
:102CF0006AE070E00E9429B4482FC9016AE070E0E0
:102D00000E9429B4460F18C0662309F461E04423E9
:102D100009F441E0469F90011124C9016AE070E086
:102D20000E9429B4462FC9016AE070E00E9429B4CC
:102D3000642F482FD8CF40E0842F089581E0089574
:102D4000FF920F931F93CF93DF93F0904E01EC010E
:102D500000E010E009C08EE00E94BD139881981732
:102D600009F41F5F0F5F21960F15A8F3812FDF91E4
:102D7000CF911F910F91FF9008950895089581E0DC
:102D800008950895FC018081841718F48F5F808373
:102D9000089560830895FC018081681718F48150BC
:102DA0008083089540830895582FFB01843600F1F5
:102DB00064E60E94FCB3482F852F0E94FCB3892F44
:102DC0006AE00E94FCB3405D40834053805D818394
:102DD0008053505D2CE93FEF429F402D1124450F59
:102DE00026EF3FEF829F802D1124840F828310C035
:102DF0008A508A3578F480E38083852F6AE00E94C8
:102E0000FCB3805D8183852F0E94FCB3905D92832B
:102E1000138208955A3030F480E380838183505DBB
:102E2000528313820895813029F0823019F0833063
:102E300009F080E008950895CF93DF93EB01DA0164
:102E4000A80FB91F40E050E007C0FE01E40FF51FD6
:102E50008D9180834F5F5F4F42175307B0F3C20FCE
:102E6000D31F1882DF91CF9108950F931F93CF93B3
:102E7000DF938C01DB01EB01C40FD51F60E070E034
:102E800007C0F801E60FF71F808189936F5F7F4FBE
:102E900062177307B0F3A40FB51FA20FB31F1C92E4
:102EA000DF91CF911F910F910895FB01E80FF91F5A
:102EB000808108958091260B813051F480918D019D
:102EC00090918E018F9721F480914B0B8053089540
:102ED00080E0089590914D0B20E030E0F901E55637
:102EE000F74FD901AA5DB44F97968C9180832F5FDD
:102EF0003F4F2431310591F71092AF0820E030E0C8
:102F0000F901E455F84FD901AA5DB44FDB968C91D5
:102F100080832F5F3F4F2431310591F71092C00716
:102F200020E030E0F901EB5DF74FD901AB58B44F29
:102F30008C9180832F5F3F4F2431310599F7109298
:102F4000390820E030E0F901ED51F24FD901A757DF
:102F5000B44F8C9180832F5F3F4F2431310599F717
:102F60001092F70D892F8053089520E030E0F90189
:102F7000EE56F24FD901AA5DB44F95968C9180839D
:102F80002F5F3F4F2431310591F71092A60D20E0BD
:102F900030E0F901E35DFC4FD901AA5DB44FD99649
:102FA0008C9180832F5F3F4F2E31310591F7109226
:102FB0004B0380917D0B809393031092940320E048
:102FC00030E0F901E25CF74FD901A258B44F8C917F
:102FD00080832F5F3F4F2830310599F710924608C4
:102FE00020E030E0F901E957FC4FD901AA57B44F6E
:102FF0008C9180832F5F3F4F2A30310599F71092D3
:10300000910320E030E0F901E650F24FD901A057DA
:10301000B44F8C9180832F5F3F4F2A30310599F751
:103020001092040E20E030E0F901E853F24FD9018C
:10303000A656B44F8C9180832F5F3F4F23313105CB
:1030400099F71092DB0D20E030E0F901E454F24FE3
:10305000D901A355B44F8C9180832F5F3F4F273008
:10306000310599F71092C30D20E030E0F901EC53DF
:10307000FD4FD901AC54B44F8C9180832F5F3F4FEB
:103080002430310599F71092C80280E00895CF935B
:10309000DF9380914B0B893511F490E801C090E0EB
:1030A00080914C0B893509F4906480914D0B8935E2
:1030B00009F49062906180914E0B8053813108F445
:1030C000982BC0918F01D091900120E030E00BC08F
:1030D000F901EB50FC4FD901AA5DB44F9C968C913D
:1030E00080832F5F3F4F2C173D0790F3CB50DC4F71
:1030F0001882892FDF91CF91089520E030E006C03B
:10310000FC01E20FF31F40832F5F3F4F2617370765
:10311000B8F3089520E030E0F901E056F14FD9010D
:10312000AA5DB44F95968C9180832F5F3F4F2630D8
:10313000310591F71092A60E8091510B8093C20732
:103140008091520B8093C3071092C40720E030E0B7
:10315000F901EB5EF74FD901AA5DB44F9D968C91B2
:1031600080832F5F3F4F2F30310591F71092240855
:1031700020E030E0F901E955FA4FD901AA5DB44FDA
:10318000DC968C9180832F5F3F4F2630310591F77D
:103190001092AD0520E030E0F901E258FC4FD90172
:1031A000A859B44F8C9180832F5F3F4F2830310551
:1031B00099F71092860320E030E0F901E454F24FD1
:1031C000D901A059B44F8C9180832F5F3F4F283095
:1031D000310599F71092C40D8091780B8093930379
:1031E0001092940320E030E0F901EB5FFC4FD9012D
:1031F000A758B44F8C9180832F5F3F4F2930310502
:1032000099F710920E0308951F93813009F05FC063
:103210006F32710521F080911401882321F481E03F
:103220008093A0014AC06C36710511F0893021F4F9
:1032300081E08093A50141C092E06736790711F0E3
:103240008B3021F481E08093A20137C06139710590
:1032500011F0873121F481E08093A4012EC0663EF5
:10326000710511F0893321F481E08093A70125C015
:1032700091E06839790711F0833621F481E0809379
:10328000A1011BC091E0663B790711F0813521F463
:1032900081E08093A80111C06C35710511F08B3568
:1032A00021F481E08093A90108C06635710511F011
:1032B000853119F481E08093A3011091A9011130A7
:1032C00031F41092A9010E948A18109399011F915C
:1032D0000895FC01DC0180E090E202C09D938F5FC5
:1032E0008617E0F3E60FF11D10820895DC0120E05F
:1032F00030E09C9190539A3008F090E011968C91B8
:10330000119780538A3008F080E0FB01E20FF31F31
:103310008F709295907F982B90832F5F3F4F1296DE
:103320002630310531F70895CF93DF93EB01DB01B0
:1033300020E030E0FC01E20FF31FE0814E2F4295C8
:103340004F704A3010F040E301C0405DEF70EA304A
:1033500010F0E0E301C0E05D4C931196EC931197FF
:103360002F5F3F4F12962630310521F71C86DF91E3
:10337000CF910895861708F4865F861B805D0895B7
:103380008056860F6AE00E9408B4892F805D0895F8
:103390008A3010F080E30895805D089580538A306C
:1033A00008F080E008950895482FFB01181664F492
:1033B000562FDB0190E29D938A2F851B8417D8F34B
:1033C000E40FF11D1082089580E280831182089538
:1033D000863051F1873070F4833011F1843028F455
:1033E0008130C1F08230C1F419C08430D9F0853009
:1033F00099F422C08930F1F08A3028F48730B1F096
:10340000883051F415C08B30D9F08B30B8F08C3047
:1034100019F418C08AED089580E0089582EC0895AB
:103420008FEB089583EC089584EB089580EC089564
:1034300081EC089589ED089585EC089583EB089556
:1034400084EC08958DE00895BF92CF92DF92EF92C1
:10345000FF920F931F93CF93DF93B82E8B01E42E2F
:103460006901F901C081D1810C0F1D1FFF2407C024
:103470008B2D0E94E819F80181938F01F394FE14BB
:10348000B8F3CE0DD11DF601D183C083DF91CF916A
:103490001F910F91FF90EF90DF90CF90BF90089514
:1034A00008950895089508950895E82F282F2F70FE
:1034B000822F869586958695A82FB0E0AF51B24FA2
:1034C0004C91623059F4277081E090E002C0880F7F
:1034D000991F2A95E2F7482B4C9308956330B1F475
:1034E00027708EEF90E001C0880F2A95EAF7E695E5
:1034F000E695E695F0E0EF51F24F282F30E0209569
:10350000309535952795822B8423808308958F707D
:10351000E82FE695E695E695F0E0EF51F24F9081C1
:10352000292F30E0877002C0359527958A95E2F7FC
:103530002130310511F482E00895232B11F483E04A
:10354000089580E00895DF93CF9300D000D00F92CC
:10355000CDB7DEB7982FE199FECF27E331E03FBB2F
:103560002EBBE09A8DB3891751F0E199FECF3FBB96
:103570002EBB9DBB0FB6F894E29AE19A0FBE913034
:1035800019F0923071F408C0198283E08A831B829B
:1035900082E08C831D8205C019829A831B829C83E2
:1035A0009D8329E330E0FE013196E199FECF3FBBD8
:1035B0002EBBE09A8DB39081891751F0E199FECF2F
:1035C0003FBB2EBB9DBB0FB6F894E29AE19A0FBEAB
:1035D0002F5F3F4F319680E02E33380731F70F9041
:1035E0000F900F900F900F90CF91DF910895DF9380
:1035F000CF93CDB7DEB762970FB6F894DEBF0FBE9C
:10360000CDBF2091C3032F832091C403288720912D
:10361000C6032C832091C7032D832091C9032983DE
:103620002091CA032A8320917D082A8720917E0851
:103630002B87209180082D87209181082E8720914B
:103640008308288B20918408298B1A8A1F861C8660
:103650001B821E8219862DB73EB7205130400FB60F
:10366000F8943EBF0FBE2DBFEDB7FEB73196ADB794
:10367000BEB712969C938E9311978BE994E0938337
:103680008283CE01019695838483CE01049697832D
:103690008683CE01079691878087CE010A9693870D
:1036A0008287CE010D9695878487CE0140969787B5
:1036B00086870E943CB12DB73EB7205F3F4F0FB6C3
:1036C000F8943EBF0FBE2DBF62960FB6F894DEBFD2
:1036D0000FBECDBFCF91DF91089500D000D000D0B4
:1036E000EDB7FEB73196ADB7BEB712967C936E9329
:1036F00011972FE43EE033832283848315820E9456
:103700003CB18DB79EB706960FB6F8949EBF0FBE1C
:103710008DBF08950F931F93DF93CF93CDB7DEB77F
:1037200064970FB6F894DEBF0FBECDBF8DB79EB7BE
:1037300008970FB6F8949EBF0FBE8DBFEDB7FEB7CA
:1037400031968E010F5F1F4FADB7BEB712961C9317
:103750000E9311978DE09DE19383828315821482ED
:10376000178216820E943CB18DB79EB708960FB69D
:10377000F8949EBF0FBE8DBF81E061E0A8010E945A
:103780004DA788EE9DEF29E130E0F9013197F1F77F
:103790000197D9F780E064960FB6F894DEBF0FBEAC
:1037A000CDBFCF91DF911F910F9108950F931F937C
:1037B000DF93CF93CDB7DEB7A8970FB6F894DEBFEF
:1037C0000FBECDBF80910101813009F04AC0109237
:1037D00001018093B7021092B802809165008D7F3D
:1037E0008093650080914E01482F50E020E030E04A
:1037F000BE016F5F7F4F0AC0FB01E20FF31FD901CB
:10380000AE5FBE4F8C9180832F5F3F4F24173507EB
:1038100098F3460F571FDA011C9200D000D000D059
:10382000EDB7FEB731968E010B5E1F4FADB7BEB739
:1038300012961C930E93119784EB92E293838283EA
:10384000758364830E943CB1EDB7FEB736960FB620
:10385000F894FEBF0FBEEDBF84E061E0A8010E94B6
:103860004DA7A8960FB6F894DEBF0FBECDBFCF917F
:10387000DF911F910F91089580917602813049F078
:10388000813028F0823019F1833071F529C081E050
:1038900023C00E94A6A781E061E04BE958E00E94A6
:1038A0004DA782E061E04CEA57E00E944DA783E01B
:1038B00061E045E258E00E944DA784E061E043EEFC
:1038C0005DE00E944DA71092940182E005C08091B6
:1038D00094018B3048F083E08093760280E0089575
:1038E0001092760281E0089580E00895CF92DF92F1
:1038F000EF92FF920F931F93DF93CF93CDB7DEB775
:10390000A8970FB6F894DEBF0FBECDBF00D000D091
:103910006E010894C11CD11CADB7BEB71296DC92E3
:10392000CE9211978DE392E214969C938E93139707
:103930000E943CB12BE0E22EF12CEC0EFD1EEDB707
:10394000FEB7F282E18287E392E2948383830E944E
:103950003CB100D000D0EDB7FEB731968E010B5EC2
:103960001F4FADB7BEB712961C930E93119781E30C
:1039700092E293838283D582C482F782E6820E9498
:103980003CB1EDB7FEB738960FB6F894FEBF0FBE48
:10399000EDBF0E94A6A781E061E0A8010E944DA7AB
:1039A000A8960FB6F894DEBF0FBECDBFCF91DF91C2
:1039B0001F910F91FF90EF90DF90CF900895AF92FD
:1039C000BF92DF92EF92FF920F931F93DF93CF93FB
:1039D000CDB7DEB7C654D0400FB6F894DEBF0FBEE9
:1039E000CDBF809163009091C60184FD09C09923E9
:1039F00019F481E08093C40181E08093C60107C07F
:103A0000913019F482E08093C4011092C601809134
:103A1000630083FD03C01092C50103C081E0809361
:103A2000C5012091630000D000D000D0EDB7FEB7F3
:103A300031968E010F5F1F4FADB7BEB712961C9324
:103A40000E9311978FE694E09383828324831582EB
:103A50000E943CB12DB73EB72A5F3F4F0FB6F89496
:103A60003EBF0FBE2DBF81E061E0A8010E944DA7BF
:103A700001E00093C6011092C501809115018530C7
:103A800009F47EC0863090F4823009F442C083305D
:103A900030F4882309F1813009F000C238C0833046
:103AA00009F447C0843009F0F9C158C0883009F4DE
:103AB0002CC1893038F4863009F49BC0873009F076
:103AC000EDC1FAC08A3009F4BCC18A3008F4A6C13D
:103AD0008B3009F0E3C140C00E94A6A781E061E0FD
:103AE00044E654E00E9479A7809165008C60809341
:103AF000650080916400837F8093640082E061E0D0
:103B000047E554E00E9479A700931501C7C182E000
:103B1000C3C182E061E045E454E00E9479A780E0FF
:103B200061E049E354E00E94FDAB1092940183E010
:103B3000B3C180919401863008F4B0C182E061E0A5
:103B40004DE254E00E9479A780E061E041E254E058
:103B50000E94FDAB8BE0A0C184E09EC10E94A6A79D
:103B600084E061E040E154E00E9479A780E061E0F8
:103B700041E054E00E94FDAB1092940185E08CC1BD
:103B80000E9484B08823F9F483E08093C40184E028
:103B900061E042EF53E00E9479A780E061E044EEEB
:103BA00053E00E94FDAB81E090E0A0E0B0E08093A4
:103BB000170E9093180EA093190EB0931A0E86E06C
:103BC0008093150106C080E061E048ED53E00E945B
:103BD000FDAB80919401863008F460C184E061E01F
:103BE0004BEC53E00E9479A780E061E04EEB53E09C
:103BF0005EC08091DC0D9091DD0DA091DE0DB09145
:103C0000DF0D0197A105B105E1F48091C401833076
:103C100081F488EC90E0A0E0B0E08093C001909344
:103C2000C101A093C201B093C30187E08093150145
:103C300008C080E061E04EEA53E00E94FDAB1092C4
:103C400015018091170E9091180EA091190EB09148
:103C50001A0E0197A105B10509F020C18091C50197
:103C6000813079F41092170E1092180E1092190EDE
:103C700010921A0E80E061E04FE953E00E94FDAB24
:103C80000DC18091C401833071F488EC90E0A0E014
:103C9000B0E08093C0019093C101A093C201B093A2
:103CA000C30189E0F9C080E061E04FE853E00E9481
:103CB000FDAB10921501F2C080E061E040E853E0F6
:103CC0000E94FDAB80E090E0FC01E35EF64F1082C5
:103CD000019632E080309307B9F780E061E042E777
:103CE00053E00E94FDAB6091C0017091C1018091D1
:103CF000C2019091C3010E9428AD80E061E046E6D8
:103D000053E00E94FDAB88E0C7C08DB79EB708970F
:103D10000FB6F8949EBF0FBE8DBFEDB7FEB73196BC
:103D20008E010B5E1F4FADB7BEB712961C930E935C
:103D300011978BE593E0938382838091C0019091EA
:103D4000C101A091C201B091C30184839583A68370
:103D5000B7830E943CB12DB73EB7285F3F4F0FB6E7
:103D6000F8943EBF0FBE2DBF80E061E0A8010E9425
:103D7000D5AB80E061E043E453E00E94FDABEE246C
:103D8000FF24D02E012F3FE3A32E33E0B32EF70103
:103D9000E35EF64F808100D000D000D0EDB7FEB7D3
:103DA0003196ADB7BEB71196DC92119712960C936F
:103DB000B382A282848315820E943CB1C70164E170
:103DC00070E00E9415B42DB73EB72A5F3F4F0FB683
:103DD000F8943EBF0FBE2DBF892B19F480E061E03F
:103DE00002C080E060E04D2D502F0E94D5AB0894BA
:103DF000E11CF11C30E0E31632E0F30641F680E00E
:103E000061E047E253E00E94FDAB1092DC0D10929E
:103E1000DD0D1092DE0D1092DF0D3DC080E061E0FF
:103E20004DE153E00E94FDAB80E090E0FC01E35ED9
:103E3000F64F80830196A2E080309A07B9F78AE0B6
:103E40002BC080E061E04EE053E00E94FDAB60914A
:103E5000C0017091C1018091C2019091C3010E9483
:103E600029AE80E061E04FEF52E00E94FDAB10927E
:103E7000170E1092180E1092190E10921A0E81E061
:103E800090E0A0E0B0E08093DC0D9093DD0DA09376
:103E9000DE0DB093DF0D86E080931501CA5BDF4F26
:103EA0000FB6F894DEBF0FBECDBFCF91DF911F914B
:103EB0000F91FF90EF90DF90BF90AF900895DF9249
:103EC000EF92FF920F931F93DF93CF93CDB7DEB79F
:103ED000EC970FB6F894DEBF0FBECDBF00D000D078
:103EE0008E01055F1F4FEDB7FEB7128301838AE78E
:103EF00094E0948383830E943CB10F900F900F90C5
:103F00000F9085E190E0B80143E150E02AE433E10D
:103F10000E9418B160ECD62ED98258EAE52EEA82CA
:103F200040E1F42EFB8286E48C8388E290E08E01EF
:103F30000F5F1F4FB80144E050E02AE433E10E94D4
:103F400018B1D982EA82FB8284EB8C838CE290E008
:103F5000B80144E050E02AE433E10E9418B1E1994D
:103F6000FECF80E390E09FBB8EBB81E08DBB0FB6A0
:103F7000F894E29AE19A0FBEE199FECF81E390E0D6
:103F80009FBB8EBB87E08DBB0FB6F894E29AE19A97
:103F90000FBEE199FECF82E390E09FBB8EBB85E030
:103FA0008DBB0FB6F894E29AE19A0FBEE199FECF6D
:103FB00083E390E09FBB8EBB82E08DBB0FB6F8948D
:103FC000E29AE19A0FBEE199FECF84E390E09FBBB5
:103FD0008EBB1DBA0FB6F894E29AE19A0FBEE19932
:103FE000FECF85E390E09FBB8EBB83E08DBB0FB619
:103FF000F894E29AE19A0FBEE199FECF86E390E051
:104000009FBB8EBB1DBA0FB6F894E29AE19A0FBE21
:10401000E199FECF87E390E09FBB8EBB81E08DBB33
:104020000FB6F894E29AE19A0FBEE199FECF88E3C9
:1040300090E09FBB8EBB81E08DBB0FB6F894E29AF7
:10404000E19A0FBEE199FECF89E390E09FBB8EBB62
:104050001DBA0FB6F894E29AE19A0FBEE199FECF2D
:104060008AE390E09FBB8EBB83E08DBB0FB6F894D4
:10407000E29AE19A0FBEE199FECF8BE390E09FBBFD
:104080008EBB1DBA0FB6F894E29AE19A0FBEE19981
:10409000FECF8CE390E09FBB8EBB82E08DBB0FB662
:1040A000F894E29AE19A0FBEE199FECF8DE390E099
:1040B0009FBB8EBB1DBA0FB6F894E29AE19A0FBE71
:1040C000E199FECF8EE390E09FBB8EBB8CE28DBB6F
:1040D0000FB6F894E29AE19A0FBEE199FECF8FE312
:1040E00090E09FBB8EBB9EE29DBB0FB6F894E29A18
:1040F000E19A0FBE8CE289839A8380E28B838FE200
:104100008C838DE28D8380E490E08E010F5F1F4FE2
:10411000B80145E050E02AE433E10E9418B181E0A3
:10412000898382E08A831B821C821D821E821F82F9
:1041300085E490E0B80148E050E02AE433E10E94D1
:1041400018B18DE490E0B80148E050E02AE433E192
:104150000E9418B1EC960FB6F894DEBF0FBECDBF2B
:10416000CF91DF911F910F91FF90EF90DF90089515
:10417000AF92BF92CF92DF92EF92FF920F931F9375
:10418000DF93CF93CDB7DEB72B970FB6F894DEBF92
:104190000FBECDBF09E011E0EBE4EE2EEBE0FE2E0A
:1041A0006E010894C11CD11C7BE0A72EB12CAC0E73
:1041B000BD1EF601D7018D918193EA15FB05D9F754
:1041C0001B86C801B6014BE050E02AE433E10E94AF
:1041D00018B1055F1F4F8AE090E0E80EF91E91E0EC
:1041E0000533190731F780E02B960FB6F894DEBF40
:1041F0000FBECDBFCF91DF911F910F91FF90EF9038
:10420000DF90CF90BF90AF900895FF920F931F93D0
:10421000DF93CF93CDB7DEB728970FB6F894DEBF04
:104220000FBECDBFF82E8E010F5F1F4FC80165E492
:1042300070E048E050E022E433E10E94FCB0F80175
:104240009E01275F3F4F9E2F901B80818F1519F491
:10425000892F8F5F05C03196E217F307A1F780E041
:1042600028960FB6F894DEBF0FBECDBFCF91DF9179
:104270001F910F91FF900895FF920F931F93CF937B
:10428000DF93282FF62E803108F04EC0E199FECF43
:1042900087E391E09FBB8EBBE09A8DB38093500182
:1042A0008150823008F4822F0E9405218823E1F199
:1042B0008150C82FD0E080E10E94BD138E010E5FB7
:1042C0001E4FF80190819817B1F0F0E1FF1621F030
:1042D000FE01EF5AFE4FF0828F2D0E94BD138E011A
:1042E0000E5F1E4FF8018083F5E1FF16C1F4CF5A2F
:1042F000DE4F888110C0FE01EF5AFE4F81E1F816B3
:1043000011F4808108C0F0828BE0F81621F0F4E10E
:10431000FF1629F484E10E94BD13F80180831092F6
:10432000120181E080930101DF91CF911F910F91E4
:10433000FF9008951F93DF93CF93CDB7DEB72897F3
:104340000FB6F894DEBF0FBECDBF182FCE01019679
:1043500065E470E048E050E022E433E10E94FCB004
:10436000812F8150873010F080E004C0FE01E10F02
:10437000F11D808128960FB6F894DEBF0FBECDBF29
:10438000CF91DF911F9108950F931F93DF93CF93E8
:1043900000D000D000D0CDB7DEB7962F4F7021509F
:1043A000263008F4522F8823D9F464E2469FB001E6
:1043B0001124292F30E080E291E0FC012E9FC00102
:1043C0002F9F900D3E9F900D1124680F791F86E05E
:1043D000589FC0011124680F791F6D537C4F1CC07A
:1043E000813011F564E2469FB0011124292F30E09D
:1043F00080E291E0FC012E9FC0012F9F900D3E9F17
:10440000900D1124680F791F86E0589FC001112478
:10441000680F791F6D5F794FCE01019646E050E03D
:1044200022E433E10E94FCB0CE010196B8010E9463
:10443000941926960FB6F894DEBF0FBECDBFCF916C
:10444000DF911F910F910895EF92FF920F931F93A9
:10445000DF93CF93CDB7DEB7AC970FB6F894DEBF3E
:104460000FBECDBF9AA789A77CA76BA77A018E0143
:10447000055D1F4FC801BE016F5F7F4F22E433E12E
:104480000E94FCB0C801BE01675D7F4FA7012AE40E
:1044900033E10E9418B1AC960FB6F894DEBF0FBEA0
:1044A000CDBFCF91DF911F910F91FF90EF900895B5
:1044B0008F929F92AF92BF92CF92DF92EF92FF9234
:1044C0000F931F93DF93CF93CDB7DEB76C970FB6E3
:1044D000F894DEBF0FBECDBF0E94A6A784EC99E082
:1044E0000197F1F78E010F5F1F4FC80165E470E07F
:1044F00048E050E022E433E10E94FCB0780101E0A2
:1045000010E0B9E0CB2ED12CCC0EDD1EAAE38A2E12
:10451000AEE09A2EF5E0AF2EB12CAC0EBD1E8DB7DD
:104520009EB70C970FB6F8949EBF0FBE8DBFEDB728
:10453000FEB73196ADB7BEB71296DC92CE92119708
:104540009382828215830483D7018C91868317829C
:104550000C5F1F4F118700870450104014968C91F8
:10456000828713860E943CB18DB79EB70C960FB61A
:10457000F8949EBF0FBE8DBF802F61E0A6010E9400
:104580004DA70894E11CF11C0F5F1F4FEA14FB04B8
:1045900031F684E06FE043E35EE00E9479A76C9619
:1045A0000FB6F894DEBF0FBECDBFCF91DF911F9144
:1045B0000F91FF90EF90DF90CF90BF90AF909F90C2
:1045C0008F900895DF92EF92FF920F931F93DF93E6
:1045D000CF9300D000D00F92CDB7DEB7D82E8E018A
:1045E0000F5F1F4FC80160E470E045E050E022E437
:1045F00033E10E94FCB0ED2D21E030E07801D801DC
:104600008C91D81649F4C90165E070E00E9429B484
:10461000F701E80FF91FE0810F5F1F4F2F5F3F4F3A
:104620002630310561F78E2F0F900F900F900F906D
:104630000F90CF91DF911F910F91FF90EF90DF903E
:104640000895CF92DF92EF92FF920F931F93DF9323
:10465000CF93CDB7DEB72F970FB6F894DEBF0FBE5E
:10466000CDBFE82E8B018F700E940521882309F4AD
:104670002DC18150C82EDD2485E390E0C89EF00155
:10468000C99EF00DD89EF00D1124EF54FA4F808191
:10469000080F111DD8012C91CE010196222369F03B
:1046A0006DE0269FB001112462557F4F4DE050E030
:1046B00022E433E10E94FCB010C000D000D0EDB77E
:1046C000FEB79283818387ED92E2948383830E9475
:1046D0003CB10F900F900F900F90E199FECF80E0CA
:1046E00090E09FBB8EBBE09AFDB200D000D000D01E
:1046F000ADB7BEB7119681E89EE0EDB7FEB79283E5
:10470000818384ED92E213969C938E93129785E3B6
:1047100090E0C89E8001C99E100DD89E100D1124F6
:10472000F801EF54FA4F828114968C9314971596E2
:104730001C920E943CB1EDB7FEB7319680EA9EE034
:10474000ADB7BEB712969C938E93119781ED92E20E
:1047500093838283C8018C549A4F958384830E94EB
:104760003CB1EDB7FEB7319687E797E0ADB7BEB77E
:1047700012969C938E9311978EEC92E29383828390
:10478000C80185549A4F958384830E943CB1EDB74C
:10479000FEB7319686E593E0ADB7BEB712969C930F
:1047A0008E9311978BEC92E293838283C8018C5392
:1047B0009A4F958384830E943CB1EDB7FEB7319642
:1047C00080E099E0ADB7BEB712969C938E93119797
:1047D00088EC92E293838283F48215820E943CB13A
:1047E000EDB7FEB7319682EC97E0ADB7BEB7129643
:1047F0009C938E93119783EC92E293838283E4825D
:1048000015820E943CB1EDB7FEB7319685E198E084
:10481000ADB7BEB712969C938E93119780EC92E23F
:1048200093838283CE010196958384830E943CB159
:10483000EDB7FEB7319687EA95E0ADB7BEB71296F1
:104840009C938E9311978DEB92E293838283C801A0
:1048500083539A4F958384830E943CB1EDB7FEB792
:1048600031968EE793E0ADB7BEB712969C938E93C8
:1048700011978AEB92E293838283C8018C529A4FFC
:10488000958384830E943CB1EDB7FEB731968CEBE3
:104890009DE0ADB7BEB712969C938E93119787EBB0
:1048A00092E29383828303521A4F158304830E94FA
:1048B0003CB11092BA0181E08093AE01EDB7FEB732
:1048C00036960FB6F894FEBF0FBEEDBF2F960FB60B
:1048D000F894DEBF0FBECDBFCF91DF911F910F9136
:1048E000FF90EF90DF90CF900895EF92FF920F939B
:1048F0001F93DF93CF9300D000D000D0CDB7DEB7A9
:10490000F82E062F0E949A21E82E0E940521182FCA
:10491000882399F1013069F0EE2079F180E10E945D
:10492000BD131150E12FF0E0EE5FFE4F908198171C
:1049300021F566E0F69EB0011124615B7F4FCE0148
:10494000019646E050E022E433E10E94FCB0EF2DF6
:10495000F0E0E059FE4F8081813019F0002329F00A
:104960000CC0013011F4009381018E2DBE016F5FE8
:104970007F4F0E94212381E101C082E126960FB67C
:10498000F894DEBF0FBECDBFCF91DF911F910F9185
:10499000FF90EF900895AC01DC010D900020E9F745
:1049A0001197A81BB90B20E030E090E006C0E40F9F
:1049B000F51F8081280F311D9F5FE92FF0E0EA1776
:1049C000FB07A8F3C9016FEF70E00E9415B48823BC
:1049D00009F48FEF0895FF920F931F93DF93CF9306
:1049E000CDB7DEB72A970FB6F894DEBF0FBECDBFA6
:1049F000F82E00D000D08E010F5F1F4FEDB7FEB72D
:104A0000128301838DEB94E0948383830E943CB1F5
:104A1000D8010D900020E9F71197A01BB10B90E091
:104A20000F900F900F900F90980108C0E20FF31FA6
:104A300080818F1511F481E007C09F5FE92FF0E0BE
:104A4000EA17FB0798F380E02A960FB6F894DEBFCA
:104A50000FBECDBFCF91DF911F910F91FF900895B1
:104A60000F931F93CF93DF93AC01FB0101900020C4
:104A7000E9F731971E2F161BFC0101900020E9F782
:104A800031970E2F081BDB0160E018C09C91FA01E2
:104A90008081981789F4ED0120E030E009C0FA0127
:104AA000E20FF31F908189912F5F3F4F981721F4F8
:104AB0002017A8F3862F05C06F5F1196611730F39A
:104AC000812F90E0DF91CF911F910F9108957F92F8
:104AD0008F929F92AF92BF92CF92DF92EF92FF920E
:104AE0000F931F93CF93DF935C016B014A01EC019D
:104AF00009900020E9F72197C81BD90BCB32D105CB
:104B000010F0CAE2D0E0F401008111817601E00EDC
:104B1000F11E8AE00E94E819782EF701808398013F
:104B20002F5F3F4FD70190E007C0EA0DFB1D80814A
:104B30008C932F5F3F4F9F5FE92FF0E01196EC17AA
:104B4000FD0798F3622FCA32D10591F0F601E20F0A
:104B5000F31F4AE250E04C1B5D0B70E203C07193FF
:104B60002F5F3F4F822F861B90E084179507B8F385
:104B7000F601E20FF31F7082C9010196C80ED91E1B
:104B80002DE0F60120830196F40191838083DF916B
:104B9000CF911F910F91FF90EF90DF90CF90BF903A
:104BA000AF909F908F907F900895382FAB018150E8
:104BB000863068F5FB0101900020E9F73197E61B8C
:104BC000F70B7E2FEE2311F420E014C080E090E07C
:104BD000632F605DFA01E80FF91FE0813A3010F0B1
:104BE00020E301C0262FE21791F0282F2F5F0196B6
:104BF000871780F3622F70E03A3010F080E302C034
:104C0000832F805DFA01E60FF71F808311820895DC
:104C1000DC010D900020E9F71197A81BB90B20E0EB
:104C200030E006C0FC01E20FF31F10822F5F3F4F00
:104C30002A173B07B8F308956F927F928F929F9245
:104C4000BF92CF92DF92EF92FF920F931F93DF9369
:104C5000CF93CDB7DEB764970FB6F894DEBF0FBE23
:104C6000CDBF7C016A01BB2430E0062F10E0005369
:104C700010403E010894611C711C82E0882E912C2A
:104C80008C0E9D1E24C01197A41BB50BAE0DBF1D2D
:104C90008C9190E0C097BC01609FC001619F900D16
:104CA000709F900D1124232F280F822F6AE00E94FD
:104CB000FCB3382FF301E40FF51F822F0E94FCB3E1
:104CC000905D9083480D591DFA011082B3944B2DCD
:104CD00050E0D7010D900020E9F71197AE19BF09F8
:104CE0004A175B0780F2332389F0FE013196DF011A
:104CF0000D900020E9F71197AE1BB0E0EA0FFB1F03
:104D0000305D3083AC0FBD1F12961C92DE011196F0
:104D1000FD0101900020E9F731979E2F9A1BA90F02
:104D2000B11DF60102C08C9181931197AC17BD079C
:104D3000D1F7C90ED11CF601108264960FB6F89413
:104D4000DEBF0FBECDBFCF91DF911F910F91FF90BE
:104D5000EF90DF90CF90BF909F908F907F906F905B
:104D60000895AC01DC010D900020E9F71197A81B14
:104D7000B90B20E00AC0E40FF51F8081922F9F5FDE
:104D80008D3211F4892F0895292FE22FF0E0EA17D0
:104D9000FB0788F380E008950E94B126811181E02D
:104DA0000895CF93DF93EC010E94CC26813019F552
:104DB000CE010E94B126DE010D900020E9F7119787
:104DC000AC1BB0E090E0A81BB90BAE01480F591F17
:104DD00020E030E00AC0BE01620F731FFA0181912A
:104DE000AF01FB0180832F5F3F4F2A173B0798F3EA
:104DF000AC0FBD1F1C92DF91CF910895AC01272FFE
:104E0000FC0101900020E9F731977E2F781BA62F37
:104E1000B22FFD0101900020E9F73197E61BE7175B
:104E200048F17E1749F5862F922F9C01D90120E089
:104E300030E01DC0FA01E20FF31FE081E053EA30D9
:104E400010F060E001C06E2F8C9180538A3010F01A
:104E500090E001C0982F961768F0EA3008F0E0E083
:104E60008A3010F4E81740F02F5F3F4F1196271754
:104E700008F302C081E0089580E00895FC010190EC
:104E80000020E9F73197E81BDC01AE0FB11D90E07F
:104E900020E006C08C91803309F42F5F9F5F11974B
:104EA0009E17C0F380E02E1709F481E00895CF9398
:104EB000DF9320E008C0FB01EC0FFD1FE491C80F59
:104EC000D91FE8832F5FC22FD0E0FB0101900020A3
:104ED000E9F73197E61BF70BCE17DF0760F3DF9199
:104EE000CF910895AC01DC010D900020E9F71197F6
:104EF000A81BB90B90E020E030E009C0FA01E20FF6
:104F0000F31F8081803209F09F5F2F5F3F4F2A1788
:104F10003B07A0F380E0992309F481E008959C0108
:104F2000E199FECF8EE390E09FBB8EBBE09A5DB32C
:104F300040E008C0F901E80FF91F8081851709F4E6
:104F400010824F5F842F90E0F90101900020E9F773
:104F50003197E21BF30B8E179F0760F30895CF92F2
:104F6000DF92EF92FF920F931F93DF93CF93CDB712
:104F7000DEB767970FB6F894DEBF0FBECDBF7C01DA
:104F8000D62EC42E00D000D0ADB7BEB712969C93DB
:104F90008E9311978CEC94E014969C938E931397B8
:104FA0000E943CB10F900F900F900F908E01095FFF
:104FB0001F4FC80165E470E048E050E022E433E1AF
:104FC0000E94FCB0F8019E01215F3F4F9E2F901B75
:104FD00080818D1511F4892F05C03196E217F307F2
:104FE000A9F780E0B5E0BC1508F441C066E0869FF3
:104FF000B00111246B5A7F4FCE01019646E050E07C
:1050000022E433E10E94FCB08E01015F1F4FFE01DC
:10501000EC0DF11D608189E0689FB0011124645896
:105020007F4FC80149E050E022E433E10E94FCB028
:10503000C8010E948F2700D000D000D0EDB7FEB786
:105040003196ADB7BEB71296FC92EE92119789ECED
:1050500094E093838283158304830E943CB1EDB76F
:10506000FEB736960FB6F894FEBF0FBEEDBF67963B
:105070000FB6F894DEBF0FBECDBFCF91DF911F9169
:105080000F91FF90EF90DF90CF900895DF93CF9333
:10509000CDB7DEB72B970FB6F894DEBF0FBECDBFEE
:1050A000982F9B01FB018085898381858A83878175
:1050B0008B8385818C8386818D8384818E839923E4
:1050C00019F0913059F40FC0FB0180818F838181E9
:1050D00088878281898783818A871B8690E0AE01D9
:1050E0004F5F5F4F0FC0FB0182818F838381888771
:1050F0001986F4CFF901EA0FFB1FA40FB51F8C919D
:1051000080839F5FA92FB0E0FA0101900020E9F7AA
:105110003197E41BF50BAE17BF0760F32B960FB664
:10512000F894DEBF0FBECDBFCF91DF910895CF932E
:10513000DF93EC01FC0101900020E9F73197E81BB7
:10514000E230D0F188818033B9F54C2FDE0190E058
:105150008C91803369F411968C911197803311F4FE
:105160009F5F06C08E3211F08C3241F4915006C020
:1051700011968A2F841B8E1758F301C09F5F9E17CC
:1051800010F09E2F915040E0892F90E02E2F30E0BC
:10519000281B390BBE01680F791F09C0FE01EA0FF9
:1051A000FB1FA60FB71F8C91808311824F5FA42F26
:1051B000B0E0A217B30794F3DF91CF910895CF9396
:1051C000DF93EC01FC0101900020E9F731976E2F8D
:1051D000681B6230E0F188818032C9F54C2FFE01F6
:1051E00090E020E08081803241F48181803221F49E
:1051F000222319F49F5F01C021E031968E2F841B7A
:10520000861780F3392F3F5F20E0432F50E009C01D
:10521000FE01E80FF91FDF01A40FB51F8C918083F9
:105220002F5F822F90E0FE0101900020E9F7319777
:10523000EC1BFD0B8E179F0758F3862F831B05C0B1
:10524000FE01E80FF11D10828F5F8617C8F3DF9112
:10525000CF9108950F931F93CF93DF93EC01DC015F
:105260000D900020E9F71197A81BB0E020E030E096
:105270006A2F70E08B0101501040A15016C0AB01A5
:10528000481B590BFE01E40FF51F329780818032D5
:1052900089F4FA013197EC0FFD1F2F5F3F4F80819A
:1052A000803241F41082BA2FB21B822F90E0801717
:1052B00091072CF3FE01EB0FF11D8081803209F480
:1052C00010828881803209F41882FE01019000204A
:1052D000E9F73197EC1BFD0BEC0FFD1F1082DF91FE
:1052E000CF911F910F9108951F9310915F0B20E0B4
:1052F00030E0F901EA5DF44FD901AE56B24F959610
:105300008C9180832F5F3F4F2431310591F71092AC
:105310003A0B82E99DE00E94DF2820E030E0F901AD
:10532000E35DFC4FD901AA5DB44FDC968C9180837C
:105330002F5F3F4F2832310591F7109255038DE2D0
:1053400093E00E942A2920E030E0F901EC59FC4F5B
:10535000D901A254B44F8C9180832F5F3F4F2931E4
:10536000310599F710927D0384E693E00E942A2983
:105370008091D70B8093EE021092EF0220E030E094
:10538000F901EB5FF14FD901A852B44F8C918083A2
:105390002F5F3F4F2D30310599F71092120E85E0A7
:1053A0009EE00E94DF2820E030E0F901ED5FF64F3B
:1053B000D901AB51B44F8C9180832F5F3F4F2A307E
:1053C000310599F710920D0983E099E00E942A298E
:1053D00020E030E0F901EE57F84FD901A151B44F68
:1053E0008C9180832F5F3F4F2431310599F71092C4
:1053F000960782E897E00E942A29812F8F521F91F9
:10540000089520E030E006C0FC01E20FF31F108297
:105410002F5F3F4FFC0101900020E9F73197E81B17
:10542000F90B2E173F0780F30895BF92CF92DF92BA
:10543000EF92FF920F931F93DF93CF93CDB7DEB719
:105440006E970FB6F894DEBF0FBECDBF8C01FC0186
:1054500001900020E9F731972E2F281B2617E0F541
:105460007E010894E11CF11CF701BE2C90E301C001
:1054700091938E2F8B198617D8F3462F50E0CE01CB
:105480000196FC01E40FF51F1082762F721B6C0150
:1054900030E0241B350B0CC0E72FF0E0D601AE0F37
:1054A000BF1FE00FF11FE20FF31F80818C937F5F1E
:1054B000761790F34C0D5D1DDA011C92F80104C0C3
:1054C000D7018D917D0181938E2D8B198617C0F3A5
:1054D000060F111DF80110826E960FB6F894DEBF0C
:1054E0000FBECDBFCF91DF911F910F91FF90EF9035
:1054F000DF90CF90BF9008950F931F93CF93DF93CA
:10550000182F062FEA01CA016DE00E94152A812F8B
:105510000E940521482F882339F0415081E061E045
:10552000202F8E010E94C421DF91CF911F910F91F6
:1055300008950F931F93CF93DF93182F062FEA013F
:10554000CA016BE00E94152A812F0E940521482F75
:10555000882339F0415080E061E0202F8E010E94C5
:10556000C421DF91CF911F910F910895EF92FF9287
:105570000F931F93082F7B01CB016AE00E94152A2D
:1055800000D000D000D0EDB7FEB73196ADB7BEB7B2
:105590001296FC92EE9211978FEA94E093838283A5
:1055A00010E00F70107085E390E09C01029FC00135
:1055B000039F900D129F900D112483529A4F958353
:1055C00084830E943CB18DB79EB706960FB6F894BF
:1055D0009EBF0FBE8DBF1F910F91FF90EF9008955A
:1055E000EF92FF920F931F93082F7B01CB016AE08C
:1055F0000E94152A00D000D000D0EDB7FEB731963A
:10560000ADB7BEB71296FC92EE92119782EB94E082
:105610009383828310E00F70107085E390E09C010B
:10562000029FC001039F900D129F900D11248C5278
:105630009A4F958384830E943CB18DB79EB706969E
:105640000FB6F8949EBF0FBE8DBF1F910F91FF90B4
:10565000EF900895AF92BF92CF92DF92EF92FF92B8
:105660000F931F93DF93CF93CDB7DEB765970FB638
:10567000F894DEBF0FBECDBFD82EC62EB42EA22EFC
:10568000D8010D900020E9F71197A01BB10B97E00E
:10569000E92EF12CEC0EFD1EAD30B10558F500D011
:1056A00000D000D0EDB7FEB73196ADB7BEB71296B9
:1056B000FC92EE92119784E896E09383828315839F
:1056C00004830E943CB1F70101900020E9F7319773
:1056D000EE19FF096DB77EB76A5F7F4F0FB6F8947A
:1056E0007EBF0FBE6DBF3C97A0F4C7016CE00E9467
:1056F000152A0FC08A2F8C50F801E80FF11DD70131
:105700009E012D5E3F4F81918D93A217B307D9F76C
:105710001B8A0B2D0F701A2D1150163008F010E057
:10572000CE0107967E010894E11CF11CB7010E948E
:105730007619DD20D9F484E2089FC00111244C2D94
:1057400050E020E231E0D9014A9F90014B9F300D9B
:105750005A9F300D1124820F931F26E0129F900153
:105760001124820F931F8D539C4F1DC0B1E0DB1697
:1057700009F584E2089FC00111244C2D50E020E27D
:1057800031E0B901469F9001479F300D569F300D83
:105790001124820F931F26E0129F90011124820F83
:1057A000931F8D5F994FB70146E050E02AE433E143
:1057B0000E9418B165960FB6F894DEBF0FBECDBF3C
:1057C000CF91DF911F910F91FF90EF90DF90CF90DD
:1057D000BF90AF9008954F925F927F928F929F9269
:1057E000AF92BF92CF92DF92EF92FF920F931F93EF
:1057F000DF93CF93CDB7DEB72F970FB6F894DEBF08
:105800000FBECDBF772473944E010894811C911C68
:1058100020E1422E512C4C0E5D1E872D0E94052149
:10582000882391F1A82EAA94BB24B3942AC0F7012F
:1058300011927F01E415F505D1F780E061E04A2D72
:105840002B2D84010E94C42180E060E04A2D2B2D85
:105850000E942A2BF60111926F01EE15FF05D1F778
:1058600081E061E04A2D2B2D84010E94C42181E05A
:1058700060E04A2D2B2D0E942A2BB394F7E0BF162F
:1058800019F064017401D3CF739481E1781629F67D
:105890002F960FB6F894DEBF0FBECDBFCF91DF912C
:1058A0001F910F91FF90EF90DF90CF90BF90AF903E
:1058B0009F908F907F905F904F900895AF92BF928E
:1058C000CF92DF92EF92FF920F931F93DF93CF93CC
:1058D000CDB7DEB729970FB6F894DEBF0FBECDBFA8
:1058E000A82E00D000D06E010894C11CD11CEDB7C9
:1058F000FEB7D282C18287E896E0948383830E94B8
:105900003CB1EE24E3940F900F900F900F908E2DEA
:105910000E9405218823A9F0B82EBA94FF24F3949D
:1059200080E06A2D4B2D2F2D86010E942A2B81E0CD
:105930006A2D4B2D2F2D0E942A2BF394F7E0FF1692
:1059400079F7E39481E1E81611F729960FB6F894F8
:10595000DEBF0FBECDBFCF91DF911F910F91FF90A2
:10596000EF90DF90CF90BF90AF900895CF93DF93EB
:10597000EC01DC010D900020E9F71197A81BB90B91
:10598000A61760F48A2F90E3FE01E80FF11D9083C3
:105990008F5F8617C8F3C60FD11D1882DF91CF9194
:1059A00008953F924F925F926F927F928F929F9253
:1059B000AF92BF92CF92DF92EF92FF920F931F931D
:1059C000DF93CF93CDB7DEB7C855D0400FB6F8946C
:1059D000DEBF0FBECDBF682E67967FAF6EAF6797F5
:1059E00069965FAF4EAF69975901FE013196CE01BE
:1059F00045961192E817F907E1F7CE0189961192C1
:105A0000E817F907E1F7FE01FD96CF0144961192E0
:105A1000E817F907E1F700D000D000D0EDB7FEB7E6
:105A200031968E010F5F1F4FADB7BEB712961C9314
:105A30000E93119781E896E09383828367962EAD4B
:105A40003FAD6797358324830E943CB1EDB7FEB725
:105A50003196CE014596ADB7BEB712969C938E9304
:105A600011978EE796E09383828369962EAD3FADC2
:105A70006997358324830E943CB18DB79EB7069603
:105A80000FB6F8949EBF0FBE8DBFC8010E94CC26F2
:105A9000813021F065961FAE659707C0C8010E944E
:105AA000D12691E065969FAF65978E010B5E1F4FE3
:105AB000C8010E94CC26813021F064961FAE649705
:105AC00007C0C8010E94D126A1E06496AFAF6497D9
:105AD000FE013196DF010D900020E9F7CD0101971D
