:100000000C943E120C945D120C945D120C945D12D3
:100010000C945D120C945D120C945D120C945D12A4
:100020000C945D120C945D120C945D120C945D1294
:100030000C9407130C945D120C945D120C945D12D9
:100040000C945D120C94B77B0C94C0140C945D124C
:100050000C945D120C945D120C945D120C945D1264
:100060000C945D120C945D120C945D120C945D1254
:100070000C945D120C945D120C942C3E0C945D1249
:100080000C945D120C945D120C945D129F139D13E1
:10009000A113A313A513A713A913AB13AD13AF1388
:1000A000B113B313B513C313B713C313B913BB13EE
:1000B000C313BD13BF13C113C313C313B713A913C2
:1000C000C313AB13AF13B31366537E539053C5538F
:1000D000F6530C5441547B54BF54C754DF54EB5473
:1000E0001D555E557B559555D555DC539754385560
:1000F0006154FB55115616564F568056C556E55657
:1001000003573D57A057E45B66560C5C6C5C265C5D
:10011000515CA65C865CBF5CDA5CEC5CB057D05787
:10012000F757065824583B5867587E58AA58CA585B
:10013000FB580A596359DA59EE59C95AC95A025A31
:10014000165A1E5A3A5A4E5A5B5A725A895AA75A26
:10015000CC5AE35AFA5A115B285B3F5B565B6D5BE6
:100160007C5B935BB65BB08ECC8EDF8E0E8F378F51
:10017000AA8FBC8FC58F019028906F907990349092
:100180007F90DC8E9190979039933D93599355973A
:10019000559755975597AB935597CD935597EC93A6
:1001A0007594D594F9948A9355978D9411954995A2
:1001B0006695A295B295C396D396189737974997A7
:1001C0004F9751974C99529956996D9987998B9958
:1001D000BA99D999DF99E899EB99EE99F199F4993F
:1001E000F799FD99009A039A0D9AD09B299C379C08
:1001F0007F9C959CAC9CD59C8B9D999D189EC49E84
:10020000C89F19A05FA0DCA070A116A2DCA208A361
:10021000C1A3DEA3F4A458A49FA495A5C3A5D8A503
:10022000FCA480A5C9A5D1A536AA39AAFBAA0AAB08
:100230003DAB4DAB7BAB1AAB29AB33AB85AB92ABD4
:100240009DABA0ABA3ABA6ABA9ABACABAFABB2AB1A
:10025000D4ABC2ABB5ABCDABE5AA00000001010148
:100260000509000000111111151511000000001002
:1002700010101412000F07030101010100001111F9
:10028000111111110000001E1C1810101010000098
:100290001F1B151717151B1F001414080807040649
:1002A0000400496E697469616C697A652E2E2E208E
:1002B000005761746368446F670042726F776E4FD6
:1002C00075740045787465726E616C00506F776567
:1002D000724F6E0001060206010D020D0114021498
:1002E00001080208030804080113021302030402B0
:1002F0000F0F010100000000010A020A030A0204B4
:1003000003030303030403044E2F410047696C6297
:100310006172636F005761796E65204441525400E9
:1003200054617473756E6F004C470008030C03151D
:10033000032003280325640054252E3264252E3221
:10034000642573257325732573257325733A00324D
:100350003025732F25732F25732025733A25733A83
:100360002573002573002573002563252E32643A1A
:10037000004354535250003A00466D74544D6F6E12
:1003800065793A257300466D744D6F6E65793A252F
:100390007300544D6F6E65793A25730054566F6C37
:1003A000756D653A2573004D6F6E65793A2573005A
:1003B000566F6C756D653A25730052656D6F766585
:1003C000643A2573004D696E75733A257300526166
:1003D000773A257300466F726D617465643A2573D0
:1003E0000025730025730025730025730044617494
:1003F000613A2573004E2F41002573000025642EBD
:100400002573257325730025642E257325732573A5
:100410002573257300544F54414C202573257300D8
:10042000544F54414C2025732573257325730025A3
:100430007325730025732573257325730025732D8C
:100440002D2D2D2D2D2D2D2D2D2D2020202020202A
:10045000202020202020202020200025732D2D2D3D
:100460002D2D2D2D2D2D2D2D2020202D2D2D2D2DE3
:100470002D2D2D2D2D2D2D2D004177616C203A2510
:10048000732573004177616C203A257325732573BA
:10049000257300416B6869723A2573257300416BBF
:1004A0006869723A25732573257325730050256496
:1004B0002E2564202D20257320005025642E2564D0
:1004C000202D202573202573202573004861726735
:1004D000613A2052702E2573004E2F410050554D29
:1004E000502D50524F44554354202020564F4C55C8
:1004F0004D45284C2920202020202020202020206D
:100500002020200050554D502D50524F44554354FB
:10051000202020564F4C554D45284C292020202086
:100520005255504941482852502900416B68697220
:10053000205368696674203A202573200041776152
:100540006C20205368696674203A2025732000547B
:1005500065726D696E616C204944203A20252E3207
:100560006420202020202020202020202020202047
:10057000202020200020202020202020204C6170DE
:100580006F72616E2054757475702053686966745B
:100590003A20257320202020202000256400257388
:1005A000003000300025730025730025730025738B
:1005B00000257300412B423A257300496E423A25CB
:1005C0007300496E423A5F00496E413A2573004913
:1005D0006E413A5F004F7065726174696F6E204DB5
:1005E000756C7469706C7900257300303030303070
:1005F00030303000202020202020202020202020EB
:1006000020202020202020202020202020202020EA
:1006100020202020202020002020202020202020FA
:1006200020202020204455504C494341544520432C
:100630004F50592020202020202020002020202042
:100640002D2D2D2D2D2D2D2D2D2D2D2D2D2D2D2DDA
:100650002D2D2D2D2D2D2D2D2D2D2D2D2D2D002004
:100660002020202053757263686172676520416D98
:10067000743A20257300202020202053757263686F
:1006800061726765204473633A202573002020203F
:10069000202D2D2D2D2D2D2D2D2D2D2D2D2D2D2D97
:1006A0002D2D2D2D2D2D2D2D2D2D2D2D2D2D2D00A7
:1006B00020202020204D6F6E746820436F6E7320C1
:1006C00041203A2052702E25730020202020204DFA
:1006D0006F6E746820436F6E732056203A20257326
:1006E000204C002020202020546F74616C20526523
:1006F0006465656D203A2025730020202020204568
:100700007870697279202020202020203A202573DB
:100710000020202020204375727220506F696E7473
:100720007320203A2025730020202020205072655D
:100730007620506F696E747320203A202573002054
:10074000202020204761696E20506F696E747320ED
:10075000203A202573002020202020436F72702033
:100760004E616D65202020203A2025730020202036
:100770002020436F72702049442020202020203AFE
:100780002025730020202020204361726420486FC0
:100790006C64657220203A202573200020202020E0
:1007A00020436172642049442020202020203A20E8
:1007B0002573002020202020202020204C4F59414C
:1007C0004C545920494E464F524D4154494F4E20AA
:1007D000202020202000202020202D2D2D2D2D2DEB
:1007E0002D2D2D2D2D2D2D2D2D2D2D2D2D2D2D2D39
:1007F0002D2D2D2D2D2D2D2D00202020202E25734B
:10080000002020202054616E64612054616E676175
:100810006E2020285F5F5F5F5F5F5F5F5F5F5F5F8E
:100820005F5F290020202020202020202020202061
:1008300020202020202020202020002020202020D8
:1008400020202020202020202020202020202020A8
:1008500020002020202020202020202020202020B8
:1008600020202000202000202020204170707220B5
:10087000436F64653A2025730025732020002020F3
:1008800020204E616D6120202020203A2025730019
:10089000202020202020202020202A2A2A205055D5
:1008A0004D502054455354202A2A2A20202020200D
:1008B00020200020202020566F7563686572204E2E
:1008C0006F3A20257300202020204B617274752020
:1008D0004944203A20257300202020202D2D2D2D45
:1008E0002D2D2D2D2D2D2D2D2D2D2D2D2D2D2D2D38
:1008F0002D2D2D2D2D2D2D2D2D2D00202020202096
:10090000204F646F6D65746572202020203A202589
:1009100073002020202020204E6F2E506F6C6973B2
:10092000692020203A20257300002020202020204C
:100930004A6D6C2052757069616820203A205270AF
:100940002E2573002020202020204A6D6C204C6929
:100950007465722020203A202573204C000020204E
:100960002020202048617267612F4C202020202009
:100970003A2052702E257300202020202020507213
:100980006F64756B2020202020203A2025730020E2
:10099000202020202050756C61752F506F6D706184
:1009A000203A205B25735D2D257300202020202D0B
:1009B0002D2D2D2D2D2D2D2D2D2D2D2D2D2D2D2D67
:1009C0002D2D2D2D2D2D2D2D2D2D2D2D2D0020209E
:1009D0002020202057616B74753A202573202573E1
:1009E000200020202020202053686966743A2025AA
:1009F0007320204E6F2E5472616E733A202573203F
:100A00000020002020202020202020202020202026
:100A10004455504C494341544520434F50592020A0
:100A2000202020202020004572726F72204E6F20FF
:100A3000436F6E6E656374696F6E0050726F73659D
:100A4000730053656E642052657175657374005B45
:100A50002A5D43616E63656C2020205B235D456EDB
:100A6000746572005B2A5D4261636B202020202048
:100A70005B235D456E746572005B2A5D43616E6346
:100A8000656C20205B235D456E74657220004F64A9
:100A90006F6D657465723A5F2000506C6174204E12
:100AA0006F3A20257320005B2A5D43616E63656C9D
:100AB0002020205B235D456E746572005B2A5D42D9
:100AC00061636B20202020205B235D456E7465727E
:100AD000005B2A5D43616E63656C20205B235D458E
:100AE0006E74657220005F00496E70757420506CE2
:100AF0006174204E6F3A20002329536176650034DB
:100B0000295465726D49443A2564200023295361B4
:100B100076650034295465726D49443A2564200095
:100B200033294E6F746966203A20202020202A291C
:100B300045786974003229442F542020203A00312E
:100B4000294D6F6E6579203A003429437574203A37
:100B500020202A29457869740033294C6F676F3A41
:100B6000202023295361766500322953697A653A3A
:100B7000202036295370616365203A003129547969
:100B800070653A202035295363726F6C6C3A002AE5
:100B90002943616E63656C20202020202023295387
:100BA0006176650054494D45203A20004441544542
:100BB000203A20002A29457869742020202020200E
:100BC00020202329536176650032294E323A2020B5
:100BD00034294E343A202036294E363A0031294EF7
:100BE000313A202033294E333A202035294E353AE8
:100BF0000050726F6475637420464950252E32642C
:100C000000436F6D706C657465640043616E63656D
:100C10006C20202020200049645B25645D3D252E4A
:100C20003264202000536176696E672E2E002D50AD
:100C3000756D7049442D00202020204E6F74204196
:100C40006C6C6F7765642020202020002020447584
:100C5000706C69636174652050756D704944202023
:100C6000002020202020205761726E696E672120AD
:100C700020202020200025642E50252E3264207C48
:100C80002025642E50252E32640023295361766579
:100C9000002A294261636B0025642E50252E3264A0
:100CA000207C2025642E50252E326400252E3264AF
:100CB00000252E3264003429343A20202038293887
:100CC0003A2020202A2945786974003329333A20B4
:100CD00020203729373A20202023295361766500C8
:100CE0003229323A2020203629363A003129313A49
:100CF0002020203529353A005B2A5D45786974202B
:100D0000205B235D4368616E6765200025642E25A6
:100D100073002D44697370656E7365722042726151
:100D20006E642D002A294578697400322950726F4B
:100D3000647563740031294944002A29457869742F
:100D40000025642E50252E3264207C2025642E50F0
:100D5000252E32642000252E3264005B2A5D457802
:100D6000697400362E4163743A256400352E446C54
:100D7000793A256400342E54696D506F6F6C3A25B2
:100D80006400332E54727953656E643A25640032E0
:100D90002E6E4E6F50756D703A256400312E4D6188
:100DA0007850756D703A2564005B2A5D4261636B13
:100DB000202020202000434F4D25643A2564002048
:100DC000202020202D42617564726174652D2020E1
:100DD000202020005B2A5D4261636B2020202020C0
:100DE0002000332E434F4D333A34383500332E43F1
:100DF0004F4D333A32333200332E434F4D333A5452
:100E0000544C00322E426175647261746500312E5B
:100E10004D6F64653A5374616E64616C6F6E65000A
:100E2000312E4D6F64653A536C61766500312E4DFD
:100E30006F64653A4E6F6E6500496E76616C6964E9
:100E4000204F6C642050617373776F7264002020B0
:100E5000202020204552524F5220202020202020A8
:100E6000202000496E76616C6964204E65772050C1
:100E7000617373776F726400202020202020455218
:100E8000524F5220202020202020202000202020EF
:100E900050617373776F72642053617665642020AC
:100EA00020002020202020436F6D706C65746564E5
:100EB000202020202020005B2A5D43616E63656C4A
:100EC0002020205B235D456E746572005B2A5D42C5
:100ED00061636B20202020205B235D456E7465726A
:100EE000005B2A5D43616E63656C2020205B235D9F
:100EF000456E746572004E65773A5F202020202091
:100F0000202020202020202020200056616C6964B1
:100F10006174696E672E2E005B2A5D43616E6365A6
:100F20006C2020205B235D456E746572005B2A5D3A
:100F30004261636B20202020205B235D456E746539
:100F400072005B2A5D43616E63656C2020205B2329
:100F50005D456E746572004E65773A5F20202020F3
:100F60002020202020202020202020005B2A5D43FC
:100F7000616E63656C2020205B235D456E74657235
:100F8000005B2A5D4261636B20202020205B235D93
:100F9000456E746572005B2A5D43616E63656C200B
:100FA00020205B235D456E746572004E65773A5F65
:100FB0002020202020202020202020202020200051
:100FC0005B2A5D43616E63656C2020205B235D4579
:100FD0006E746572004F6C643A5F002D41646D69F8
:100FE0006E6973747261746F722D002D5375706524
:100FF000727669736F722D005B2A5D4261636B20AC
:101000002020202000322E41646D696E6973747255
:1010100061746F7200312E53757065727669736FEB
:1010200072002D4368616E67652050617373776F3E
:1010300072642D00536176656420005B2A5D436114
:101040006E63656C2020205B235D456E74657200C5
:101050005B2A5D4261636B20202020205B235D457D
:101060006E746572005B2A5D4E6F202020205B232A
:101070005D59657300536176653F004E6577204F7B
:1010800070657261746F723A002573005B2A5D436C
:10109000616E63656C2020205B235D456E74657214
:1010A000004E6577203A5F2020202020202020203D
:1010B0002020202020004E616D653A00257300320B
:1010C0002E4368616E67652050617373776F726439
:1010D00000312E4368616E6765204F7065726174E0
:1010E0006F72002A294261636B00342E5370617263
:1010F00061746F723A25632000332E446563696D15
:10110000616C203A25632000322E542E4D6F6E659F
:1011100079203A25642000312E542E566F6C756D5F
:10112000653A25642020352E54657374005B2A5D72
:101130004261636B20205B235D4E65787400332E23
:101140004D6F6E6579203A256400322E566F6C75AE
:101150006D653A256400312E5072696365203A2529
:10116000640034294272616E6420202A294578691E
:10117000740033294C6162656C2020003229507262
:101180006F647563740031294944202020202000B9
:101190002A294261636B2020202023294F4B2020E5
:1011A00020202020004E65773A5F004F6C643A257E
:1011B00073002A294261636B2020202023294F4B92
:1011C000202020202020004E65773A5F004564698A
:1011D000742050726F64756374204E616D652020B9
:1011E00020004F6C643A2573002A294261636B200A
:1011F000202020202020003229257300312925734A
:10120000002A294261636B002564292573002A297D
:101210004261636B202020202020202020202020DD
:10122000202000332950756D70506F6F6C696E67A8
:101230002020202020202000322953797374656DEE
:101240002020202020202020202020200031294F75
:1012500070657261746F7220202020202020202071
:10126000200034294461746574696D65202A29451C
:10127000786974202020003329446563696D616CAE
:10128000202037294E65787420202000322950759F
:101290006D7020202020203629486F737420202074
:1012A00000312950726F64756374202035295072A3
:1012B000696E746572002E00256400202020002EC7
:1012C00000256400202020005B2A5D63616E636559
:1012D0006C20205B235D6E6578742020004E65775E
:1012E0003A2020205F2E2020202E2020202E20207B
:1012F00020004F6C643A2025642E25642E25642E30
:10130000256400536572766572204950002E0025D1
:101310006400202020002E00256400202020005B97
:101320002A5D63616E63656C20205B235D6E65786A
:10133000742020004E65773A2020205F2E20202048
:101340002E2020202E202020004F6C643A2025647F
:101350002E25642E25642E256400436C69656E7409
:101360002049500025732573005B2A5D4E6F205B7A
:10137000235D596573005361766520466F6F746510
:10138000722564203F005B2A5D4E6F20205B235D49
:1013900059657300416C69676E2043656E746572B0
:1013A0003F005B2A5D4261636B20205B235D4F4BF6
:1013B000004564697420466F6F746572256420006F
:1013C0002A294578697420202020202020202020F0
:1013D000202020200020202020202020202020202D
:1013E000202020202020202020003229466F6F74EA
:1013F00065723220203429466F6F74657234003173
:1014000029466F6F7465723120203329466F6F74DF
:101410006572330025732573005B2A5D4E6F205B78
:10142000235D596573005361766520486561646585
:10143000722564203F005B2A5D4E6F20205B235D98
:1014400059657300416C69676E2043656E746572FF
:101450003F005B2A5D4261636B20205B235D4F4B45
:1014600000456469742048656164657225642000E4
:101470002A2945786974202020202020202020203F
:1014800020202020003329486561646572332020C4
:1014900036294865616465723600322948656164A1
:1014A00065723220203529486561646572350031E6
:1014B000294865616465723120203429486561647A
:1014C000657234002A2945786974003329506173A4
:1014D00073776F726420202020202020202020009D
:1014E0003229466F6F746572202020202020202032
:1014F0002020202000312948656164657220202069
:10150000202020202020202020003229466F6F74C8
:10151000657220202020352953657276657200316E
:1015200029486561646572202020203429436C6954
:10153000656E7400536176696E67205368696674DE
:10154000446174612E2E2000257320257300507293
:10155000696E74696E6720546F74616C697A657224
:101560000043616E63656C004572726F72202D20BE
:101570004E6F2050756D703A256420005761697474
:101580002050756D703A25642000576169742050B1
:10159000756D703A25642000546F74616C697A65CA
:1015A000722E2E002A294578697400332E4C6F6301
:1015B0006B2050756D70202000322E436C6F736568
:1015C00020446179202000312E436C6F73652053D5
:1015D0006869667400342953657474696E67732092
:1015E00020202A294578697420003329436C6F73C1
:1015F00065446179202020202020202020200032F6
:1016000029436C6F7365536869667420202020201D
:1016100020202000312952655072696E74202020EC
:1016200020202020202020200050617373776F72CB
:101630006420526573746F72656400496E76616CE4
:10164000696420526573746F7265202000303030F9
:101650003030003131313131005B2A5D43616E63DE
:10166000656C2020205B235D456E746572005B2AEB
:101670005D4261636B20202020205B235D456E74FA
:101680006572005B2A5D43616E63656C2020205BA0
:10169000235D456E746572005F202020202020208D
:1016A00020202020202020202020202000456E7493
:1016B000657220526573746F726520436F64652094
:1016C00020004B6579205374616D703A25732000BA
:1016D000496E76616C696420436F64652020202028
:1016E0002020202000002573002573005B2A5D4325
:1016F000616E63656C2020205B235D456E746572AE
:10170000005B2A5D4261636B20202020205B235D0B
:10171000456E74657200005B2A5D43616E63656CA3
:101720002020205B235D456E746572005F202020C1
:1017300020202020202020202020202020202020A9
:1017400000456E7465722047654E69557320436F7E
:101750006465202020005B2A5D4578697420202084
:101760002020202020202020202000322E436861CD
:101770006E67652050617373776F7264202020005C
:10178000312E526573746F72652050617373776F79
:1017900072642020002D53797374656D2041646D4F
:1017A000696E204C6576656C2D00257325730025C8
:1017B0007300256300323025730025730034323600
:1017C00034363336005B2A5D43616E63656C2020DE
:1017D000205B235D456E746572005B2A5D42616328
:1017E0006B20202020205B235D456E746572005BBA
:1017F0002A5D43616E63656C2020205B235D456E2E
:10180000746572005F0050415353574F52443A0081
:101810004163636573732044656E69656400544376
:10182000502F4950204572726F72004E6F205265E2
:10183000706C7920202020002020202020202000F3
:10184000506C6561736520576169740025730050A1
:10185000554D5020544553540025730025730025E1
:10186000730025730025730050726F736573002D2C
:101870004D4F5020566F75636865722D0050726F22
:101880007365730049443A2573005B2A5D426163C6
:101890006B202020205B235D457869740046495009
:1018A000257300546170204B617274752052464953
:1018B00044005B2A5D43616E63656C2020205B23DE
:1018C0005D456E746572005B2A5D4261636B20202A
:1018D0002020205B235D456E746572005B2A5D43AA
:1018E000616E63656C2020205B235D456E746572BC
:1018F000005375726368617267653A2020205F2526
:10190000002573005B2A5D4261636B0025642E2510
:10191000730053656C6563742042616E6B005B2AD3
:101920005D43616E63656C2020205B235D456E74B2
:101930006572005B2A5D4261636B20202020205B82
:10194000235D456E746572005B2A5D43616E63655D
:101950006C2020205B235D456E746572005F004B38
:101960006F646520566F7563686572005B2A5D421F
:1019700061636B2020202020202020202020202098
:1019800000322E42616E6B20202020342E50756D67
:10199000705465737400312E4163636F756E7420EB
:1019A000332E566F756368657220002020205365C2
:1019B0006C656374205061796D656E742020200021
:1019C00043524544495443415244005B2A5D4261BD
:1019D000636B202020202020202020202020200099
:1019E000322E437265646974204361726420202042
:1019F0002020202000312E44656269742F466C61DE
:101A00007368204361726420200053656C656374C1
:101A100020436172642054797065004E6F20436FDB
:101A20006E6E656374696F6E005443502F49502089
:101A30004552524F522000507265737320416E79A7
:101A4000204B657900436D20566F6C3A2573004337
:101A50004D20416D743A257300506F696E74733A6E
:101A600025730025733A25730050726F73657300F8
:101A700049443A2573005B2A5D4261636B20202054
:101A8000205B235D4578697400546170204B61725E
:101A900074752052464944005B2A5D4261636B20A5
:101AA0002020205B235D4578697400546170204BD1
:101AB000617274752052464944004649503A257374
:101AC000005B2A5D4261636B2020202020202020C3
:101AD000202000322E4C6F79616C7479205570642F
:101AE0006174652000312E456E7175697279202010
:101AF0002020202020200020204D656E75204C6F76
:101B000079616C7479202020004E6F20436F6E6ED7
:101B1000656374696F6E005443502F4950204552DD
:101B2000524F5220005B2A5D4261636B20202020CF
:101B30005B235D457869740054617020537570654E
:101B4000727669736F7220436172640052655072DD
:101B5000696E74204649503A2573200054696461C7
:101B60006B20416461205472616E73616B736920F4
:101B7000004163636573732044656E696564002A80
:101B800029457869740023294F4B2000202020200C
:101B900020004649503A5F0025642E502573207C72
:101BA0002025642E5025730030322573257325734C
:101BB00025732573257325730030002020202020F5
:101BC0002020202020202020202020202020200035
:101BD00023257300252E326400404649503A0020E8
:101BE00020202020202020202020202020202020F5
:101BF000202020005072696E74696E67204649503B
:101C000025732000443A256420433A2563202000B0
:101C10002573202573004E6F2050756D7020466F20
:101C2000756E64005443502F4950204572726F7294
:101C30000050756D70466F756E6400436F6E6E6513
:101C40006374656400202020202020202020202094
:101C50002020202020202020002573005363616E67
:101C60002050756D7000436F6E6E65637420202088
:101C700020202020202000436F6E6E656374004397
:101C80006F6E6E65637420202020202020202000AD
:101C9000434F4D25643A2569202020202020202014
:101CA00020202000496E697469616C697A6520435F
:101CB0004F4D202E2E2E000A47654E695573205435
:101CC00069636B6574205072696E746572200A20B6
:101CD00056657273696F6E3A25730A204C6173748E
:101CE00020557064617465202573200A2048616E58
:101CF000696E646F204175746F6D6174696F6E20D9
:101D0000536F6C7574696F6E73200A207777772E26
:101D100068616E696E646F67726F75702E636F6D48
:101D20000A0A0A0A0A0A0A0A0031342F30322F320C
:101D300030313100322E333500257325732573255C
:101D4000733938252E3264463936384346464200C8
:101D50004675656C696E6720404649503A23256494
:101D6000005472616E73616B73692053656C6573A7
:101D700061690049443A202573002573005025739A
:101D8000202573200046495020546964616B20531C
:101D90006961702020202000417574686F7269733A
:101DA00061736920426572686173696C0041757482
:101DB000686F72697361736920476167616C202085
:101DC0002000202020202020200020202020202053
:101DD0002020202020202020202020202020004DF6
:101DE0006F686F6E2054756E676775202020202005
:101DF00020202000257300502573202573200043E8
:101E0000616E63656C205472616E73616374696F97
:101E10006E2020005B2A5D4261636B205B305D4574
:101E20005343205B235D4F4B0025732000204675F4
:101E30006C6C00257320202573200049443A20252E
:101E40007300257320005B2A5D4261636B20205B79
:101E5000235D4F4B202020004F646F6D65746572C9
:101E60003A5F202020202020200025732000202001
:101E70002573202573200050756D702050726F649B
:101E800075637420416D6F756E740050756D7020B0
:101E900050726F6475637420566F6C756D650020A9
:101EA0002054616E6B002020257320257320005084
:101EB000756D702050726F647563742020204675B4
:101EC0006C6C002573005B2A5D4261636B20205BB4
:101ED000235D4F4B202020202020005B325D416D90
:101EE0006F756E743A5F2020202020202020200073
:101EF00020202020202020202020202020202020E2
:101F000020202020005025732D257320005B2A5DA2
:101F10004261636B20205B235D4F4B2020202020FB
:101F200020002020202020202020202020202020D1
:101F3000202020202020005B315D566F6C756D6580
:101F40003A5F202020202020202020005025732DC3
:101F5000257320004100410056005B2A5D42616309
:101F60006B202020205B235D4E6578742020005B71
:101F7000325D416D6F756E7420202020202020205E
:101F8000202020005B315D566F6C756D6520202030
:101F90002020202020202020005025732D25732074
:101FA000002573005B2A5D4261636B2020202020A6
:101FB000202020202020202000202020202000255C
:101FC000642E257300257300506F6D70612D25738D
:101FD00000252E326400252E3264002A29457869B6
:101FE000740023294F4B2000202020202000464948
:101FF000503A5F0025642E50252E3264207C202527
:10200000642E50252E3264005B2A5D426174616C3F
:10201000202020202020205B235D4F4B00257320B3
:102020002573002573002573002573004B617274BE
:102030007520546572626174617320202020202015
:1020400000546964616B20546572646166746172E6
:10205000202020202000446174612052656365695E
:1020600076656420202020202020005443502F49F2
:1020700050204572726F72202020202020202000E6
:1020800053656E64696E67204661696C65642020E3
:102090002020202000202020202020200050726FAF
:1020A0007365730049443A2573002020204C6F6308
:1020B000616C204163636F756E7420202000252EB3
:1020C0003264004539343435353132002573257397
:1020D000002573257325732573393400453934344D
:1020E000353531320025732573257300257325732B
:1020F00025732573002573257325732573393200E5
:102100004539343435353132002573257300257354
:1021100025732573257339300025644630303030FF
:102120003030304531323334353646464646462522
:1021300073453934343535313200257325732564C0
:102140002573257300257325732573257335380092
:1021500041463936384346464200257300257335DB
:1021600036002573257325730046393638434646B5
:10217000420025732573002573257325732573008D
:102180002573257325732573333200257325734614
:102190003936384346464200257325732573257327
:1021A0003238002573257346393638434646420097
:1021B000257325732573257332340025734639360C
:1021C0003843464642002573257325732573323202
:1021D000002573257325732573313046393638430E
:1021E00046464200257325732573257330342573C5
:1021F0003146393638434646420025732E25732E24
:1022000025732E25730025732E25732E25732E25F9
:102210007300257320257300322E33350047654E39
:1022200069557300507265737320616E79206B6518
:10223000792E2E2020202020005B315D536C6176AA
:1022400065205B325D5374616E64616C6F6E650016
:102250003E00252E326400252E326400300031000D
:10226000256400252E326400257300257300257334
:10227000003C003C4F4B3E00256400256400256473
:10228000003C536176696E673E004C656E6774680A
:102290003A2564002573002573002573002573001B
:1022A000257300252E3264002564002573002573F4
:1022B000002573002564004E2F410025640025731E
:1022C00000257300546964616B204164612054727D
:1022D000616E73616B73692000546F74616C697A0D
:1022E0006572416C6C202020202000436C65617277
:1022F000204461746120546F74616C697A65720066
:1023000020202020202020202020202020202020CD
:102310000052656164792E2E2E202020202020205E
:1023200020202020200052656164792E2E2E20204E
:1023300020202020202020202020004E6F205265C9
:1023400073706F6E73652E2E2020202020202000B9
:10235000506C6561736520576169742E2E202020B2
:10236000202020200052656164792E2E2E2020200E
:1023700020202020202020202000546964616B2030
:10238000416461205472616E73616B736920005304
:102390006564616E6750726F7365730034333536F0
:1023A00041333141002020202020202020202020E7
:1023B000202020202020202020002020202020203D
:1023C000202020202020202020202020202000202D
:1023D00020202020202020202020202020202020FD
:1023E000202020002020202020202020202020200D
:1023F00020202020202020200030202E000000312E
:102400002E2C3F2100326162630000336465660058
:1024100000346768690000356A6B6C0000366D6EC9
:102420006F00003770717273003874757600003970
:102430007778797A0030202E0000003126402B2D4D
:1024400000324142430000334445460000344748CF
:10245000490000354A4B4C0000364D4E4F000037C6
:102460005051525300385455560000395758595A54
:1024700000020403030303030403040011241FBE2A
:10248000CFEFD0E1DEBFCDBF11E0A0E0B1E0E4E7E7
:10249000FFE601E00BBF02C007900D92AE35B10719
:1024A000D9F71EE0AEE5B1E001C01D92AF38B1072B
:1024B000E1F70E94EE120C94B8B70C940000109251
:1024C0009A0404B600FE0BC014BE81E061E04CEC3F
:1024D00052E00E9439AD81E080939A0418C004B69E
:1024E00001FE06C014BE81E061E043EC52E00DC085
:1024F00004B602FE06C014BE81E061E04AEB52E081
:1025000004C081E061E041EB52E00E9439AD14BEAD
:1025100080EE9EE220E731E0F9013197F1F7019773
:10252000D9F708950E9487AC0E9466AD0E940716F5
:102530000E945F1284E061E042EA52E00E9439ADFD
:1025400088EB9BE020E731E0F9013197F1F7019743
:10255000D9F79FEF9BBB9ABBDB9A98BB97BB8DE0EB
:1025600082BB89E081BB909370008EE083B982B911
:102570001B9A1A989093620080EF8093610080E02C
:1025800061E00E947FAFBB9AC39ABA98C29AB99889
:10259000C19A8EB588608EBD87B7806187BF7894F9
:1025A00088E09DE39BBD8ABD8EB583608EBD81E0D2
:1025B00060E00E9483720E947B9A81E08093BF0357
:1025C0001092C003809165008D7F809365000E940A
:1025D000CB4B0E947E760E9466AD08950E949212B7
:1025E0000E9425AAFDCF9C01E199FECF3FBB2EBBE7
:1025F000E09A8DB308959C01E199FECF3FBB2EBBBD
:102600006DBB0FB6F894E29AE19A0FBE08951F923F
:102610000F920FB60F9211242F936F937F938F9386
:102620009F938091BF03813081F48091C0038F5FBD
:102630008093C003863949F41092BF031092C003FF
:10264000809165008260809365008091BD038F5FFB
:102650008093BD03863030F01092BD0383B194E0C7
:10266000892783B98091D6019091D701009741F0D5
:1026700001979093D7018093D601BD9AC59805C064
:1026800098B388B38095892B88BB8091D2019091B3
:10269000D30101969093D3018093D2018091A5013B
:1026A0008F5F8093A5012091A6012F5F2093A60143
:1026B000822F65E00E941FB7992371F48091A701D2
:1026C0008F5F8093A7018091CC019091CD010196FD
:1026D0009093CD018093CC01822F6AE00E941FB7B6
:1026E000992349F48091D8019091D9010196909352
:1026F000D9018093D8018091A8019091A9010196F8
:102700009093A9018093A8019F918F917F916F91E0
:102710002F910F900FBE0F901F90189586E108958E
:10272000E82FF0E0EE31F10570F5EA5BFF4FEE0FB8
:10273000FF1F0590F491E02D099481E3089585E44D
:10274000089582E3089583E3089584E3089585E37B
:10275000089589E608958EE6089581E6089584E651
:1027600008958FE4089586E4089583E508958DE241
:10277000089580E5089589E4089586E5089584E53F
:10278000089584E7089588E7089580938A07609301
:10279000AE0D81E0809397010895282F823039F49F
:1027A00081E08093B1031092AF031092AE03809149
:1027B000B103813069F48091AE039091AF03FC01C5
:1027C000EB50F54F208301969093AF038093AE03B7
:1027D000233041F08091AE039091AF038D34910589
:1027E00008F49BC01092B1033091F70A30518091E8
:1027F000F60A2AE0829FC0011124380F3093B003FB
:10280000333009F065C0E8EFFAE0A1E6BEE081915F
:102810008D938AE0EE3FF807D1F71092670E808122
:1028200080939C09818180939D0910929E09329624
:10283000ADE7BEE081918D938BE0EF30F807D1F7E3
:1028400010928C0EA1E6BDE081918D938BE0E23277
:10285000F807D1F71092740D20E030E0F901EC5147
:10286000F64FD901AB50B54F9D968C9180832F5F69
:102870003F4F2630310591F71092EA0920E030E011
:10288000F901EA5CF64FD901AB50B54FD3968C9164
:1028900080832F5F3F4F2A30310591F71092400916
:1028A00020E030E0F901E956F24FD901AB50B54FC5
:1028B000DD968C9180832F5F3F4F2E30310591F74D
:1028C0001092A50D81E08093B0018093B10108952D
:1028D000343019F5E8EFFAE0A4EEB9E081918D9378
:1028E0008AE0EE3FF807D1F71092EA09A6E3B9E0D3
:1028F00081918D938BE0E830F807D1F71092400971
:10290000A7E9BDE081918D938BE0E631F807D1F71F
:102910001092A50D81E08093B20108950895982F3B
:10292000E4E7FAE08081818331978AE0E136F807B5
:10293000C9F79F012F5F3F4F918384858230F9F45F
:102940008091630A8A30D9F49330C9F4F9013A9638
:10295000ACE2BEE080818D9331978AE0E436F807DF
:10296000C9F71092340E81E08093AF018093BF03CA
:102970001092C003809165008D7F8093650008955B
:102980001F920F920FB60F9211248F939F939CB1B9
:102990008091C801813021F08091CA01813051F4C9
:1029A000933121F481E08093C90104C0913111F485
:1029B0001092C9019F918F910F900FBE0F901F90A1
:1029C000189580E00895282F8091AC038936E9F4AA
:1029D0008091AB038334C9F48091AA038F36A9F4A4
:1029E0008091A9038E3689F48091A803863669F414
:1029F0008091A7038F3349F48091A6038D3029F489
:102A00002A3019F482E08093C601809198018130C8
:102A100069F480919C0190919D01FC01EB50F54F70
:102A20002083019690939D0180939C018091A60341
:102A3000843051F42034E9F481E0809398011092BD
:102A40009D0110929C0115C0853099F4203589F4C0
:102A500080919C0190919D0190939F0180939E0194
:102A600010929D0110929C011092980181E0809338
:102A7000C6018091AB038093AC038091AA0380933D
:102A8000AB038091A9038093AA038091A80380934C
:102A9000A9038091A7038093A8038091A603809344
:102AA000A7032093A6030895BD9AC5989093D701D4
:102AB0008093D601089508958F70089582958F7040
:102AC0000895982F8A3010F4805D08958A508630DA
:102AD00010F080E00895892F895C0895282FFB016C
:102AE000982F92959F709A3018F4892F805D08C0B6
:102AF000892F8A50863010F080E002C0892F895CCF
:102B00008083922F9F709A3018F4892F805D08C0BF
:102B1000892F8A50863010F080E002C0892F895CAE
:102B2000818312820895FC0180812AE0829F9001B6
:102B300011248051820F0895582FFB0164E60E94F2
:102B40001FB7A82F852F0E941FB7892F6AE00E9408
:102B50001FB7482F8CE99FEFA89F802D1124850F68
:102B600026EF3FEF429F902D1124980F543640F0EE
:102B7000A05DA083405D4183905D928313820895A0
:102B80005B3018F4905D90831182089520E030E06E
:102B9000F901EF59F24FD901A45DB14F8C918083B7
:102BA0002F5F3F4F2830310599F71092690D089536
:102BB000CF93DF93DB01EC0120E030E007C0FD01A3
:102BC000E20FF31F899180832F5F3F4F2417B8F3E3
:102BD000A40FB11D1C92DF91CF910895CF93DF9385
:102BE000DB01EC01C40FD11D40E050E007C0FD0146
:102BF000E40FF51F899180834F5F5F4F4217B8F351
:102C0000A20FB11D1C92DF91CF910895089581E02C
:102C10008093BF031092C003E5E6F0E080818D7FD2
:102C2000808308952091A2013091A30121153105DF
:102C300061F0809165008D7F809365002150304068
:102C40003093A3012093A2010895809165008260D2
:102C5000809365000895823059F0823018F08330F7
:102C600021F409C020E835E208C020E030E005C0CA
:102C700020E03BE402C02BE936E1C9010895E19967
:102C8000FECF84E491E09FBB8EBBE09A8DB380932E
:102C90005F01E199FECF89E491E09FBB8EBBE09A92
:102CA0008DB380936001089508950895089586274F
:102CB00008950895882319F0813049F511C0262F11
:102CC00030E0240F311DC9016AE070E00E944CB76A
:102CD000482FC9016AE070E00E944CB7460F18C047
:102CE000662309F461E0442309F441E0469F900122
:102CF0001124C9016AE070E00E944CB7462FC90157
:102D00006AE070E00E944CB7642F482FD8CF40E0B3
:102D1000842F089581E00895FF920F931F93CF931E
:102D2000DF93F0905F01EC0100E010E009C08EE05D
:102D30000E9490139881981709F41F5F0F5F2196E6
:102D40000F15A8F3812FDF91CF911F910F91FF9065
:102D500008950895089581E008950895FC01808103
:102D6000841718F48F5F8083089560830895FC01B1
:102D70008081681718F481508083089540830895F6
:102D8000582FFB01843600F164E60E941FB7482FDC
:102D9000852F0E941FB7892F6AE00E941FB7405DF0
:102DA00040834053805D81838053505D2CE93FEF29
:102DB000429F402D1124450F26EF3FEF829F802D2B
:102DC0001124840F828310C08A508A3578F480E3FE
:102DD0008083852F6AE00E941FB7805D8183852FE5
:102DE0000E941FB7905D9283138208955A3030F489
:102DF00080E380838183505D528313820895813004
:102E000029F0823019F0833009F080E008950895A8
:102E1000CF93DF93EB01DA01A80FB91F40E050E038
:102E200007C0FE01E40FF51F8D9180834F5F5F4F58
:102E300042175307B0F3C20FD31F1882DF91CF910F
:102E400008950F931F93CF93DF938C01DB01EB0168
:102E5000C40FD51F60E070E007C0F801E60FF71F50
:102E6000808189936F5F7F4F62177307B0F3A40F60
:102E7000B51FA20FB31F1C92DF91CF911F910F912D
:102E80000895FB01E80FF91F808108958091F50AEC
:102E9000813051F480919E0190919F018F9721F490
:102EA00080911A0B8053089580E0089590911C0B37
:102EB00020E030E0F901E956F54FD901AB50B54FAC
:102EC00097968C9180832F5F3F4F2431310591F786
:102ED0001092AB0A20E030E0F901EA57F64FD90131
:102EE000AB50B54FDB968C9180832F5F3F4F2431E1
:102EF000310591F710929A0920E030E0F901EF5D79
:102F0000F54FD901AC5BB44F8C9180832F5F3F4F5D
:102F10002431310599F71092350A20E030E0F901AB
:102F2000EF54F24FD901A85AB44F8C9180832F5F90
:102F30003F4F2431310599F71092C50D892F8053E9
:102F4000089520E030E0F901EF59F24FD901AB507C
:102F5000B54F95968C9180832F5F3F4F243131057B
:102F600091F71092750D20E030E0F901EC5FFA4F17
:102F7000D901AB50B54FD9968C9180832F5F3F4FCD
:102F80002E31310591F71092220580914C0B8093E0
:102F90006A0510926B0520E030E0F901E65CF54F20
:102FA000D901A35BB44F8C9180832F5F3F4F2830B2
:102FB000310599F71092420A20E030E0F901E25A17
:102FC000FA4FD901AB5AB44F8C9180832F5F3F4F9A
:102FD0002A30310599F71092680520E030E0F901B8
:102FE000E853F24FD901A15AB44F8C9180832F5FDF
:102FF0003F4F2A30310599F71092D20D20E030E092
:10300000F901E956F24FD901A759B44F8C91808349
:103010002F5F3F4F2331310599F71092AA0D20E021
:1030200030E0F901E557F24FD901A458B44F8C9123
:1030300080832F5F3F4F2730310599F71092920D13
:1030400020E030E0F901E556FB4FD901AD57B44F10
:103050008C9180832F5F3F4F2430310599F7109278
:103060009F0480E00895CF93DF9380911A0B8935F8
:1030700011F490E801C090E080911B0B893509F4B0
:10308000906480911C0B893509F490629061809165
:103090001D0B8053813108F4982BC091A001D09171
:1030A000A10120E030E00BC0F901E153FA4FD90152
:1030B000AB50B54F9C968C9180832F5F3F4F2C1760
:1030C0003D0790F3C153DA4F1882892FDF91CF91DA
:1030D000089520E030E006C0FC01E20FF31F4083BA
:1030E0002F5F3F4F26173707B8F3089520E030E0F1
:1030F000F901EF59F14FD901AB50B54F95968C912D
:1031000080832F5F3F4F2630310591F71092670E75
:103110008091200B80939C098091210B80939D09C5
:1031200010929E0920E030E0F901EF5EF54FD901E1
:10313000AB50B54F9D968C9180832F5F3F4F2F30C2
:10314000310591F71092200A20E030E0F901EF57A5
:10315000F84FD901AB50B54FDC968C9180832F5F2F
:103160003F4F2630310591F71092870720E030E07D
:10317000F901EB5AFA4FD901A95CB44F8C918083C5
:103180002F5F3F4F2830310599F710925D0520E001
:1031900030E0F901E557F24FD901A15CB44F8C91B1
:1031A00080832F5F3F4F2830310599F71092930DA0
:1031B0008091470B80936A0510926B0520E030E008
:1031C000F901E452FB4FD901A85BB44F8C91808385
:1031D0002F5F3F4F2930310599F71092E50408958C
:1031E0001F93813009F05FC06F32710521F080912B
:1031F0002401882321F481E08093B5014AC06C3614
:10320000710511F0893021F481E08093BA0141C049
:1032100092E06736790711F08B3021F481E08093DA
:10322000B70137C06139710511F0873121F481E0B0
:103230008093B9012EC0663E710511F0893321F4E7
:1032400081E08093BC0125C091E06839790711F0D5
:10325000833621F481E08093B6011BC091E0663B88
:10326000790711F0813521F481E08093BD0111C00F
:103270006C35710511F08B3521F481E08093BE012E
:1032800008C06635710511F0853119F481E080932D
:10329000B8011091BE01113031F41092BE010E94AC
:1032A00076181093AE011F910895FC01DC0180E0B7
:1032B00090E202C09D938F5F8617E0F3E60FF11D49
:1032C000108208956F927F928F929F92AF92BF92D9
:1032D000CF92DF92EF92FF920F931F93CF93DF93E2
:1032E000EC01411551056105710521F480E38883E6
:1032F000198248C04A015B0110E000E07724C12C2C
:103300009AECD92E9AE9E92E9BE3F92E80E3682EF8
:103310008C149D04AE04BF04D0F0C501B401A70114
:1033200096010E945FB7122FC501B401A701960153
:103330000E945FB7AC01CB01DA014C015D01FE01D7
:10334000E00FF11D105D10830F5F11E007C0112326
:1033500029F0FE01E00FF11D60820F5F73948AE097
:10336000781669F0C701B6012AE030E040E050E08D
:103370000E945FB7C901DA016C017D01C9CFC00F9E
:10338000D11D1882DF91CF911F910F91FF90EF9087
:10339000DF90CF90BF90AF909F908F907F906F9075
:1033A0000895DC0120E030E09C9190539A3008F0C1
:1033B00090E011968C91119780538A3008F080E04C
:1033C000FB01E20FF31F8F709295907F982B9083F3
:1033D0002F5F3F4F12962630310531F70895CF9376
:1033E000DF93EB01DB0120E030E0FC01E20FF31F93
:1033F000E0814E2F42954F704A3010F040E301C0FB
:10340000405DEF70EA3010F0E0E301C0E05D4C9306
:103410001196EC9311972F5F3F4F1296263031058E
:1034200021F71C86DF91CF910895861708F4865FF7
:10343000861B805D08958056860F6AE00E942BB738
:10344000892F805D08958A3010F080E30895805DB3
:10345000089580538A3008F080E00895482FFB01DA
:10346000181664F4562FDB0190E29D938A2F851B7A
:103470008417D8F3E40FF11D1082089580E2808351
:1034800011820895863051F1873070F4833011F144
:10349000843028F48130C1F08230C1F419C0843006
:1034A000D9F0853099F422C08930F1F08A3028F4BF
:1034B0008730B1F0883051F415C08B30D9F08B30A3
:1034C000B8F08C3019F418C08AED089580E00895A2
:1034D00082EC08958FEB089583EC089584EB0895B2
:1034E00080EC089581EC089589ED089585EC0895A8
:1034F00083EB089584EC08958DE00895BF92CF92F8
:10350000DF92EF92FF920F931F93CF93DF93B82E2A
:103510008B01E42E6901F901C081D1810C0F1D1FBF
:10352000FF2407C08B2D0E94421AF80181938F015E
:10353000F394FE14B8F3CE0DD11DF601D183C083F0
:10354000DF91CF911F910F91FF90EF90DF90CF907F
:10355000BF9008950895089508950895E82F282F9D
:103560002F70822F869586958695A82FB0E0A1555D
:10357000B24F4C91623059F4277081E090E002C064
:10358000880F991F2A95E2F7482B4C9308956330D2
:10359000B1F427708EEF90E001C0880F2A95EAF70A
:1035A000E695E695E695F0E0E155F24F282F30E0FC
:1035B0002095309535952795822B84238083089517
:1035C0008F70E82FE695E695E695F0E0E155F24F2D
:1035D0009081292F30E0877002C0359527958A9514
:1035E000E2F72130310511F482E00895232B11F424
:1035F00083E0089580E00895DF93CF9300D000D05A
:103600000F92CDB7DEB7982FE199FECF27E331E0D7
:103610003FBB2EBBE09A8DB3891751F0E199FECFE5
:103620003FBB2EBB9DBB0FB6F894E29AE19A0FBE4A
:10363000913019F0923071F408C0198283E08A83C6
:103640001B8282E08C831D8205C019829A831B82B3
:103650009C839D8329E330E0FE013196E199FECF02
:103660003FBB2EBBE09A8DB39081891751F0E19951
:10367000FECF3FBB2EBB9DBB0FB6F894E29AE19AFA
:103680000FBE2F5F3F4F319680E02E33380731F762
:103690000F900F900F900F900F90CF91DF910895A2
:1036A0000895DF93CF93CDB7DEB762970FB6F89446
:1036B000DEBF0FBECDBF20919A052F8320919B05C1
:1036C000288720919D052C8320919E052D83209194
:1036D000A00529832091A1052A832091790A2A87B0
:1036E00020917A0A2B8720917C0A2D8720917D0AD0
:1036F0002E8720917F0A288B2091800A298B1A8A95
:103700001F861C861B821E8219862DB73EB720514C
:1037100030400FB6F8943EBF0FBE2DBFEDB7FEB7D9
:103720003196ADB7BEB712969C938E9311978FE4E6
:1037300093E093838283CE01019695838483CE01A7
:10374000049697838683CE01079691878087CE0162
:103750000A9693878287CE010D9695878487CE013E
:103760004096978786870E945FB42DB73EB7205F4B
:103770003F4F0FB6F8943EBF0FBE2DBF62960FB6F7
:10378000F894DEBF0FBECDBFCF91DF91089500D07A
:1037900000D000D0EDB7FEB73196ADB7BEB71296E8
:1037A0007C936E93119726E53DE0338322838483D7
:1037B00015820E945FB48DB79EB706960FB6F89437
:1037C0009EBF0FBE8DBF08958091D101843620F435
:1037D0008F5F8093D10102C01092D10100D000D040
:1037E00000D0EDB7FEB731968BEA9DE0ADB7BEB71E
:1037F00012969C938E93119786E59DE09383828326
:103800008091D101848315820E945FB48DB79EB7E9
:1038100006960FB6F8949EBF0FBE8DBF0895E1992E
:10382000FECF80E090E09FBB8EBBE09A8DB300D0CE
:1038300000D000D0EDB7FEB731962CEC35E0ADB737
:10384000BEB712963C932E9311972EEB30E2338342
:10385000228364E60E941FB7948315820E945FB49E
:103860008DB79EB706960FB6F8949EBF0FBE8DBF5C
:103870000895FF920F931F93DF93CF93CDB7DEB7D9
:1038800028970FB6F894DEBF0FBECDBFF82E8E017D
:103890000F5F1F4FC80165E470E048E050E023EF80
:1038A00032E10E941FB4F8019E01275F3F4F9E2F17
:1038B000901B80818F1519F4892F8F5F05C0319679
:1038C000E217F307A1F780E028960FB6F894DEBF61
:1038D0000FBECDBFCF91DF911F910F91FF90089543
:1038E000FF920F931F93CF93DF93282FF62E8031F3
:1038F00008F04EC0E199FECF87E391E09FBB8EBBFD
:10390000E09A8DB3809361018150823008F4822F58
:103910000E94391C8823E1F18150C82FD0E080E15A
:103920000E9490138E010E5E1E4FF8019081981731
:10393000B1F0F0E1FF1621F0FE01EE59FE4FF082EA
:103940008F2D0E9490138E010E5E1E4FF801808312
:10395000F5E1FF16C1F4CE59DE4F888110C0FE019B
:10396000EE59FE4F81E1F81611F4808108C0F08213
:103970008BE0F81621F0F4E1FF1629F484E10E94AF
:103980009013F80180831092220181E0809311014D
:10399000DF91CF911F910F91FF9008951F93DF93B7
:1039A000CF93CDB7DEB728970FB6F894DEBF0FBE22
:1039B000CDBF182FCE01019665E470E048E050E0DD
:1039C00023EF32E10E941FB4812F8150873010F025
:1039D00080E004C0FE01E10FF11D808128960FB642
:1039E000F894DEBF0FBECDBFCF91DF911F91089538
:1039F0000F931F93DF93CF9300D000D000D0CDB7AB
:103A0000DEB7962F4F702150263008F4522F8823AE
:103A1000D9F464E2469FB0011124292F30E080E2FE
:103A200091E0FC012E9FC0012F9F900D3E9F900DB5
:103A30001124680F791F86E0589FC0011124680F78
:103A4000791F6D537C4F1CC0813011F564E2469F95
:103A5000B0011124292F30E080E291E0FC012E9F7B
:103A6000C0012F9F900D3E9F900D1124680F791F6C
:103A700086E0589FC0011124680F791F6D5F794F50
:103A8000CE01019646E050E023EF32E10E941FB4E0
:103A9000CE010196B8010E94EF1926960FB6F89450
:103AA000DEBF0FBECDBFCF91DF911F910F91089563
:103AB000DF92EF92FF920F931F93DF93CF9300D08B
:103AC00000D00F92CDB7DEB7D82E8E010F5F1F4FFB
:103AD000C80160E470E045E050E023EF32E10E946D
:103AE0001FB4ED2D21E030E07801D8018C91D8167B
:103AF00049F4C90165E070E00E944CB7F701E80F96
:103B0000F91FE0810F5F1F4F2F5F3F4F26303105B8
:103B100061F78E2F0F900F900F900F900F90CF9115
:103B2000DF911F910F91FF90EF90DF900895CF925A
:103B3000DF92EF92FF920F931F93DF93CF93CDB756
:103B4000DEB764970FB6F894DEBF0FBECDBF8E010F
:103B50000F5F1F4FC8016CE270E044E050E023EFBC
:103B600032E10E941FB478018E010B5F1F4F680184
:103B7000D7018D917D01B8010E94C0160C5F1F4FC7
:103B8000EC14FD04A9F7EDB7FEB73C970FB6F89417
:103B9000FEBF0FBEEDBF31968BEE99E0ADB7BEB75D
:103BA00012969C938E9311978AEF91E2938382836E
:103BB000F582E482CE01099697838683CE010D9625
:103BC00091878087CE014196938782870E945FB458
:103BD000EDB7FEB73C960FB6F894FEBF0FBEEDBF33
:103BE00064960FB6F894DEBF0FBECDBFCF91DF91C4
:103BF0001F910F91FF90EF90DF90CF900895CF929B
:103C0000DF92EF92FF920F931F93DF93CF93CDB785
:103C1000DEB768970FB6F894DEBF0FBECDBF8E013A
:103C20000F5F1F4FC80168E270E044E050E023EFEF
:103C300032E10E941FB478018E010B5F1F4F6801B3
:103C4000D7018D917D01B8010E94C0160B5F1F4FF7
:103C5000EC14FD04A9F7EDB7FEB73C970FB6F89446
:103C6000FEBF0FBEEDBF31968EEB99E0ADB7BEB78C
:103C700012969C938E93119786E092E293838283AF
:103C8000F582E482CE010A9697838683CE010F9651
:103C900091878087CE014496938782870E945FB484
:103CA000EDB7FEB73C960FB6F894FEBF0FBEEDBF62
:103CB00068960FB6F894DEBF0FBECDBFCF91DF91EF
:103CC0001F910F91FF90EF90DF90CF900895CF92CA
:103CD000DF92EF92FF920F931F93DF93CF93CDB7B5
:103CE000DEB72F970FB6F894DEBF0FBECDBFE82E1C
:103CF0008B018F700E94391C882309F42DC18150DB
:103D0000C82EDD2485E390E0C89EF001C99EF00D29
:103D1000D89EF00D1124E557F84F8081080F111D32
:103D2000D8012C91CE010196222369F06DE0269FE7
:103D3000B001112462557F4F4DE050E023EF32E196
:103D40000E941FB410C000D000D0EDB7FEB7928320
:103D5000818387EB92E2948383830E945FB40F9008
:103D60000F900F900F90E199FECF80E090E09FBB05
:103D70008EBBE09AFDB200D000D000D0ADB7BEB788
:103D8000119683E49EE0EDB7FEB79283818384EBC6
:103D900092E213969C938E93129785E390E0C89ECF
:103DA0008001C99E100DD89E100D1124F801E55711
:103DB000F84F828114968C93149715961C920E944A
:103DC0005FB4EDB7FEB7319681E69EE0ADB7BEB702
:103DD00012969C938E93119781EB92E29383828348
:103DE000C8018257984F958384830E945FB4EDB7D2
:103DF000FEB7319681E599E0ADB7BEB712969C93B8
:103E00008E9311978EEA92E293838283C8018B5638
:103E1000984F958384830E945FB4EDB7FEB73196C7
:103E20008DE295E0ADB7BEB712969C938E93119735
:103E30008BEA92E293838283C8018256984F9583DE
:103E400084830E945FB4EDB7FEB731968FEC9AE0A1
:103E5000ADB7BEB712969C938E93119788EA92E203
:103E600093838283F48215820E945FB4EDB7FEB71C
:103E700031968CE999E0ADB7BEB712969C938E93BC
:103E8000119783EA92E293838283E48215820E94EF
:103E90005FB4EDB7FEB7319681E19AE0ADB7BEB73A
:103EA00012969C938E93119780EA92E29383828379
:103EB000CE010196958384830E945FB4EDB7FEB76F
:103EC000319681E897E0ADB7BEB712969C938E937A
:103ED00011978DE992E293838283C8018955984FA7
:103EE000958384830E945FB4EDB7FEB7319685E574
:103EF00095E0ADB7BEB712969C938E9311978AE961
:103F000092E293838283C8018255984F958384837C
:103F10000E945FB4EDB7FEB731968BE89DE0ADB778
:103F2000BEB712969C938E93119787E992E2938382
:103F300082830954184F158304830E945FB4109242
:103F4000CF0181E08093C301EDB7FEB736960FB67F
:103F5000F894FEBF0FBEEDBF2F960FB6F894DEBFEC
:103F60000FBECDBFCF91DF911F910F91FF90EF90CA
:103F7000DF90CF900895EF92FF920F931F93DF93FE
:103F8000CF9300D000D000D0CDB7DEB7F82E062FEB
:103F90000E94CE1CE82E0E94391C182F882399F10C
:103FA000013069F0EE2079F180E10E949013115008
:103FB000E12FF0E0EE5EFE4F9081981721F566E06C
:103FC000F69EB0011124615B7F4FCE01019646E061
:103FD00050E023EF32E10E941FB4EF2DF0E0EF57E5
:103FE000FE4F8081813019F0002329F00CC0013090
:103FF00011F4009392018E2DBE016F5F7F4F0E94DE
:10400000671E81E101C082E126960FB6F894DEBFFB
:104010000FBECDBFCF91DF911F910F91FF90EF9019
:104020000895AC01DC010D900020E9F71197A81B61
:10403000B90B20E030E090E006C0E40FF51F80816E
:10404000280F311D9F5FE92FF0E0EA17FB07A8F367
:10405000C9016FEF70E00E9438B7882309F48FEF31
:104060000895FF920F931F93DF93CF93CDB7DEB7E1
:104070002A970FB6F894DEBF0FBECDBFF82E00D042
:1040800000D08E010F5F1F4FEDB7FEB71283018383
:1040900081E793E0948383830E945FB4D8010D90FD
:1040A0000020E9F71197A01BB10B90E00F900F9043
:1040B0000F900F90980108C0E20FF31F80818F15B9
:1040C00011F481E007C09F5FE92FF0E0EA17FB07DA
:1040D00098F380E02A960FB6F894DEBF0FBECDBFEE
:1040E000CF91DF911F910F91FF9008950F931F9330
:1040F000CF93DF93AC01FB0101900020E9F73197EA
:104100001E2F161BFC0101900020E9F731970E2F9E
:10411000081BDB0160E018C09C91FA0180819817B0
:1041200089F4ED0120E030E009C0FA01E20FF31F4D
:10413000908189912F5F3F4F981721F42017A8F3A2
:10414000862F05C06F5F1196611730F3812F90E0C5
:10415000DF91CF911F910F9108957F928F929F923F
:10416000AF92BF92CF92DF92EF92FF920F931F9385
:10417000CF93DF935C016B014A01EC0109900020B1
:10418000E9F72197C81BD90BCB32D10510F0CAE251
:10419000D0E0F401008111817601E00EF11E8AE089
:1041A0000E94421A782EF701808398012F5F3F4FBB
:1041B000D70190E007C0EA0DFB1D80818C932F5F33
:1041C0003F4F9F5FE92FF0E01196EC17FD0798F342
:1041D000622FCA32D10591F0F601E20FF31F4AE2D5
:1041E00050E04C1B5D0B70E203C071932F5F3F4F9B
:1041F000822F861B90E084179507B8F3F601E20F33
:10420000F31F7082C9010196C80ED91E2DE0F60178
:1042100020830196F40191838083DF91CF911F91D8
:104220000F91FF90EF90DF90CF90BF90AF909F9055
:104230008F907F900895382FAB018150863068F5BC
:10424000FB0101900020E9F73197E61BF70B7E2F69
:10425000EE2311F420E014C080E090E0632F605D55
:10426000FA01E80FF91FE0813A3010F020E301C0B5
:10427000262FE21791F0282F2F5F0196871780F3E2
:10428000622F70E03A3010F080E302C0832F805D2F
:10429000FA01E60FF71F808311820895DC010D906B
:1042A0000020E9F71197A81BB90B20E030E006C009
:1042B000FC01E20FF31F10822F5F3F4F2A173B07CD
:1042C000B8F308956F927F928F929F92BF92CF9290
:1042D000DF92EF92FF920F931F93DF93CF93CDB7AF
:1042E000DEB764970FB6F894DEBF0FBECDBF7C017A
:1042F0006A01BB2430E0062F10E0005310403E015D
:104300000894611C711C62E0862E912C8C0E9D1EFF
:1043100024C01197A41BB50BAE0DBF1D8C9190E06E
:10432000C097BC01609FC001619F900D709F900D70
:104330001124232F280F822F6AE00E941FB7382FE5
:10434000F301E40FF51F822F0E941FB7905D908349
:10435000480D591DFA011082B3944B2D50E0D7013E
:104360000D900020E9F71197AE19BF094A175B07B6
:1043700080F2332389F0FE013196DF010D90002099
:10438000E9F71197AE1BB0E0EA0FFB1F305D3083F9
:10439000AC0FBD1F12961C92DE011196FD0101901B
:1043A0000020E9F731979E2F9A1BA90FB11DF60146
:1043B00002C08C9181931197AC17BD07D1F7C90E3C
:1043C000D11CF601108264960FB6F894DEBF0FBEC2
:1043D000CDBFCF91DF911F910F91FF90EF90DF90B4
:1043E000CF90BF909F908F907F906F900895AC0179
:1043F000DC010D900020E9F71197A81BB90B20E014
:104400000AC0E40FF51F8081922F9F5F8D3211F457
:10441000892F0895292FE22FF0E0EA17FB0788F390
:1044200080E008950E94F721811181E00895CF93E3
:10443000DF93EC010E941222813019F5CE010E9417
:10444000F721DE010D900020E9F71197AC1BB0E0D9
:1044500090E0A81BB90BAE01480F591F20E030E0D7
:104460000AC0BE01620F731FFA018191AF01FB0107
:1044700080832F5F3F4F2A173B0798F3AC0FBD1F78
:104480001C92DF91CF910895AC01272FFC01019080
:104490000020E9F731977E2F781BA62FB22FFD0160
:1044A00001900020E9F73197E61BE71748F17E17E6
:1044B00049F5862F922F9C01D90120E030E01DC0E4
:1044C000FA01E20FF31FE081E053EA3010F060E000
:1044D00001C06E2F8C9180538A3010F090E001C0A3
:1044E000982F961768F0EA3008F0E0E08A3010F470
:1044F000E81740F02F5F3F4F1196271708F302C0CF
:1045000081E0089580E00895FC0101900020E9F722
:104510003197E81BDC01AE0FB11D90E020E006C032
:104520008C91803309F42F5F9F5F11979E17C0F322
:1045300080E02E1709F481E00895CF93DF9320E007
:1045400008C0FB01EC0FFD1FE491C80FD91FE883E1
:104550002F5FC22FD0E0FB0101900020E9F73197D7
:10456000E61BF70BCE17DF0760F3DF91CF910895BD
:10457000AC01DC010D900020E9F71197A81BB90BE5
:1045800090E020E030E009C0FA01E20FF31F8081E3
:10459000803209F09F5F2F5F3F4F2A173B07A0F340
:1045A00080E0992309F481E008959C01E199FECF10
:1045B0008EE390E09FBB8EBBE09A5DB340E008C005
:1045C000F901E80FF91F8081851709F410824F5F08
:1045D000842F90E0F90101900020E9F73197E21B68
:1045E000F30B8E179F0760F30895CF92DF92EF923F
:1045F000FF920F931F93DF93CF93CDB7DEB76797EB
:104600000FB6F894DEBF0FBECDBF7C01D62EC42EF0
:1046100000D000D0ADB7BEB712969C938E93119781
:104620008CEF93E014969C938E9313970E945FB443
:104630000F900F900F900F908E01095F1F4FC801D0
:1046400065E470E048E050E023EF32E10E941FB4DF
:10465000F8019E01215F3F4F9E2F901B80818D1599
:1046600011F4892F05C03196E217F307A9F780E00E
:10467000B5E0BC1508F441C066E0869FB001112486
:104680006B5A7F4FCE01019646E050E023EF32E1B6
:104690000E941FB48E01015F1F4FFE01EC0DF11D42
:1046A000608189E0689FB001112464587F4FC80180
:1046B00049E050E023EF32E10E941FB4C8010E949C
:1046C000D52200D000D000D0EDB7FEB73196ADB7FF
:1046D000BEB71296FC92EE92119789EF93E0938306
:1046E0008283158304830E945FB4EDB7FEB73696CC
:1046F0000FB6F894FEBF0FBEEDBF67960FB6F894E5
:10470000DEBF0FBECDBFCF91DF911F910F91FF9004
:10471000EF90DF90CF900895DF93CF93CDB7DEB7C2
:104720002B970FB6F894DEBF0FBECDBF982F9B011D
:10473000FB018085898381858A8387818B8385813D
:104740008C8386818D8384818E83992319F09130A7
:1047500059F40FC0FB0180818F838181888782811A
:10476000898783818A871B8690E0AE014F5F5F4F08
:104770000FC0FB0182818F83838188871986F4CFE4
:10478000F901EA0FFB1FA40FB51F8C9180839F5F77
:10479000A92FB0E0FA0101900020E9F73197E41B5E
:1047A000F50BAE17BF0760F32B960FB6F894DEBF7C
:1047B0000FBECDBFCF91DF910895CF93DF93EC0172
:1047C000FC0101900020E9F73197E81BE230D0F1BD
:1047D00088818033B9F54C2FDE0190E08C918033D5
:1047E00069F411968C911197803311F49F5F06C084
:1047F0008E3211F08C3241F4915006C011968A2FFE
:10480000841B8E1758F301C09F5F9E1710F09E2FD8
:10481000915040E0892F90E02E2F30E0281B390B7B
:10482000BE01680F791F09C0FE01EA0FFB1FA60F2A
:10483000B71F8C91808311824F5FA42FB0E0A21725
:10484000B30794F3DF91CF910895CF93DF93EC01F9
:10485000FC0101900020E9F731976E2F681B623050
:10486000E0F188818032C9F54C2FFE0120E090E014
:104870008081803241F48181803221F4222319F435
:104880009F5F01C021E031968E2F841B861780F335
:10489000392F3F5F20E0432F50E009C0FE01E80FB1
:1048A000F91FDF01A40FB51F8C9180832F5F822F2A
:1048B00090E0FE0101900020E9F73197EC1BFD0B21
:1048C0008E179F0758F3862F831B05C0FE01E80F44
:1048D000F11D10828F5F8617C8F3DF91CF91089585
:1048E0000F931F93CF93DF93EC01DC010D90002019
:1048F000E9F71197A81BB0E020E030E06A2F70E0E4
:104900008B0101501040A15016C0AB01481B590B40
:10491000FE01E40FF51F32978081803289F4FA019D
:104920003197EC0FFD1F2F5F3F4F8081803241F4A4
:104930001082BA2FB21B822F90E0801791072CF3C0
:10494000FE01EB0FF11D8081803209F41082888115
:10495000803209F41882FE0101900020E9F73197B6
:10496000EC1BFD0BEC0FFD1F1082DF91CF911F910F
:104970000F9108951F9310912E0B20E030E0F90164
:10498000EB50F54FD901AF59B24F95968C9180837A
:104990002F5F3F4F2431310591F71092090B81E6CB
:1049A0009DE00E94252420E030E0F901EC5FFA4F01
:1049B000D901AB50B54FDC968C9180832F5F3F4F70
:1049C0002832310591F710922C0584E095E00E9481
:1049D000702420E030E0F901E55CFA4FD901A357DB
:1049E000B44F8C9180832F5F3F4F2931310599F768
:1049F000109254058BE395E00E9470248091A60BE1
:104A00008093C5041092C60420E030E0F901ED5215
:104A1000F24FD901A955B44F8C9180832F5F3F4F3E
:104A20002D30310599F71092E00D83ED9DE00E9445
:104A3000252420E030E0F901EE52F54FD901AC54C5
:104A4000B44F8C9180832F5F3F4F2A30310599F707
:104A50001092DC0A82ED9AE00E94702420E030E09F
:104A6000F901E45AF64FD901A254B44F8C918083D6
:104A70002F5F3F4F2431310599F7109270098CE573
:104A800099E00E947024812F8F521F91089520E099
:104A900030E006C0FC01E20FF31F10822F5F3F4F92
:104AA000FC0101900020E9F73197E81BF90B2E1764
:104AB0003F0780F30895BF92CF92DF92EF92FF926B
:104AC0000F931F93DF93CF93CDB7DEB76E970FB6DB
:104AD000F894DEBF0FBECDBF8C01FC010190002019
:104AE000E9F731972E2F281B2617E0F57E01089451
:104AF000E11CF11CF701BE2C90E301C091938E2FB5
:104B00008B198617D8F3462F50E0CE010196FC0191
:104B1000E40FF51F1082762F721B6C0130E0241B0E
:104B2000350B0CC0E72FF0E0D601AE0FBF1FE00F32
:104B3000F11FE20FF31F80818C937F5F761790F354
:104B40004C0D5D1DDA011C92F80104C0D7018D9156
:104B50007D0181938E2D8B198617C0F3060F111DD1
:104B6000F80110826E960FB6F894DEBF0FBECDBF6F
:104B7000CF91DF911F910F91FF90EF90DF90CF9039
:104B8000BF9008950F931F93CF93DF93182F062F95
:104B9000EA01CA016DE00E945B25812F0E94391C49
:104BA000482F882339F0415081E061E0202F8E01A9
:104BB0000E94F81CDF91CF911F910F9108950F93E0
:104BC0001F93CF93DF93182F062FEA01CA016BE0E2
:104BD0000E945B25812F0E94391C482F882339F0C1
:104BE000415080E061E0202F8E010E94F81CDF918F
:104BF000CF911F910F910895EF92FF920F931F9302
:104C0000082F7B01CB016AE00E945B2500D000D019
:104C100000D0EDB7FEB73196ADB7BEB71296FC9295
:104C2000EE92119783E693E09383828310E00F70F6
:104C3000107085E390E09C01029FC001039F900DDE
:104C4000129F900D11248954984F958384830E945C
:104C50005FB48DB79EB706960FB6F8949EBF0FBE91
:104C60008DBF1F910F91FF90EF900895EF92FF92EB
:104C70000F931F93082F7B01CB016AE00E945B25F5
:104C800000D000D000D0EDB7FEB73196ADB7BEB7BB
:104C90001296FC92EE92119786E693E093838283BC
:104CA00010E00F70107085E390E09C01029FC0013E
:104CB000039F900D129F900D11248255984F95835C
:104CC00084830E945FB48DB79EB706960FB6F894A2
:104CD0009EBF0FBE8DBF1F910F91FF90EF90089563
:104CE000CF93DF93EC01DC010D900020E9F71197E1
:104CF000A81BB90BA61760F48A2F90E3FE01E80FFA
:104D0000F11D90838F5F8617C8F3C60FD11D1882DF
:104D1000DF91CF9108953F924F925F926F927F9271
:104D20008F929F92AF92BF92CF92DF92EF92FF92BB
:104D30000F931F93DF93CF93CDB7DEB7C855D04005
:104D40000FB6F894DEBF0FBECDBF682E67967FAF5B
:104D50006EAF679769965FAF4EAF69975901FE01D5
:104D60003196CE0145961192E817F907E1F7CE0189
:104D700089961192E817F907E1F7FE01FD96CF0138
:104D800044961192E817F907E1F700D000D000D05F
:104D9000EDB7FEB731968E010F5F1F4FADB7BEB7AF
:104DA00012961C930E93119781EB95E09383828367
:104DB00067962EAD3FAD6797358324830E945FB41D
:104DC000EDB7FEB73196CE014596ADB7BEB7129698
:104DD0009C938E9311978EEA95E0938382836996D4
:104DE0002EAD3FAD6997358324830E945FB48DB7A4
:104DF0009EB706960FB6F8949EBF0FBE8DBFC80132
:104E00000E941222813021F065961FAE659707C07F
:104E1000C8010E94172291E065969FAF65978E01A9
:104E20000B5E1F4FC8010E941222813021F0649650
:104E30001FAE649707C0C8010E941722A1E06496C4
:104E4000AFAF6497FE013196DF010D900020E9F7C6
:104E5000CD0101978E1B9F0BDE015596FD01019040
:104E60000020E9F731971E2F1A1B181708F4182F86
:104E70001F5F7E010894E11CF11CC701612F0E9495
:104E80005B25A5E1CA2ED12CCC0EDD1EC601612FFB
:104E90000E945B25F70101900020E9F731977E2EF3
:104EA0007E18F60101900020E9F731979E2E9C189C
:104EB000C601B7010E944422813011F080E042C057
:104EC00000D000D000D0EDB7FEB731968E01075D5F
:104ED0001F4FADB7BEB712961C930E9311978BEA76
:104EE00095E093838283F582E4820E945FB4EDB7FC
:104EF000FEB73196ADB7BEB71296FC92EE921197FF
:104F000088EA95E093838283D582C4820E945FB44D
:104F1000EDB7FEB73196ADB7BEB71296DC92CE9222
:104F2000119785EA95E093838283158304830E9419
:104F30005FB481E0EDB7FEB736960FB6F894FEBFCA
:104F40000FBEEDBF662039F5813099F46596FFAD4F
:104F50006597F13039F464962FAD6497213009F0EC
:104F60009EC142C064963FAD6497313009F08EC156
:104F700092C165968FAD6597813039F464969FAD87
:104F80006497913009F08BC181C16496AFAD64978D
:104F9000A13051F580C1B1E06B1631F5813091F44B
:104FA0006596EFAD6597E13031F46496FFAD649797
:104FB000F130D1F474C164962FAD6497213009F0BB
:104FC0006AC164C165963FAD6597313039F4649626
:104FD0008FAD6497813009F059C161C164969FAD6E
:104FE0006497913009F057C162961FAE6297E72C23
:104FF000FF2467010894C108D108AE01435C5F4FEC
:105000004C0D5D1DCE0101968C010C0D1D1DBE01C8
:10501000690D711D6C5E7F4F99242C01F9E38F2E71
:105020009AE052C0D8018C9180538A3010F020E071
:1050300001C0282FFB01308130533A3010F4231780
:1050400040F08A3008F080E03A3008F030E0831B0E
:105050002DC08A3010F4831780F5292D0AC0F6017F
:10506000E21BF109D201AE0FBF1F8C91803329F4EE
:105070008C922F5F271598F310C0282F20532A30C9
:1050800008F020E0822F81508A3010F080E302C0C7
:10509000822F815DE40DF51D8083F801208120536E
:1050A0002A3008F020E0892F831B820F8A3010F00D
:1050B00080E301C0805DDA018C93939441505040AD
:1050C0000150104061507040971408F4ABCF8E012E
:1050D000035C1F4FE00EF11EF7011082C8010E9411
:1050E000DD23F80101900020E9F731973E2F301BB6
:1050F000D80120E090E04DE213C0222351F46296E3
:10510000FFAD6297F13029F4F501E90FF11D4083FD
:105110009F5FF501E90FF11D8D9180839F5F2F5FE8
:10512000231758F3F501E90FF11D1082A0C0EDE33C
:10513000EE2EF12CEC0EFD1EAE01490D511D4C5E04
:105140005F4F072D10E04801089481089108CE01B7
:1051500001966C01C80CD91C30E020E02C0170E3F2
:10516000372E47C0D6019C9190539A3008F090E0BA
:10517000FA01808180538A3008F080E0890F8A30FC
:1051800018F4805DD70128C06AE00E941FB79A30EA
:1051900010F090E301C0905DF7019083832F0EC063
:1051A000D401A81BB109F201EA0FFB1F90819053B3
:1051B0009A3008F079C0993029F430828F5F8715D2
:1051C00078F30DC0892F8F5F8A3010F080E302C022
:1051D000892F8F5CA40DB51D8C9320E001C021E0C8
:1051E0003F5F0894E11CF11C415050400894C108F5
:1051F000D108371508F4B6CF205DDE01DD96FD013C
:10520000E00FF11F20830C0F1D1FF80116AEFD01EA
:1052100001900020E9F731975E2F5A1B252F30E0CF
:10522000215030402A0F3B1F40E090E06DE216C055
:10523000442351F46396FFAD6397F13029F4F501EF
:10524000E90FF11D60839F5FF501E90FF11DD901A1
:105250008C9180839F5F4F5F21503040451740F312
:10526000F501E90FF11D1082C5010E94DD23B2E0B6
:105270006B16E1F467968EAD9FAD679769966EAD3C
:105280007FAD6997A5010E946F2910C0E1E0629689
:10529000EFAF6297ACCE63961FAE639748CFF1E055
:1052A0006396FFAF639743CF90E08CCFC85ADF4F30
:1052B0000FB6F894DEBF0FBECDBFCF91DF911F9127
:1052C0000F91FF90EF90DF90CF90BF90AF909F90A5
:1052D0008F907F906F905F904F903F9008954F9286
:1052E0005F926F927F928F929F92AF92BF92CF9276
:1052F000DF92EF92FF920F931F93DF93CF93CDB77F
:10530000DEB7A8970FB6F894DEBF0FBECDBF3C0145
:105310006B012A010E94DD23C6010E94DD23D60114
:105320000D900020E9F711978A2E8C1800D000D03C
:105330008E010F5F1F4FADB7BEB712961C930E9331
:10534000119783EA95E014969C938E9313970E948D
:105350005FB4B5E1EB2EF12CEC0EFD1EEDB7FEB700
:10536000F282E18281EA95E0948383830E945FB4B4
:10537000BB240F900F900F900F90A02E912E082D10
:1053800010E0015010401FC0F801E81BF90BEC0DB4
:10539000FD1DC3016081A7010E946221F7010190F8
:1053A0000020E9F73197EE19FF096B2D6E0FC70149
:1053B0000E94702681E06A2D792DA7012A2D392DB2
:1053C0000E948B26B394F60101900020E9F73197F3
:1053D000EC19FD098B2D90E08E179F07A8F200D0E5
:1053E00000D000D0EDB7FEB73196ADB7BEB712967C
:1053F0005C924E9211978EE995E093838283A4820A
:1054000095820E945FB4EDB7FEB736960FB6F8945A
:10541000FEBF0FBEEDBFA8960FB6F894DEBF0FBE5D
:10542000CDBFCF91DF911F910F91FF90EF90DF9053
:10543000CF90BF90AF909F908F907F906F905F9034
:105440004F900895CF92DF92EF92FF920F931F93A8
:10545000DF93CF93CDB7DEB764970FB6F894DEBF76
:105460000FBECDBFD82EC92EA82FB92FFD01019098
:105470000020E9F731974E2F481B20E030E07E01F5
:105480000894E11CF11C042F10E00EC0F701E20F9C
:10549000F31FC801821B930B642F70E00E944CB76E
:1054A000605D60832F5F3F4F241780F30E0D1F1D3B
:1054B000F801108281E0B7014D2D5C2D2D2D3C2D82
:1054C0000E948B2664960FB6F894DEBF0FBECDBF48
:1054D000CF91DF911F910F91FF90EF90DF90CF90D0
:1054E0000895BF92CF92DF92EF92FF920F931F9396
:1054F000DF93CF93CDB7DEB7E2970FB6F894DEBF58
:105500000FBECDBF8C01FC0101900020E9F731975F
:105510002E2F281B2617E0F57E010894E11CF11CB4
:10552000F701BE2C90E201C091938E2F8B19861744
:10553000D8F3462F50E0CE010196FC01E40FF51F91
:105540001082762F721B6C0130E0241B350B0CC0CF
:10555000E72FF0E0D601AE0FBF1FE00FF11FE20F03
:10556000F31F80818C937F5F761790F34C0D5D1D48
:10557000DA011C92F80104C0D7018D917D0181935D
:105580008E2D8B198617C0F3060F111DF80110829E
:10559000E2960FB6F894DEBF0FBECDBFCF91DF917C
:1055A0001F910F91FF90EF90DF90CF90BF900895E3
:1055B000CF93DF93EC01DC010D900020E9F7119708
:1055C000A81BB90BA61760F48A2F90E2FE01E80F22
:1055D000F11D90838F5F8617C8F3C60FD11D188207
:1055E000DF91CF9108950F931F93DF93CF93CDB7A2
:1055F000DEB72C970FB6F894DEBF0FBECDBF482F95
:105600008B01FE0131969E01235F3F4F1192E217FD
:10561000F307E1F7CE010196442369F06DE0469F60
:10562000B001112462557F4F4AE050E023EF32E190
:105630000E941FB414C000D000D0ADB7BEB7129600
:105640009C938E93119785EF93E014969C938E9381
:1056500013970E945FB40F900F900F900F90DE0190
:105660001196FD0101900020E9F73197EA1BEB301C
:1056700008F0EAE0AE014F5F5F4F9801BA0106C043
:10568000DB018D91BD01D9018D939D01862F841B76
:105690008E17B0F3C8018E0F911DFC011082C80156
:1056A0006AE00E94D82A2C960FB6F894DEBF0FBE8F
:1056B000CDBFCF91DF911F910F9108952F923F920F
:1056C0004F925F926F927F928F929F92AF92BF9212
:1056D000CF92DF92EF92FF920F931F93DF93CF93BE
:1056E000CDB7DEB7C05BD0400FB6F894DEBF0FBEBB
:1056F000CDBFE82EFE013796CE0146961192E817EF
:10570000F907E1F7CE0185961192E817F907E1F75D
:10571000CE01C4961192E817F907E1F7CF013F01D6
:105720000F961192E817F907E1F78E2D0E94391CA8
:1057300096E0899FB0011124615B7F4F8E010F5F5E
:105740001F4FC80146E050E023EF32E10E941FB432
:105750002E2C332491012F70307085E390E0289F28
:10576000F001299FF00D389FF00D1124E557F84FF7
:10577000F0804F2C5524040D151DD8018C9161E447
:1057800079E00E94F32A97E0892E912C8C0E9D1EC1
:105790008E2DB4010E94362686E1A82EB12CAC0EC7
:1057A000BD1E8E2DB5010E94FC2505E2C02ED12C18
:1057B000CC0EDD1E8E2D6F2DA6010E94DF258E2DB5
:1057C0006F2DA3010E94C22513E4E12EF12CEC0EF3
:1057D000FD1EC7010E94511BEDB7FEB774970FB6AF
:1057E000F894FEBF0FBEEDBF31968E01095A1F4FD0
:1057F000ADB7BEB712961C930E93119788E393E052
:1058000093838283358224825782468281E499E0A1
:1058100091878087F386E28695868486B786A686FA
:10582000D18AC08A628A738A0E945FB4ADB7BEB75C
:1058300054960FB6F894BEBF0FBEADBFC8010E940C
:105840001120E82E81E060E0A8010E9497B2F801E3
:10585000C801F92ECE018F549F4F1192E817F90716
:10586000E1F700D000D000D0EDB7FEB73196ADB76C
:10587000BEB711960C9311971296FC9285E393E0B4
:1058800093838283E48215820E945FB4EDB7FEB7F2
:1058900036960FB6F894FEBF0FBEEDBF81E061E013
:1058A000402F5F2D0E9497B2C055DF4F0FB6F8947E
:1058B000DEBF0FBECDBFCF91DF911F910F91FF9043
:1058C000EF90DF90CF90BF90AF909F908F907F90A0
:1058D0006F905F904F903F902F9008958091DC01E2
:1058E000833071F1843028F4813081F08230C0F44B
:1058F00009C0853009F449C08530C0F1863009F00F
:1059000060C04DC081E08093DB0146C08091DA0128
:105910000E94E01A823009F054C01092C5013CC0C8
:105920009091DB0185E080938A079093AE0D81E032
:10593000809397011092A9011092A80183E02CC0D6
:105940008091C501813059F49091C70D8091DB01A0
:10595000981729F41092C50184E08093DC018091AE
:10596000A8019091A901459760F115C08091DB01D4
:105970000E945E2B8091DB0163E00E94AE1A1092C0
:10598000A9011092A80185E007C08091A80190911B
:10599000A9010297B0F086E08093DC010895209180
:1059A000DB01E199FECF84E491E09FBB8EBBE09ADE
:1059B0008DB3821730F02F5F2093DB0181E080935D
:1059C000DC010895EF92FF920F931F93182F092F78
:1059D0007B010E947024812F902F0E942524A12FEB
:1059E000B02FFD0101900020E9F73197E11BC701BD
:1059F0008E1B910996958795E80F812F902F6E2F1A
:105A00000E94712A812F902F6E2D0E94D82A1F91FB
:105A10000F91FF90EF900895BF92CF92DF92EF9297
:105A2000FF920F931F93DF93CF93CDB7DEB76E979F
:105A30000FB6F894DEBF0FBECDBF8C01E42EFC0183
:105A400001900020E9F731972E2F281B2417D0F55D
:105A5000AE014F5F5F4FFA01B42E01C061938E2FEC
:105A60008B198E15D8F36E2D70E0CE010196FC01D6
:105A7000E60FF71F1082FE2CF21A6C0130E0261B95
:105A8000370B0CC0EF2DF0E0D601AE0FBF1FE00FBB
:105A9000F11FE20FF31F80818C93F394FE1490F3B7
:105AA0006C0D7D1DDB011C92F80104C0DA018D91A3
:105AB000AD018193842F8B198E15C0F30E0D111D2E
:105AC000F80110826E960FB6F894DEBF0FBECDBF00
:105AD000CF91DF911F910F91FF90EF90DF90CF90CA
