:100000000C94CC000C94E9000C94E9000C94E900E9
:100010000C94E9000C94E9000C94E9000C94E900BC
:100020000C94E9000C94E9000C94E9000C94E900AC
:100030000C94E9000C94E9000C94E9000C94E9009C
:100040000C94E9000C94EB000C9423170C942707F4
:100050000C94F7060C94E9000C94E9000C94E90068
:100060000C94E9000C94E9000C94E9000C94E9006C
:10007000A10DF40D170E1E0E240E2F0E440E840E2D
:10008000060F810FAA0F4F0F0D0F1A0F570F640F96
:100090006610B00FBD0FE20F66108F0FE40FAB0EAE
:1000A000B90E9B0F041017101D102A104E1050107F
:1000B0005C10D51025113B114A1181119811AA111C
:1000C000B811C713AB12BD12E512F112FD124A129C
:1000D0005C127A1286120E13221361136E137013C0
:1000E000771381138E1394139F1388159F1514177C
:1000F0003F16FE15141614171417591675161417F3
:1001000014178F161417B916BE16C716141714171E
:100110009516A516AA16AF16B41614171417CC16F2
:10012000C215E116EF16F916FD160017496E69742F
:1001300069616C697A656400256400257325730024
:100140003032252E3264002564003031252E326491
:10015000252E3164252E31642573257325730041C6
:100160007574686F72697A656400506F6F6C526560
:100170007374617274656400506F6F6C5265737450
:1001800061727465640057506F6F6C3A256400505B
:10019000756D703A2564000011241FBECFEFD4E0C6
:1001A000DEBFCDBF11E0A0E0B1E0E8E8F7E302C0B8
:1001B00005900D92AE30B107D9F714E0AEE0B1E092
:1001C00001C01D92A733B107E1F70E9427150C94D7
:1001D000C21B0C9400001F920F920FB60F921124B5
:1001E0002F933F935F936F937F938F939F93AF93DF
:1001F000BF9380913A018F5F80933A01609111041F
:100200000E94491B992321F487B194E0892787B97B
:1002100020911F01309120012F5F3F4F309320012B
:1002200020931F0120FD09C0809123049091240494
:1002300001969093240480932304C90164E670E03E
:100240000E94551B892B29F48091DE028F5F8093D9
:10025000DE0280910F049091100401969093100497
:1002600080930F0480912101909122010196909337
:10027000220180932101BF91AF919F918F917F9136
:100280006F915F913F912F910F900FBE0F901F9034
:10029000189508950895823059F0823018F083300F
:1002A00021F409C020E835E208C020E030E005C0B4
:1002B00020E03BE402C02BE936E1C901089580E06B
:1002C0000895D89ADB9A813021F0823019F4DB98B6
:1002D0000895D89808950895809100018230A9F476
:1002E0002091260180913501821710F41092DE02D0
:1002F0009091DE0280913604891728F41092DE0274
:1003000081E08093030120933501089570E0682710
:10031000792720E041E050EACB019695879560FF70
:1003200004C0BC016427752701C0BC012F5F2830C1
:1003300099F7CB0108950895813019F0823071F456
:1003400007C0C19AB99A84EC99E00197F1F7089532
:1003500086ED96E00197F1F7B99AC198089508954E
:10036000FC01E60FF11DD90190E00DC0808182955E
:100370008F70805D8C9381918F70805D11968C93CE
:1003800011979F5F1296941788F3E42FF0E0EE0F19
:10039000FF1FE20FF31F1082089580910101813049
:1003A00001F580E090E02EE0FC01E657FD4F108261
:1003B000FC01ED5EFB4F1082FC01E556FD4F2083F2
:1003C000FC01EB54FC4F2083FC01EB5DFB4F1082E2
:1003D000FC01E453FD4F108201968031910521F715
:1003E0000895809101018230F1F480E090E0FC01F9
:1003F000E657FD4F1082FC01ED5EFB4F1082FC01C1
:10040000E556FD4F1082FC01EB54FC4F1082FC01BD
:10041000EB5DFB4F1082FC01E453FD4F108201960F
:100420008031910521F70895089583B7856083BFD2
:1004300089B7826089BF08958F70089582958F7003
:10044000089508950895282F80912B01863041F159
:10045000873030F4843051F0853009F056C017C031
:10046000873079F18A3009F050C03BC090912A0161
:10047000913029F4822F8F7080933B0143C09230DA
:1004800009F040C0822F8F708093E0023BC09091B2
:100490002A019923B9F5822F8F708093F60232C01A
:1004A000293F09F440C090912A01E92FF0E0822F02
:1004B0008F708A3010F080E301C0805DE455FD4FFD
:1004C0001FC02A3F91F190912A01E92FF0E0822F7D
:1004D0008F708A3010F080E301C0805DE95AFD4FD3
:1004E0000FC02B3FF1F090912A01E92FF0E0822F0D
:1004F0008F708A3010F080E301C0805DE555FC4FBD
:10050000808311829F5F90932A01283F11F484E039
:100510000FC0263F11F485E00BC0273F11F486E0A1
:1005200007C0293F11F487E003C02A3F31F48AE075
:1005300080932B0110922A0108952B3F49F480915A
:100540002A0180930B018BE080932B0110922A01EA
:100550000895282F809129018230B9F0833009F461
:100560004AC0813009F07EC090912801992349F456
:10057000822F8F708093DC02853018F085E08093A5
:10058000DC029F5F909328016DC0822F807F803EA8
:1005900009F068C05091DC0230912801632F70E0AF
:1005A000822F8F708A3010F040E302C0482F405DE8
:1005B000852F90E0FC01B5E0EE0FFF1FBA95E1F743
:1005C000880F991FE81BF90BE60FF71FE950FD4F45
:1005D0004083852F90E0FC0155E0EE0FFF1F5A95F8
:1005E000E1F7880F991FE81BF90BE950FD4FE60F63
:1005F000F71F118234C0822F807F803E99F5709161
:10060000DC0230912801432F50E0822F8F708A3016
:1006100010F060E302C0682F605D872F90E0FC015E
:10062000B5E0EE0FFF1FBA95E1F7880F991FE81BA1
:10063000F90BE950FD4FE40FF51F6787872F90E016
:10064000FC0175E0EE0FFF1F7A95E1F7880F991F07
:10065000E81BF90BE950FD4FE40FF51F108A3F5FCF
:1006600030932801263F21F41092280181E013C025
:10067000293F11F482E007C02A3F51F480912801FC
:1006800080930C0183E08093290110922801089542
:10069000243F21F488E0809329010895253F19F42F
:1006A00089E08093290108950895CF93DF93EC01A9
:1006B00020E00BC0FE01E80FF91FDA01A81BB90BFF
:1006C000A60FB71F8C9180832F5F822F90E0841735
:1006D000950780F3C40FD51F1882DF91CF9108953D
:1006E0008F7008958A3010F080E30895805D08953A
:1006F000982FEDE0F4E080818183319784E0E2304F
:10070000F807C9F7918308958093040108958091B3
:1007100004010895CF93DF93EB01DA01A80FB91F0D
:1007200040E050E007C0FE01E40FF51F8D9180838B
:100730004F5F5F4F42175307B0F3C20FD31F1882AA
:10074000DF91CF910895FB01E80FF91F8081089593
:100750008A3010F4805D0895803110F080E30895B0
:10076000895C0895CF93DF93EB01DA01A80FB91FDD
:1007700040E050E00EC08C918F708A3010F080E322
:1007800001C0805DFE01E40FF51F80834F5F5F4F66
:1007900011974217530778F3C20FD31F1882DF91C6
:1007A000CF910895089520E030E006C0FC01E20FEB
:1007B000F31F40832F5F3F4F26173707B8F3089585
:1007C00081E061E04CE251E00E947F180895BF9201
:1007D000CF92DF92EF92FF920F931F93DF93CF930D
:1007E000CDB7DEB764970FB6F894DEBF0FBECDBFAE
:1007F0008C01FC0101900020E9F731972E2F281B76
:100800002617E0F57E010894E11CF11CF701BE2CCF
:1008100090E301C091938E2F8B198617D8F3462F42
:1008200050E0CE010196FC01E40FF51F1082762FF7
:10083000721B6C0130E0241B350B0CC0E72FF0E07D
:10084000D601AE0FBF1FE00FF11FE20FF31F808133
:100850008C937F5F761790F34C0D5D1DDA011C922F
:10086000F80104C0D7018D917D0181938E2D8B19E4
:100870008617C0F3060F111DF801108264960FB69B
:10088000F894DEBF0FBECDBFCF91DF911F910F91C6
:10089000FF90EF90DF90CF90BF900895CF93DF93BC
:1008A000EC01FC0101900020E9F73197E81BE230F0
:1008B000D0F188818033B9F54C2FDE0190E08C9126
:1008C000803369F411968C911197803311F49F5FF6
:1008D00006C08E3211F08C3241F4915006C0119650
:1008E0008A2F841B8E1758F301C09F5F9E1710F04C
:1008F0009E2F915040E0892F90E02E2F30E0281B52
:10090000390BBE01680F791F09C0FE01EA0FFB1FFA
:10091000A60FB71F8C91808311824F5FA42FB0E088
:10092000A217B30794F3DF91CF9108950F931F930C
:1009300090911501E92FF0E0E35CFE4F808396343F
:1009400018F49F5F9093150120911501E22FF0E0BC
:10095000E35CFE4F329790813296933009F0A3C04A
:100960008A3F09F0ABC080913E018F7080931801DF
:1009700000913F0100933301909140019093340125
:1009800087E080931901063071F59F3109F089C025
:10099000293308F486C088E0809319010091620130
:1009A0000F7010E0C80101979C0155E0220F331F22
:1009B0005A95E1F7880F991F281B390B29503D4F95
:1009C0008DE391E066E245E00E94B001C80135E0A8
:1009D000880F991F3A95E1F7000F111F801B910BAB
:1009E00089509D4F38C00130A9F4913009F059C0A9
:1009F000263208F456C086E0809319018DE391E019
:100A00006DE044E027E532E00E94B0018DE391E023
:100A100061E116C0023011F5983009F042C023316F
:100A200008F43FC086E0809319018DE391E064E013
:100A300044E027E532E00E94B0018DE391E068E0F8
:100A400044E02BEA33E00E94B00187E592E00E9487
:100A50004E048BEA93E00E944E0423C0033009F554
:100A60009430F9F48091440182958F70813021F4A3
:100A700082E08093190110C0882371F48DE391E026
:100A800064E043E02CEA32E00E94B0018CEA92E09C
:100A90000E944E0400931901809144018F7080934D
:100AA0001C0184E007C0903749F4319780818A3F68
:100AB00029F481E080931A011092150180911501AB
:100AC000A82FB0E0A35CBE4F13978C911396807F44
:100AD0008035C1F4FD01319780818A3F99F4FD0191
:100AE0003297808190E0807F9070803C910511F476
:100AF00082E004C08035910519F483E080931A01E7
:100B0000109215011F910F910895DF93CF93CDB7E8
:100B1000DEB764970FB6F894DEBF0FBECDBFAC0151
:100B2000FC0101900020E9F731972E2F281BA22FFE
:100B3000B0E01197A80FB91FBE016F5F7F4FFB0197
:100B400003C08C91819311978E2F861B8217C8F357
:100B5000CE010196FC01E20FF11D108260E09C01C4
:100B600009C0FA01EA0FFB1FA20FB31F8C9180830B
:100B700011826F5FA62FB0E0F90101900020E9F724
:100B80003197E21BF30BAE17BF0758F364960FB60D
:100B9000F894DEBF0FBECDBFCF91DF9108951F93B4
:100BA000CF93DF93182FEDE0F4E0808181833197BC
:100BB00084E0E230F807C9F7118390910401933083
:100BC000D1F1943030F4913069F0923009F09FC047
:100BD00014C0953009F447C09530C0F1963009F043
:100BE00096C078C0812F82958F7080938D011F7081
:100BF00010930E0190930F018AC090912301E92F69
:100C0000F0E0812F8F708A3010F080E301C0805DAA
:100C1000E858FD4F808311821092100410920F0447
:100C2000892F8F5F80932301873008F470C081E0A3
:100C3000809310016CC01F3F09F069C0109227011A
:100C40001092100410920F0486E00AC01F3F09F0B2
:100C50005EC0109227011092100410920F0485E0DC
:100C60008093040154C0812F0E94A902103F41F0DB
:100C700080910F0490911004893C910508F447C0BD
:100C8000C0E0D0E09E01CE01F5E0880F991FFA95F3
:100C9000E1F7220F331F821B930B8A5F9C4F0E9448
:100CA00085059E01CE0175E0880F991F7A95E1F7C1
:100CB000220F331F821B930B89509D4F0E94850585
:100CC0002196C630D105F1F681E08093040180932E
:100CD00012011DC0812F0E942302103F39F0809124
:100CE0000F0490911004893C910588F08CEA92E001
:100CF0000E94850587E592E00E9485058BEA93E0D6
:100D00000E94850581E08093040180931101DF91A9
:100D1000CF911F9108950E9476170895FF920F9327
:100D20001F93CF93DF938C01FF2406C0C00FD11F08
:100D300088810E947617F394CF2DD0E0F8010190BE
:100D40000020E9F73197E01BF10BCE17DF0770F3B6
:100D5000DF91CF911F910F91FF90089580E061E0A6
:100D60000E945417BE9AC69ABD98C59ABF98C79A52
:100D70008A9A929A089581E060E00E945417BE9882
:100D8000C69ABC9ABD9ABF9AC79A8A9A92980895B1
:100D90000F931F93082F162F0E94BB0687E00E9417
:100DA00076171F700295007F802F812B0E94761787
:100DB00088E00E9476170E94AE061F910F91089559
:100DC0000F931F93182F062F0E94BB0689E00E94E5
:100DD0007617812F0E947617802F0E9476178AE05F
:100DE0000E9476170E94AE061F910F9108951F92E0
:100DF0000F920FB60F9211241F932F933F934F938F
:100E00005F936F937F938F939F93AF93BF93EF9372
:100E1000FF9313B180910001813039F40E94BB0629
:100E2000812F0E9476170E94AE06FF91EF91BF912D
:100E3000AF919F918F917F916F915F914F913F9172
:100E40002F911F910F900FBE0F901F9018951F921A
:100E50000F920FB60F9211241F932F933F934F932E
:100E60005F936F937F938F939F93AF93BF93EF9312
:100E7000FF931CB180910001813019F08230B9F4E8
:100E800008C00E94BB06812F0E9476170E94AE0602
:100E90000EC080910101813019F0823041F404C00C
:100EA000812F0E94CF0503C0812F0E949604FF91DD
:100EB000EF91BF91AF919F918F917F916F915F91D2
:100EC0004F913F912F911F910F900FBE0F901F9048
:100ED00018956295607F482F4F70462B80E061E047
:100EE0000E94401808951F93182F81E00E949C01D2
:100EF00080E061E0412F0E94401882E00E949C0146
:100F00001F9108950F931F93CF93DF93062FEC014A
:100F100010E004C089910E9473071F5F1017D0F37F
:100F2000DF91CF911F910F9108950F931F93DF933E
:100F3000CF93CDB7DEB76E970FB6F894DEBF0FBE76
:100F4000CDBF109215018A3049F18B3040F48530C5
:100F500009F475C28730B1F0882371F0E1C38C3099
:100F600009F4F8C08C3008F487C08D3009F4ABC1A7
:100F70008E3009F0D5C3DEC24F704065498380E2F0
:100F80008A8306C04F70406549836F70606C6A83C6
:100F90008AEF8B83CE01019663E0C0C34F7040653A
:100FA000842F90E050E0E1E0F0EA9C01369527952F
:100FB00080FF04C0C9018E279F2701C0C9015F5F60
:100FC000583099F76F706063262F30E02827392753
:100FD00050E0E1E0F0EAC9019695879520FF04C052
:100FE0009C012E273F2701C09C015F5F583099F775
:100FF00081E090E08227932750E0E1E0F0EA9C0155
:101000003695279580FF04C0C9018E279F2701C010
:10101000C9015F5F583099F721E030E02827392770
:1010200050E0E1E0F0EAC9019695879520FF04C001
:101030009C012E273F2701C09C015F5F583099F724
:10104000E5E0F0E0E227F32720E0A1E0B0EACF01FD
:1010500096958795E0FF04C0FC01EA27FB2701C0B5
:10106000FC012F5F283099F749836A8381E08B83E5
:101070008C8385E08D8368C04F704065242F30E0FD
:1010800050E0E1E0F0EAC9019695879520FF04C0A1
:101090009C012E273F2701C09C015F5F583099F7C4
:1010A0006F706063862F90E08227932750E0E1E025
:1010B000F0EA9C013695279580FF04C0C9018E2770
:1010C0009F2701C0C9015F5F583099F721E030E0E8
:1010D0002827392750E0E1E0F0EAC9019695879585
:1010E00020FF04C09C012E273F2701C09C015F5FA9
:1010F000583099F7E1E0F0E0E227F32780E0A1E043
:10110000B0EA9F0136952795E0FF04C0F901EA2770
:10111000FB2701C0F9018F5F883099F780E0A1E0DB
:10112000B0EA9F0136952795E0FF04C0F901EA2750
:10113000FB2701C0F9018F5F883099F749836A83E3
:1011400081E08B838C831D82EE838F2F992787FD0F
:101150009A95E7C14F704065842F90E050E0E1E040
:10116000F0EA9C013695279580FF04C0C9018E27BF
:101170009F2701C0C9015F5F583099F76F706063A6
:10118000262F30E02827392750E0E1E0F0EAC901B6
:101190009695879520FF04C09C012E273F2701C00C
:1011A0009C015F5F583099F784E090E08227932795
:1011B00050E0E1E0F0EA9C013695279580FF04C0FD
:1011C000C9018E279F2701C0C9015F5F583099F779
:1011D000E4E0F0E0E827F92720E0A1E0B0EACF0161
:1011E00096958795E0FF04C0FC01EA27FB2701C024
:1011F000FC012F5F283099F700910701202F30E084
:101200002E273F2750E0E1E0F0EAC9019695879547
:1012100020FF04C09C012E273F2701C09C015F5F77
:10122000583099F710910801812F90E08227932779
:1012300050E0E1E0F0EA9C013695279580FF04C07C
:10124000C9018E279F2701C0C9015F5F583099F7F8
:1012500070910901272F30E02827392750E0E1E07D
:10126000F0EAC9019695879520FF04C09C012E27BE
:101270003F2701C09C015F5F583099F750910A01E8
:10128000E52FF0E0E227F32720E0A1E0B0EACF016C
:1012900096958795E0FF04C0FC01EA27FB2701C073
:1012A000FC012F5F283099F749836A8384E08B83A0
:1012B0008C830D831E837F835887E9878F2F99271F
:1012C00087FD9A95B3C04F704065842F90E030E061
:1012D000A1E0B0EAFC01F695E79580FF04C0CF01DC
:1012E0008A279B2701C0CF013F5F383099F76F7085
:1012F0006063E62FF0E0E827F92730E0A1E0B0EAEC
:10130000CF0196958795E0FF04C0FC01EA27FB27F3
:1013100001C0FC013F5F383099F782E090E08E27F2
:101320009F2730E0A1E0B0EAFC01F695E79580FF49
:1013300004C0CF018A279B2701C0CF013F5F38300F
:1013400099F7A1E0B0E0A827B92730E0E1E0F0EAA2
:10135000CD0196958795A0FF04C0DC01AE27BF277D
:1013600001C0DC013F5F383099F72F70E22FF0E0C9
:10137000EA27FB2730E0A1E0B0EACF0196958795F8
:10138000E0FF04C0FC01EA27FB2701C0FC013F5F2E
:10139000383099F781E090E08E279F2730E0A1E078
:1013A000B0EAFC01F695E79580FF04C0CF018A27DB
:1013B0009B2701C0CF013F5F383099F7E1E0F0E0B3
:1013C000E827F92730E0A1E0B0EACF0196958795AC
:1013D000E0FF04C0FC01EA27FB2701C0FC013F5FDE
:1013E000383099F7A6E0B0E0AE27BF2730E0E1E063
:1013F000F0EACD0196958795A0FF04C0DC01AE27E9
:10140000BF2701C0DC013F5F383099F749836A8309
:1014100082E08B8381E08C832D838E838F8386E0B3
:101420008887A9878B2F992787FD9A958A8783E0DC
:101430008B878AEF8C87CE0101966CE06FC14F706D
:101440004065842F90E030E0A1E0B0EAFC01F69521
:10145000E79580FF04C0CF018A279B2701C0CF01F9
:101460003F5F383099F76F706063E62FF0E0E82750
:10147000F92730E0A1E0B0EACF0196958795E0FF2B
:1014800004C0FC01EA27FB2701C0FC013F5F3830A4
:1014900099F788E090E08E279F2730E0A1E0B0EA3E
:1014A000FC01F695E79580FF04C0CF018A279B27B2
:1014B00001C0CF013F5F383099F7E1E0F0E0E82765
:1014C000F92730E0A1E0B0EACF0196958795E0FFDB
:1014D00004C0FC01EA27FB2701C0FC013F5F383054
:1014E00099F72F70A22FB0E0AE27BF2730E0E1E0E0
:1014F000F0EACD0196958795A0FF04C0DC01AE27E8
:10150000BF2701C0DC013F5F383099F749836A8308
:101510003B8381E08C832D83AE838B2F992787FDBE
:101520009A958F8383E088878AEF8987CE01019619
:1015300069E0F4C04F704065842F90E050E0E1E036
:10154000F0EA9C013695279580FF04C0C9018E27DB
:101550009F2701C0C9015F5F583099F76F706063C2
:10156000262F30E02827392750E0E1E0F0EAC901D2
:101570009695879520FF04C09C012E273F2701C028
:101580009C015F5F583099F781E090E082279327B4
:1015900050E0E1E0F0EA9C013695279580FF04C019
:1015A000C9018E279F2701C0C9015F5F583099F795
:1015B00021E030E02827392750E0E1E0F0EAC901D6
:1015C0009695879520FF04C09C012E273F2701C0D8
:1015D0009C015F5F583099F750E0E1E0F0EAC90103
:1015E0009695879520FF04C09C012E273F2701C0B8
:1015F0009C015F5F583099F781E090E08227932744
:1016000050E0E1E0F0EA9C013695279580FF04C0A8
:10161000C9018E279F2701C0C9015F5F583099F724
:1016200021E030E02827392750E0E1E0F0EAC90165
:101630009695879520FF04C09C012E273F2701C067
:101640009C015F5F583099F784E090E082279327F0
:1016500050E0E1E0F0EA9C013695279580FF04C058
:10166000C9018E279F2701C0C9015F5F583099F7D4
:1016700021E030E02827392750E0E1E0F0EAC90115
:101680009695879520FF04C09C012E273F2701C017
:101690009C015F5F583099F781E090E082279327A3
:1016A00050E0E1E0F0EA9C013695279580FF04C008
:1016B000C9018E279F2701C0C9015F5F583099F784
:1016C000E3E0F0E0E827F92720E0A1E0B0EACF016D
:1016D00096958795E0FF04C0FC01EA27FB2701C02F
:1016E000FC012F5F283099F749836A8391E09B833F
:1016F0009C831D829E839F8384E0888799879A8735
:1017000023E02B87EC878F2F992787FD9A958D876C
:101710002E878AEF8F87CE0101966FE00E948207A5
:101720006E960FB6F894DEBF0FBECDBFCF91DF919E
:101730001F910F9108951F93CF93DF93182FEB0103
:10174000E199FECF84E090E09FBB8EBBE09A8DB321
:10175000882341F40CC02196F9014491812F61E066
:101760000E9440189E01FE0184918823A1F7DF9119
:10177000CF911F9108954F925F926F927F928F92B7
:101780009F92AF92BF92CF92DF92EF92FF920F9310
:101790001F93DF93CF93CDB7DEB7A8970FB6F8941A
:1017A000DEBF0FBECDBF803110F4F82E02C000E1C5
:1017B000F02E0E94BB0685E00E94761780E50E940D
:1017C00076172E010894411C511C5201CE018996B6
:1017D000D5011D925D01A817B907D1F700D000D03F
:1017E00000D0EDB7FEB731968E010F5F1F4FADB73A
:1017F000BEB712961C930E93119780E491E09383E9
:101800008283F48215820E94A818EDB7FEB736963F
:101810000FB6F894FEBF0FBEEDBFC8010E948E0642
:10182000EE24FF24902E812E1BE3612E11E0712EF9
:10183000C7016701B5E0CC0CDD1CBA95E1F7880F54
:10184000991FC81AD90A86E093E0C80ED91EC601AE
:101850006CE00E94E703C7018701F5E0000F111F4C
:10186000FA95E1F7880F991F081B190B09501D4FB6
:10187000C8016CE00E94E703F2011192EA15FB0532
:10188000E1F7ADB7BEB718970FB6F894BEBF0FBE5D
:10189000ADBFEDB7FEB7319611969C921197129697
:1018A0008C927382628215830483D782C6820E94DF
:1018B000A818EDB7FEB738960FB6F894FEBF0FBE66
:1018C000EDBF892D982D0E948E060894E11CF11C15
:1018D000F6E0EF16F10409F0ABCF00D000D000D055
:1018E000EDB7FEB73196ADB7BEB711969C92119782
:1018F00012968C9288E391E09383828380910C010D
:10190000848315820E94A818EDB7FEB736960FB6ED
:10191000F894FEBF0FBEEDBF892D982D0E948E0654
:1019200086E00E94761780E60E9476170E94AE0637
:101930008AEF90E00197F1F7A8960FB6F894DEBF12
:101940000FBECDBFCF91DF911F910F91FF90EF9010
:10195000DF90CF90BF90AF909F908F907F906F90CF
:101960005F904F9008956F927F928F929F92AF9267
:10197000BF92CF92DF92EF92FF920F931F93DF936C
:10198000CF93CDB7DEB76E970FB6F894DEBF0FBE1C
:10199000CDBF682EB42E722E4801C80166E00E94A9
:1019A000E703C70168E00E94E703C60168E00E9400
:1019B000E70383E08B1510F04B2D01C044E093E06A
:1019C000971510F0272D01C024E0AFE0A61510F008
:1019D000362D01C030E18DB79EB740970FB6F89411
:1019E0009EBF0FBE8DBFEDB7FEB731968E010F5F64
:1019F0001F4FADB7BEB712961C930E9311978AE492
:101A000091E09383828334831582468317822087F3
:101A1000118693868286F586E486D786C6860E94DE
:101A2000A8188DB79EB740960FB6F8949EBF0FBE0C
:101A30008DBF0E94BB0685E00E94761780E50E945C
:101A40007617FF2406C0A00FB11F8C910E94761755
:101A5000F394F80101900020E9F73197E01BF10BB6
:101A6000AF2DB0E0AE17BF0770F300D000D000D0AC
:101A7000EDB7FEB73196ADB7BEB712961C930E9375
:101A8000119787E491E093838283A48215820E9458
:101A9000A8188DB79EB706960FB6F8949EBF0FBED6
:101AA0008DBFC8010E948E0686E00E94761780E6F0
:101AB0000E9476170E94AE066E960FB6F894DEBFAF
:101AC0000FBECDBFCF91DF911F910F91FF90EF908F
:101AD000DF90CF90BF90AF909F908F907F906F904E
:101AE0000895AF92CF92DF92EF92FF920F931F93E0
:101AF00060912C0180912D01861711F060932D01CA
:101B000080910301813069F4109203018AE10E94FF
:101B1000E00681E061E04AE651E00E947F18109201
:101B20002C0180912C01E82FF0E0E132F10508F062
:101B3000D4C2E85CFF4FEE0FFF1F0590F491E02D3B
:101B4000099410921601E199FECF8DE090E09FBBC1
:101B50008EBBE09A8DB3809317011092F903109217
:101B6000240410922304E199FECF88E090E09FBB0B
:101B70008EBBE09A8DB380933504E199FECF87E068
:101B800090E09FBB8EBBE09A8DB380936102E19998
:101B9000FECF89E090E09FBB8EBBE09A8DB380932F
:101BA000770280911301813029F089E1609126014B
:101BB0000E94E006809126018F5F80932601E199C3
:101BC000FECF8AE090E09FBB8EBBE09A8DB38093FE
:101BD000B602E199FECF8BE090E09FBB8EBBE09A0E
:101BE0008DB380933C011EC0909116019F5F90932E
:101BF0001601809161029817B8F4E199FECF892F00
:101C000090E0835F9F4F9FBB8EBBE09A8DB3809324
:101C10001701882309F409C21092F90310922404D1
:101C20001092230482E057C210922C0156C21092E7
:101C30000F011092060181E080930401809104015C
:101C4000813081F784E047C28091170160E00E94F3
:101C50006907109224041092230486E03CC280910C
:101C60001701E82FF0E0EF70F070EB5DFB4F808123
:101C70008F5F808390913504981708F0C5C010825B
:101C800081E08093060107C18091B60290E0209127
:101C90002304309124048217930780F48091F90380
:101CA0008F5F8093F90390917702891710F482E097
:101CB00003C0981718F485E080932C0180910F01E0
:101CC000813009F00AC240910E018091170190E025
:101CD0008F709070242F30E08217930711F487E003
:101CE00001C089E080932C0180918D018F3009F033
:101CF000F4C14F3009F0F1C19091F903809177025E
:101D0000981708F0EAC18ECF909117019F709093B9
:101D1000050180910601882339F4E92FF0E0EB54A6
:101D2000FC4F80918D0107C0813031F4E92FF0E044
:101D3000EB54FC4F8EE08083892F90E0FC01EB5444
:101D4000FC4F2081FC01E556FD4F8081281779F07A
:101D5000208387E1C0C180911701E82FEF70E093E5
:101D60000501F0E0EB54FC4F60810E94C80688E159
:101D7000B2C1809117018F708093050190918D0100
:101D80009830C1F1993028F4963041F0973091F5B0
:101D900016C0993031F19B3069F51AC0A82FB0E018
:101DA000FD01E657FD4F80818130C9F0AD5EBB4F2C
:101DB0008C91813011F48BE11EC081E01CC0E82FB2
:101DC000F0E0E453FD4F80818823B9F488E013C02C
:101DD000E82FF0E0E657FD4F8081813059F48AE02A
:101DE0000AC0E82FF0E0E657FD4F8081882311F408
:101DF00081E0808384E180932C0180910601813011
:101E000009F06BC11092060184E165C181E0809305
:101E100004011092F9038CE05EC110922404109228
:101E2000230410920F018091170161E00E9469075D
:101E30008DE051C18091B60290E020912304309151
:101E400024048217930780F48091F9038F5F8093B5
:101E5000F90390917702891710F48CE003C098176A
:101E600018F485E080932C0180910F01813009F0F6
:101E700034C110920F0161E04FE551E00E947F18DC
:101E80002091170130E02F70307080910E0190E0AA
:101E90002817390711F487E01EC189E01CC1109290
:101EA000230182E0809304011092F90325C010926F
:101EB000240410922304109210018091170166E00F
:101EC0000E9469078FE007C1809110018823D9F42F
:101ED0008091B60290E0209123043091240482176F
:101EE000930708F0FAC08091F9038F5F8093F9039C
:101EF00090917702891710F48EE0EDC0981708F0E2
:101F0000ECC085E0E8C0813009F0E7C01092100114
:101F1000809117018F708093050180E1DCC0809172
:101F20003C0190E0209121013091220128173907CE
:101F300008F4D3C07AC0E0911701EF70E093050177
:101F4000F0E0E657FD4F8081882311F08AE0C3C09E
:101F50008AE1C1C083E0809304011092F90330C08C
:101F60001092240410922304109211018091170101
:101F700064E00E94690782E1AEC080911101813066
:101F800041F4809117018F708093050183E1809364
:101F90002C018091B60290E0880F991F20912304B4
:101FA000309124048217930708F097C08091F903B9
:101FB0008F5F8093F90390917702891708F06BC0C7
:101FC00081E189C086E187C080911701982F9F70B9
:101FD0009093050160913B014091E0022091F6024F
:101FE0000CEA12E037E5E32E32E0F32E9BEAC92E2D
:101FF00093E0D92EA0900B010E94B30CE091050153
:10200000F0E0E657FD4F61C0E0911701EF70E093FB
:102010000501F0E0ED5EFB4F8081813011F48BE132
:102020005AC0109222011092210181E054C084E034
:10203000809304011092F9032CC010922404109292
:102040002304109212018091170165E00E94690734
:102050008DE141C080911201813029F4109212016A
:102060008EE180932C018091B60225E0829FC00111
:10207000112420912304309124048217930768F5DA
:102080008091F9038F5F8093F9039091770289170C
:1020900010F48CE120C0981700F51CC08FE11BC024
:1020A00080911701982F9F70909305010E94BB0BA0
:1020B0001092140180E20FC080911401813069F404
:1020C000E0910501F0E0ED5EFB4F108210922201DD
:1020D0001092210185E180932C011F910F91FF90B7
:1020E000EF90DF90CF90AF900895AF92CF92DF92B4
:1020F000EF92FF920F931F93DF93CF93CDB7DEB78D
:102100006E970FB6F894DEBF0FBECDBF20913101A0
:1021100080913201821731F12093320100D000D03A
:1021200000D0EDB7FEB731968E010F5F1F4FADB7F0
:10213000BEB712961C930E93119786E891E0938395
:102140008283248315820E94A8188DB79EB70696B5
:102150000FB6F8949EBF0FBE8DBF81E061E0A8016D
:102160000E94571880910301813079F41092030185
:102170008AE1609131010E94E00681E061E048E778
:1021800051E00E947F181092310180913101E82FB7
:10219000F0E0EC31F10508F0FAC2E75AFF4FEE0F1C
:1021A000FF1F0590F491E02D0994E199FECF88E09E
:1021B00090E09FBB8EBBE09A8DB380933504E1998C
:1021C000FECF87E090E09FBB8EBBE09A8DB38093FB
:1021D0006102E199FECF89E090E09FBB8EBBE09A5F
:1021E0008DB380937702E199FECF8DE190E09FBBA4
:1021F0008EBBE09A8DB380933001E199FECF8AE0E7
:1022000090E09FBB8EBBE09A8DB38093B602E199BC
:10221000FECF8BE090E09FBB8EBBE09A8DB38093A6
:102220003C0180911301813029F089E16091260100
:102230000E94E006809126018F5F80932601109214
:10224000160110922F0181E09DC280911601E19943
:10225000FECF90E0835F9F4F9FBB8EBBE09A8DB314
:10226000815080931701809126018F5F8093260112
:102270001092F90384C210921A0180E060E040914C
:10228000170120E00E949507109224041092230465
:1022900083E078C28091B60290E0209123043091CF
:1022A00024048217930770F48091F9038F5F809361
:1022B000F90390917702891710F482E001C084E05D
:1022C0008093310180911A01813021F0843009F02E
:1022D0005EC215C080911701A82FB0E0FD01EB543C
:1022E000FC4FE081EE2319F0EE3009F015C2FD013C
:1022F000E657FD4F1082AB54BC4F86E017C087E114
:1023000041C280911701A82FB0E0FD01EF70F0707D
:10231000EB5DFB4F80818F5F808390913504981730
:1023200008F07AC11082AB54BC4F8EE08C93F4C19C
:10233000809117018093050190E0FC01EB54FC4F64
:10234000E081DC01A556BD4F8C91E81779F0EC9344
:1023500086E018C28091170180930501E82FF0E014
:10236000EB54FC4F8F5F60810E94C80687E00AC271
:102370008091170180930501A82FB0E0FD01EB5477
:10238000FC4F8081873009F46EC0883020F486309D
:1023900009F0FDC11EC0893009F468C08E3009F013
:1023A000F6C180911A01882309F436C1843009F0FE
:1023B000EEC180911901833039F0883009F4AAC147
:1023C000823009F0A7C131C0A657BD4F81E08C9380
:1023D000A1C180911A01813021F0843009F0D7C168
:1023E00014C0FD01E657FD4F8081813029F4109221
:1023F000F9038EE080933101AD5EBB4F8C9181304B
:1024000009F00AC11092F90329C0809119018330A3
:10241000C9F0843020F4823009F0B9C106C086309A
:1024200049F0883009F0B3C112C087E08083109270
:102430002E0172C1A657BD4F8C91813009F0ECC0BE
:1024400081E1A0C1A657BD4F81E08C93E5C080918A
:102450001C01843030F41092F9038F5F80931C01CB
:10246000BEC08CE08FC11092F90334C180911A0173
:10247000813009F4D1C080911A01843009F087C1FC
:1024800080911901833009F07AC186E0808310922F
:10249000F9033AC040911701E42FF0E0EE57FD4FE9
:1024A0008EE0608120911C010E9495071092240407
:1024B000109223048FE066C18091B60290E02091D3
:1024C0002304309124048217930718F480E1809349
:1024D000310190911A01923009F460C080911A0183
:1024E000833009F054C1E0911701F0E0EE57FD4F41
:1024F00010820AC08091F9038F5F8093F903909155
:102500007702891708F0E8C08EE03CC1609117019E
:1025100060933B0120911C012093E0022093F6027E
:1025200086E080930B016F5F862F422F0CEA12E04A
:10253000E7E5EE2EE2E0FE2E7BEAC72E73E0D72E13
:1025400056E0A52E0E94B30CE0911701F0E0E6578B
:10255000FD4F108261C040911701E42FF0E0EE576B
:10256000FD4F85E0608120911C010E94950710922B
:102570002404109223048AE005C18091B60290E001
:1025800020912304309124048217930718F48BE0E0
:102590008093310190911A01923059F4E091170122
:1025A000F0E0EE57FD4F80818F5F80839093310183
:1025B000EEC080911A01833009F0E9C0E091170163
:1025C000F0E0EE57FD4F10820AC08091F9038F5F53
:1025D0008093F90390917702891708F07DC089E014
:1025E000D1C08AE080930C01809117018F5F0E9417
:1025F000BB0B109214018DE0C5C080911401813095
:1026000009F0C5C0E0910501F0E0ED5EFB4F1082DE
:10261000109222011092210189E1B4C0409117016A
:1026200080912E01E42FF0E0EE57FD4F865F608130
:1026300020911C010E9495071092240410922304FB
:1026400083E1A0C08091B60290E0209123043091F4
:1026500024048217930718F484E1809331012091B8
:102660001A01223009F580912E018F5F80932E018F
:1026700090911701843080F0E0910501F0E0EB5477
:10268000FC4F89E08083E92FF0E0E657FD4F81E0C1
:102690008083209331017BC0E92FF0E0EE57FD4F9E
:1026A00080818F5F808316C080911A01833009F08A
:1026B0006EC0E0911701F0E0EE57FD4F108284E10B
:1026C00061C08091F9038F5F8093F9039091770245
:1026D000891710F482E156C084E054C086E152C0EC
:1026E000E0910501F0E0EB54FC4F8FE014C087E06F
:1026F000609118014091170120E00E94950788E140
:1027000041C080911701E82FF0E0EB54FC4F80812D
:10271000882311F486E0808385E034C01092220182
:10272000109221018AE12EC080913C0190E020911D
:102730002101309122012817390748F122C09091D8
:1027400016019F5F90931601809161029817E8F43B
:10275000E199FECF892F90E0835F9F4F9FBB8EBB97
:10276000E09A8DB380931701882359F081508093AC
:1027700017011092F903109224041092230482E0AE
:1027800001C08BE18093310102C0109231016E963D
:102790000FB6F894DEBF0FBECDBFCF91DF911F9172
:1027A0000F91FF90EF90DF90CF90AF900895282F7A
:1027B000AB01E199FECF84E090E09FBB8EBBE09A35
:1027C0008DB3882321F0822F61E00E94571808956D
:1027D00081E00E94610180E040E855E260E070E045
:1027E0000E94141881E040E855E260E070E00E9429
:1027F00014180895EF920F938130D9F0813038F09A
:10280000823009F43DC0833009F099C067C080E090
:1028100040E855E260E070E00E94141881E040E872
:1028200055E260E070E00E94141881E00E946101AE
:1028300086C0E199FECF8EE190E09FBB8EBBE09A0F
:102840008DB3811181E00E946101E199FECF25E005
:1028500030E03FBB2EBB83E08DBB0FB6F894E29A0D
:10286000E19A0FBEE199FECF3FBB2EBBE09A8DB33C
:1028700080E04BE956E160E070E00E9414185FC010
:1028800082E00E946101E199FECF25E030E03FBB8C
:102890002EBB81E08DBB0FB6F894E29AE19A0FBE91
:1028A000E199FECF3FBB2EBBE09A8DB3823059F049
:1028B000823018F0833021F409C040E855E208C0A6
:1028C00040E050E005C040E05BE402C04BE956E167
:1028D00060E070E080E028E001E02DC082E00E942E
:1028E0006101E199FECF25E030E03FBB2EBB81E0E6
:1028F0008DBB0FB6F894E29AE19A0FBEE199FECF34
:102900003FBB2EBBE09A8DB3823059F0823018F075
:10291000833021F409C040E855E208C040E050E0AF
:1029200005C040E05BE402C04BE956E160E070E0C6
:1029300080E028E002E0EE24E3940E947F170E94EA
:10294000CD010F91EF9008959FEF9BBB9ABB97B974
:1029500096B98FE487BB98BB11BA92BB8A9A929AB8
:1029600080E061E00E94541783B7856083BF89B718
:10297000826089BF7894E199FECF86E090E09FBBAA
:102980008EBBE09A8DB3823059F0823018F08330DC
:1029900021F409C080E895E208C080E090E005C01D
:1029A00080E09BE402C08BE996E1AC01662757FD0D
:1029B0006095762F81E00E941418E199FECF80E0A7
:1029C00090E09FBB8EBBE09A8DB380930001E199AC
:1029D000FECF8CE090E09FBB8EBBE09A8DB38093DE
:1029E0003604E199FECF83E090E09FBB8EBBE09A76
:1029F0008DB38093250180910001813019F08230E0
:102A0000C1F406C084E1809311040E94E81311C050
:102A100085E080931104E199FECF81E090E09FBBB7
:102A20008EBBE09A8DB380930101809101010E94D9
:102A3000FA130E94CD011092130181E061E04CE293
:102A400051E00E947F1882E00E949C0108951F932C
:102A50000E94A41411E03091260140913604209187
:102A6000DE0290913501809100018230E1F7809182
:102A70000001823041F4931720F0421718F41093AC
:102A8000030120E0932F80910101813019F0823001
:102A900051F707C02093DE02909335010E94710D1B
:102AA000DACF2093DE02909335010E947510D3CFC8
:102AB0000F931F93DF93CF93CDB7DEB764970FB615
:102AC000F894DEBF0FBECDBF9091380190933901CD
:102AD00000913701009338011091360110933701AE
:102AE00080933601863009F0A3C1953009F0A0C16A
:102AF000802F90E0FC013197E132F10508F094C19C
:102B0000EB58FF4FEE0FFF1F0590F491E02D099455
:102B100081E08093000184E1809311042091000101
:102B2000E199FECF80E090E09FBB8EBB2DBB0FB63E
:102B3000F894E29AE19A0FBE0E94E81375C10E94D0
:102B4000CD0182E08093000185E080931104209103
:102B50000001E199FECF80E090E09FBB8EBB2DBBD2
:102B60000FB6F894E29AE19A0FBEE199FECF81E0A8
:102B700090E09FBB8EBBE09A8DB380930101809162
:102B8000010139C082E08093000185E08093110447
:102B90001093010120910101E199FECF81E090E0C5
:102BA0009FBB8EBB2DBB0FB6F894E29AE19A0FBE85
:102BB0002091010100D000D000D0EDB7FEB73196D2
:102BC000CE010196ADB7BEB712969C938E93119726
:102BD0008FE891E093838283248315820E94A81852
:102BE000809101012DB73EB72A5F3F4F0FB6F89491
:102BF0003EBF0FBE2DBF0E94FA13A3C0812F81508C
:102C0000803108F43EC0123109F00EC181E090E03D
:102C100021E0FC01EF70F070ED5EFB4F2083019628
:102C200081319105B1F700C1312F32953F7033509A
:102C3000212F2F70223051F0223028F0233049F01C
:102C400040E050E008C040E855E205C040E05BE4E9
:102C500002C04BE956E1E199FECF832F90E08B5FF4
:102C60009F4F9FBB8EBB2DBB0FB6F894E29AE19AA3
:102C70000FBE60E070E0832F0E941418D5C01131A0
:102C800038F4E12FF0E0EF70F070ED5EFB4F19C00B
:102C9000123109F0C9C081E090E021E0FC01EF7041
:102CA000F070ED5EFB4F2083019681319105B1F705
:102CB000BBC0113148F4E12FF0E0EF70F070E45345
:102CC000FD4F81E08083B0C0123109F0ADC081E0DA
:102CD00090E021E0FC01EF70F070E453FD4F2083A1
:102CE000019681319105B1F79FC0113140F4E12F78
:102CF000F0E0EF70F070E453FD4F108295C0123198
:102D000009F092C081E090E0FC01EF70F070E453B4
:102D1000FD4F1082019681319105B1F785C081E0A8
:102D2000809314011093DF027FC0E199FECF88E009
:102D300090E09FBB8EBB1DBB0FB6F894E29AE19A60
:102D40000FBE81E0809303016FC0E199FECF87E061
:102D500090E0EFCFE199FECF89E090E0EACFE199F2
:102D6000FECF8AE090E0E5CFE199FECF8BE090E0E6
:102D7000E0CFE199FECF88E090E004C0E199FECF7A
:102D800087E090E09FBB8EBBE09A1DB34DC0E199F8
:102D9000FECF89E090E0F6CFE199FECF8CE090E0A5
:102DA0009FBB8EBB1DBB0FB6F894E29AE19A0FBE93
:102DB000E199FECF9FBB8EBBE09A8DB38093360422
:102DC000C0CFE199FECF812F82958F7090E0835F15
:102DD0009F4F9FBB8EBB812F8F708DBBADCFE19975
:102DE000FECF812F90E0835F9F4F9FBB8EBB1DBAAC
:102DF000A3CF81E08093130117C01092130114C078
:102E0000E199FECF8EE190E09FBB8EBB1DBB0FB65C
:102E1000F894E29AE19A0FBEE199FECF9FBB8EBB78
:102E2000E09A8DB30E946101802F612F0E94E0061D
:102E300064960FB6F894DEBF0FBECDBFCF91DF9181
:102E40001F910F9108951F920F920FB60F921124A8
:102E50001F932F933F934F935F936F937F938F9322
:102E60009F93AF93BF93EF93FF931FB180910001A6
:102E7000813029F480E061E0412F0E944018812FC9
:102E80000E945815FF91EF91BF91AF919F918F9143
:102E90007F916F915F914F913F912F911F910F9073
:102EA0000FBE0F901F901895882341F080EA87BBD2
:102EB000662311F082ED0AC082E508C080E487BB7A
:102EC000662321F080EC8DB9789408958DB908952A
:102ED000882331F0662311F03B9808959298089565
:102EE000662311F03B9A0895929A08958FB9779BC3
:102EF000FECF8FB108950895089508950895AF9273
:102F0000BF92CF92DF92EF92FF920F931F93F82E12
:102F10005A016B01122FCB01BA016050704E834EE3
:102F20009F4F33E0660F771F881F991F3A95D1F79F
:102F300024E0AA0CBB1CCC1CDD1C2A95D1F7A601F1
:102F400095010E94691B21503040404050400130A3
:102F500031F0023011F460EA03C060E801C060EBB8
:102F600082E0E81609F46860173061F0183018F450
:102F7000163059F405C0183039F0193031F407C053
:102F8000626003C0646001C0666078E902C0666088
:102F90007CE9FF2021F081E0F81691F409C0BB27FD
:102FA000A52F942F832F80BD29B97AB960BD08C0A1
:102FB000BB27A52F942F832F8CBF20B971B96CBF6D
:102FC0001F910F91FF90EF90DF90CF90BF90AF9047
:102FD00008951F93182F9A01AB01CA01B9016050DF
:102FE000704E834E9F4FF3E0660F771F881F991F27
:102FF000FA95D1F7E4E0220F331F441F551FEA95DD
:10300000D1F70E94691B2150304040405040BB27FF
:10301000A52F942F832F112319F020B98CBF02C044
:1030200029B980BD1F910895EF92FF920F931F93CE
:10303000982F7A018B01882329F088E981B986E0ED
:103040008CBF04C088E98AB986E080BD892FB801A9
:10305000A7010E94E9178BE9E81686E1F80680E0EF
:10306000080780E0180739F488E98AB986EA80BD44
:1030700010BC8EE989B91F910F91FF90EF900895D0
:10308000882351F0662321F0159BFECF43B909C078
:10309000179BFECF83B10895662329F05D9BFECF79
:1030A0004CB981E008955F9BFECF8CB108950F93DA
:1030B0001F93CF93DF93182F062FEA01888188236F
:1030C00031F408C02196812F61E00E9440184881A8
:1030D0004423C1F7002351F0812F61E04DE00E94AD
:1030E0004018812F61E04AE00E94401882EE94E08F
:1030F0000197F1F7DF91CF911F910F9108950F93F1
:103100001F93CF93DF93182F062FEA0107C0219654
:10311000F9014491812F61E00E9440189E01FE0157
:1031200084918823A1F7002351F0812F61E04DE0C5
:103130000E944018812F61E04AE00E94401886EA10
:103140009EE00197F1F7DF91CF911F910F910895C4
:10315000AEE0B0E0EEEAF8E10C94991B0D891E890F
:103160008EE08C831A8309838FEF9FE79E838D8384
:103170009E01275E3F4FCE0101966F89788DA90190
:103180000E94CC182F813885020F131FF80110827E
:103190002E96E4E00C94B51BABE0B0E0E2EDF8E174
:1031A0000C948B1B3C012B015A01FC0117821682E7
:1031B000838181FD03C06FEF7FEFC6C19AE0892E46
:1031C0001E010894211C311CF3012381F20123FD0F
:1031D000859123FF81912F01882309F4B2C18532A3
:1031E00039F423FD859123FF81912F01853229F444
:1031F00090E0B3010E94BF1AE7CF982FFF24EE247E
:103200009924FFE1FF15D0F09B3269F09C3228F43D
:10321000903259F0933291F40EC09D3249F09033C0
:1032200069F441E024C052E0F52A84E0F82A28C07D
:1032300098E0F92A25C0E0E1FE2A22C0F7FC29C067
:10324000892F80538A3070F4F6FE05C0989C902C2C
:103250001124980E15C0E89CE02C1124E80EF0E231
:10326000FF2A0EC09E3229F4F6FC6BC140E4F42A1A
:1032700007C09C3619F450E8F52A02C0983649F484
:10328000F20123FD959123FF91912F01992309F0DC
:10329000B8CF892F8554833018F08052833038F4AA
:1032A00044E050E0A40EB51E5FE359830FC093368F
:1032B00031F0933779F0933509F056C020C0F5010D
:1032C0008081898342E050E0A40EB51E610101E0D7
:1032D00010E012C0F501C080D180F6FC03C06FEF92
:1032E0007FEF02C0692D70E042E050E0A40EB51EF1
:1032F000C6010E94B41A8C015FE7F52214C0F501E3
:10330000C080D180F6FC03C06FEF7FEF02C0692D53
:1033100070E042E050E0A40EB51EC6010E94A91A5A
:103320008C0150E8F52AF3FE07C01AC080E290E055
:10333000B3010E94BF1AEA948E2D90E00817190776
:10334000A8F30EC0F601F7FC8591F7FE81916F019D
:1033500090E0B3010E94BF1AE110EA9401501040BE
:103360000115110579F7EAC0943611F0993669F51F
:10337000F7FE08C0F501208131814281538184E04C
:1033800090E00AC0F501808191819C01442737FDBE
:103390004095542F82E090E0A80EB91E9FE6F922D6
:1033A00057FF09C050954095309521953F4F4F4F9D
:1033B0005F4FE0E8FE2ACA01B901A1012AE030E02E
:1033C0000E94EB1AD82ED21840C0953729F41F2D31
:1033D0001F7E2AE030E01DC01F2D197F9F3661F04F
:1033E000903720F4983509F0ACC00FC0903739F011
:1033F000983709F0A6C004C028E030E00AC0106188
:1034000014FD146020E130E004C014FD166020E1DA
:1034100032E017FF08C0F5016081718182819381DC
:1034200044E050E008C0F50180819181BC0180E05A
:1034300090E042E050E0A40EB51EA1010E94EB1AFC
:10344000D82ED2188FE7F82EF122F6FE0BC05EEFD1
:10345000F522D91438F4F4FE07C0F2FC05C08FEE53
:10346000F82202C01D2D01C0192DF4FE0DC0FE0171
:10347000ED0DF11D8081803319F499EEF92208C019
:103480001F5FF2FE05C003C08F2D867809F01F5F15
:103490000F2DF3FC14C0F0FE0FC01E1510F09D2C74
:1034A0000BC09D2C9E0C911A1E2D06C080E290E050
:1034B000B3010E94BF1A1F5F1E15C0F304C01E1582
:1034C00010F4E11A01C0EE2404FF0FC080E390E085
:1034D000B3010E94BF1A02FF1DC001FD03C088E7AF
:1034E00090E00EC088E590E00BC0802F867891F0C8
:1034F00001FF02C08BE201C080E2F7FC8DE290E0A8
:10350000B3010E94BF1A06C080E390E0B3010E949D
:10351000BF1A9A94D914C0F3DA94F101ED0DF11D9C
:10352000808190E0B3010E94BF1ADD20A9F706C098
:1035300080E290E0B3010E94BF1AEA94EE20C1F746
:1035400043CEF30166817781CB012B96E2E10C94A7
:10355000A71BFC010590615070400110D8F78095C1
:1035600090958E0F9F1F0895FC016150704001904F
:103570000110D8F7809590958E0F9F1F08950F9397
:103580001F93CF93DF938C01EB018B8181FF1BC0D5
:1035900082FF0DC02E813F818C819D8128173907C4
:1035A00064F4E881F9810193F983E88306C0E88532
:1035B000F985802F0995892B31F48E819F810196A1
:1035C0009F838E8302C00FEF1FEFC801DF91CF9161
:1035D0001F910F910895FA01AA27283051F1203147
:1035E00081F1E8946F936E7F6E5F7F4F8F4F9F4F97
:1035F000AF4FB1E03ED0B4E03CD0670F781F891FD9
:103600009A1FA11D680F791F8A1F911DA11D6A0FA6
:10361000711D811D911DA11D20D009F468943F9159
:103620002AE0269F11243019305D3193DEF6CF0158
:103630000895462F4770405D4193B3E00FD0C9F71E
:10364000F6CF462F4F70405D4A3318F0495D31FD8B
:103650004052419302D0A9F7EACFB4E0A6959795DE
:10366000879577956795BA95C9F7009761057105B4
:1036700008959B01AC010A2E0694579547953795FE
:103680002795BA95C9F7620F731F841F951FA01D58
:103690000895991B79E004C0991F961708F0961BAE
:1036A000881F7A95C9F780950895AA1BBB1B51E125
:1036B00007C0AA1FBB1FA617B70710F0A61BB70BA2
:1036C000881F991F5A95A9F780959095BC01CD0147
:1036D0000895A1E21A2EAA1BBB1BFD010DC0AA1F53
:1036E000BB1FEE1FFF1FA217B307E407F50720F06B
:1036F000A21BB30BE40BF50B661F771F881F991FE6
:103700001A9469F760957095809590959B01AC012E
:10371000BD01CF0108952F923F924F925F926F9219
:103720007F928F929F92AF92BF92CF92DF92EF9251
:10373000FF920F931F93CF93DF93CDB7DEB7CA1BD2
:10374000DB0B0FB6F894DEBF0FBECDBF09942A88FD
:10375000398848885F846E847D848C849B84AA84A5
:10376000B984C884DF80EE80FD800C811B81AA8132
:10377000B981CE0FD11D0FB6F894DEBF0FBECDBFFD
:08378000ED010895F894FFCF5C
:0E3788000101010101010199999999060800BA
:00000001FF
