:100000000C948F110C94AE110C94AE110C94AE1193
:100010000C94AE110C94AE110C94AE110C94AE1164
:100020000C94AE110C94AE110C94AE110C94AE1154
:100030000C9458120C94AE110C94AE110C94AE1199
:100040000C94AE110C946D660C94F2130C94AE11DA
:100050000C94AE110C94AE110C94AE110C94AE1124
:100060000C94AE110C94AE110C94AE110C94AE1114
:100070000C94AE110C94AE110C94863F0C94AE11FE
:100080000C94AE110C94AE110C94AE11D312D1128B
:10009000D512D712D912DB12DD12DF12E112E312F0
:1000A000E512E712E912F712EB12F712ED12EF1256
:1000B000F712F112F312F512F712F712EB12DD122A
:1000C000F712DF12E312E712B472D072E372127306
:1000D0003B73AE73BD73C6730274297470747A7403
:1000E00035748074E0728F7495744C7752775677BC
:1000F0006D7787778B77B677D077D677DE77E177AE
:10010000E477E777EA77ED77F177F477F777FF77BA
:100110006F7EC47ED37E157F277F3C7F5F7F1580F7
:100120001F80F3867E808B81DA81208298822983EA
:100130004C8312843C84F5840E8518868685C88598
:10014000B286E086F3861E86A186E586EC862F873A
:1001500033874F87338B338B338B338B9887338B3A
:10016000B887338BD5875E88B988DC887B87338BEB
:100170007188F4882C89448980899089A18AB18A00
:10018000F68A158B278B2D8B2F8B8A91A291B49198
:10019000EB911A9230926B92A392E592ED921094A9
:1001A0001C944E948B94A894C29402950092BD9294
:1001B000679489920593549370938A93D893F69396
:1001C0003C95529557959095BF95049622964096EA
:1001D0007A96DD96219BA5954A9B389CF49B1F9CA3
:1001E000729C529C899CA29CB49C649BBD9BDA9B94
:1001F000ED960D973497439761977897A497BB979F
:10020000E797079838984798A09817992B99069AD6
:10021000069A3F9953995B9977998B999899AF99D9
:10022000C699E499099A209A379A4E9A659A7C9AC7
:10023000939AAA9AB99AD09AF39A28A12BA1CBA102
:10024000DAA10BA219A245A2EAA1F7A101A24FA22D
:100250005CA267A26AA26DA270A273A276A279A222
:100260007CA29EA28CA27FA297A2B5A1496E6974BE
:1002700069616C697A652E2E2E200057617463685F
:10028000446F670042726F776E4F757400457874E3
:1002900065726E616C00506F7765724F6E0001067B
:1002A0000206010D020D01140214010802080308E0
:1002B000040801130213020304020F0F01010000DE
:1002C0000000010A020A030A0204030303030304F1
:1002D00003044E2F410047696C626172636F0057DF
:1002E00061796E6520444152540054617473756E97
:1002F0006F004C4700D202D602DF02EA02F2024D42
:10030000722E4269670025640054252E3264252E22
:1003100032642573257325732573257325733A007D
:10032000323025732F25732F25732025733A2573BB
:100330003A2573002573002573002563252E32644A
:100340003A004354535250003A004E2F4100257357
:10035000000025642E2573257325730025642E2542
:1003600073257325732573257300544F54414C2016
:100370002573257300544F54414C20257325732554
:100380007325730025732573002573257325732545
:10039000730025732D2D2D2D2D2D2D2D2D2D2D2043
:1003A000202020202020202020202020202020006D
:1003B00025732D2D2D2D2D2D2D2D2D2D2D20202056
:1003C0002D2D2D2D2D2D2D2D2D2D2D2D2D0041772C
:1003D000616C203A25732573004177616C203A25C2
:1003E0007325732573257300416B6869723A257311
:1003F000257300416B6869723A257325732573254F
:1004000073005025642E2564202D20257320005074
:1004100025642E2564202D20257320257320257327
:100420000048617267613A2052702E2573004E2F8A
:10043000410050554D502D50524F445543542020AB
:1004400020564F4C554D45284C2920202020202057
:1004500020202020202020200050554D502D50528B
:100460004F44554354202020564F4C554D45284C61
:100470002920202020525550494148285250290017
:10048000416B686972205368696674203A2025734D
:1004900020004177616C20205368696674203A20FF
:1004A000257320005465726D696E616C204944208B
:1004B0003A20252E326420202020202020202020B9
:1004C000202020202020202020002020202020204C
:1004D00020204C61706F72616E20547574757020AD
:1004E00053686966743A202573202020202020005C
:1004F000256400257300300030002573002573004B
:1005000025730025730025730025730030303030CB
:1005100030303030004F70657261746F723A202550
:1005200073002D2D2D2D2D2D2D2D2D2D2D2D2D2DE2
:100530002D2D2D2D2D2D2D2D2D2D2D2D2D2D2D2DEB
:100540002D2D2D00202020202020202020202020A4
:10055000202020202020202020202020202020209B
:1005600020202020202020002020202020202020AB
:1005700020202020204455504C49434154452043DD
:100580004F505920202020202020200020202020F3
:10059000204F70657261746F723A202573002020BD
:1005A00020202D2D2D2D2D2D2D2D2D2D2D2D2D2D95
:1005B0002D2D2D2D2D2D2D2D2D2D2D2D2D2D2D2D6B
:1005C00000202020202053757263686172676520C7
:1005D000416D743A2025730020202020205375722D
:1005E000636861726765204473633A202573002055
:1005F0002020202D2D2D2D2D2D2D2D2D2D2D2D2D52
:100600002D2D2D2D2D2D2D2D2D2D2D2D2D2D2D2D1A
:100610002D0020202020204D6F6E746820436F6EC7
:10062000732041203A2052702E2573002020202074
:10063000204D6F6E746820436F6E732056203A20F1
:100640002573204C002020202020546F74616C20E2
:1006500052656465656D203A2025730020202020B6
:1006600020457870697279202020202020203A20AF
:1006700025730020202020204375727220506F695E
:100680006E747320203A20257300202020202050F3
:1006900072657620506F696E747320203A2025733E
:1006A0000020202020204761696E20506F696E7401
:1006B0007320203A202573002020202020436F72D1
:1006C00070204E616D65202020203A202573002087
:1006D00020202020436F72702049442020202020B9
:1006E000203A2025730020202020204361726420BE
:1006F000486F6C64657220203A202573200020200A
:1007000020202043617264204944202020202020A2
:100710003A202573002020202020202020204C4F2C
:1007200059414C545920494E464F524D4154494F1E
:100730004E20202020202000202020202D2D2D2D77
:100740002D2D2D2D2D2D2D2D2D2D2D2D2D2D2D2DD9
:100750002D2D2D2D2D2D2D2D2D2D00202020202E29
:100760002573002020202054616E64612054616E46
:1007700067616E2020285F5F5F5F5F5F5F5F5F5F25
:100780005F5F5F5F29002020202020202020202084
:100790002020202020202020202020200020202079
:1007A0002020202020202020202020202020202049
:1007B0002020200020202020202020202020202059
:1007C00020202020200020200020202020417070A8
:1007D0007220436F64653A20257300257320200042
:1007E000202020204E616D6120202020203A2025ED
:1007F0007300202020202020202020202A2A2A20A8
:1008000050554D502054455354202A2A2A20202048
:10081000202020200020202020566F7563686572FC
:10082000204E6F3A20257300202020204B617274E7
:1008300075204944203A20257300202020202D2DAA
:100840002D2D2D2D2D2D2D2D2D2D2D2D2D2D2D2DD8
:100850002D2D2D2D2D2D2D2D2D2D2D2D002020201C
:100860002020204F646F6D65746572202020203A2F
:10087000202573002020202020204E6F2E506F6CEA
:100880006973692020203A20257300002020202051
:1008900020204A6D6C2052757069616820203A20D2
:1008A00052702E2573002020202020204A6D6C20BD
:1008B0004C697465722020203A202573204C00007A
:1008C00020202020202048617267612F4C202020AA
:1008D00020203A2052702E25730020202020202036
:1008E00050726F64756B2020202020203A202573E1
:1008F0000020202020202050756C61752F506F6DD6
:100900007061203A205B25735D2D25730020202027
:10091000202D2D2D2D2D2D2D2D2D2D2D2D2D2D2D14
:100920002D2D2D2D2D2D2D2D2D2D2D2D2D2D2D0024
:1009300020202020202057616B74753A20257320D9
:100940002573200020202020202053686966743AF7
:1009500020257320204E6F2E5472616E733A20252D
:100960007320002000202020202020202020202074
:1009700020204455504C494341544520434F505941
:100980002020202020202020004572726F72204EEF
:100990006F20436F6E6E656374696F6E0050726F87
:1009A0007365730053656E64205265717565737469
:1009B000005B2A5D43616E63656C2020205B235DD4
:1009C000456E746572005B2A5D4261636B20202076
:1009D00020205B235D456E746572005B2A5D436178
:1009E0006E63656C20205B235D456E74657220002C
:1009F0004F646F6D657465723A5F2000506C61746E
:100A0000204E6F3A20257320005B2A5D43616E63A0
:100A1000656C2020205B235D456E746572005B2A47
:100A20005D4261636B20202020205B235D456E7456
:100A30006572005B2A5D43616E63656C20205B23F9
:100A40005D456E74657220005F00496E707574209C
:100A5000506C6174204E6F3A2000232953617665F3
:100A60000034295465726D49443A25642000256498
:100A7000002564002329536176650034295465728A
:100A80006D49443A2564200033294E6F746966200D
:100A90003A20202020202A294578697400322944F0
:100AA0002F542020203A0031294D6F6E6579203A6D
:100AB00000252E326400256400252E326400256452
:100AC000003429437574203A20202A294578697416
:100AD0000033294C6F676F3A2020232953617665D4
:100AE00000322953697A653A2020362953706163B0
:100AF00065203A003129547970653A202035295310
:100B000063726F6C6C3A002A2943616E63656C20D6
:100B100020202020202329536176650054494D452B
:100B2000203A200044415445203A20002564002505
:100B300064002A2945786974202020202020202064
:100B40002329536176650032294E323A2020342918
:100B50004E343A202036294E363A0031294E313A69
:100B6000202033294E333A202035294E353A005083
:100B7000726F6475637420464950252E32640043B9
:100B80006F6D706C657465640043616E63656C20A5
:100B9000202020200049645B25645D3D252E3264C1
:100BA000202000536176696E672E2E002D50756DE2
:100BB0007049442D00202020204E6F7420416C6C21
:100BC0006F77656420202020200020204475706C01
:100BD00069636174652050756D7049442020002060
:100BE00020202020205761726E696E67212020200E
:100BF0002020200025642E50252E3264207C2025C4
:100C0000642E50252E326400232953617665002A14
:100C1000294261636B0025642E50252E3264207CAE
:100C20002025642E50252E326400252E32640025A6
:100C30002E3264003429343A2020203829383A20D2
:100C400020202A2945786974003329333A2020204E
:100C50003729373A2020202329536176650032292D
:100C6000323A2020203629363A003129313A2020E4
:100C7000203529353A005B2A5D4578697420205B70
:100C8000235D4368616E6765200025642E2573002F
:100C90002D44697370656E736572204272616E6473
:100CA0002D002A294578697400322950726F6475C5
:100CB00063740031294944002A2945786974002564
:100CC000642E50252E3264207C2025642E50252E43
:100CD00032642000252E3264005B2A5D45786974F9
:100CE00000362E4163743A256400352E446C793AFF
:100CF000256400342E54696D506F6F6C3A25640082
:100D0000332E54727953656E643A256400322E6E28
:100D10004E6F50756D703A256400312E4D617850DC
:100D2000756D703A2564005B2A5D4261636B20201B
:100D300020202000434F4D25643A256400202020C8
:100D400020202D42617564726174652D2020202061
:100D500020005B2A5D4261636B2020202020200060
:100D6000332E434F4D333A34383500332E434F4DF5
:100D7000333A32333200332E434F4D333A54544CCE
:100D800000322E426175647261746500312E4D6FC0
:100D900064653A5374616E64616C6F6E6500312EE8
:100DA0004D6F64653A536C61766500312E4D6F640A
:100DB000653A4E6F6E6500496E76616C6964204FCE
:100DC0006C642050617373776F7264002020202060
:100DD00020204552524F5220202020202020202029
:100DE00000496E76616C6964204E657720506173AE
:100DF00073776F7264002020202020204552524FCC
:100E0000522020202020202020200020202050615F
:100E10007373776F726420536176656420202000BD
:100E20002020202020436F6D706C65746564202045
:100E300020202020005B2A5D43616E63656C2020CA
:100E4000205B235D456E746572005B2A5D426163C1
:100E50006B20202020205B235D456E746572005B53
:100E60002A5D43616E63656C2020205B235D456EC7
:100E7000746572004E65773A5F2020202020202084
:100E800020202020202020200056616C696461749D
:100E9000696E672E2E005B2A5D43616E63656C2070
:100EA00020205B235D456E746572005B2A5D4261A4
:100EB000636B20202020205B235D456E74657200EB
:100EC0005B2A5D43616E63656C2020205B235D457A
:100ED0006E746572004E65773A5F202020202020D6
:100EE000202020202020202020005B2A5D43616EEE
:100EF00063656C2020205B235D456E746572005B2A
:100F00002A5D4261636B20202020205B235D456EBB
:100F1000746572005B2A5D43616E63656C202020FE
:100F20005B235D456E746572004E65773A5F2020E5
:100F300020202020202020202020202020005B2A8C
:100F40005D43616E63656C2020205B235D456E749C
:100F50006572004F6C643A5F002D41646D696E6983
:100F600073747261746F722D002D53757065727693
:100F700069736F722D005B2A5D4261636B202020D4
:100F8000202000322E41646D696E69737472617441
:100F90006F7200312E53757065727669736F7200CF
:100FA0002D4368616E67652050617373776F72645B
:100FB0002D00536176656420005B2A5D43616E639A
:100FC000656C2020205B235D456E746572005B2A92
:100FD0005D4261636B20202020205B235D456E74A1
:100FE0006572005B2A5D4E6F202020205B235D59D7
:100FF000657300536176653F004E6577204F7065DD
:101000007261746F723A002573005B2A5D43616EF2
:1010100063656C2020205B235D456E746572004E15
:101020006577203A5F2020202020202020202020CB
:10103000202020004E616D653A002573005B2A5D1B
:101040004261636B202020202020202020200032BD
:101050002E4368616E67652050617373776F7264A9
:1010600000312E4368616E6765204F706572617450
:101070006F72002A294261636B00342E53706172D3
:1010800061746F723A25632000332E446563696D85
:10109000616C203A25632000322E542E4D6F6E6510
:1010A00079203A25642000312E542E566F6C756DD0
:1010B000653A256420005B2A5D4261636B20205BFA
:1010C000235D4E65787400332E4D6F6E6579203A3E
:1010D000256400322E566F6C756D653A25640031BB
:1010E0002E5072696365203A25640034294272618A
:1010F0006E6420202A29457869740033294C616286
:10110000656C202000322950726F64756374003161
:101110002949442020202020002A294261636B2095
:1011200020202023294F4B202020202020004E6506
:10113000773A5F004F6C643A2573002A2942616355
:101140006B2020202023294F4B202020202020000E
:101150004E65773A5F00456469742050726F64751C
:101160006374204E616D65202020004F6C643A2529
:1011700073002A294261636B202020202020200058
:10118000322925730031292573002A294261636BB6
:10119000002564292573002A294261636B202020E1
:1011A00020202020202020202020200033295075BE
:1011B0006D70506F6F6C696E67202020202020209A
:1011C00000322953797374656D202020202020205F
:1011D00020202020200031294F70657261746F72C9
:1011E0002020202020202020202000342944617449
:1011F0006574696D65202A2945786974202020006E
:101200003329446563696D616C202037294E657808
:101210007420202000322950756D7020202020205D
:101220003629486F737420202000312950726F6472
:10123000756374202035295072696E746572002EB2
:1012400000256400202020002E002564002020209E
:10125000005B2A5D63616E63656C20205B235D6EBD
:101260006578742020004E65773A2020205F2E207C
:1012700020202E2020202E202020004F6C643A2099
:1012800025642E25642E25642E2564005365727610
:101290006572204950002E00256400202020002E79
:1012A00000256400202020005B2A5D63616E636579
:1012B0006C20205B235D6E6578742020004E65777E
:1012C0003A2020205F2E2020202E2020202E20209B
:1012D00020004F6C643A2025642E25642E25642E50
:1012E000256400436C69656E7420495000257325A0
:1012F00073005B2A5D4E6F205B235D59657300535D
:1013000061766520466F6F7465722564203F005BCF
:101310002A5D4E6F20205B235D59657300416C6927
:10132000676E2043656E7465723F005B2A5D4261A3
:10133000636B20205B235D4F4B004564697420463E
:101340006F6F746572256420002A294578697420BE
:1013500020202020202020202020202020002020AD
:10136000202020202020202020202020202020207D
:101370002020003229466F6F746572322020342994
:10138000466F6F74657234003129466F6F746572F1
:101390003120203329466F6F746572330025732521
:1013A00073005B2A5D4E6F205B235D5965730053AC
:1013B000617665204865616465722564203F005B45
:1013C0002A5D4E6F20205B235D59657300416C6977
:1013D000676E2043656E7465723F005B2A5D4261F3
:1013E000636B20205B235D4F4B004564697420488C
:1013F0006561646572256420002A29457869742036
:1014000020202020202020202020202020003329E0
:1014100048656164657233202036294865616465DA
:1014200072360032294865616465723220203529A0
:10143000486561646572350031294865616465728B
:10144000312020342948656164657234002A2945B9
:1014500078697400332950617373776F7264202048
:101460002020202020202020003229466F6F746524
:101470007220202020202020202020202000312920
:1014800048656164657220202020202020202020D3
:101490002020003229466F6F74657220202020358D
:1014A00029536572766572003129486561646572F9
:1014B000202020203429436C69656E7400536176C6
:1014C000696E67205368696674446174612E2E20CA
:1014D000002573202573005072696E74696E672051
:1014E000546F74616C697A65720043616E63656CF8
:1014F000004572726F72202D204E6F2050756D70F6
:101500003A25642000576169742050756D703A2542
:10151000642000576169742050756D703A2564200D
:1015200000546F74616C697A65722E2E002A294509
:1015300078697400332E4C6F636B2050756D70208A
:101540002000322E436C6F736520446179202000A7
:10155000312E436C6F7365205368696674003429BB
:1015600053657474696E67732020202A2945786951
:101570007420003329436C6F736544617920202007
:1015800020202020202020003229436C6F736553D7
:1015900068696674202020202020202000312952F4
:1015A000655072696E742020202020202020202089
:1015B000200050617373776F726420526573746F8B
:1015C00072656400496E76616C696420526573745B
:1015D0006F726520200030303030300031313131D1
:1015E00031005B2A5D43616E63656C2020205B23C4
:1015F0005D456E746572005B2A5D4261636B2020FD
:101600002020205B235D456E746572005B2A5D437C
:10161000616E63656C2020205B235D456E7465728E
:10162000005F20202020202020202020202020209B
:10163000202020202000456E74657220526573744E
:101640006F726520436F64652020004B65792053DD
:1016500074616D703A25732000496E76616C69641F
:1016600020436F64652020202020202020000025BA
:1016700073002573005B2A5D43616E63656C2020F7
:10168000205B235D456E746572005B2A5D42616379
:101690006B20202020205B235D456E746572000066
:1016A0005B2A5D43616E63656C2020205B235D4592
:1016B0006E746572005F20202020202020202020D2
:1016C00020202020202020202000456E74657220DC
:1016D00047654E69557320436F6465202020005B89
:1016E0002A5D457869742020202020202020202099
:1016F00020202000322E4368616E676520506173A0
:1017000073776F726420202000312E526573746FDE
:1017100072652050617373776F72642020002D53BF
:10172000797374656D2041646D696E204C657665D2
:101730006C2D00257325730025730025630032305E
:1017400025730025730034323634363336005B2A75
:101750005D43616E63656C2020205B235D456E7484
:101760006572005B2A5D4261636B20202020205B54
:10177000235D456E746572005B2A5D43616E63652F
:101780006C2020205B235D456E746572005F005005
:10179000415353574F52443A00416363657373207A
:1017A00044656E696564005443502F49502045726A
:1017B000726F72004E6F205265706C79202020206D
:1017C000002020202020202000506C6561736520BF
:1017D000576169740025730050554D50205445538E
:1017E00054002573002573002573002573002573AD
:1017F0000050726F736573002D4D4F5020566F75FA
:10180000636865722D0050726F7365730049443AC6
:101810002573005B2A5D4261636B202020205B23DF
:101820005D45786974004649502573005461702005
:101830004B617274752052464944005B2A5D4361D6
:101840006E63656C2020205B235D456E74657200BD
:101850005B2A5D4261636B20202020205B235D4575
:101860006E746572005B2A5D43616E63656C202057
:10187000205B235D456E7465720053757263686109
:101880007267653A2020205F25002573005B2A5D82
:101890004261636B0025642E25730053656C65639C
:1018A000742042616E6B005B2A5D43616E63656C00
:1018B0002020205B235D456E746572005B2A5D42CB
:1018C00061636B20202020205B235D456E74657270
:1018D000005B2A5D43616E63656C2020205B235DA5
:1018E000456E746572005F004B6F646520566F75BE
:1018F00063686572005B2A5D4261636B2020202073
:1019000020202020202020202000322E42616E6BDB
:1019100020202020342E50756D7054657374003172
:101920002E4163636F756E7420332E566F75636836
:101930006572200020202053656C6563742050611F
:10194000796D656E7420202000435245444954430C
:10195000415244005B2A5D4261636B2020202020BD
:10196000202020202020202000322E437265646930
:101970007420436172642020202020202000312E1A
:1019800044656269742F466C6173682043617264B8
:1019900020200053656C6563742043617264205499
:1019A000797065004E6F20436F6E6E656374696F6A
:1019B0006E005443502F4950204552524F52200040
:1019C000507265737320416E79204B657900436DC9
:1019D00020566F6C3A257300434D20416D743A25B3
:1019E0007300506F696E74733A25730025733A253E
:1019F000730050726F7365730049443A2573005B3E
:101A00002A5D4261636B202020205B235D4578695D
:101A10007400546170204B617274752052464944C1
:101A2000005B2A5D4261636B202020205B235D45C3
:101A300078697400546170204B617274752052464D
:101A40004944004649503A2573005B2A5D42616370
:101A50006B2020202020202020202000322E4C6FC0
:101A600079616C7479205570646174652000312E41
:101A7000456E717569727920202020202020200079
:101A800020204D656E75204C6F79616C7479202033
:101A900020004E6F20436F6E6E656374696F6E0039
:101AA0005443502F4950204552524F5220005B2A38
:101AB0005D4261636B202020205B235D4578697463
:101AC000005461702053757065727669736F72206F
:101AD000436172640052655072696E7420464950C9
:101AE0003A25732000546964616B2041646120547D
:101AF00072616E73616B7369200041636365737318
:101B00002044656E69656400252E3264002A2945EB
:101B10007869740023294F4B2000202020202000CA
:101B20004649503A5F0025642E502573207C2025BD
:101B3000642E502573003032257325732573257369
:101B400025732573257300300020202020202020BD
:101B5000202020202020202020202020200023259D
:101B60007300252E326400404649503A0020202060
:101B70002020202020202020202020202020202065
:101B800020005072696E74696E6720464950257353
:101B90002000443A256420433A2563202000257321
:101BA000202573004E6F2050756D7020466F756E46
:101BB00064005443502F4950204572726F72005098
:101BC000756D70466F756E6400436F6E6E656374FD
:101BD000656420202020202020202020200020209C
:101BE00020202020202020202020202020202020F5
:101BF00020002573005363616E2050756D700043A3
:101C00006F6E6E656374202020202020202020002D
:101C1000436F6E6E65637400436F6E6E6563742010
:101C2000202020202020202000434F4D25643A25ED
:101C300069202020202020202020202000496E69BB
:101C40007469616C697A6520434F4D202E2E2E00F9
:101C50000A47654E695573205469636B657420505B
:101C600072696E746572200A2056657273696F6EB0
:101C70003A25730A204C6173742055706461746551
:101C8000202573200A2048616E696E646F204175BB
:101C9000746F6D6174696F6E20536F6C7574696FCA
:101CA0006E73200A207777772E68616E696E646F95
:101CB00067726F75702E636F6D0A0A0A0A0A0A0A44
:101CC0000A0032342F30322F3230313100322E338D
:101CD00037004675656C696E6720404649503A2367
:101CE0002564005472616E73616B73692053656C77
:101CF000657361690049443A2025730025730050DB
:101D00002573202573200046495020546964616B77
:101D100020536961702020202000417574686F7223
:101D2000697361736920426572686173696C00410F
:101D30007574686F72697361736920476167616C5C
:101D400020202000202020202020200020202020D3
:101D50002020202020202020202020202020202083
:101D6000004D6F686F6E2054756E67677520202078
:101D7000202020202000257300502573202573206B
:101D80000043616E63656C205472616E73616374AD
:101D9000696F6E2020005B2A5D4261636B205B30BF
:101DA0005D455343205B235D4F4B0025732000208E
:101DB00046756C6C00257320202573200049443A39
:101DC00020257300257320005B2A5D4261636B2030
:101DD000205B235D4F4B202020004F646F6D6574A6
:101DE00065723A5F202020202020200025732000EB
:101DF00020202573202573200050756D70205072AF
:101E00006F6475637420416D6F756E740050756DED
:101E1000702050726F6475637420566F6C756D65B9
:101E200000202054616E6B00202025732025732034
:101E30000050756D702050726F647563742020209F
:101E400046756C6C005B2A5D4261636B20205B23EE
:101E50005D4F4B202020202020005B325D416D6FC4
:101E6000756E743A5F202020202020202020002042
:101E70002020202020202020202020202020202062
:101E8000202020005025732D257320005B2A5D4201
:101E900061636B20205B235D4F4B2020202020209E
:101EA0000020202020202020202020202020202052
:101EB0002020202020005B315D566F6C756D653AE7
:101EC0005F202020202020202020005025732D2559
:101ED0007320004100410056005B2A5D4261636B44
:101EE000202020205B235D4E6578742020005B322B
:101EF0005D416D6F756E74202020202020202020F1
:101F00002020005B315D566F6C756D6520202020B0
:101F100020202020202020005025732D2573200014
:101F20002573005B2A5D4261636B20202020202006
:101F30002020202020202000202020202000256498
:101F40002E257300257300506F6D70612D25730071
:101F5000252E326400252E3264005B2A5D426174B6
:101F6000616C202020202020205B235D4F4B00252A
:101F700073202573002573002573002573004B61C2
:101F80007274752054657262617461732020202020
:101F9000202000546964616B20546572646166742A
:101FA000617220202020200044617461205265630A
:101FB000656976656420202020202020005443504D
:101FC0002F4950204572726F72202020202020203F
:101FD000200053656E64696E67204661696C6564B4
:101FE0002020202020200020202020202020005001
:101FF000726F7365730049443A2573002020204CAA
:102000006F63616C204163636F756E7420202000E4
:10201000252E326400463936384346464200257341
:102020000025732573257300257325732573257388
:102030000025732573002573004630303030303072
:1020400030453132333435364646464646002573F0
:1020500025732564002573257325640025730025E9
:10206000732573002573257300257325730025736D
:102070002573002573257300257300257300252E15
:10208000325800252E33642E252E33642E252E3310
:10209000642E252E336400252E33642E252E3364C2
:1020A0002E252E33642E252E336400252E32640017
:1020B000252E326400257320257300322E3337001D
:1020C00047654E69557300507265737320616E7970
:1020D000206B65792E2E2020202020005B315D535F
:1020E0006C617665205B325D5374616E64616C6F08
:1020F0006E65003E00252E326400252E32640030CD
:10210000003100256400252E3264002573002573FC
:10211000002573003C003C4F4B3E002564002564C5
:10212000002564003C536176696E673E004C656E25
:102130006774683A256400257300257300257300D1
:10214000257300257300252E326400256400257355
:10215000002573002573002564004E2F410025647F
:1021600000257300257300546964616B204164612C
:10217000205472616E73616B73692000546F7461D7
:102180006C697A6572416C6C202020202000436CC1
:10219000656172204461746120546F74616C697A66
:1021A00065720020202020202020202020202020B8
:1021B0002020200052656164792E2E2E20202020C0
:1021C00020202020202020200052656164792E2EBE
:1021D0002E202020202020202020202020004E6F94
:1021E00020526573706F6E73652E2E202020202084
:1021F000202000506C6561736520576169742E2E34
:10220000202020202020200052656164792E2E2E6F
:10221000202020202020202020202020005469641D
:10222000616B20416461205472616E73616B7369EC
:102230002000536564616E6750726F73657300347C
:10224000333536413331410020202020202020200A
:10225000202020202020202020202020002020209E
:10226000202020202020202020202020202020206E
:10227000200020202020202020202020202020207E
:10228000202020202020002020202020202020206E
:1022900020202020202020202020200030202E0060
:1022A0000000312E2C3F2100326162630000336454
:1022B00065660000346768690000356A6B6C000071
:1022C000366D6E6F000037707172730038747576FA
:1022D0000000397778797A0030202E00000031260E
:1022E000402B2D003241424300003344454600005C
:1022F000344748490000354A4B4C0000364D4E4F9C
:102300000000375051525300385455560000395789
:1023100058595A000204030303030304030411245D
:102320001FBECFEFD0E1DEBFCDBF11E0A0E0B1E036
:10233000E8EEFAE501E00BBF02C007900D92AC3465
:10234000B107D9F71CE0ACE4B1E001C01D92A33B9A
:10235000B107E1F70E943F120C9472AD0C9400009B
:102360001092BA0204B600FE0BC014BE81E061E018
:1023700046E952E00E9400A481E08093BA0218C0AE
:1023800004B601FE06C014BE81E061E04DE852E0F3
:102390000DC004B602FE06C014BE81E061E044E850
:1023A00052E004C081E061E04BE752E00E9400A4EB
:1023B00014BE80EE9EE220E731E0F9013197F1F79B
:1023C0000197D9F708950E944EA30E942DA40E9460
:1023D0003B150E94B01184E061E04CE652E00E949F
:1023E00000A488EB9BE020E731E0F9013197F1F799
:1023F0000197D9F79FEF9BBB9ABBDB9A98BB97BB22
:102400008DE082BB89E081BB909370008EE083B940
:1024100082B91B9A1A989093620080EF80936100B2
:1024200080E061E00E9446A6BB9AC39ABA98C29A1D
:10243000B998C19A8EB588608EBD87B7806187BF15
:10244000789488E09DE39BBD8ABD8EB583608EBD88
:1024500081E060E00E94DD5E0E94057881E080936B
:10246000AE021092AF02809165008D7F809365006F
:102470000E9494420E94BA8F0E942DA408950E9447
:10248000E3110E9417A1FDCF9C01E199FECF3FBB54
:102490002EBBE09A8DB308959C01E199FECF3FBB1E
:1024A0002EBB6DBB0FB6F894E29AE19A0FBE089569
:1024B0001F920F920FB60F9211242F936F937F9359
:1024C0008F939F938091AE02813081F48091AF020F
:1024D0008F5F8093AF02863949F41092AE0210925A
:1024E000AF02809165008260809365008091BC019D
:1024F000882331F081508093BC01BD9AC59805C0F6
:1025000098B388B38095892B88BB8091BA018F5F7F
:102510008093BA01809190018F5F80939001209108
:1025200091012F5F20939101822F65E00E94D9AC29
:10253000992371F483B194E0892783B98091920142
:102540008F5F809392018091B6018F5F8093B60177
:10255000822F6AE00E94D9AC992329F48091BB01B3
:102560008F5F8093BB018091780C8F5F8093780C94
:102570009F918F917F916F912F910F900FBE0F9030
:102580001F90189586E10895E82FF0E0EE31F105EF
:1025900070F5EA5BFF4FEE0FFF1F0590F491E02D01
:1025A000099481E3089585E4089582E3089583E31F
:1025B000089584E3089585E3089589E608958EE6F5
:1025C000089581E6089584E608958FE4089586E4E9
:1025D000089583E508958DE2089580E5089589E4DE
:1025E000089586E5089584E5089584E7089588E7C9
:1025F00008958093A7056093D30B81E080938401B5
:102600000895282F823039F481E08093A30210923C
:10261000A2021092A1028091A302813069F48091FC
:10262000A1029091A202FC01E35EF64F2083019685
:102630009093A2028093A102233041F08091A102E5
:102640009091A2028D34910508F499C01092A302D2
:1026500030911F09305180911E092AE0829FC001EC
:102660001124380F333009F065C0E0E2F9E0A7E843
:10267000BCE081918D9389E0E632F807D1F71092A2
:102680008D0C80818093B90781818093BA07109265
:10269000BB073296A3EABCE081918D9389E0E733D2
:1026A000F807D1F71092B20CA9E8BBE081918D93A5
:1026B00089E0EA34F807D1F710929C0B20E030E073
:1026C000F901E051F84FD901A35EB64F9D968C9168
:1026D00080832F5F3F4F2630310591F71092F60728
:1026E00020E030E0F901ED5AF84FD901A35EB64F72
:1026F000D3968C9180832F5F3F4F2A30310591F71D
:1027000010925D0720E030E0F901E154F44FD90167
:10271000A35EB64FDD968C9180832F5F3F4F2E30A6
:10272000310591F71092CD0B81E080939901809350
:102730009A010895343019F5E0E2F9E0A0EFB7E02E
:1027400081918D9389E0E632F807D1F71092F60770
:10275000A3E5B7E081918D9389E0E033F807D1F7E5
:1027600010925D07AFEBBBE081918D9389E0EE3372
:10277000F807D1F71092CD0B81E080939B0108956B
:102780000895982FEFE6F8E080818183319788E003
:10279000EC35F807C9F79F012F5F3F4F9183848580
:1027A0008230F9F480915E088A30D9F49330C9F40C
:1027B000F9013A96A1E5BCE080818D93319788E0DC
:1027C000EF35F807C9F71092590C81E08093980112
:1027D0008093AE021092AF02809165008D7F80934E
:1027E000650008951F920F920FB60F9211248F93D8
:1027F0009F939CB18091B201813021F08091B4010E
:10280000813051F4933121F481E08093B30104C00D
:10281000913111F41092B3019F918F910F900FBEDF
:102820000F901F90189580E00895282F80919F02A7
:102830008936E9F480919E028334C9F480919D0227
:102840008F36A9F480919C028E3689F480919B0288
:10285000863669F480919A028F3349F48091990207
:102860008D3029F42A3019F482E08093B0018091F0
:102870008501813069F48091890190918A01FC0180
:10288000E35EF64F2083019690938A01809389013D
:1028900080919902843051F42034E9F481E08093EE
:1028A000850110928A011092890115C0853099F432
:1028B000203589F48091890190918A0190938C014F
:1028C00080938B0110928A011092890110928501E8
:1028D00081E08093B00180919E0280939F0280915D
:1028E0009D0280939E0280919C0280939D02809124
:1028F0009B0280939C0280919A0280939B0280911C
:10290000990280939A02209399020895BD9AC598DE
:102910008093BC01089508958F70089582958F70FB
:102920000895982F8A3010F4805D08958A5086307B
:1029300010F080E00895892F895C0895282FFB010D
:10294000982F92959F709A3018F4892F805D08C057
:10295000892F8A50863010F080E002C0892F895C70
:102960008083922F9F709A3018F4892F805D08C061
:10297000892F8A50863010F080E002C0892F895C50
:10298000818312820895FC0180812AE0829F900158
:1029900011248051820F0895582FFB0164E60E9494
:1029A000D9ACA82F852F0E94D9AC892F6AE00E944C
:1029B000D9AC482F8CE99FEFA89F802D1124850F5B
:1029C00026EF3FEF429F902D1124980F543640F090
:1029D000A05DA083405D4183905D92831382089542
:1029E0005B3018F4905D90831182089508950895E6
:1029F0000895089520E030E0F901E757F44FD90138
:102A0000AF5AB34F8C9180832F5F3F4F28303105F1
:102A100099F71092910B0895CF93DF93DB01EC01AE
:102A200020E030E007C0FD01E20FF31F89918083B1
:102A30002F5F3F4F2417B8F3A40FB11D1C92DF91F5
:102A4000CF910895CF93DF93DB01EC01C40FD11D2B
:102A500040E050E007C0FD01E40FF51F899180833D
:102A60004F5F5F4F4217B8F3A20FB11D1C92DF9169
:102A7000CF910895089581E08093AE021092AF0245
:102A8000E5E6F0E080818D7F80830895823059F003
:102A9000823018F0833021F409C020E835E208C004
:102AA00020E030E005C020E03BE402C02BE936E145
:102AB000C9010895E199FECF84E491E09FBB8EBBEC
:102AC000E09A8DB380934C01E199FECF89E491E0C7
:102AD0009FBB8EBBE09A8DB380934D0108950895FE
:102AE00008950895862708950895882319F0813060
:102AF00049F511C0262F30E0240F311DC9016AE0CD
:102B000070E00E9406AD482FC9016AE070E00E94A3
:102B100006AD460F18C0662309F461E0442309F4AA
:102B200041E0469F90011124C9016AE070E00E94D3
:102B300006AD462FC9016AE070E00E9406AD642F21
:102B4000482FD8CF40E0842F089581E00895FF9268
:102B50000F931F93CF93DF93F0904C01EC0100E0B3
:102B600010E009C08EE00E94C4129881981709F401
:102B70001F5F0F5F21960F15A8F3812FDF91CF9173
:102B80001F910F91FF9008950895089581E0089591
:102B90000895FC018081841718F48F5F8083089565
:102BA00060830895FC018081681718F48150808348
:102BB000089540830895582FFB01843600F164E6A0
:102BC0000E94D9AC482F852F0E94D9AC892F6AE08A
:102BD0000E94D9AC405D40834053805D8183805327
:102BE000505D2CE93FEF429F402D1124450F26EF09
:102BF0003FEF829F802D1124840F828310C08A5062
:102C00008A3578F480E38083852F6AE00E94D9AC0E
:102C1000805D8183852F0E94D9AC905D9283138261
:102C200008955A3030F480E380838183505D52836D
:102C300013820895813029F0823019F0833009F031
:102C400080E008950895CF93DF93EB01DA01A80F98
:102C5000B91F40E050E007C0FE01E40FF51F8D9161
:102C600080834F5F5F4F42175307B0F3C20FD31FEC
:102C70001882DF91CF9108950F931F93CF93DF9325
:102C80008C01DB01EB01C40FD51F60E070E007C0D1
:102C9000F801E60FF71F808189936F5F7F4F6217FE
:102CA0007307B0F3A40FB51FA20FB31F1C92DF91DF
:102CB000CF911F910F910895FB01E80FF91F8081BB
:102CC000089580911D09813051F480918B0190917C
:102CD0008C018F9721F4809142098053089580E000
:102CE00008959091440920E030E0F901EE56F74F45
:102CF000D901A35EB64F97968C9180832F5F3F4F8B
:102D00002431310591F71092A60820E030E0F90156
:102D1000ED55F84FD901A35EB64FDB968C918083B9
:102D20002F5F3F4F2431310591F71092B70720E014
:102D300030E0F901E45EF74FD901A459B64F8C9108
:102D400080832F5F3F4F2431310599F7109230086F
:102D500020E030E0F901EA52F44FD901A058B64F13
:102D60008C9180832F5F3F4F2431310599F710926A
:102D7000EA0B892F8053089520E030E0F901E757EE
:102D8000F44FD901A35EB64F95968C9180832F5F47
:102D90003F4F2431310591F710929D0B20E030E038
:102DA000F901EC5DFC4FD901A35EB64FD9968C9129
:102DB00080832F5F3F4F2E31310591F710924203F0
:102DC0008091740980938A0310928B0320E030E095
:102DD000F901EB5CF74FD901AB58B64F8C9180836A
:102DE0002F5F3F4F2830310599F710923D0820E0C2
:102DF00030E0F901E258FC4FD901A358B64F8C914D
:102E000080832F5F3F4F2A30310599F71092880356
:102E100020E030E0F901E351F44FD901A957B64F52
:102E20008C9180832F5F3F4F2A30310599F71092A4
:102E3000F70B20E030E0F901E154F44FD901AF562F
:102E4000B64F8C9180832F5F3F4F2331310599F727
:102E50001092D20B20E030E0F901ED54F44FD9018B
:102E6000AC55B64F8C9180832F5F3F4F2730310593
:102E700099F71092BA0B20E030E0F901E554FD4FCC
:102E8000D901A555B64F8C9180832F5F3F4F2430D9
:102E9000310599F71092BF0280E00895CF93DF9338
:102EA00080914209893511F490E801C090E0809149
:102EB0004309893509F4906480914409893509F4FE
:102EC00090629061809145098053813108F4982B7C
:102ED000C0918D01D0918E0120E030E00BC0F9014E
:102EE000E451FC4FD901A35EB64F9C968C91808330
:102EF0002F5F3F4F2C173D0790F3C451DC4F1882D2
:102F0000892FDF91CF91089520E030E006C0FC01C9
:102F1000E20FF31F40832F5F3F4F26173707B8F3A9
:102F2000089520E030E0F901E957F34FD901A35E9D
:102F3000B64F95968C9180832F5F3F4F2630310599
:102F400091F710928D0C809148098093B907809178
:102F500049098093BA071092BB0720E030E0F901DD
:102F6000E45FF74FD901A35EB64F9D968C918083A5
:102F70002F5F3F4F2F30310591F710921B0820E053
:102F800030E0F901E256FA4FD901A35EB64FDC9664
:102F90008C9180832F5F3F4F2630310591F710923F
:102FA000A40520E030E0F901EB58FC4FD901A15A0B
:102FB000B64F8C9180832F5F3F4F2830310599F7B2
:102FC00010927D0320E030E0F901ED54F44FD90177
:102FD000A959B64F8C9180832F5F3F4F2830310520
:102FE00099F71092BB0B80916F0980938A0310921E
:102FF0008B0320E030E0F901E450FD4FD901A059E6
:10300000B64F8C9180832F5F3F4F2930310599F760
:103010001092050308951F93813009F05FC06F324D
:10302000710521F080911401882321F481E08093BF
:103030009E014AC06C36710511F0893021F481E09F
:103040008093A30141C092E06736790711F08B307D
:1030500021F481E08093A00137C06139710511F03E
:10306000873121F481E08093A2012EC0663E710574
:1030700011F0893321F481E08093A50125C091E00E
:103080006839790711F0833621F481E080939F013C
:103090001BC091E0663B790711F0813521F481E096
:1030A0008093A60111C06C35710511F08B3521F4A8
:1030B00081E08093A70108C06635710511F0853164
:1030C00019F481E08093A1011091A701113031F42E
:1030D0001092A7010E949117109397011F910895D4
:1030E000FC01DC0180E090E202C09D938F5F8617B7
:1030F000E0F3E60FF11D10820895DC0120E030E0DE
:103100009C9190539A3008F090E011968C91119711
:1031100080538A3008F080E0FB01E20FF31F8F70CC
:103120009295907F982B90832F5F3F4F1296263079
:10313000310531F70895CF93DF93EB01DB0120E0F8
:1031400030E0FC01E20FF31FE0814E2F42954F70FB
:103150004A3010F040E301C0405DEF70EA3010F0FB
:10316000E0E301C0E05D4C931196EC9311972F5F63
:103170003F4F12962630310521F71C86DF91CF9103
:103180000895861708F4865F861B805D0895805633
:10319000860F6AE00E94E5AC892F805D08958A3031
:1031A00010F080E30895805D089580538A3008F020
:1031B00080E008950895482FFB01181664F4562FF7
:1031C000DB0190E29D938A2F851B8417D8F3E40FCF
:1031D000F11D1082089580E2808311820895863067
:1031E00051F1873070F4833011F1843028F481304C
:1031F000C1F08230C1F419C08430D9F0853099F41F
:1032000022C08930F1F08A3028F48730B1F088305C
:1032100051F415C08B30D9F08B30B8F08C3019F4E4
:1032200018C08AED089580E0089582EC08958FEB30
:10323000089583EC089584EB089580EC089581EC63
:10324000089589ED089585EC089583EB089584EC45
:1032500008958DE00895BF92CF92DF92EF92FF9292
:103260000F931F93CF93DF93B82E8B01E42E690148
:10327000F901C081D1810C0F1D1FFF2407C08B2DC8
:103280000E94EF18F80181938F01F394FE14B8F3B4
:10329000CE0DD11DF601D183C083DF91CF911F9157
:1032A0000F91FF90EF90DF90CF90BF900895089519
:1032B0000895089508950895E82F282F2F70822FDC
:1032C000869586958695A82FB0E0AC52B44F4C9168
:1032D000623059F4277081E090E002C0880F991F96
:1032E0002A95E2F7482B4C9308956330B1F4277088
:1032F0008EEF90E001C0880F2A95EAF7E695E695F3
:10330000E695F0E0EC52F44F282F30E02095309510
:1033100035952795822B8423808308958F70E82F1D
:10332000E695E695E695F0E0EC52F44F9081292F72
:1033300030E0877002C0359527958A95E2F72130F5
:10334000310511F482E00895232B11F483E00895F0
:1033500080E00895DF93CF9300D000D00F92CDB7D7
:10336000DEB7982FE199FECF27E331E03FBB2EBBBC
:10337000E09A8DB3891751F0E199FECF3FBB2EBB88
:103380009DBB0FB6F894E29AE19A0FBE913019F006
:10339000923071F408C0198283E08A831B8282E034
:1033A0008C831D8205C019829A831B829C839D8316
:1033B00029E330E0FE013196E199FECF3FBB2EBB01
:1033C000E09A8DB39081891751F0E199FECF3FBB10
:1033D0002EBB9DBB0FB6F894E29AE19A0FBE2F5F09
:1033E0003F4F319680E02E33380731F70F900F9022
:1033F0000F900F900F90CF91DF910895DF93CF93AF
:10340000CDB7DEB762970FB6F894DEBF0FBECDBF63
:103410002091BA032F832091BB0328872091BD03FD
:103420002C832091BE032D832091C00329832091FA
:10343000C1032A83209174082A87209175082B875D
:10344000209177082D87209178082E8720917A087F
:10345000288B20917B08298B1A8A1F861C861B8249
:103460001E8219862DB73EB7205130400FB6F89412
:103470003EBF0FBE2DBFEDB7FEB73196ADB7BEB79D
:1034800012969C938E93119780E293E093838283AC
:10349000CE01019695838483CE010496978386831B
:1034A000CE01079691878087CE010A9693878287FF
:1034B000CE010D9695878487CE01409697878687A3
:1034C0000E9419AA2DB73EB7205F3F4F0FB6F89460
:1034D0003EBF0FBE2DBF62960FB6F894DEBF0FBE83
:1034E000CDBFCF91DF91089500D000D000D0EDB7CF
:1034F000FEB73196ADB7BEB712967C936E93119717
:1035000024ED3CE033832283848315820E9419AA30
:103510008DB79EB706960FB6F8949EBF0FBE8DBFAF
:103520000895DF92EF92FF920F931F93DF93CF9353
:10353000CDB7DEB7EC970FB6F894DEBF0FBECDBFA8
:1035400000D000D08E01055F1F4FEDB7FEB712838C
:1035500001838FEF92E0948383830E9419AA0F90D6
:103560000F900F900F9085E190E0B80143E150E09B
:103570002CE432E10E94F5A940ECD42ED98238EA3D
:10358000E32EEA8220E1F22EFB8286E48C8388E23D
:1035900090E08E010F5F1F4FB80144E050E02CE433
:1035A00032E10E94F5A9D982EA82FB8284EB8C8306
:1035B0008CE290E0B80144E050E02CE432E10E945B
:1035C000F5A9E199FECF80E390E09FBB8EBB81E03F
:1035D0008DBB0FB6F894E29AE19A0FBEE199FECF47
:1035E00081E390E09FBB8EBB87E08DBB0FB6F89464
:1035F000E29AE19A0FBEE199FECF82E390E09FBB91
:103600008EBB85E08DBB0FB6F894E29AE19A0FBEAF
:10361000E199FECF83E390E09FBB8EBB82E08DBB40
:103620000FB6F894E29AE19A0FBEE199FECF84E3D7
:1036300090E09FBB8EBB1DBA0FB6F894E29AE19A58
:103640000FBEE199FECF85E390E09FBB8EBB83E088
:103650008DBB0FB6F894E29AE19A0FBEE199FECFC6
:1036600086E390E09FBB8EBB1DBA0FB6F894E29A3A
:10367000E19A0FBEE199FECF87E390E09FBB8EBB3E
:1036800081E08DBB0FB6F894E29AE19A0FBEE19902
:10369000FECF88E390E09FBB8EBB81E08DBB0FB671
:1036A000F894E29AE19A0FBEE199FECF89E390E0A7
:1036B0009FBB8EBB1DBA0FB6F894E29AE19A0FBE7B
:1036C000E199FECF8AE390E09FBB8EBB83E08DBB88
:1036D0000FB6F894E29AE19A0FBEE199FECF8BE320
:1036E00090E09FBB8EBB1DBA0FB6F894E29AE19AA8
:1036F0000FBEE199FECF8CE390E09FBB8EBB82E0D2
:103700008DBB0FB6F894E29AE19A0FBEE199FECF15
:103710008DE390E09FBB8EBB1DBA0FB6F894E29A82
:10372000E19A0FBEE199FECF8EE390E09FBB8EBB86
:103730008CE28DBB0FB6F894E29AE19A0FBEE19944
:10374000FECF8FE390E09FBB8EBB9EE29DBB0FB68A
:10375000F894E29AE19A0FBE8CE289839A8380E220
:103760008B838FE28C838DE28D8380E490E08E01E9
:103770000F5F1F4FB80145E050E02CE432E10E949A
:10378000F5A981E0898382E08A831B821C821D82E5
:103790001E821F8285E490E0B80148E050E02CE4EE
:1037A00032E10E94F5A98DE490E0B80148E050E0D4
:1037B0002CE432E10E94F5A9EC960FB6F894DEBF36
:1037C0000FBECDBFCF91DF911F910F91FF90EF9072
:1037D000DF900895AF92BF92CF92DF92EF92FF9267
:1037E0000F931F93DF93CF93CDB7DEB72B970FB611
:1037F000F894DEBF0FBECDBF09E011E062E4E62E13
:1038000069E0F62E6E010894C11CD11C5BE0A52E68
:10381000B12CAC0EBD1EF601D7018D918193EA1536
:10382000FB05D9F71B86C801B6014BE050E02CE43C
:1038300032E10E94F5A9055F1F4F8AE090E0E80E93
:10384000F91E91E00533190731F780E02B960FB68A
:10385000F894DEBF0FBECDBFCF91DF911F910F91C6
:10386000FF90EF90DF90CF90BF90AF900895FF92C0
:103870000F931F93DF93CF93CDB7DEB728970FB683
:10388000F894DEBF0FBECDBFF82E8E010F5F1F4F25
:10389000C80165E470E048E050E024E432E10E94B1
:1038A000D9A9F8019E01275F3F4F9E2F901B808171
:1038B0008F1519F4892F8F5F05C03196E217F30732
:1038C000A1F780E028960FB6F894DEBF0FBECDBFFB
:1038D000CF91DF911F910F91FF900895FF920F9369
:1038E0001F93CF93DF93282FF62E803108F04EC020
:1038F000E199FECF87E391E09FBB8EBBE09A8DB349
:1039000080934E018150823008F4822F0E94371C30
:103910008823E1F18150C82FD0E080E10E94C412D9
:103920008E010E5F1E4FF80190819817B1F0F0E103
:10393000FF1621F0FE01E15BFE4FF0828F2D0E9409
:10394000C4128E010E5F1E4FF8018083F5E1FF1651
:10395000C1F4C15BDE4F888110C0FE01E15BFE4F08
:1039600081E1F81611F4808108C0F0828BE0F8162E
:1039700021F0F4E1FF1629F484E10E94C412F80159
:1039800080831092120181E080930101DF91CF9139
:103990001F910F91FF9008951F93DF93CF93CDB7A1
:1039A000DEB728970FB6F894DEBF0FBECDBF182F35
:1039B000CE01019665E470E048E050E024E432E195
:1039C0000E94D9A9812F8150873010F080E004C077
:1039D000FE01E10FF11D808128960FB6F894DEBF3D
:1039E0000FBECDBFCF91DF911F9108950F931F930D
:1039F000DF93CF9300D000D000D0CDB7DEB7962FA5
:103A00004F702150263008F4522F8823D9F464E2F5
:103A1000469FB0011124292F30E080E291E0FC01A3
:103A20002E9FC0012F9F900D3E9F900D1124680F77
:103A3000791F86E0589FC0011124680F791F6D53CC
:103A40007C4F1CC0813011F564E2469FB001112407
:103A5000292F30E080E291E0FC012E9FC0012F9FD2
:103A6000900D3E9F900D1124680F791F86E0589F9E
:103A7000C0011124680F791F6D5F794FCE01019647
:103A800046E050E024E432E10E94D9A9CE0101963B
:103A9000B8010E949B1826960FB6F894DEBF0FBEA1
:103AA000CDBFCF91DF911F910F910895EF92FF92BB
:103AB0000F931F93DF93CF93CDB7DEB7AC970FB6BD
:103AC000F894DEBF0FBECDBF9AA789A77CA76BA7CE
:103AD0007A018E01055D1F4FC801BE016F5F7F4FE8
:103AE00024E432E10E94D9A9C801BE01675D7F4F7D
:103AF000A7012CE432E10E94F5A9AC960FB6F89428
:103B0000DEBF0FBECDBFCF91DF911F910F91FF9010
:103B1000EF900895DF92EF92FF920F931F93DF9340
:103B2000CF9300D000D00F92CDB7DEB7D82E8E0144
:103B30000F5F1F4FC80160E470E045E050E024E4EF
:103B400032E10E94D9A9ED2D21E030E07801D801C1
:103B50008C91D81649F4C90165E070E00E9406AD69
:103B6000F701E80FF91FE0810F5F1F4F2F5F3F4FF5
:103B70002630310561F78E2F0F900F900F900F9028
:103B80000F90CF91DF911F910F91FF90EF90DF90F9
:103B90000895CF92DF92EF92FF920F931F93DF93DE
:103BA000CF93CDB7DEB72F970FB6F894DEBF0FBE19
:103BB000CDBFE82E8B018F700E94371C882309F43B
:103BC0002DC18150C82EDD2485E390E0C89EF00110
:103BD000C99EF00DD89EF00D1124E855FA4F808152
:103BE000080F111DD8012C91CE010196222369F0F6
:103BF0006DE0269FB001112462557F4F4DE050E0EB
:103C000024E432E10E94D9A910C000D000D0EDB761
:103C1000FEB7928381838AE591E2948383830E9435
:103C200019AA0F900F900F900F90E199FECF80E0AE
:103C300090E09FBB8EBBE09AFDB200D000D000D0D8
:103C4000ADB7BEB7119688E69CE0EDB7FEB792839C
:103C5000818387E591E213969C938E93129785E377
:103C600090E0C89E8001C99E100DD89E100D1124B1
:103C7000F801E855FA4F828114968C9314971596A3
:103C80001C920E9419AAEDB7FEB7319687E89CE016
:103C9000ADB7BEB712969C938E93119784E591E2CF
:103CA00093838283C80185559A4F958384830E94AC
:103CB00019AAEDB7FEB731968EE697E0ADB7BEB75D
:103CC00012969C938E93119781E591E29383828360
:103CD000C8018E549A4F958384830E9419AAEDB728
:103CE000FEB731968DE493E0ADB7BEB712969C93C4
:103CF0008E9311978EE491E293838283C801855459
:103D00009A4F958384830E9419AAEDB7FEB7319626
:103D100087EF98E0ADB7BEB712969C938E9311973C
:103D20008BE491E293838283F48215820E9419AA24
:103D3000EDB7FEB7319689EB97E0ADB7BEB71296F7
:103D40009C938E93119786E491E293838283E4821D
:103D500015820E9419AAEDB7FEB731968CE098E063
:103D6000ADB7BEB712969C938E93119783E491E200
:103D700093838283CE010196958384830E9419AA3E
:103D8000EDB7FEB731968EE995E0ADB7BEB71296A6
:103D90009C938E93119780E491E293838283C80170
:103DA0008C539A4F958384830E9419AAEDB7FEB76E
:103DB000319685E793E0ADB7BEB712969C938E938C
:103DC00011978DE391E293838283C80185539A4FC3
:103DD000958384830E9419AAEDB7FEB7319683EBD1
:103DE0009BE0ADB7BEB712969C938E9311978AE372
:103DF00091E2938382830C521A4F158304830E94AD
:103E000019AA1092B80181E08093AC01EDB7FEB71A
:103E100036960FB6F894FEBF0FBEEDBF2F960FB6C5
:103E2000F894DEBF0FBECDBFCF91DF911F910F91F0
:103E3000FF90EF90DF90CF900895EF92FF920F9355
:103E40001F93DF93CF9300D000D000D0CDB7DEB763
:103E5000F82E062F0E94CC1CE82E0E94371C182F2B
:103E6000882399F1013069F0EE2079F180E10E9418
:103E7000C4121150E12FF0E0EE5FFE4F90819817D1
:103E800021F566E0F69EB0011124615B7F4FCE0103
:103E9000019646E050E024E432E10E94D9A9EF2DDA
:103EA000F0E0E259FE4F8081813019F0002329F0C3
:103EB0000CC0013011F400937F018E2DBE016F5FA5
:103EC0007F4F0E94C91D81E101C082E126960FB695
:103ED000F894DEBF0FBECDBFCF91DF911F910F9140
:103EE000FF90EF900895AC01DC010D900020E9F700
:103EF0001197A81BB90B20E030E090E006C0E40F5A
:103F0000F51F8081280F311D9F5FE92FF0E0EA1730
:103F1000FB07A8F3C9016FEF70E00E94F2AC8823A1
:103F200009F48FEF0895FF920F931F93DF93CF93C0
:103F3000CDB7DEB72A970FB6F894DEBF0FBECDBF60
:103F4000F82E00D000D08E010F5F1F4FEDB7FEB7E7
:103F50001283018382E493E0948383830E9419AAED
:103F6000D8010D900020E9F71197A01BB10B90E04C
:103F70000F900F900F900F90980108C0E20FF31F61
:103F800080818F1511F481E007C09F5FE92FF0E079
:103F9000EA17FB0798F380E02A960FB6F894DEBF85
:103FA0000FBECDBFCF91DF911F910F91FF9008956C
:103FB0000F931F93CF93DF93AC01FB01019000207F
:103FC000E9F731971E2F161BFC0101900020E9F73D
:103FD00031970E2F081BDB0160E018C09C91FA019D
:103FE0008081981789F4ED0120E030E009C0FA01E2
:103FF000E20FF31F908189912F5F3F4F981721F4B3
:104000002017A8F3862F05C06F5F1196611730F354
:10401000812F90E0DF91CF911F910F9108957F92B2
:104020008F929F92AF92BF92CF92DF92EF92FF92C8
:104030000F931F93CF93DF935C016B014A01EC0157
:1040400009900020E9F72197C81BD90BCB32D10585
:1040500010F0CAE2D0E0F401008111817601E00E97
:10406000F11E8AE00E94EF18782EF70180839801F4
:104070002F5F3F4FD70190E007C0EA0DFB1D808105
:104080008C932F5F3F4F9F5FE92FF0E01196EC1765
:10409000FD0798F3622FCA32D10591F0F601E20FC5
:1040A000F31F4AE250E04C1B5D0B70E203C07193BA
:1040B0002F5F3F4F822F861B90E084179507B8F340
:1040C000F601E20FF31F7082C9010196C80ED91ED6
:1040D0002DE0F60120830196F40191838083DF9126
:1040E000CF911F910F91FF90EF90DF90CF90BF90F5
:1040F000AF909F908F907F900895382FAB018150A3
:10410000863068F5FB0101900020E9F73197E61B46
:10411000F70B7E2FEE2311F420E014C080E090E036
:10412000632F605DFA01E80FF91FE0813A3010F06B
:1041300020E301C0262FE21791F0282F2F5F019670
:10414000871780F3622F70E03A3010F080E302C0EE
:10415000832F805DFA01E60FF71F80831182089597
:10416000DC010D900020E9F71197A81BB90B20E0A6
:1041700030E006C0FC01E20FF31F10822F5F3F4FBB
:104180002A173B07B8F308956F927F928F929F9200
:10419000BF92CF92DF92EF92FF920F931F93DF9324
:1041A000CF93CDB7DEB764970FB6F894DEBF0FBEDE
:1041B000CDBF7C016A01BB2430E0062F10E0005324
:1041C00010403E010894611C711C72E0872E912CF6
:1041D0008C0E9D1E24C01197A41BB50BAE0DBF1DE8
:1041E0008C9190E0C097BC01609FC001619F900DD1
:1041F000709F900D1124232F280F822F6AE00E94B8
:10420000D9AC382FF301E40FF51F822F0E94D9ACEF
:10421000905D9083480D591DFA011082B3944B2D87
:1042200050E0D7010D900020E9F71197AE19BF09B2
:104230004A175B0780F2332389F0FE013196DF01D4
:104240000D900020E9F71197AE1BB0E0EA0FFB1FBD
:10425000305D3083AC0FBD1F12961C92DE011196AB
:10426000FD0101900020E9F731979E2F9A1BA90FBD
:10427000B11DF60102C08C9181931197AC17BD0757
:10428000D1F7C90ED11CF601108264960FB6F894CE
:10429000DEBF0FBECDBFCF91DF911F910F91FF9079
:1042A000EF90DF90CF90BF909F908F907F906F9016
:1042B0000895AC01DC010D900020E9F71197A81BCF
:1042C000B90B20E00AC0E40FF51F8081922F9F5F99
:1042D0008D3211F4892F0895292FE22FF0E0EA178B
:1042E000FB0788F380E008950E945921811181E045
:1042F0000895CF93DF93EC010E947421813019F56A
:10430000CE010E945921DE010D900020E9F711979E
:10431000AC1BB0E090E0A81BB90BAE01480F591FD1
:1043200020E030E00AC0BE01620F731FFA018191E4
:10433000AF01FB0180832F5F3F4F2A173B0798F3A4
:10434000AC0FBD1F1C92DF91CF910895AC01272FB8
:10435000FC0101900020E9F731977E2F781BA62FF2
:10436000B22FFD0101900020E9F73197E61BE71716
:1043700048F17E1749F5862F922F9C01D90120E044
:1043800030E01DC0FA01E20FF31FE081E053EA3094
:1043900010F060E001C06E2F8C9180538A3010F0D5
:1043A00090E001C0982F961768F0EA3008F0E0E03E
:1043B0008A3010F4E81740F02F5F3F4F119627170F
:1043C00008F302C081E0089580E00895FC010190A7
:1043D0000020E9F73197E81BDC01AE0FB11D90E03A
:1043E00020E006C08C91803309F42F5F9F5F119706
:1043F0009E17C0F380E02E1709F481E00895CF9353
:10440000DF9320E008C0FB01EC0FFD1FE491C80F13
:10441000D91FE8832F5FC22FD0E0FB01019000205D
:10442000E9F73197E61BF70BCE17DF0760F3DF9153
:10443000CF910895AC01DC010D900020E9F71197B0
:10444000A81BB90B90E020E030E009C0FA01E20FB0
:10445000F31F8081803209F09F5F2F5F3F4F2A1743
:104460003B07A0F380E0992309F481E008959C01C3
:10447000E199FECF8EE390E09FBB8EBBE09A5DB3E7
:1044800040E008C0F901E80FF91F8081851709F4A1
:1044900010824F5F842F90E0F90101900020E9F72E
:1044A0003197E21BF30B8E179F0760F30895CF92AD
:1044B000DF92EF92FF920F931F93DF93CF93CDB7CD
:1044C000DEB767970FB6F894DEBF0FBECDBF7C0195
:1044D000D62EC42E00D000D0ADB7BEB712969C9396
:1044E0008E93119781E593E014969C938E93139786
:1044F0000E9419AA0F900F900F900F908E01095FE4
:104500001F4FC80165E470E048E050E024E432E168
:104510000E94D9A9F8019E01215F3F4F9E2F901B59
:1045200080818D1511F4892F05C03196E217F307AC
:10453000A9F780E0B5E0BC1508F441C066E0869FAD
:10454000B00111246B5A7F4FCE01019646E050E036
:1045500024E432E10E94D9A98E01015F1F4FFE01C0
:10456000EC0DF11D608189E0689FB0011124645851
:104570007F4FC80149E050E024E432E10E94D9A90C
:10458000C8010E94372200D000D000D0EDB7FEB79E
:104590003196ADB7BEB71296FC92EE9211978EE4AB
:1045A00093E093838283158304830E9419AAEDB755
:1045B000FEB736960FB6F894FEBF0FBEEDBF6796F6
:1045C0000FB6F894DEBF0FBECDBFCF91DF911F9124
:1045D0000F91FF90EF90DF90CF900895DF93CF93EE
:1045E000CDB7DEB72B970FB6F894DEBF0FBECDBFA9
:1045F000982F9B01FB018085898381858A83878130
:104600008B8385818C8386818D8384818E8399239E
:1046100019F0913059F40FC0FB0180818F838181A3
:1046200088878281898783818A871B8690E0AE0193
:104630004F5F5F4F0FC0FB0182818F83838188872B
:104640001986F4CFF901EA0FFB1FA40FB51F8C9157
:1046500080839F5FA92FB0E0FA0101900020E9F765
:104660003197E41BF50BAE17BF0760F32B960FB61F
:10467000F894DEBF0FBECDBFCF91DF910895CF93E9
:10468000DF93EC01FC0101900020E9F73197E81B72
:10469000E230D0F188818033B9F54C2FDE0190E013
:1046A0008C91803369F411968C911197803311F4B9
:1046B0009F5F06C08E3211F08C3241F4915006C0DB
:1046C00011968A2F841B8E1758F301C09F5F9E1787
:1046D00010F09E2F915040E0892F90E02E2F30E077
:1046E000281B390BBE01680F791F09C0FE01EA0FB4
:1046F000FB1FA60FB71F8C91808311824F5FA42FE1
:10470000B0E0A217B30794F3DF91CF910895CF9350
:10471000DF93EC01FC0101900020E9F731976E2F47
:10472000681B6230E0F188818032C9F54C2FFE01B0
:1047300090E020E08081803241F48181803221F458
:10474000222319F49F5F01C021E031968E2F841B34
:10475000861780F3392F3F5F20E0432F50E009C0D8
:10476000FE01E80FF91FDF01A40FB51F8C918083B4
:104770002F5F822F90E0FE0101900020E9F7319732
:10478000EC1BFD0B8E179F0758F3862F831B05C06C
:10479000FE01E80FF11D10828F5F8617C8F3DF91CD
:1047A000CF9108950F931F93CF93DF93EC01DC011A
:1047B0000D900020E9F71197A81BB0E020E030E051
:1047C0006A2F70E08B0101501040A15016C0AB0160
:1047D000481B590BFE01E40FF51F32978081803290
:1047E00089F4FA013197EC0FFD1F2F5F3F4F808155
:1047F000803241F41082BA2FB21B822F90E08017D2
:1048000091072CF3FE01EB0FF11D8081803209F43A
:1048100010828881803209F41882FE010190002004
:10482000E9F73197EC1BFD0BEC0FFD1F1082DF91B8
:10483000CF911F910F9108951F931091560920E079
:1048400030E0F901E35EF64FD901A757B44F9596D2
:104850008C9180832F5F3F4F2431310591F7109267
:10486000310989E89BE00E94872320E030E0F901CC
:10487000EC5DFC4FD901A35EB64FDC968C91808332
:104880002F5F3F4F2832310591F710924C0384E29D
:1048900093E00E94D22320E030E0F901E55AFC4F7A
:1048A000D901AB54B64F8C9180832F5F3F4F293194
:1048B000310599F7109274038BE593E00E94D2239F
:1048C0008091CE098093E5021092E60220E030E06C
:1048D000F901E850F44FD901A153B64F8C91808370
:1048E0002F5F3F4F2D30310599F71092050C88EF5F
:1048F0009BE00E94872320E030E0F901E650F74F6B
:10490000D901A452B64F8C9180832F5F3F4F2A303C
:10491000310599F7109204098AEF98E00E94D2239A
:1049200020E030E0F901E758F84FD901AA51B64F1D
:104930008C9180832F5F3F4F2431310599F710927E
:104940008D0789E797E00E94D223812F8F521F9114
:10495000089520E030E006C0FC01E20FF31F108252
:104960002F5F3F4FFC0101900020E9F73197E81BD2
:10497000F90B2E173F0780F30895BF92CF92DF9275
:10498000EF92FF920F931F93DF93CF93CDB7DEB7D4
:104990006E970FB6F894DEBF0FBECDBF8C01FC0141
:1049A00001900020E9F731972E2F281B2617E0F5FC
:1049B0007E010894E11CF11CF701BE2C90E301C0BC
:1049C00091938E2F8B198617D8F3462F50E0CE0186
:1049D0000196FC01E40FF51F1082762F721B6C010B
:1049E00030E0241B350B0CC0E72FF0E0D601AE0FF2
:1049F000BF1FE00FF11FE20FF31F80818C937F5FD9
:104A0000761790F34C0D5D1DDA011C92F80104C07D
:104A1000D7018D917D0181938E2D8B198617C0F35F
:104A2000060F111DF80110826E960FB6F894DEBFC6
:104A30000FBECDBFCF91DF911F910F91FF90EF90EF
:104A4000DF90CF90BF9008950F931F93CF93DF9384
:104A5000182F062FEA01CA016DE00E94BD24812FA4
:104A60000E94371C482F882339F0415081E061E0D3
:104A7000202F8E010E94F61CDF91CF911F910F9184
:104A800008950F931F93CF93DF93182F062FEA01FA
:104A9000CA016BE00E94BD24812F0E94371C482F61
:104AA000882339F0415080E061E0202F8E010E9480
:104AB000F61CDF91CF911F910F910895EF92FF9215
:104AC0000F931F93082F7B01CB016AE00E94BD2446
:104AD00000D000D000D0EDB7FEB73196ADB7BEB76D
:104AE0001296FC92EE92119784E393E09383828373
:104AF00010E00F70107085E390E09C01029FC001F0
:104B0000039F900D129F900D11248C529A4F958304
:104B100084830E9419AA8DB79EB706960FB6F894A3
:104B20009EBF0FBE8DBF1F910F91FF90EF90089514
:104B3000EF92FF920F931F93082F7B01CB016AE046
:104B40000E94BD2400D000D000D0EDB7FEB7319652
:104B5000ADB7BEB71296FC92EE92119787E393E041
:104B60009383828310E00F70107085E390E09C01C6
:104B7000029FC001039F900D129F900D1124855339
:104B80009A4F958384830E9419AA8DB79EB7069683
:104B90000FB6F8949EBF0FBE8DBF1F910F91FF906F
:104BA000EF900895AF92BF92CF92DF92EF92FF9273
:104BB0000F931F93DF93CF93CDB7DEB765970FB6F3
:104BC000F894DEBF0FBECDBFD82EC62EB42EA22EB7
:104BD000D8010D900020E9F71197A01BB10BE7E079
:104BE000EE2EF12CEC0EFD1EAD30B10558F500D0C7
:104BF00000D000D0EDB7FEB73196ADB7BEB7129674
:104C0000FC92EE92119789E095E09383828315835D
:104C100004830E9419AAF70101900020E9F7319757
:104C2000EE19FF096DB77EB76A5F7F4F0FB6F89434
:104C30007EBF0FBE6DBF3C97A0F4C7016CE00E9421
:104C4000BD240FC08A2F8C50F801E80FF11DD70149
:104C50009E012D5E3F4F81918D93A217B307D9F727
:104C60001B8A0B2D0F701A2D1150163008F010E012
:104C7000CE0107967E010894E11CF11CB7010E9449
:104C80007D18DD20D9F484E2089FC00111244C2D49
:104C900050E020E231E0D9014A9F90014B9F300D56
:104CA0005A9F300D1124820F931F26E0129F90010E
:104CB0001124820F931F8D539C4F1DC0B1E0DB1652
:104CC00009F584E2089FC00111244C2D50E020E238
:104CD00031E0B901469F9001479F300D569F300D3E
:104CE0001124820F931F26E0129F90011124820F3E
:104CF000931F8D5F994FB70146E050E02CE432E1FD
:104D00000E94F5A965960FB6F894DEBF0FBECDBF21
:104D1000CF91DF911F910F91FF90EF90DF90CF9097
:104D2000BF90AF9008954F925F927F928F929F9223
:104D3000AF92BF92CF92DF92EF92FF920F931F93A9
:104D4000DF93CF93CDB7DEB72F970FB6F894DEBFC2
:104D50000FBECDBF772473944E010894811C911C23
:104D6000F0E14F2E512C4C0E5D1E872D0E94371CFA
:104D7000882391F1A82EAA94BB24B3942AC0F701EA
:104D800011927F01E415F505D1F780E061E04A2D2D
:104D90002B2D84010E94F61C80E060E04A2D2B2D13
:104DA0000E94D225F60111926F01EE15FF05D1F791
:104DB00081E061E04A2D2B2D84010E94F61C81E0E8
:104DC00060E04A2D2B2D0E94D225B394F7E0BF1648
:104DD00019F064017401D3CF739481E1781629F638
:104DE0002F960FB6F894DEBF0FBECDBFCF91DF91E7
:104DF0001F910F91FF90EF90DF90CF90BF90AF90F9
:104E00009F908F907F905F904F900895AF92BF9248
:104E1000CF92DF92EF92FF920F931F93DF93CF9386
:104E2000CDB7DEB729970FB6F894DEBF0FBECDBF62
:104E3000A82E00D000D06E010894C11CD11CEDB783
:104E4000FEB7D282C1828CE095E0948383830E9476
:104E500019AAEE24E3940F900F900F900F908E2DCF
:104E60000E94371C8823A9F0B82EBA94FF24F3942B
:104E700080E06A2D4B2D2F2D86010E94D22581E0E6
:104E80006A2D4B2D2F2D0E94D225F394F7E0FF16AB
:104E900079F7E39481E1E81611F729960FB6F894B3
:104EA000DEBF0FBECDBFCF91DF911F910F91FF905D
:104EB000EF90DF90CF90BF90AF900895CF93DF93A6
:104EC000EC01DC010D900020E9F71197A81BB90B4C
:104ED000A61760F48A2F90E3FE01E80FF11D90837E
:104EE0008F5F8617C8F3C60FD11D1882DF91CF914F
:104EF00008953F924F925F926F927F928F929F920E
:104F0000AF92BF92CF92DF92EF92FF920F931F93D7
:104F1000DF93CF93CDB7DEB7C855D0400FB6F89426
:104F2000DEBF0FBECDBF682E67967FAF6EAF6797AF
:104F300069965FAF4EAF69975901FE013196CE0178
:104F400045961192E817F907E1F7CE01899611927B
:104F5000E817F907E1F7FE01FD96CF01449611929B
:104F6000E817F907E1F700D000D000D0EDB7FEB7A1
:104F700031968E010F5F1F4FADB7BEB712961C93CF
:104F80000E93119786E095E09383828367962EAD0A
:104F90003FAD6797358324830E9419AAEDB7FEB70A
:104FA0003196CE014596ADB7BEB712969C938E93BF
:104FB000119783E095E09383828369962EAD3FAD90
:104FC0006997358324830E9419AA8DB79EB70696E8
:104FD0000FB6F8949EBF0FBE8DBFC8010E9474210A
:104FE000813021F065961FAE659707C0C8010E9409
:104FF000792191E065969FAF65978E010B5E1F4FFB
:10500000C8010E947421813021F064961FAE64971C
:1050100007C0C8010E947921A1E06496AFAF6497F0
:10502000FE013196DF010D900020E9F7CD010197D7
:105030008E1B9F0BDE015596FD0101900020E9F7C4
:1050400031971E2F1A1B181708F4182F1F5F7E01A7
:105050000894E11CF11CC701612F0E94BD2495E159
:10506000C92ED12CCC0EDD1EC601612F0E94BD249D
:10507000F70101900020E9F731977E2E7E18F601A6
:1050800001900020E9F731979E2E9C18C601B701C8
:105090000E94A621813011F080E042C000D000D0F3
:1050A00000D0EDB7FEB731968E01075D1F4FADB74B
:1050B000BEB712961C930E93119780E095E09383F0
:1050C0008283F582E4820E9419AAEDB7FEB7319679
:1050D000ADB7BEB71296FC92EE9211978DEF94E0A9
:1050E00093838283D582C4820E9419AAEDB7FEB74A
:1050F0003196ADB7BEB71296DC92CE9211978AEF79
:1051000094E093838283158304830E9419AA81E02B
:10511000EDB7FEB736960FB6F894FEBF0FBEEDBFE3
:10512000662039F5813099F46596FFAD6597F130C9
:1051300039F464962FAD6497213009F09EC142C0C6
:1051400064963FAD6497313009F08EC192C1659687
:105150008FAD6597813039F464969FAD6497913037
:1051600009F08BC181C16496AFAD6497A13051F550
:1051700080C1B1E06B1631F5813091F46596EFADE9
:105180006597E13031F46496FFAD6497F130D1F466
:1051900074C164962FAD6497213009F06AC164C16F
:1051A00065963FAD6597313039F464968FAD64975D
:1051B000813009F059C161C164969FAD6497913007
:1051C00009F057C162961FAE6297E72CFF24670172
:1051D0000894C108D108AE01435C5F4F4C0D5D1DC2
:1051E000CE0101968C010C0D1D1DBE01690D711DB6
:1051F0006C5E7F4F99242C0189E3882E9AE052C07F
:10520000D8018C9180538A3010F020E001C0282F03
:10521000FB01308130533A3010F4231740F08A30CC
:1052200008F080E03A3008F030E0831B2DC08A306F
:1052300010F4831780F5292D0AC0F601E21BF1094D
:10524000D201AE0FBF1F8C91803329F48C922F5F57
:10525000271598F310C0282F20532A3008F020E09B
:10526000822F81508A3010F080E302C0822F815D4E
:10527000E40DF51D8083F801208120532A3008F0C9
:1052800020E0892F831B820F8A3010F080E301C059
:10529000805DDA018C93939441505040015010404E
:1052A00061507040971408F4ABCF8E01035C1F4F20
:1052B000E00EF11EF7011082C8010E943F23F801A1
:1052C00001900020E9F731973E2F301BD80120E0F4
:1052D00090E04DE213C0222351F46296FFAD629735
:1052E000F13029F4F501E90FF11D40839F5FF501CD
:1052F000E90FF11D8D9180839F5F2F5F231758F376
:10530000F501E90FF11D1082A0C0BDE3EB2EF12CD9
:10531000EC0EFD1EAE01490D511D4C5E5F4F072D79
:1053200010E04801089481089108CE0101966C01B3
:10533000C80CD91C30E020E02C01A0E33A2E47C075
:10534000D6019C9190539A3008F090E0FA01808148
:1053500080538A3008F080E0890F8A3018F4805D2D
:10536000D70128C06AE00E94D9AC9A3010F090E3CF
:1053700001C0905DF7019083832F0EC0D401A81B5C
:10538000B109F201EA0FFB1F908190539A3008F0A7
:1053900079C0993029F430828F5F871578F30DC07A
:1053A000892F8F5F8A3010F080E302C0892F8F5CD5
:1053B000A40DB51D8C9320E001C021E03F5F08944F
:1053C000E11CF11C415050400894C108D108371528
:1053D00008F4B6CF205DDE01DD96FD01E00FF11F80
:1053E00020830C0F1D1FF80116AEFD010190002057
:1053F000E9F731975E2F5A1B252F30E021503040BE
:105400002A0F3B1F40E090E06DE216C0442351F4A8
:105410006396FFAD6397F13029F4F501E90FF11DB3
:1054200060839F5FF501E90FF11DD9018C918083A5
:105430009F5F4F5F21503040451740F3F501E90F62
:10544000F11D1082C5010E943F23B2E06B16E1F40A
:1054500067968EAD9FAD679769966EAD7FAD699784
:10546000A5010E945D2A10C0E1E06296EFAF62974D
:10547000ACCE63961FAE639748CFF1E06396FFAF63
:10548000639743CF90E08CCFC85ADF4F0FB6F894A4
:10549000DEBF0FBECDBFCF91DF911F910F91FF9067
:1054A000EF90DF90CF90BF90AF909F908F907F90C4
:1054B0006F905F904F903F9008954F925F926F92E0
:1054C0007F928F929F92AF92BF92CF92DF92EF9294
:1054D000FF920F931F93DF93CF93CDB7DEB7A897BB
:1054E0000FB6F894DEBF0FBECDBF3C016B012A01A1
:1054F0000E943F23C6010E943F23D6010D90002049
:10550000E9F711978A2E8C1800D000D08E010F5F1A
:105510001F4FADB7BEB712961C930E93119788EF2D
:1055200094E014969C938E9313970E9419AA25E1F8
:10553000E22EF12CEC0EFD1EEDB7FEB7F282E182F9
:1055400086EF94E0948383830E9419AABB240F9072
:105550000F900F900F90A02E912E082D10E001506B
:1055600010401FC0F801E81BF90BEC0DFD1DC30135
:105570006081A7010E94C420F70101900020E9F793
:105580003197EE19FF096B2D6E0FC7010E945E2740
:1055900081E06A2D792DA7012A2D392D0E947927C6
:1055A000B394F60101900020E9F73197EC19FD0959
:1055B0008B2D90E08E179F07A8F200D000D000D06E
:1055C000EDB7FEB73196ADB7BEB712965C924E926C
:1055D000119783EF94E093838283A48295820E9443
:1055E00019AAEDB7FEB736960FB6F894FEBF0FBEF8
:1055F000EDBFA8960FB6F894DEBF0FBECDBFCF911A
:10560000DF911F910F91FF90EF90DF90CF90BF90AF
:10561000AF909F908F907F906F905F904F90089584
:10562000CF92DF92EF92FF920F931F93DF93CF936E
:10563000CDB7DEB764970FB6F894DEBF0FBECDBF0F
:10564000D82EC92EA82FB92FFD0101900020E9F70F
:1056500031974E2F481B20E030E07E010894E11C7A
:10566000F11C042F10E00EC0F701E20FF31FC80178
:10567000821B930B642F70E00E9406AD605D608317
:105680002F5F3F4F241780F30E0D1F1DF80110826E
:1056900081E0B7014D2D5C2D2D2D3C2D0E947927E9
:1056A00064960FB6F894DEBF0FBECDBFCF91DF91E9
:1056B0001F910F91FF90EF90DF90CF900895BF92D0
:1056C000CF92DF92EF92FF920F931F93DF93CF93CE
:1056D000CDB7DEB7E2970FB6F894DEBF0FBECDBFF1
:1056E0008C01FC0101900020E9F731972E2F281B37
:1056F0002617E0F57E010894E11CF11CF701BE2C91
:1057000090E201C091938E2F8B198617D8F3462F04
:1057100050E0CE010196FC01E40FF51F1082762FB8
:10572000721B6C0130E0241B350B0CC0E72FF0E03E
:10573000D601AE0FBF1FE00FF11FE20FF31F8081F4
:105740008C937F5F761790F34C0D5D1DDA011C92F0
:10575000F80104C0D7018D917D0181938E2D8B19A5
:105760008617C0F3060F111DF8011082E2960FB6DE
:10577000F894DEBF0FBECDBFCF91DF911F910F9187
:10578000FF90EF90DF90CF90BF900895CF93DF937D
:10579000EC01DC010D900020E9F71197A81BB90B73
:1057A000A61760F48A2F90E2FE01E80FF11D9083A6
:1057B0008F5F8617C8F3C60FD11D1882DF91CF9176
:1057C00008950F931F93DF93CF93CDB7DEB72C9738
:1057D0000FB6F894DEBF0FBECDBF482F8B01FE0180
:1057E00031969E01235F3F4F1192E217F307E1F7D5
:1057F000CE010196442369F06DE0469FB00111246B
:1058000062557F4F4AE050E024E432E10E94D9A97A
:1058100014C000D000D0ADB7BEB712969C938E9343
:1058200011978AE493E014969C938E9313970E94A9
:1058300019AA0F900F900F900F90DE011196FD01A5
:1058400001900020E9F73197EA1BEB3008F0EAE01D
:10585000AE014F5F5F4F9801BA0106C0DB018D9129
:10586000BD01D9018D939D01862F841B8E17B0F346
:10587000C8018E0F911DFC011082C8016AE00E94D0
:10588000C62B2C960FB6F894DEBF0FBECDBFCF91BE
:10589000DF911F910F9108952F923F924F925F9247
:1058A0006F927F928F929F92AF92BF92CF92DF9230
:1058B000EF92FF920F931F93DF93CF93CDB7DEB795
:1058C000C05BD0400FB6F894DEBF0FBECDBFE82E50
:1058D000FE013796CE0146961192E817F907E1F7D7
:1058E000CE0185961192E817F907E1F7CE01C4962B
:1058F0001192E817F907E1F7CF013F010F961192D6
:10590000E817F907E1F78E2D0E94371C96E0899F72
:10591000B0011124615B7F4F8E010F5F1F4FC801E3
:1059200046E050E024E432E10E94D9A92E2C332431
:1059300091012F70307085E390E0289FF001299F3E
:10594000F00D389FF00D1124E855FA4FF0804F2CE0
:105950005524040D151DD8018C916EE577E00E9449
:10596000E12B67E0862E912C8C0E9D1E8E2DB401AE
:105970000E94982556E1A52EB12CAC0EBD1E8E2D91
:10598000B5010E945E2545E2C42ED12CCC0EDD1E51
:105990008E2D6F2DA6010E9441258E2D6F2DA30106
:1059A0000E94242533E4E32EF12CEC0EFD1EC701EA
:1059B0000E94FE19EDB7FEB774970FB6F894FEBFBC
:1059C0000FBEEDBF31968E01095A1F4FADB7BEB75E
:1059D00012961C930E93119789E093E09383828330
:1059E00035822482578246828EE597E091878087B0
:1059F000F386E28695868486B786A686D18AC08A93
:105A0000628A738A0E9419AAADB7BEB754960FB6C0
:105A1000F894BEBF0FBEADBFC8010E94731FE82E31
:105A200081E060E0A8010E9458A8F801C801F92EA1
:105A3000CE018F549F4F1192E817F907E1F700D07C
:105A400000D000D0EDB7FEB73196ADB7BEB7119616
:105A50000C9311971296FC9286E093E093838283D5
:105A6000E48215820E9419AAEDB7FEB736960FB6EA
:105A7000F894FEBF0FBEEDBF81E061E0402F5F2DC7
:105A80000E9458A8C055DF4F0FB6F894DEBF0FBE76
:105A9000CDBFCF91DF911F910F91FF90EF90DF90DD
:105AA000CF90BF90AF909F908F907F906F905F90BE
:105AB0004F903F902F9008958091BF01833061F106
:105AC000843028F4813081F08230C0F409C0853000
:105AD00009F443C08530A0F1863009F058C045C0B4
