:100000000C94F6120C9415130C9415130C941513F0
:100010000C9415130C9415130C9415130C941513C0
:100020000C9415130C9415130C9415130C941513B0
:100030000C94D2130C9415130C9415130C941513E3
:100040000C9415130C9481960C945C140C94151359
:100050000C9415130C9415130C9415130C94151380
:100060000C9415130C9415130C9415130C94151370
:100070000C9415130C9415130C9452930C941513A3
:100080000C9415130C9415130C9415135B426142D8
:1000900065427C4296429A42C542DF42E542ED42C9
:1000A000F042F342F642F942FC4200430343084364
:1000B0000F43D451D851F4519855985598559855A7
:1000C00037529855575298557452F95252537553A6
:1000D0001A5298550C538B53C353DB530B5418547B
:1000E00003551355595578558A5590559455005DCB
:1000F0001A5D2C5D5F5D8F5DA55DE05D185E5A5EEB
:10010000625E7A5F865FBD5FFB5F12602C60786025
:10011000755D325ED75FFE5D7A5EC35EDF5EF95E5F
:10012000425F605F267967797379B479C679D67949
:10013000F979A47AAE7A7A81107B207C757CBA7CBE
:100140002D7DBD7DE47DA77ED27E8B7FA47F9480B4
:100150001B805D802D815B817A819A801C815F810B
:1001600065811E82348239826E829E82E38201839F
:1001700021835B83BE83D3878482FC87F188A08838
:10018000D78825890B893C895589678916886988AC
:100190008688CF83EB8310841D8439844E847684D3
:1001A0008B84B384D384048511856A85E885FB85B7
:1001B000278627860E8621862A8645865886638668
:1001C00078868D86AD86D186E686FB861087258764
:1001D0003A874F87648771878687A7871B9C379CE0
:1001E0003B9D699D929D059E139E1A9E569E7D9EE7
:1001F000C09ECA9E899ED09EEA9EDE9EE69E479C39
:10020000D79CF99C059D179D279D359D359D6C9F1D
:100210006F9F04A013A044A052A07EA023A030A0F2
:100220003AA088A095A0A0A0A3A0A6A0A9A0ACA039
:10023000AFA0B2A0B5A0D7A0C5A0B8A0D0A0EE9F97
:10024000496E697469616C697A652E2E2E2000579B
:1002500061746368446F670042726F776E4F7574A4
:100260000045787465726E616C00506F7765724FEF
:100270006E0001060206010D020D011402140108B0
:1002800002080308040801130213020304020F0FFB
:10029000010100000000010A020A030A020403032C
:1002A0000303030403044E2F410047696C6261722B
:1002B000636F005761796E65204441525400546168
:1002C0007473756E6F004C4700A602AA02B302BE9B
:1002D00002C60220202020202020202020202020B4
:1002E000202020202020202020202020202020200E
:1002F000202020202020202020202000202020201E
:10030000202053656D6F67612053656C616D61746A
:100310002053616D7061692054756A75616E20208B
:1003200020202020002020202020202020202020ED
:100330002053656C616D617420204A616C616E2090
:1003400020202020202020202020202020002020CD
:100350002020202020202020202020546572696D3C
:1003600061204B61736968202020202020202020FC
:10037000202020202020002020202020202020209D
:10038000202020202020202020202020202020206D
:10039000202020202020202020202020202020007D
:1003A000202020202020202020202020202020204D
:1003B000202020202020202020202020202020203D
:1003C000202020202020202000202020202020204D
:1003D000202020202020202020202020202020201D
:1003E000202020202020202020202020202020200D
:1003F00020002020202020202020202020204A61B2
:100400006B617274612053656C6174616E20202091
:1004100020202020202020202020002020202020FC
:100420002020204A4C2E205253204661746D617763
:10043000617469204E6F2E35352020202020202029
:10044000202020002020202050542E2048414E49BA
:100450004E444F204155544F4D4154494F4E205327
:100460004F4C5554494F4E532020202000303030FF
:100470003030300042524900424E49004D616E64B6
:10048000697269004243410044696573656C2020CC
:100490000042696F536F6C722000536F6C61722061
:1004A0002020005072656D69756D20005065727472
:1004B000616D617800506572742B20202000363504
:1004C000303000343530300036353030003435309F
:1004D00030003732353000363530300020200025EE
:1004E000640054252E3264252E326425732573252D
:1004F000732573257325733A00323025732F2573C6
:100500002F25732025733A25733A25730025730030
:100510002573002563252E32643A0043545352500C
:10052000003A004E2F41002573000025642E2573EC
:10053000257325730025642E257325732573257374
:10054000257300544F54414C202573257300544F9C
:1005500054414C202573257325732573002573257D
:10056000730025732573257325730025732D2D2D99
:100570002D2D2D2D2D2D2D2D202020202020202013
:1005800020202020202020200025732D2D2D2D2DF2
:100590002D2D2D2D2D2D2020202D2D2D2D2D2D2DB2
:1005A0002D2D2D2D2D2D004177616C203A257325A1
:1005B00073004177616C203A257325732573257389
:1005C00000416B6869723A2573257300416B686955
:1005D000723A2573257325732573005025642E25E3
:1005E00064202D20257320005025642E2564202DA5
:1005F0002025732025732025730048617267613AB6
:100600002052702E2573004E2F410050554D502D15
:1006100050524F44554354202020564F4C554D4581
:10062000284C29202020202020202020202020208D
:10063000200050554D502D50524F445543542020CA
:1006400020564F4C554D45284C29202020205255EE
:10065000504941482852502900416B686972205323
:1006600068696674203A20257320004177616C2008
:10067000205368696674203A2025732000546572FF
:100680006D696E616C204944203A20252E32642029
:10069000202020202020202020202020202020205A
:1006A00020200020202020202020204C61706F720C
:1006B000616E2054757475702053686966743A20B1
:1006C0002573202020202020002564002573003081
:1006D0000030002573002573002573002573002565
:1006E00073002573003030303030303030004F70C0
:1006F000657261746F723A202573002D2D2D2D2D9A
:100700002D2D2D2D2D2D2D2D2D2D2D2D2D2D2D2D19
:100710002D2D2D2D2D2D2D2D2D2D2D2D002020205D
:1007200020202020202020202020202020202020C9
:1007300020202020202020202020202020202020B9
:100740000020202020202020202020202020445570
:10075000504C494341544520434F505920202020BC
:10076000202020200020202020204F7065726174FE
:100770006F723A20257300202020202D2D2D2D2D45
:100780002D2D2D2D2D2D2D2D2D2D2D2D2D2D2D2D99
:100790002D2D2D2D2D2D2D2D2D00202020202053D1
:1007A000757263686172676520416D743A202573C4
:1007B00000202020202053757263686172676520D5
:1007C0004473633A20257300202020202D2D2D2DE9
:1007D0002D2D2D2D2D2D2D2D2D2D2D2D2D2D2D2D49
:1007E0002D2D2D2D2D2D2D2D2D2D002020202020A7
:1007F0004D6F6E746820436F6E732041203A205213
:10080000702E25730020202020204D6F6E746820EC
:10081000436F6E732056203A202573204C00202011
:10082000202020546F74616C2052656465656D20D2
:100830003A202573002020202020457870697279A5
:10084000202020202020203A202573002020202056
:10085000204375727220506F696E747320203A20A5
:1008600025730020202020205072657620506F696B
:100870006E747320203A202573002020202020470A
:1008800061696E20506F696E747320203A20257361
:10089000002020202020436F7270204E616D652063
:1008A0002020203A202573002020202020436F7232
:1008B000702049442020202020203A202573002049
:1008C000202020204361726420486F6C6465722090
:1008D000203A2025732000202020202043617264CC
:1008E0002049442020202020203A20257300202069
:1008F000202020202020204C4F59414C5459204981
:100900004E464F524D4154494F4E2020202020202A
:1009100000202020202D2D2D2D2D2D2D2D2D2D2D68
:100920002D2D2D2D2D2D2D2D2D2D2D2D2D2D2D2DF7
:100930002D2D2D00202020202E257300202020206A
:1009400054616E64612054616E67616E2020285F7F
:100950005F5F5F5F5F5F5F5F5F5F5F5F5F2900207B
:100960002020202020202020202020202020202087
:100970002020202020002020202020202020202097
:100980002020202020202020202020200020202087
:100990002020202020202020202020202020002077
:1009A0002000202020204170707220436F64653A3F
:1009B000202573002573202000202020204E616D0B
:1009C0006120202020203A20257300202020202094
:1009D00020202020202A2A2A2050554D50205445DE
:1009E0005354202A2A2A20202020202020002020A2
:1009F0002020566F7563686572204E6F3A2025730C
:100A000000202020204B61727475204944203A2038
:100A1000257300202020202D2D2D2D2D2D2D2D2D29
:100A20002D2D2D2D2D2D2D2D2D2D2D2D2D2D2D2DF6
:100A30002D2D2D2D2D002020202020204F646F6D86
:100A400065746572202020203A2025730020202024
:100A50002020204E6F2E506F6C6973692020203A41
:100A600020257300002020202020204A6D6C205279
:100A7000757069616820203A2052702E257300201D
:100A800020202020204A6D6C204C69746572202043
:100A9000203A202573204C000020202020202048D0
:100AA000617267612F4C20202020203A2052702E46
:100AB00025730020202020202050726F64756B2049
:100AC00020202020203A20257300202020202020D4
:100AD00050756C61752F506F6D7061203A205B25E9
:100AE000735D2D257300202020202D2D2D2D2D2DE3
:100AF0002D2D2D2D2D2D2D2D2D2D2D2D2D2D2D2D26
:100B00002D2D2D2D2D2D2D2D002020202020205766
:100B1000616B74753A2025732025732000202020F6
:100B200020202053686966743A20257320204E6F78
:100B30002E5472616E733A2025732000200020200D
:100B400020202020202020202020204455504C49C7
:100B50004341544520434F5059202020202020203D
:100B600020004572726F72204E6F20436F6E6E656B
:100B70006374696F6E0050726F7365730053656EB6
:100B8000642052657175657374005B2A5D43616E04
:100B900063656C2020205B235D456E746572005B8D
:100BA0002A5D4261636B20202020205B235D456E1F
:100BB000746572005B2A5D43616E63656C20205B27
:100BC000235D456E74657220004F646F6D657465BA
:100BD000723A5F2000506C6174204E6F3A2025738A
:100BE00020005B2A5D43616E63656C2020205B23DF
:100BF0005D456E746572005B2A5D4261636B202007
:100C00002020205B235D456E746572005B2A5D4386
:100C1000616E63656C20205B235D456E7465722098
:100C2000005F00496E70757420506C6174204E6FC7
:100C30003A20002329536176650034295465726D8A
:100C400049443A2564200025640025640023295383
:100C50006176650034295465726D49443A256420F3
:100C60000033294E6F746966203A20202020202A04
:100C70002945786974003229442F542020203A00F5
:100C800031294D6F6E6579203A00252E326400259A
:100C90006400252E326400256400342943757420D5
:100CA0003A20202A29457869740033294C6F676FF0
:100CB0003A202023295361766500322953697A65E9
:100CC0003A202036295370616365203A0031295457
:100CD0007970653A202035295363726F6C6C3A0045
:100CE0002A2943616E63656C20202020202023295F
:100CF000536176650054494D45203A2000444154E3
:100D000045203A20002564002564002A2945786999
:100D10007420202020202020202329536176650084
:100D200032294E323A202034294E343A20203629B6
:100D30004E363A0031294E313A202033294E333A8B
:100D4000202035294E353A0050726F647563742047
:100D5000464950252E326400436F6D706C65746592
:100D6000640043616E63656C20202020200049648C
:100D70005B25645D3D252E32642020005361766939
:100D80006E672E2E002D50756D7049442D00202069
:100D900020204E6F7420416C6C6F7765642020209A
:100DA00020200020204475706C69636174652050B8
:100DB000756D70494420200020202020202057619C
:100DC000726E696E67212020202020200025642E6D
:100DD00050252E3264207C2025642E50252E32642E
:100DE00000232953617665002A294261636B00253F
:100DF000642E50252E3264207C2025642E50252E12
:100E0000326400252E326400252E326400342934E9
:100E10003A2020203829383A2020202A294578698C
:100E200074003329333A2020203729373A202020F4
:100E3000232953617665003229323A202020362951
:100E4000363A003129313A2020203529353A005BE5
:100E50002A5D4578697420205B235D4368616E6775
:100E600065200025642E2573002D44697370656E1E
:100E7000736572204272616E642D002A294578697B
:100E80007400322950726F647563740031294944CB
:100E9000002A29457869740025642E50252E326475
:100EA000207C2025642E50252E32642000252E32F1
:100EB00064005B2A5D4578697400362E4163743A9C
:100EC000256400352E446C793A256400342E54692B
:100ED0006D506F6F6C3A256400332E5472795365F0
:100EE0006E643A256400322E6E4E6F50756D703A06
:100EF000256400312E4D617850756D703A2564007F
:100F00005B2A5D4261636B202020202000434F4D0F
:100F100025643A25640020202020202D426175643C
:100F2000726174652D2020202020005B2A5D4261C3
:100F3000636B20202020202000332E434F4D333A76
:100F400034383500332E434F4D333A323332003389
:100F50002E434F4D333A54544C00322E4261756447
:100F60007261746500312E4D6F64653A5374616E21
:100F700064616C6F6E6500312E4D6F64653A536C21
:100F800061766500312E4D6F64653A4E6F6E650077
:100F9000496E76616C6964204F6C64205061737394
:100FA000776F7264002020202020204552524F523B
:100FB00020202020202020202000496E76616C69AE
:100FC00064204E65772050617373776F72640020E0
:100FD00020202020204552524F5220202020202027
:100FE0002020200020202050617373776F726420CE
:100FF0005361766564202020002020202020436F4C
:101000006D706C65746564202020202020005B2AB0
:101010005D43616E63656C2020205B235D456E74CB
:101020006572005B2A5D4261636B20202020205B9B
:10103000235D456E746572005B2A5D43616E636576
:101040006C2020205B235D456E746572004E6577D1
:101050003A5F202020202020202020202020202037
:10106000200056616C69646174696E672E2E005BA6
:101070002A5D43616E63656C2020205B235D456EB5
:10108000746572005B2A5D4261636B202020202022
:101090005B235D456E746572005B2A5D43616E6320
:1010A000656C2020205B235D456E746572004E6583
:1010B000773A5F2020202020202020202020202080
:1010C0002020005B2A5D43616E63656C2020205BFD
:1010D000235D456E746572005B2A5D4261636B201F
:1010E000202020205B235D456E746572005B2A5DC5
:1010F00043616E63656C2020205B235D456E7465E3
:1011000072004E65773A5F2020202020202020208A
:10111000202020202020005B2A5D43616E63656CE7
:101120002020205B235D456E746572004F6C643A2D
:101130005F002D41646D696E6973747261746F72C2
:101140002D002D53757065727669736F722D005B7B
:101150002A5D4261636B202020202000322E4164F2
:101160006D696E6973747261746F7200312E53759C
:101170007065727669736F72002D4368616E676582
:101180002050617373776F72642D005361766564CC
:1011900020005B2A5D43616E63656C2020205B2329
:1011A0005D456E746572005B2A5D4261636B202051
:1011B0002020205B235D456E746572005B2A5D4EC6
:1011C0006F202020205B235D596573005361766595
:1011D0003F004E6577204F70657261746F723A0000
:1011E0002573005B2A5D43616E63656C2020205B84
:1011F000235D456E746572004E6577203A5F20204E
:10120000202020202020202020202020004E616D42
:10121000653A002573005B2A5D4261636B202020E4
:101220002020202020202000322E4368616E676538
:101230002050617373776F726400312E4368616E62
:101240006765204F70657261746F72002A29426170
:10125000636B00342E5370617261746F723A256350
:101260002000332E446563696D616C203A2563204C
:1012700000322E542E4D6F6E6579203A2564200081
:10128000312E542E566F6C756D653A256420005BC7
:101290002A5D4261636B20205B235D4E657874009C
:1012A000332E4D6F6E6579203A256400322E566FCD
:1012B0006C756D653A256400312E50726963652046
:1012C0003A25640034294272616E6420202A29453F
:1012D0007869740033294C6162656C2020003229E2
:1012E00050726F64756374003129494420202020B6
:1012F00020002A294261636B2020202023294F4BA4
:10130000202020202020004E65773A5F004F6C643B
:101310003A2573002A294261636B2020202023296B
:101320004F4B202020202020004E65773A5F00455B
:101330006469742050726F64756374204E616D65CA
:10134000202020004F6C643A2573002A29426163F3
:101350006B202020202020200032292573003129F5
:101360002573002A294261636B00256429257300D7
:101370002A294261636B2020202020202020202069
:101380002020202000332950756D70506F6F6C69DC
:101390006E6720202020202020003229537973748A
:1013A000656D2020202020202020202020200031BA
:1013B000294F70657261746F7220202020202020D8
:1013C0002020200034294461746574696D65202AE9
:1013D0002945786974202020003329446563696DAC
:1013E000616C202037294E65787420202000322936
:1013F00050756D7020202020203629486F7374208E
:10140000202000312950726F6475637420203529C3
:101410005072696E746572002E00256400202020D1
:10142000002E00256400202020005B2A5D63616E91
:1014300063656C20205B235D6E6578742020004E10
:1014400065773A2020205F2E2020202E2020202E7D
:10145000202020004F6C643A2025642E25642E2520
:10146000642E256400536572766572204950002E03
:1014700000256400202020002E002564002020206C
:10148000005B2A5D63616E63656C20205B235D6E8B
:101490006578742020004E65773A2020205F2E204A
:1014A00020202E2020202E202020004F6C643A2067
:1014B00025642E25642E25642E256400436C696501
:1014C0006E742049500025732573005B2A5D4E6FB2
:1014D000205B235D596573005361766520466F6F0D
:1014E0007465722564203F005B2A5D4E6F20205B8F
:1014F000235D59657300416C69676E2043656E74A6
:1015000065723F005B2A5D4261636B20205B235D57
:101510004F4B004564697420466F6F746572256493
:1015200020002A29457869742020202020202020AE
:1015300020202020202000202020202020202020CB
:101540002020202020202020202020003229466F2B
:101550006F7465723220203429466F6F746572345F
:10156000003129466F6F7465723120203329466F30
:101570006F746572330025732573005B2A5D4E6FAF
:10158000205B235D59657300536176652048656172
:101590006465722564203F005B2A5D4E6F20205BEE
:1015A000235D59657300416C69676E2043656E74F5
:1015B00065723F005B2A5D4261636B20205B235DA7
:1015C0004F4B004564697420486561646572256409
:1015D00020002A29457869742020202020202020FE
:1015E0002020202020200033294865616465723363
:1015F00020203629486561646572360032294865C5
:1016000061646572322020352948656164657235F0
:1016100000312948656164657231202034294865AC
:101620006164657234002A29457869740033295051
:10163000617373776F726420202020202020202087
:1016400020003229466F6F746572202020202020F0
:101650002020202020200031294865616465722007
:101660002020202020202020202020003229466F0A
:101670006F7465722020202035295365727665725B
:101680000031294865616465722020202034294397
:101690006C69656E7400536176696E672053686982
:1016A0006674446174612E2E20002573202573001A
:1016B0005072696E74696E6720546F74616C697AD8
:1016C00065720043616E63656C004572726F7220D3
:1016D0002D204E6F2050756D703A256420005761A3
:1016E00069742050756D703A2564200057616974E3
:1016F0002050756D703A25642000546F74616C69D8
:101700007A65722E2E002A294578697400332E4C92
:101710006F636B2050756D70202000322E436C6F0C
:10172000736520446179202000312E436C6F73650E
:1017300020536869667400342953657474696E6750
:10174000732020202A294578697420003329436CAE
:101750006F736544617920202020202020202020E4
:10176000003229436C6F73655368696674202020CA
:10177000202020202000312952655072696E74208B
:10178000202020202020202020200050617373770B
:101790006F726420526573746F72656400496E766F
:1017A000616C696420526573746F7265202000302B
:1017B00030303030003131313131005B2A5D4361EE
:1017C0006E63656C2020205B235D456E746572003E
:1017D0005B2A5D4261636B20202020205B235D45F6
:1017E0006E746572005B2A5D43616E63656C2020D8
:1017F000205B235D456E746572005F2020202020F1
:1018000020202020202020202020202020200045D3
:101810006E74657220526573746F726520436F64D5
:10182000652020004B6579205374616D703A2573F3
:101830002000496E76616C696420436F64652020E6
:1018400020202020202000002573002573005B2A23
:101850005D43616E63656C2020205B235D456E7483
:101860006572005B2A5D4261636B20202020205B53
:10187000235D456E74657200005B2A5D43616E6393
:10188000656C2020205B235D456E746572005F20CF
:101890002020202020202020202020202020202048
:1018A000202000456E7465722047654E695573208F
:1018B000436F646520202000496E76616C69642066
:1018C000436F646520202020202020200052657373
:1018D000657420436F6D706C65746500506C656154
:1018E000736520576169742E2E00526573657420EC
:1018F000454550524F4D005B2A5D43616E63656CF8
:101900002020205B235D456E746572005B2A5D427A
:1019100061636B20202020205B235D456E7465721F
:10192000005B2A5D43616E63656C2020205B235D54
:10193000456E746572005265736574436F64653AF1
:101940005F20202020202020202000536565642077
:10195000436F64653A2573002D4D61737465722081
:1019600052657365742D00003232333435363738A2
:10197000002573005B2A5D457869742020202020B3
:10198000202020202020202000322E4D61737465FD
:101990007220526573657420202020202000312E93
:1019A000526573746F72652050617373776F7264E0
:1019B0002020002D53797374656D2041646D696E2C
:1019C000204C6576656C2D0025732573002573000A
:1019D00025630032302573002573003432363436E7
:1019E0003336005B2A5D43616E63656C2020205BAB
:1019F000235D456E746572005B2A5D4261636B20F6
:101A0000202020205B235D456E746572005B2A5D9B
:101A100043616E63656C2020205B235D456E7465B9
:101A200072005F0050415353574F52443A00416394
:101A3000636573732044656E696564005443502F79
:101A40004950204572726F72004E6F205265706C63
:101A50007920202020002020202020202000506CF1
:101A60006561736520576169740025730050554D99
:101A700050205445535400257300257300257300EE
:101A800025730025730050726F736573002D4D4FE1
:101A90005020566F75636865722D0050726F7365C4
:101AA000730049443A2573005B2A5D4261636B20F1
:101AB0002020205B235D45786974004649502573DA
:101AC00000546170204B6172747520524649440085
:101AD0005B2A5D43616E63656C2020205B235D455E
:101AE0006E746572005B2A5D4261636B202020206A
:101AF000205B235D456E746572005B2A5D43616EF9
:101B000063656C2020205B235D456E746572005315
:101B100075726368617267653A2020205F25002531
:101B200073005B2A5D4261636B0025642E257300A0
:101B300053656C6563742042616E6B005B2A5D4384
:101B4000616E63656C2020205B235D456E74657259
:101B5000005B2A5D4261636B20202020205B235DB7
:101B6000456E746572005B2A5D43616E63656C202F
:101B700020205B235D456E746572005F004B6F64CF
:101B80006520566F7563686572005B2A5D4261630C
:101B90006B20202020202020202020202020003208
:101BA0002E42616E6B20202020342E50756D7054B3
:101BB00065737400312E4163636F756E7420332E2C
:101BC000566F7563686572200020202053656C6530
:101BD0006374205061796D656E742020200043523B
:101BE0004544495443415244005B2A5D4261636B62
:101BF0002020202020202020202020202000322EE5
:101C0000437265646974204361726420202020203F
:101C1000202000312E44656269742F466C61736820
:101C2000204361726420200053656C656374204317
:101C30006172642054797065004E6F20436F6E6E40
:101C4000656374696F6E005443502F4950204552AC
:101C5000524F522000507265737320416E79204BB1
:101C6000657900436D20566F6C3A257300434D2013
:101C7000416D743A257300506F696E74733A257321
:101C80000025733A25730050726F736573004944E1
:101C90003A2573005B2A5D4261636B202020205B44
:101CA000235D4578697400546170204B61727475CE
:101CB0002052464944005B2A5D4261636B2020202C
:101CC000205B235D4578697400546170204B61721C
:101CD00074752052464944004649503A2573005BCA
:101CE0002A5D4261636B20202020202020202020BC
:101CF00000322E4C6F79616C747920557064617478
:101D0000652000312E456E71756972792020202082
:101D1000202020200020204D656E75204C6F7961B9
:101D20006C7479202020004E6F20436F6E6E6563C7
:101D300074696F6E005443502F4950204552524FE2
:101D40005220005B2A5D4261636B202020205B23D0
:101D50005D457869740054617020537570657276C2
:101D600069736F7220436172640052655072696ECC
:101D700074204649503A25732000546964616B20F1
:101D8000416461205472616E73616B73692000411C
:101D900063636573732044656E69656400252E3244
:101DA00064002A29457869740023294F4B200020BC
:101DB00020202020004649503A5F0025642E5025FF
:101DC00073207C2025642E50257300303225732526
:101DD0007325732573257325732573003000202028
:101DE00020202020202020202020202020202020F3
:101DF00020200023257300252E32640040464950E0
:101E00003A002020202020202020202020202020D8
:101E1000202020202020005072696E74696E672097
:101E200046495025732000443A256420433A2563EF
:101E30002020002573202573004E6F2050756D7093
:101E400020466F756E64005443502F4950204572F0
:101E5000726F720050756D70466F756E6400436FDF
:101E60006E6E656374656420202020202020202071
:101E70002020002020202020202020202020202082
:101E8000202020202020002573005363616E205005
:101E9000756D7000436F6E6E656374202020202086
:101EA0002020202000436F6E6E65637400436F6EC8
:101EB0006E65637420202020202020202000434FC6
:101EC0004D25643A25692020202020202020202034
:101ED0002000496E697469616C697A6520434F4DD1
:101EE000202E2E2E000A47654E69557320546963D3
:101EF0006B6574205072696E746572200A20566595
:101F00007273696F6E3A25730A204C6173742055A1
:101F10007064617465202573200A2048616E696EC3
:101F2000646F204175746F6D6174696F6E20536FBB
:101F30006C7574696F6E73200A207777772E6861ED
:101F40006E696E646F67726F75702E636F6D0A0ACB
:101F50000A0A0A0A0A0A0032372F31322F32303188
:101F60003100322E3434004675656C696E6720404E
:101F70004649503A232564005472616E73616B7355
:101F8000692053656C657361690049443A20257383
:101F900000257300502573202573200046495020EA
:101FA000546964616B2053696170202020200041D6
:101FB0007574686F726973617369204265726861D4
:101FC00073696C00417574686F726973617369201D
:101FD000476167616C2020200020202020202020E5
:101FE0000020202020202020202020202020202011
:101FF0002020202020004D6F686F6E2054756E6782
:1020000067752020202020202020002573005025E7
:1020100073202573200043616E63656C20547261E8
:102020006E73616374696F6E2020005B2A5D42618C
:10203000636B205B305D455343205B235D4F4B005A
:10204000257320002046756C6C00257320202573B5
:10205000200049443A20257300257320005B2A5D47
:102060004261636B20205B235D4F4B202020004F9B
:10207000646F6D657465723A5F20202020202020F7
:102080000025732000202025732025732000507523
:102090006D702050726F6475637420416D6F756E42
:1020A000740050756D702050726F647563742056A3
:1020B0006F6C756D6500202054616E6B00202025CB
:1020C00073202573200050756D702050726F6475F9
:1020D000637420202046756C6C005B2A5D4261634E
:1020E0006B20205B235D4F4B202020202020005BB5
:1020F000325D416D6F756E743A5F20202020202084
:1021000020202000202020202020202020202020EF
:102110002020202020202020005025732D257320F2
:10212000005B2A5D4261636B20205B235D4F4B2087
:1021300020202020200020202020202020202020BF
:1021400020202020202020202020005B315D566FA1
:102150006C756D653A5F2020202020202020200013
:102160005025732D257320004100410056005B2A45
:102170005D4261636B202020205B235D4E65787497
:102180002020005B325D416D6F756E742020202031
:1021900020202020202020005B315D566F6C756D63
:1021A0006520202020202020202020200050257382
:1021B0002D257320002573005B2A5D4261636B202F
:1021C000202020202020202020202020002020202F
:1021D00020200025642E257300257300506F6D703C
:1021E000612D257300252E326400252E3264005B9C
:1021F0002A5D426174616C202020202020205B2316
:102200005D4F4B0025732025730025730025730057
:102210002573004B6172747520546572626174613C
:102220007320202020202000546964616B205465B5
:102230007264616674617220202020200044617401
:102240006120526563656976656420202020202026
:1022500020005443502F4950204572726F72202045
:102260002020202020200053656E64696E67204680
:1022700061696C656420202020202000202020201F
:102280002020200050726F7365730049443A257313
:10229000002020204C6F63616C204163636F756E7A
:1022A000742020200054696D656F757420202020F3
:1022B0002000252E32640046393638434646420017
:1022C00025730025732573257300257325732573E6
:1022D0002573002573257300257300257300463090
:1022E0003030303030304531323334353646464682
:1022F00046460025732573257300257325732564D1
:1023000000257356257300257325730025732573E7
:10231000002573257300257325730025732573002D
:1023200025730025733100252E325800252E336485
:102330002E252E33642E252E33642E252E33640055
:10234000252E33642E252E33642E252E33642E2520
:102350002E336400252E326400252E32640025734E
:1023600020257300322E34340047654E69557300C2
:10237000507265737320616E79206B65792E2E2003
:1023800020202020005B315D536C617665205B323C
:102390005D5374616E64616C6F6E65003E00252E46
:1023A000326400252E32640030003100256400259F
:1023B0002E3264002573002573002573003C003C19
:1023C0004F4B3E002564002564002564003C5361AA
:1023D00076696E673E004C656E6774683A256400E6
:1023E0002000256300257300252E3258252E3258F3
:1023F000252E3258252E32580020002563002573E3
:10240000003130002573002573002573002573000B
:10241000257300252E326400256400257300257382
:10242000002573002564004E2F41002564002573AC
:1024300000257300546964616B204164612054720B
:10244000616E73616B73692000546F74616C697A9B
:102450006572416C6C202020202000436C65617205
:10246000204461746120546F74616C697A657200F4
:10247000202020202020202020202020202020205C
:102480000052656164792E2E2E20202020202020ED
:1024900020202020200052656164792E2E2E2020DD
:1024A00020202020202020202020004E6F20526558
:1024B00073706F6E73652E2E202020202020200048
:1024C000506C6561736520576169742E2E20202041
:1024D000202020200052656164792E2E2E2020209D
:1024E00020202020202020202000546964616B20BF
:1024F000416461205472616E73616B736920005393
:102500006564616E6750726F73657300343335367E
:102510004133314100202020202020202020202075
:1025200020202020202020202000202020202020CB
:1025300020202020202020202020202020200020BB
:10254000202020202020202020202020202020208B
:10255000202020002020202020202020202020209B
:1025600020202020202020200030202E00000031BC
:102570002E2C3F21003261626300003364656600E7
:1025800000346768690000356A6B6C0000366D6E58
:102590006F000037707172730038747576000039FF
:1025A0007778797A0030202E0000003126402B2DDC
:1025B000003241424300003344454600003447485E
:1025C000490000354A4B4C0000364D4E4F00003755
:1025D0005051525300385455560000395758595AE3
:1025E00000020403030303030403040011241FBEB9
:1025F000CFEFD0E1DEBFCDBF12E0A0E0B1E0EEE46E
:10260000F6E501E00BBF02C007900D92AA33B107B7
:10261000D9F71DE0AAE3B2E001C01D92A83BB107C3
:10262000E1F70E94CD130C9425AB0C94000010929E
:102630009F0304B600FE32C014BE81E061E04AE6AA
:1026400052E00E9477A281E080939F038FEF8093F6
:10265000620080EF8093610081E00E945AA30E9493
:1026600049A3853399F582E090E00E94EE148EB57F
:1026700088608EBD87B7806187BF789488E09DE3CE
:102680009BBD8ABD8EB583608EBD03C00E94A8A28B
:102690001DC00E94FC9B8130E1F7F8CF04B601FE1B
:1026A00006C014BE81E061E041E652E00DC004B610
:1026B00002FE06C014BE81E061E048E552E004C0BD
:1026C00081E061E04FE452E00E9477A214BE8FEFF8
:1026D0009FEFA5E381509040A040E1F700C00000CB
:1026E00008950E948BA10E94A8A20E9453160E94E6
:1026F000171384E061E040E452E00E9477A28FEF7C
:102700009FE7ADE081509040A040E1F700C000009D
:102710008FEF8BBB8ABBDB9A88BB87BB9DE092BBEC
:1027200099E091BB809370009EE093B992B91B9A97
:102730001A988093620080EF8093610080E061E0EE
:102740000E94EFA3BB9AC39ABA98C29AB998C19A49
:102750008EB588608EBD87B7806187BF789488E02A
:102760009DE39BBD8ABD8EB583608EBD81E060E038
:102770000E9429190E94791981E080939103109297
:102780009203E5E6F0E080818D7F80830E94385CD3
:102790000E94C64B0E94A8A208950E9471130E9435
:1027A0005C9FFDCF1F920F920FB60F9211246F9373
:1027B0007F938F939F9380919103813081F48091D7
:1027C00092038F5F80939203863949F410929103AC
:1027D00010929203809165008260809365008091E1
:1027E0009B02882331F0815080939B02BD9AC5984B
:1027F00005C098B388B38095892B88BB80919902D6
:102800008F5F8093990280916E028F5F80936E023A
:1028100080916F028F5F80936F0265E00E947EA7B8
:10282000992371F483B194E0892783B98091700270
:102830008F5F80937002809195028F5F80939502E5
:1028400080916F026AE00E947EA7992391F48091A3
:102850009A028F5F80939A0280917702813049F4C7
:10286000809196039091970301969093970380939C
:10287000960380917D0D8F5F80937D0D9F918F9149
:102880007F916F910F900FBE0F901F90189586E16A
:1028900008958E3130F4E82FF0E0E45AFE4F808145
:1028A000089588E7089580938B066093CC0C81E0AF
:1028B00080936202089508951F920F920FB60F92AF
:1028C00011248F939F938CB190919102913021F0BC
:1028D00090919302913051F4833121F481E08093FF
:1028E000920204C0813111F4109292029F918F9153
:1028F0000F900FBE0F901F90189580E00895909153
:102900007E039936E9F490917D039334C9F4909154
:102910007C039F36A9F490917B039E3689F49091B5
:102920007A03963669F4909179039F3349F4909134
:1029300078039D3029F48A3019F492E090938F0245
:1029400090916302913071F4209167023091680296
:10295000F901EF5FF54F80832F5F3F4F309368029F
:102960002093670290917803943051F48034E9F415
:1029700021E020936302109268021092670215C052
:10298000953099F4803589F420916702309168027E
:1029900030936A02209369021092680210926702D3
:1029A0001092630221E020938F0220917D032093F7
:1029B0007E0320917C0320937D0320917B03209351
:1029C0007C0320917A0320937B0320917903209349
:1029D0007A0390937903809378030895BD9AC598FC
:1029E00080939B020895089584E061E045E853E2F6
:1029F0000E9477A281E090E00E94EE148FE493ECB5
:102A00000197F1F700C0000082E090E00E94EE1410
:102A100081E00E945AA30E9449A3982F91539230BB
:102A2000B8F7089584E061E040E753E20E9477A29E
:102A300085E090E00E94EE1481E00E945AA30E947B
:102A400049A380538A3020F080917B028130A1F726
:102A50000895CF92DF92EF92FF920F931F93DF932F
:102A6000CF93CDB7DEB7A8970FB6F894DEBF0FBEF1
:102A7000CDBF00D000D07E010894E11CF11CADB7A1
:102A8000BEB71296FC92EE92119789E693E21496E5
:102A90009C938E9313970E9416A88E01055F1F4F7B
:102AA000EDB7FEB71283018384E693E294838383B8
:102AB0000E9416A800D000D0EDB7FEB7319685E190
:102AC000C82ED12CCC0EDD1EADB7BEB71296DC924F
:102AD000CE9211978EE593E293838283F582E4820E
:102AE000178306830E9416A8EDB7FEB738960FB677
:102AF000F894FEBF0FBEEDBF0E94A8A281E061E086
:102B0000A6010E9447A2A8960FB6F894DEBF0FBE9A
:102B1000CDBFCF91DF911F910F91FF90EF90DF908C
:102B2000CF9008958F70089582958F7008958A30A0
:102B300010F4805D0895982F9A50963010F4895CB7
:102B4000089580E008951F93CF93DF93182FEB0132
:102B500082958F700E9497158883812F8F700E94B5
:102B6000971589831A82DF91CF911F910895FC01F7
:102B700090818BE0989F802D112480510895282FFB
:102B8000FB0164E60E947EA7382F892F6AE00E942D
:102B90007EA79CE9399F902D1124920F46EF849FC8
:102BA000402D1124940F243640F0305D3083805D39
:102BB0008183905D9283138208952B3018F4905D89
:102BC0009083118208950895089508950895CF93EC
:102BD000DF93EAE4FDE001900020E9F73197EA5441
:102BE000FD40ADE6BCE0F0E0EF01CA5CD24F80E012
:102BF00090E024E130E02E1B3F0B40E28217930768
:102C000014F44C9302C058815C930196119621965E
:102C10008431910599F71092810CDF91CF9108953D
:102C2000CF93DF93EAE4FDE001900020E9F73197CC
:102C3000EA54FD40E33108F0E2E1AAE4BDE0CDE66C
:102C4000DCE08E2F90E08A0F9B1F02C02D9129930C
:102C5000A817B907D9F7F0E0E359F34F1082DF91D5
:102C6000CF910895282F392FD901FB0180E003C0AF
:102C70009D9191938F5F8417D8F3640F711DFB01B1
:102C800010820895DC01A40FB11DFB0180E003C098
:102C90009D9191938F5F8217D8F3620F711DFB0195
:102CA00010820895089581E0809391031092920319
:102CB000E5E6F0E080818D7F80830895E4E5F9E02A
:102CC0009291918399E0E134F907D1F7809341091A
:102CD00090918003913051F420918103E22FF0E034
:102CE000E65BF24F80832F5F209381032091830363
:102CF000213041F4209142092E3721F48093820340
:102D000010928303913061F48E3751F4E091810386
:102D1000F0E0E75BF24F1082109280039093830300
:102D2000809142098D3009F098C08091410983302B
:102D300009F093C000D000D000D0EDB7FEB73196B7
:102D400088EA9DE0ADB7BEB712969C938E9311971B
:102D50008BEF93E293838283809182038483158235
:102D60000E9416A80F900F9087EB9CE0EDB7FEB77E
:102D70009283818389EF93E2948383830E9416A8D0
:102D80000F900F900F900F90809148098230C1F5FD
:102D9000809147098430A1F58DB79EB70C970FB687
:102DA000F8949EBF0FBE8DBFEDB7FEB731968AE493
:102DB0009DE0ADB7BEB712969C938E93119788EEA7
:102DC00093E2938382838091430984831582809167
:102DD00044098683178280914509808711868091F6
:102DE0004609828713860E9416A880E38093820397
:102DF000EDB7FEB73C960FB6F894FEBF0FBEEDBF21
:102E000080918203843301F500D000D000D0EDB76B
:102E1000FEB7319687EB9CE0ADB7BEB712969C9398
:102E20008E93119785EE93E2938382838AE49DE0EB
:102E3000958384830E9416A8EDB7FEB736960FB629
:102E4000F894FEBF0FBEEDBF80917702813019F07C
:102E500081E0809376020E9453168091420982306D
:102E600049F480914109803829F41092810381E06E
:102E70008093800380914C09823009F049C0809191
:102E800042098A3009F044C080914109833009F039
:102E90003FC0ECE4F9E0AAE4BDE082918D9389E0C3
:102EA000E434F807D1F71092520D1092820300D04B
:102EB00000D000D0EDB7FEB7319688EA9DE0ADB7FF
:102EC000BEB712969C938E93119782EE93E29383F2
:102ED0008283158214820E9416A80F900F9087EBB0
:102EE0009CE0EDB7FEB79283818380EE93E29483FA
:102EF00083830E9416A80F900F900F900F908091DF
:102F00007702813019F081E0809376020E94531697
:102F10000895CF92DF92EF92FF920F931F93DF936A
:102F2000CF93CDB7DEB762970FB6F894DEBF0FBE72
:102F3000CDBF00D000D07E010894E11CF11CADB7DC
:102F4000BEB71296FC92EE92119782E69FE114961C
:102F50009C938E9313970E9416A897E0C92ED12CAC
:102F6000CC0EDD1EEDB7FEB7D282C18287E59FE1B0
:102F7000948383830E9416A800D000D0EDB7FEB7DB
:102F8000319600ED14E0ADB7BEB712961C930E93C8
:102F9000119785EE9EE193838283F582E482D78246
:102FA000C6820E9416A8EDB7FEB738960FB6F89401
:102FB000FEBF0FBEEDBF80E061E0A8010E9403A646
:102FC000F80101900020E9F73197E01BF10BF09335
:102FD0006C02E0936B0280E38093940281E0809323
:102FE000870262960FB6F894DEBF0FBECDBFCF91B9
:102FF000DF911F910F91FF90EF90DF90CF90089598
:10300000843048F4E82FF0E0EE0FFF1FE658FE4F43
:103010002081318102C020E030E0C901089585E4BB
:1030200091E00E9466AA80933A028AE491E00E94AD
:1030300066AA80933B02089508950895CF92DF9287
:10304000EF92FF920F931F93DF93CF93CDB7DEB72D
:1030500064970FB6F894DEBF0FBECDBF4EE9E42EE5
:1030600044E0F42E38E5C32E39E0D32E80E0B701DA
:10307000A6010E94E4A48DB79EB708970FB6F894F6
:103080009EBF0FBE8DBFEDB7FEB731968E010F5FAD
:103090001F4FADB7BEB712961C930E93119783E3E3
:1030A0009EE193838283F582E482D782C6820E9466
:1030B00016A88DB79EB708960FB6F8949EBF0FBEA0
:1030C0008DBF82E061E0A8010E9447A264960FB61E
:1030D000F894DEBF0FBECDBFCF91DF911F910F914E
:1030E000FF90EF90DF90CF90089580916E0286312F
:1030F00038F084E061E04EE30E94C1A210926E02BB
:1031000080916E028A3051F484E061E04CE30E94C9
:10311000C1A280916E028F5F80936E0208950F931B
:103120001F93DF93CF93CDB7DEB764970FB6F894B4
:10313000DEBF0FBECDBF8DB79EB708970FB6F89410
:103140009EBF0FBE8DBFEDB7FEB731968E010F5FEC
:103150001F4FADB7BEB712961C930E93119787E21F
:103160009EE19383828315821482178216820E94C5
:1031700016A88DB79EB708960FB6F8949EBF0FBEDF
:103180008DBF81E061E0A8010E9447A28FE196ED2A
:10319000A3E181509040A040E1F700C0000080E032
:1031A00064960FB6F894DEBF0FBECDBFCF91DF910E
:1031B0001F910F910895DF93CF93CDB7DEB7289776
:1031C0000FB6F894DEBF0FBECDBF3DE2398390E667
:1031D0009A832CE72B839FE29C833D8334EA3E83D2
:1031E0002F83988790916102992331F44770FE01F3
:1031F000E40FF11D418107C090916102913029F4E3
:103200001092610248E50E94C1A228960FB6F89478
:10321000DEBF0FBECDBFCF91DF910895089580E04E
:103220000E9402A480E061E00E94EFA3BB9ABB9AD7
:10323000C39ABA98C29AB998C19A089581E060E099
:103240000E94EFA381E00E9402A4BB98C39ABA9A9D
:1032500008951F93DF93CF930F92CDB7DEB7182F4A
:1032600069830E941E1985E00E941DA4812F0E947F
:103270001DA46981862F0E941DA486E00E941DA4C2
:103280000E940F190F90CF91DF911F910895982FF1
:103290009150923098F4643048F4E62FF0E0EE0F4D
:1032A000FF1FE658FE4F4081518102C040E050E0D0
:1032B00060E070E0892F0E94D5A50895982F935063
:1032C0009230B0F4E62FEF70682F6295607F6E2B1E
:1032D00080915E02882349F086E080938B0660939C
:1032E000CC0C81E080936202089586E00E94291947
:1032F00008959F92AF92BF92CF92DF92EF92FF928A
:103300000F931F93DF93CF93CDB7DEB764970FB6BC
:10331000F894DEBF0FBECDBF83E061E042ED5EE119
:103320000E9477A200E010E06E010894C11CD11C3D
:103330007EEBA72E7EE1B72E01C08701C8018F5B0F
:103340009E4F0E9466AA982E843068F4E82FF0E021
:10335000EE0FFF1FE658FE4F8081918126E18B39E9
:10336000920721F005C080E090E002C085EB9FE26B
:1033700078010894E11CF11CADB7BEB718970FB6E1
:10338000F894BEBF0FBEADBFEDB7FEB73196129633
:10339000DC92CE921197B382A282F582E482978367
:1033A00086830E9416A82DB73EB7285F3F4F0FB601
:1033B000F8943EBF0FBE2DBF84E061E0A6010E94DD
:1033C00047A2802F8F5F692D0E94471910927002CB
:1033D00004C080917002823020F4809170028230AB
:1033E000C0F334E0E316F10409F0A7CF64960FB6FA
:1033F000F894DEBF0FBECDBFCF91DF911F910F912B
:10340000FF90EF90DF90CF90BF90AF909F90089586
:10341000DF93CF930F92CDB7DEB789830E941E1939
:1034200089810E941DA40E940F190F90CF91DF91F6
:10343000089586270895EF92FF920F931F93DF93CD
:10344000CF93CDB7DEB7EC970FB6F894DEBF0FBEC3
:10345000CDBF8DB79EB742970FB6F8949EBF0FBEF3
:103460008DBFEDB7FEB731968E010F5F1F4FADB721
:10347000BEB712961C930E9311978BEC9DE193832C
:1034800082838CE89DE0958384838DE998E097831F
:10349000868386E099E09187808782E896E093872B
:1034A00082878AE594E09587848787E99CE09787FF
:1034B00086878EE694E0918B808B0E9416A8EDB7EC
:1034C000FEB772960FB6F894FEBF0FBEEDBF82E056
:1034D0000E94081AE2E0FE2EEE240EC0200F311FDB
:1034E000D9018C91F8260E94081AE3EDF0E3319798
:1034F000F1F700C00000E394F80101900020E9F723
:103500003197E01BF10B2E2D30E02E173F0730F3E3
:1035100083E00E94081A83E08F250E94081AEC9627
:103520000FB6F894DEBF0FBECDBFCF91DF911F91D4
:103530000F91FF90EF900895089580914C03813092
:1035400049F0813028F0823019F1833069F528C0C4
:1035500081E023C00E94A8A281E061E046E759E033
:103560000E9447A282E061E047E858E00E9447A23B
:1035700083E061E040EF58E00E9447A284E061E010
:103580004FEC5CE00E9447A21092700282E005C0FE
:10359000809170028B3050F083E080934C0304C024
:1035A00010924C0381E0089580E0089580E0089532
:1035B000882319F08130D1F40AC0862F90E0840F5F
:1035C000911D6AE070E00E94ABA7860F0895662304
:1035D00009F461E0442309F441E0469FC00111244D
:1035E0006AE070E00E94ABA7482FE7CF80E0089523
:1035F000BF92CF92DF92EF92FF920F931F93DF93D0
:10360000CF93CDB7DEB760970FB6F894DEBF0FBE8D
:10361000CDBF8C0140E0BB246E010894C11CD11CBD
:1036200012C0F801EE0DFF1D9081905380E0692FCC
:10363000988B0E94D81AF601EE0DFF1D805D8083E5
:10364000B3949889492FEB2CFF24F80101900020B6
:10365000E9F73197E01BF10BEE16FF0610F3EC0DC6
:10366000FD1D108200D000D000D0EDB7FEB731961E
:10367000ADB7BEB712961C930E93119788ED99E1E2
:1036800093838283D582C4820E9416A88DB79EB789
:1036900006960FB6F8949EBF0FBE8DBF60960FB60C
:1036A000F894DEBF0FBECDBFCF91DF911F910F9178
:1036B000FF90EF90DF90CF90BF9008951F93DF931E
:1036C000CF93CDB7DEB764970FB6F894DEBF0FBEC9
:1036D000CDBF70E010E0AE014F5F5F4F0CC0280F10
:1036E000391FD9012C91261729F0FA01E70FF11D96
:1036F00020837F5F1F5F212F30E0FC0101900020BD
:10370000E9F73197E81BF90B2E173F0740F39E01AD
:103710002F5F3F4FF901E70FF11D108200D000D05D
:1037200000D0EDB7FEB73196ADB7BEB712969C93F9
:103730008E9311978DEC99E1938382833583248353
:103740000E9416A8EDB7FEB736960FB6F894FEBFE6
:103750000FBEEDBF64960FB6F894DEBF0FBECDBFAF
:10376000CF91DF911F9108959F92AF92BF92CF9218
:10377000DF92EF92FF920F931F93DF93CF93CDB71A
:10378000DEB72D970FB6F894DEBF0FBECDBFFC019C
:103790007B016A01858190E0C09728E030E0B901A3
:1037A0000E94ABA7D701A80FB11D8C918983868198
:1037B00090E0C097B9010E94ABA7D701A80FB11D37
:1037C0008C918A831B828DB79EB708970FB6F894A9
:1037D0009EBF0FBE8DBF2DB73EB72F5F3F4F8E01EF
:1037E0000C5F1F4FADB7BEB712961C930E93119787
:1037F00088EC99E1D90113969C938E9312971596B4
:10380000FC93EE931497CE01019617969C938E939A
:1038100016970E9416A8EDB7FEB738960FB6F89423
:10382000FEBF0FBEEDBF9924580113C0F501E00F94
:10383000F11F60816053F701E00FF11F4081405399
:1038400081E00E94D81AF601E00FF11F805D8083AD
:103850009394092D10E0F70101900020E9F73197CA
:10386000EE19FF090E171F0708F3EC0DFD1D10825E
:10387000C6010E94F81A2D960FB6F894DEBF0FBE4F
:10388000CDBFCF91DF911F910F91FF90EF90DF900F
:10389000CF90BF90AF909F900895CF92DF92FF920C
:1038A0000F931F93DF93CF930F92CDB7DEB76C01C9
:1038B0008B01FC0120812053FF2406C0C60129830F
:1038C0000E94F81AF3942981F216C0F3C601B801D8
:1038D0000E9405A8009711F481E001C082E00F90DA
:1038E000CF91DF911F910F91FF90DF90CF900895BE
:1038F00081E0089560913A02282F392FF90180E084
:1039000090E005C021912D3209F48F5F9F5F9617DB
:10391000C8F308959C01FC0101900020E9F731975C
:10392000E81BF90B80E090E008C0420F531FDA015A
:103930004C91443509F48F5F9F5F492F50E04E173B
:103940005F0798F308950895089581E00895FF9220
:103950000F931F93DF93CF93CDB7DEB764970FB666
:10396000F894DEBF0FBECDBF10921D0380915901A8
:10397000823009F479C0833020F4813009F043C2E9
:1039800007C0833009F43AC2843009F03CC22AC22D
:103990000E94A8A281E061E04CEB54E10E9477A272
:1039A00086E193E068E270E044E050E00E9456AAAD
:1039B0008DB79EB70C970FB6F8949EBF0FBE8DBF04
:1039C000EDB7FEB731968E010F5F1F4FADB7BEB793
:1039D00012961C930E9311978BEA94E19383828342
:1039E0008091160384831582809117038683178242
:1039F000809118038087118680911903828713862E
:103A00000E9416A8EDB7FEB73C960FB6F894FEBF1D
:103A10000FBEEDBF82E061E0A8010E9447A283E0F3
:103A200061E046E954E10E9477A284E061E041E868
:103A300054E10E9477A2109215031092140383E0C0
:103A400080931B0388E080931C0310921A0310924A
:103A500013031092120380E380931F0380932003CB
:103A60008093210382E0C7C18091140390911503D4
:103A70000196909315038093140360ED77E00E9404
:103A800097A7009761F460911203660F660F80910B
:103A90001C03680F80911B034FE50E94C1A2809117
:103AA00014039091150360ED77E00E9497A7F3E06F
:103AB000883E9F0761F460911203660F660F809144
:103AC0001C03680F80911B0340E20E94C1A281E0A9
:103AD0000E945AA3F82E0E9449A3982F90539A301F
:103AE00008F0CCC0AFE4B3EC1197F1F700C00000D0
:103AF00090911A03E92FF0E0E15EFC4F80839F5F15
:103B000090931A0381E018C060911C03650F635005
:103B100080911203880F880F680F80911B030E9409
:103B200019A2E0911E03F0E0E25EFC4F80810E944A
:103B3000E8A180911E038F5F80931E0340911A03BA
:103B400050911E03242F30E0852F90E0281739076D
:103B5000DCF6433008F488C06091120370911303BF
:103B6000FB01EA5EFC4F80912103805D20911F03E1
:103B700094E6299F902D1124890F90912003990F8D
:103B8000292F220F220F290F820F808380E3809339
:103B90001F038093200380932103660F660F80919B
:103BA0001C03680F641B80911B034DE754E10E94C6
:103BB00077A200D000D000D0EDB7FEB731968E01CD
:103BC0000F5F1F4FADB7BEB712961C930E931197A0
:103BD0008AE794E193838283A0911203B091130347
:103BE000AA5EBC4F8C91848315820E9416A8F801AE
:103BF00001900020E9F73197E01BF10B8DB79EB7DC
:103C000006960FB6F8949EBF0FBE8DBF60911C0341
:103C10006F5F80911203880F880F680F6E1B809171
:103C20001B03A8010E9447A28091120390911303E5
:103C3000009771F060911C036F5F8150904C880F6A
:103C4000880F680F80911B0348E754E10E9477A218
:103C500010921A0320911203309113032F5F3F4FEC
:103C60003093130320931203809112039091130356
:103C70008430910518F084E0809359019F2D973E80
:103C800009F4B8C0AF2DA73B09F0BDC08091120365
:103C9000909113038430910508F09BC020911A0382
:103CA000213039F4FC01EA5EFC4F20911F032053C0
:103CB00022C0223049F4FC01EA5EFC4F209120032F
:103CC000205130911F0311C02330B1F4FC01EA5E92
:103CD000FC4F20912103205D40911F0334E6439F58
:103CE000302D1124230F30912003330F432F440F25
:103CF000440F430F240F208320E320931F032093BE
:103D000020032093210360911C036350880F880FC8
:103D1000680F80911B0344E754E10E9477A200D012
:103D200000D000D0EDB7FEB731968E010F5F1F4F68
:103D3000ADB7BEB712961C930E93119781E794E12D
:103D400093838283A0911203B0911303AA5EBC4FA8
:103D50008C91848315820E9416A8F801019000209E
:103D6000E9F73197E01BF10B8DB79EB706960FB6BA
:103D7000F8949EBF0FBE8DBF60911C036F5F809152
:103D80001203880F880F680F6E1B80911B03A80118
:103D90000E9447A28091120390911303009771F043
:103DA00060911C036F5F8150904C880F880F680FE3
:103DB00080911B034FE654E10E9477A210921A03F0
:103DC00080911203909113030196909313038093B3
:103DD000120380911203909113038430910598F09F
:103DE00084E009C086E193E068E270E044E050E0DE
:103DF0000E946EAA83E08093590105C081E0809300
:103E0000590180931D0380911D0364960FB6F894A9
:103E1000DEBF0FBECDBFCF91DF911F910F91FF90FD
:103E20000895FF920F931F93DF93CF93CDB7DEB723
:103E300064970FB6F894DEBF0FBECDBF10920D038E
:103E400080915801823009F479C0833020F48130A8
:103E500009F043C207C0833009F43AC2843009F044
:103E60003CC22AC20E94A8A281E061E045E654E17A
:103E70000E9477A286E093E06CE270E044E050E0BC
:103E80000E9456AA8DB79EB70C970FB6F8949EBFA6
:103E90000FBE8DBFEDB7FEB731968E010F5F1F4F7E
:103EA000ADB7BEB712961C930E93119784E594E1BB
:103EB0009383828380910603848315828091070314
:103EC0008683178280910803808711868091090379
:103ED000828713860E9416A8EDB7FEB73C960FB6F0
:103EE000F894FEBF0FBEEDBF82E061E0A8010E9422
:103EF00047A283E061E04FE354E10E9477A284E0AF
:103F000061E04AE254E10E9477A210920503109208
:103F1000040383E080930B0388E080930C031092EA
:103F20000A03109203031092020380E380930F03AD
:103F3000809310038093110382E0C7C18091040332
:103F4000909105030196909305038093040360ED1F
:103F500077E00E9497A7009761F460910203660FD3
:103F6000660F80910C03680F80910B034FE50E9450
:103F7000C1A2809104039091050360ED77E00E9457
:103F800097A7F3E0883E9F0761F460910203660FF4
:103F9000660F80910C03680F80910B0340E20E9432
:103FA000C1A281E00E945AA3F82E0E9449A3982F33
:103FB00090539A3008F0CCC0AFE4B3EC1197F1F70E
:103FC00000C0000090910A03E92FF0E0E15FFC4F90
:103FD00080839F5F90930A0381E018C060910C0377
:103FE000650F635080910203880F880F680F8091DE
:103FF0000B030E9419A2E0910E03F0E0E25FFC4F78
:1040000080810E94E8A180910E038F5F80930E0350
:1040100040910A0350910E03242F30E0852F90E049
:1040200028173907DCF6433008F488C06091020392
:1040300070910303FB01EA5FFC4F80911103805DE7
:1040400020910F0394E6299F902D1124890F9091C0
:104050001003990F292F220F220F290F820F80831F
:1040600080E380930F038093100380931103660F06
:10407000660F80910C03680F641B80910B0346E26E
:1040800054E10E9477A200D000D000D0EDB7FEB777
:1040900031968E010F5F1F4FADB7BEB712961C93BE
:1040A0000E93119783E294E193838283A09102039C
:1040B000B0910303AA5FBC4F8C91848315820E9448
:1040C00016A8F80101900020E9F73197E01BF10BE9
:1040D0008DB79EB706960FB6F8949EBF0FBE8DBFE4
:1040E00060910C036F5F80910203880F880F680F47
:1040F0006E1B80910B03A8010E9447A280910203CE
:1041000090910303009771F060910C036F5F8150F1
:10411000904C880F880F680F80910B0341E254E1A7
:104120000E9477A210920A032091020330910303A8
:104130002F5F3F4F309303032093020380910203CC
:10414000909103038430910518F084E08093580126
:104150009F2D973E09F4B8C0AF2DA73B09F0BDC015
:1041600080910203909103038430910508F09BC075
:1041700020910A03213039F4FC01EA5FFC4F2091C1
:104180000F03205322C0223049F4FC01EA5FFC4FA8
:1041900020911003205130910F0311C02330B1F44E
:1041A000FC01EA5FFC4F20911103205D40910F0359
:1041B00034E6439F302D1124230F30911003330F29
:1041C000432F440F440F430F240F208320E32093F9
:1041D0000F03209310032093110360910C0363508D
:1041E000880F880F680F80910B034DE154E10E9406
:1041F00077A200D000D000D0EDB7FEB731968E0187
:104200000F5F1F4FADB7BEB712961C930E93119759
:104210008AE194E193838283A0910203B091030326
:10422000AA5FBC4F8C91848315820E9416A8F80166
:1042300001900020E9F73197E01BF10B8DB79EB795
:1042400006960FB6F8949EBF0FBE8DBF60910C030B
:104250006F5F80910203880F880F680F6E1B80913B
:104260000B03A8010E9447A28091020390910303CF
:10427000009771F060910C036F5F8150904C880F34
:10428000880F680F80910B0348E154E10E9477A2E8
:1042900010920A0380910203909103030196909378
:1042A00003038093020380910203909103038430FF
:1042B000910598F084E009C086E093E06CE270E03C
:1042C00044E050E00E946EAA83E08093580105C04C
:1042D00081E08093580180930D0380910D036496D3
:1042E0000FB6F894DEBF0FBECDBFCF91DF911F9107
:1042F0000F91FF9008950895CF92DF92FF920F9350
:104300001F93DF93CF9300D000D00F92CDB7DEB7CD
:10431000F82E8E010F5F1F4FC80161E470E045E089
:1043200050E00E9456AAF8018F2D20E030E005E011
:1043300010E06F0191912F5F3F4FF91641F4C901D1
:10434000B8010E94ABA78C0D9D1DDC018C9125301E
:10435000310581F70F900F900F900F900F90CF9134
:10436000DF911F910F91FF90DF90CF900895CF9232
:10437000DF92EF92FF920F931F93DF93CF93CDB70E
:10438000DEB764970FB6F894DEBF0FBECDBF809145
:10439000FE02823009F4B3C0833030F4882371F018
:1043A000813009F083C189C0843009F477C1843039
:1043B00008F448C1853009F079C174C10E94A8A2EF
:1043C00089E390E00E9466AAD82E8AE390E00E94DA
:1043D00066AAE82E8BE390E00E9466AAF82E00D031
:1043E00000D000D0EDB7FEB731968E010F5F1F4FA2
:1043F000ADB7BEB712961C930E93119728EB32E11E
:1044000033832283D48215820E9416A88DB79EB76B
:1044100006960FB6F8949EBF0FBE8DBF81E061E097
:10442000A8010E9447A200D000D000D0EDB7FEB78F
:104430003196ADB7BEB712961C930E9311972CEA26
:1044400032E133832283E48215820E9416A88DB75D
:104450009EB706960FB6F8949EBF0FBE8DBF82E042
:1044600061E0A8010E9447A200D000D000D0EDB7C3
:10447000FEB73196ADB7BEB712961C930E93119747
:1044800080EA92E193838283F48215820E9416A8C7
:104490008DB79EB706960FB6F8949EBF0FBE8DBF20
:1044A00083E061E0A8010E9447A284E061E04FE858
:1044B00052E10E9477A281E0F2C081E00E945AA3FB
:1044C0000E9449A3082F0153033088F410E0075CD1
:1044D0001F4FC8010E9466AA90E0019663E070E059
:1044E0000E94ABA7682FC8010E9478AAD4C08A3264
:1044F00011F485E0D4C0833209F0D8C0CFC08DE379
:1045000090E00E9466AAC82E8EE390E00E9466AA00
:10451000D82E8FE390E00E9466AAE82E80E490E017
:104520000E9466AAF82E00D000D000D0EDB7FEB7EA
:1045300031968E010F5F1F4FADB7BEB712961C9319
:104540000E93119720E832E133832283C4821582CF
:104550000E9416A88DB79EB706960FB6F8949EBF18
:104560000FBE8DBF81E061E0A8010E9447A200D08C
:1045700000D000D0EDB7FEB73196ADB7BEB71296FA
:104580001C930E93119781E792E193838283D482E7
:1045900015820E9416A88DB79EB706960FB6F8949E
:1045A0009EBF0FBE8DBF82E061E0A8010E9447A2BE
:1045B00000D000D000D0EDB7FEB73196ADB7BEB792
:1045C00012961C930E93119782E692E19383828355
:1045D000E48215820E9416A88DB79EB706960FB684
:1045E000F8949EBF0FBE8DBF83E061E0A8010E94DA
:1045F00047A200D000D000D0EDB7FEB73196ADB7DE
:10460000BEB712961C930E93119783E592E19383A4
:104610008283F48215820E9416A88DB79EB70696F3
:104620000FB6F8949EBF0FBE8DBF84E061E0A80175
:104630000E9447A284E06EE04CE452E10E9477A21F
:1046400083E02DC081E00E945AA30E9449A3082F55
:104650000153023068F410E0035C1F4FC8010E9450
:1046600066AA682F70E06F5F7F4F637070700DC037
:10467000982F9353923068F410E0035C1F4FC801E9
:104680000E9466AA0E947C21682FC8010E9478AA15
:1046900005C08A3259F41092FE0208C082E080936D
:1046A000FE0204C01092FE0281E001C080E0649628
:1046B0000FB6F894DEBF0FBECDBFCF91DF911F9133
:1046C0000F91FF90EF90DF90CF900895EF92FF92BF
:1046D0000F931F93DF93CF93CDB7DEB76B970FB6D2
:1046E000F894DEBF0FBECDBF8091FA02823009F48C
:1046F00016C1833030F4882359F0813009F0EAC1C3
:1047000004C1833009F4D7C1843009F0E3C1DEC1AC
:104710000E94A8A205E411E07E010894E11CF11CAE
:10472000C8010E9466AAD7018D937D010F5F1F4FBC
:10473000B1E00B341B07A1F700D000D000D0EDB7DB
:10474000FEB731968E01095F1F4FADB7BEB7129607
:104750001C930E93119783EF9EE09383828389814C
:10476000848315820E9416A8EDB7FEB736960FB661
:10477000F894FEBF0FBEEDBF81E061E0A8010E948A
:1047800047A200D000D000D0EDB7FEB73196ADB74C
:10479000BEB712961C930E93119786EE9EE09383FC
:1047A00082838A81848315820E9416A8EDB7FEB7A2
:1047B00036960FB6F894FEBF0FBEEDBF82E061E003
:1047C000A8010E9447A200D000D000D0EDB7FEB7EC
:1047D0003196ADB7BEB712961C930E93119789ED23
:1047E0009EE0938382838B81848315820E9416A826
:1047F000EDB7FEB736960FB6F894FEBF0FBEEDBF0D
:1048000083E061E0A8010E9447A200D000D000D060
:10481000EDB7FEB73196ADB7BEB712961C930E93A7
:1048200011978CEC9EE0938382838C818483158224
:104830000E9416A8EDB7FEB736960FB6F894FEBFE5
:104840000FBEEDBF84E061E0A8010E9447A200D046
:1048500000D000D0EDB7FEB73196ADB7BEB7129617
:104860001C930E93119783EC9EE0938382838D813A
:10487000848315820E9416A8EDB7FEB736960FB650
:10488000F894FEBF0FBEEDBF81E06DE0A8010E946D
:1048900047A200D000D000D0EDB7FEB73196ADB73B
:1048A000BEB712961C930E9311978AEB9EE09383EA
:1048B00082838E81848315820E9416A8EDB7FEB78D
:1048C00036960FB6F894FEBF0FBEEDBF82E06DE0E6
:1048D000A8010E9447A200D000D0ADB7BEB7129683
:1048E0001C930E93119782EB9EE014969C938E93EB
:1048F00013970E9416A80F900F900F900F9084E0CE
:104900006DE0A8010E9447A208C010925F0283E0F8
:104910006EE040915E020E94DB1882E06EC08091E2
:104920005F02813011F48093FA0281E00E945AA361
:104930000E9449A3282F2153263028F410927D0D80
:104940001092600201C020E0833309F459C084331F
:1049500040F4813381F08233B0F58A3209F0BAC075
:10496000A8C0853309F47BC0853308F46AC0863358
:1049700009F0B0C082C0022F10E0FE013196E00FB6
:10498000F11F808190E0019661E170E00E94ABA789
:104990008083009711F481E08083FE01E00FF11F16
:1049A000018185E180938B060093CC0C81E080939C
:1049B0006202822F90E08B5B9E4F602F0E9478AA4C
:1049C00000933A0219C030E0FE01E20FF31F81812B
:1049D00090E0019665E170E00E94ABA7682F84E14A
:1049E00080938B066093CC0C81E080936202C901B6
:1049F0008B5B9E4F0E9478AA83E08093FA026AC084
:104A0000022F10E0FE013196E00FF11F808190E04F
:104A1000019665E170E00E94ABA78083009711F4D6
:104A200081E08083FE01E00FF11F618186E18093C8
:104A30008B066093CC0C81E080936202822F90E021
:104A4000D7CF30E0FE01E20FF31F818190E00196A5
:104A500065E170E00E94ABA7682F87E1C1CF30E02D
:104A6000FE01E20FF31F818190E0019669E270E0A0
:104A70000E94ABA7682F88E1B3CF85E491E02B8F2C
:104A80000E9466AA2B8D30E0FE01E20FF31F4181E8
:104A900050E04F5F5F4F682F70E06F5F7F4FCA013C
:104AA0000E94ABA7682FC9018B5B9E4F0E9478AA1A
:104AB0000AC084E0A2CF80916002813021F0809111
:104AC0007D0D863038F01092FA0204C01092FA027E
:104AD00081E001C080E06B960FB6F894DEBF0FBE98
:104AE000CDBFCF91DF911F910F91FF90EF9008956F
:104AF000AF92BF92CF92DF92EF92FF920F931F93EC
:104B0000DF93CF93CDB7DEB765970FB6F894DEBFCE
:104B10000FBECDBF8091FB02823009F4BFC083304D
:104B200030F4882371F0813009F057C17FC08430A0
:104B300009F448C1843008F417C1853009F04DC12B
:104B400048C187E391E00E9466AA182F8093000174
:104B500083EC93E00E9466AA082F112389F400D009
:104B600000D0CE010196ADB7BEB712969C938E933E
:104B7000119784E89FE014969C938E93139723C01B
:104B8000113071F400D000D09E012F5F3F4FEDB780
:104B9000FEB73283218327E73FE03483238313C0AA
:104BA0001230B9F400D000D09E012F5F3F4FADB757
:104BB000BEB712963C932E93119725E63FE01496CC
:104BC0003C932E9313970E9416A80F900F900F906E
:104BD0000F900E94A8A281E061E0AE014F5F5F4F9D
:104BE0000E9447A282E061E04AE55FE00E9477A26E
:104BF000002329F483E061E04FE45FE00DC0013061
:104C000029F483E061E044E45FE006C0023031F45F
:104C100083E061E049E35FE00E9477A284E061E025
:104C20004BE25FE00E9477A281E0C5C081E00E9474
:104C30005AA30E9449A3813399F48091000190E026
:104C4000019663E070E00E94ABA780930001609141
:104C50003C020E94291987E391E06091000117C08E
:104C6000823309F4A7C08333A9F483EC93E00E9454
:104C700066AA90E0019663E070E00E94ABA7082F5F
:104C800081E2602F0E94291983EC93E0602F0E943B
:104C900078AA9CC08A3209F493C09FC00E94A8A23F
:104CA00081E061E046E15FE00E9477A200E010E071
:104CB0007E010894E11CF11C8DE0C82E8FE0D82EF7
:104CC000BBE0BB2EA02EC8018F5B9E4F0E9466AA40
:104CD000843068F4E82FF0E0EE0FFF1FE658FE4F37
:104CE00080819181B6E18B399B0721F005C080E07E
:104CF00090E002C085EB9FE20F5F1F4FEDB7FEB75C
:104D000038970FB6F894FEBF0FBEEDBF3196ADB722
:104D1000BEB71296FC92EE921197D382C28215838F
:104D20000483978386830E9416A8EDB7FEB7389652
:104D30000FB6F894FEBF0FBEEDBF8A2D8170A6940A
:104D4000AB9C602D11246F5F8E5FA7010E9447A26C
:104D50000430110509F0B6CF84E061E040E05FE087
:104D60000E9477A283E027C081E00E945AA30E949C
:104D700049A3482F8153843008F5042F10E0005FC9
:104D80001E4FC8014D8B0E9466AA282F30E02F5F6E
:104D90003F4FC90163E070E00E94ABA7E82EE394A7
:104DA0004D89842F80536E2D0E944719C8016E2DA6
:104DB0000E9478AA82E08093FB020FC04A3269F415
:104DC00085E0F9CF0E946623813039F41092FB020E
:104DD00004C01092FB0281E001C080E065960FB62E
:104DE000F894DEBF0FBECDBFCF91DF911F910F9121
:104DF000FF90EF90DF90CF90BF90AF900895FC01AF
:104E000001900020E9F73197E81BF90BE41758F4FB
:104E1000DC01AE0FB11D6C93EF5FE417C8F3840F94
:104E2000911DFC01108208959F92AF92BF92CF9284
:104E3000DF92EF92FF920F931F93DF93CF93CDB743
:104E4000DEB76E970FB6F894DEBF0FBECDBFDC01A4
:104E50000D900020E9F711977A2F781B7417D8F579
:104E6000FE013196C42EDD247F01EC0CFD1CDF0118
:104E700001C06D93AE15BF05E1F7242F30E08E0120
:104E80000F5F1F4FD801A20FB31F1C92542F571B47
:104E9000672F70E0621B730B0DC0A52FB0E05801A7
:104EA000AA0EBB1EA80FB91FA60FB71F9C90D50155
:104EB0009C925F5F541788F3D801A20FB31F1C9216
:104EC000DC0102C021912D93EE15FF05D9F78C0D61
:104ED0009D1DFC0110826E960FB6F894DEBF0FBECA
:104EE000CDBFCF91DF911F910F91FF90EF90DF9099
:104EF000CF90BF90AF909F900895FC01019000204B
:104F0000E9F73197E81BF90BE61760F420E2DC01C2
:104F1000AE0FB11D2C93EF5FE617C8F3860F911DFE
:104F2000FC01108208959F92AF92BF92CF92DF92C0
:104F3000EF92FF920F931F93DF93CF93CDB7DEB71E
:104F4000E2970FB6F894DEBF0FBECDBFDC010D9027
:104F50000020E9F711974A2F481B4617D8F5FE01A4
:104F60003196C62EDD247F01EC0CFD1CDF0120E212
:104F700001C02D93AE15BF05E1F7262F30E08E015D
:104F80000F5F1F4FD801A20FB31F1C92762F741B07
:104F900050E0421B530B0DC0A72FB0E05801AA0EE2
:104FA000BB1EA80FB91FA40FB51F9C90D5019C92E2
:104FB0007F5F761788F3D801A20FB31F1C92DC0124
:104FC00002C021912D93EE15FF05D9F78C0D9D1D83
:104FD000FC011082E2960FB6F894DEBF0FBECDBF83
:104FE000CF91DF911F910F91FF90EF90DF90CF90C5
:104FF000BF90AF909F900895CF92DF92EF92FF9273
:105000000F931F93DF93CF93CDB7DEB7C154D0403A
:105010000FB6F894DEBF0FBECDBF282F81E061E050
:1050200041E022962FAF22970E94E6A580E090E013
:105030000E9466AA00D000D000D0EDB7FEB731962E
:105040008E010B5F1F4FADB7BEB712961C930E9328
:10505000119749E553E25383428364E60E947EA799
:10506000948315820E9416A88DB79EB706960FB638
:10507000F8949EBF0FBE8DBF81E060E0A8010E9442
:1050800003A680918D0290E0019664E670E00E9494
:10509000ABA780938D0200D000D000D0EDB7FEB753
:1050A0003196ADB7BEB712961C930E93119744E597
:1050B00053E253834283848315820E9416A88DB7DE
:1050C0009EB706960FB6F8949EBF0FBE8DBF81E0C7
:1050D00060E0A8010E9403A67E010894E11CF11C77
:1050E000C70168E270E044E050E00E9456AAADB704
:1050F000BEB71C970FB6F894BEBF0FBEADBFEDB7DD
:10510000FEB7319612961C930E93119780E493E2AA
:10511000938382838981848315828A81868317821F
:105120008B81808711868C81828713860E9416A8C6
:105130008DB79EB70C960FB6F8949EBF0FBE8DBF6D
:1051400081E060E0A8010E9403A6C7016CE270E064
:1051500044E050E00E9456AAADB7BEB71C970FB608
:10516000F894BEBF0FBEADBFEDB7FEB73196129635
:105170001C930E9311978CE293E29383828389812F
:10518000848315828A81868317828B81808711862A
:105190008C81828713860E9416A88DB79EB70C96C5
:1051A0000FB6F8949EBF0FBE8DBF81E060E0A801EE
:1051B0000E9403A600D000D000D0EDB7FEB7319614
:1051C000ADB7BEB712961C930E93119787E293E288
:1051D0009383828322962FAD229724831582229671
:1051E0002FAF22970E9416A88DB79EB706960FB6CE
:1051F000F8949EBF0FBE8DBF81E060E0A8010E94C1
:1052000003A622962FAD2297223309F484C02333BC
:1052100078F4223299F1233220F4243009F050C27C
:105220001AC0243209F43FC0283209F049C257C0DD
:10523000203909F4AAC1213938F4263509F4DBC034
:10524000283509F03DC2F3C0223909F4BFC128391D
:1052500009F036C212C200D000D000D0EDB7FEB7C0
:105260003196ADB7BEB712961C930E93119783E299
:1052700093E2938382838CE89DE011C20E94E7153C
:1052800000D000D000D0EDB7FEB73196ADB7BEB7B5
:1052900012961C930E93119780E293E2938382837C
:1052A0008DE69CE0FCC10E94E715ADB7BEB718972C
:1052B0000FB6F894BEBF0FBEADBFEDB7FEB73196C7
:1052C00012961C930E9311978BE193E29383828342
:1052D0008DE69CE0958384838DE998E06FC10E9400
:1052E000E715ADB7BEB718970FB6F894BEBF0FBE9F
:1052F000ADBFEDB7FEB7319612961C930E93119782
:1053000086E193E2938382838DE998E09583848399
:105310008DE69CE053C10E94E715ADB7BEB7189764
:105320000FB6F894BEBF0FBEADBFEDB7FEB7319656
:1053300012961C930E93119781E193E293838283DB
:105340008DE998E09583848384E398E0978386834E
:105350000E9416A88DB79EB708960FB6F8949EBF08
:105360000FBE8DBF81E060E0A8010E9403A6ADB72B
:10537000BEB718970FB6F894BEBF0FBEADBFEDB75E
:10538000FEB7319612961C930E9311978CE093E220
:105390009383828383E99DE09583848382E89CE004
:1053A000978386830E9416A88DB79EB708960FB67E
:1053B000F8949EBF0FBE8DBF81E060E0A8010E94FF
:1053C00003A6ADB7BEB718970FB6F894BEBF0FBE11
:1053D000ADBFEDB7FEB7319612961C930E931197A1
:1053E00087E093E29383828381E699E095838483C7
:1053F00089E894E0E3C00E94E715ADB7BEB71897FF
:105400000FB6F894BEBF0FBEADBFEDB7FEB7319675
:1054100012961C930E93119781E093E293838283FB
:105420008DE69CE09583848388EA9DE0C7C00E9456
:10543000E71538E1E32E3DE0F32EC7016DE00E9451
:10544000932727EAC22E24E0D22EC6016AE00E94EA
:105450009327ADB7BEB71A970FB6F894BEBF0FBE6D
:10546000ADBFEDB7FEB7319612961C930E93119710
:105470008AEF92E2938382838DE69CE09583848316
:105480008DE998E097838683809151088087118603
:105490000E9416A88DB79EB70A960FB6F8949EBFC5
:1054A0000FBE8DBF81E060E0A8010E9403A6ADB7EA
:1054B000BEB71A970FB6F894BEBF0FBEADBFEDB71B
:1054C000FEB7319612961C930E93119783EF92E2DA
:1054D0009383828387E894E095838483F782E682CE
:1054E00088EA9DE0918780870E9416A88DB79EB7B5
:1054F0000A960FB6F8949EBF0FBE8DBF81E060E0A4
:10550000A8010E9403A681E060E04EED52E20E94F5
:105510002CA600D000D000D0EDB7FEB73196ADB7C5
:10552000BEB712961C930E9311978BED92E2938364
:105530008283D582C4820E9416A88DB79EB7069634
:105540000FB6F8949EBF0FBE8DBF81E060E0A8014A
:105550000E9403A697EBE92E9CE0F92EC70164E1B7
:105560000E94932700D000D000D0EDB7FEB731964F
:10557000ADB7BEB712961C930E93119788ED92E2C9
:1055800093838283F582E4828CC0ADB7BEB718974F
:105590000FB6F894BEBF0FBEADBFEDB7FEB73196E4
:1055A00012961C930E93119783ED92E2938382835C
:1055B0008DE998E09583848383E99DE097838683D2
:1055C0000E9416A88DB79EB7089670C0ADB7BEB73B
:1055D0001C970FB6F894BEBF0FBEADBFEDB7FEB7B8
:1055E000319612961C930E9311978AEC92E2938354
:1055F00082838CE89DE0958384838DE998E097838E
:10560000868388EA9DE0918780878DE69CE093877A
:1056100082870E9416A88DB79EB70C960FB6F89495
:105620009EBF0FBE8DBF81E060E0A8010E9403A66F
:10563000ADB7BEB71A970FB6F894BEBF0FBEADBFD9
:10564000EDB7FEB7319612961C930E93119783EC2B
:1056500092E29383828384ED98E09583848387E349
:1056600098E09783868383EA9CE0918780870E94F5
:1056700016A88DB79EB70A9619C000D000D000D0EA
:10568000EDB7FEB73196ADB7BEB712961C930E9329
:10569000119780EC92E2938382838DE998E0958361
:1056A00084830E9416A88DB79EB706960FB6F8940D
:1056B0009EBF0FBE8DBF81E060E0A8010E9403A6DF
:1056C00081E060E047EB52E20E942CA681E061E0BD
:1056D00042E00E94E6A5CF5BDF4F0FB6F894DEBF35
:1056E0000FBECDBFCF91DF911F910F91FF90EF9033
:1056F000DF90CF90089584E90E94FC27089582E905
:105700000E94FC27089580E90E94FC27089588E5FF
:105710000E94FC27089586E50E94FC27089582E3F5
:105720000E94FC27089588E20E94FC27089584E2E5
:105730000E94FC27089582E20E94FC27089581E0E0
:105740008093660280E10E94FC27089584E00E9415
:10575000FC270895FC0101900020E9F73197E81B30
:10576000F90BE61760F420E3DC01AE0FB11D2C93BA
:10577000EF5FE617C8F3860F911DFC0110820895B4
:105780009F92AF92BF92CF92DF92EF92FF920F93D0
:105790001F93DF93CF93CDB7DEB76E970FB6F89414
:1057A000DEBF0FBECDBFDC010D900020E9F71197E1
:1057B0004A2F481B4617D8F5FE013196C62EDD2428
:1057C0007F01EC0CFD1CDF0120E301C02D93AE1521
:1057D000BF05E1F7262F30E08E010F5F1F4FD80184
:1057E000A20FB31F1C92762F741B50E0421B530B69
:1057F0000DC0A72FB0E05801AA0EBB1EA80FB91FFD
:10580000A40FB51F9C90D5019C927F5F761788F3FB
:10581000D801A20FB31F1C92DC0102C021912D936D
:10582000EE15FF05D9F78C0D9D1DFC0110826E96BB
:105830000FB6F894DEBF0FBECDBFCF91DF911F91A1
:105840000F91FF90EF90DF90CF90BF90AF909F901F
:105850000895CF92DF92EF92FF920F931F93DF9301
:10586000CF93CDB7DEB765970FB6F894DEBF0FBE06
:10587000CDBF8C01662309F456C08FE390E06D8B99
:105880000E9466AAF82ED8010D900020E9F7119722
:10589000A01B6D896A17D8F5BA2FB61B980168014D
:1058A00060E070E0CE01019612C07B1731F4AC01CC
:1058B000460F511DFA01F0826F5FF601E1906F0112
:1058C000AC01460F511DFA01E0826F5F7F5F7A17CE
:1058D00060F3FE013196DF01A60FB11D1C92DF01BE
:1058E0000D900020E9F71197AE1B6A2F70E0CF01F1
:1058F000860F971F04C04191D9014D939D01E81770
:10590000F907C9F7DB01A00FB11F1C920CC06F5F34
:10591000C8010E94C02BD8010D900020E9F7119713
:10592000A01BB1E0BBCF65960FB6F894DEBF0FBEEB
:10593000CDBFCF91DF911F910F91FF90EF90DF903E
:10594000CF900895CF93DF93EC018DE390E00E9418
:1059500066AA682FCE010E94292CDF91CF9108956D
:10596000CF93DF93EC018EE390E00E9466AA682F4C
:10597000CE010E94292CDF91CF910895CF93DF9320
:10598000EC018AE390E00E9466AA682FCE010E9493
:10599000292CDF91CF910895CF93DF93EC018BE316
:1059A00090E00E9466AA682FCE010E94292CDF9108
:1059B000CF910895CF93DF93EC0189E390E00E94AB
:1059C00066AA682FCE010E94292CDF91CF910895FD
:1059D00000D000D000D0EDB7FEB73196ADB7BEB75E
:1059E00012967C936E9311972DEA3EE033832283C7
:1059F000848315820E9416A88DB79EB706960FB6AF
:105A0000F8949EBF0FBE8DBF08956F927F928F92C4
:105A10009F92AF92BF92CF92DF92EF92FF920F933D
:105A20001F93DF93CF93CDB7DEB7A2970FB6F8944D
:105A3000DEBF0FBECDBF8C017B0180914B03813057
:105A400009F4B5C0813020F0823009F037C134C18B
:105A50008E01095F1F4FC80166E470E048E050E026
:105A60000E9456AA0E94A8A21092490310924803CD
:105A7000F80180E090E006C02081243608F0108212
:105A80000196319688309105B8F31092490310922F
:105A90004803F7E0AF2EB12CAC0EBD1E8E010F5F98
:105AA0001F4FEBE08E2E912C8C0E9D1E74E0E72E86
:105AB000F12CEC0EFD1E6FE0C62ED12CCC0EDD1E9F
:105AC0005BEB652E5DE1752E4CC08A0D9B1DDC01E4
:105AD0008C91B8010E94E82CE0914803F0914903B1
