:100000000C94FB120C941A130C941A130C941A13DC
:100010000C941A130C941A130C941A130C941A13AC
:100020000C941A130C941A130C941A130C941A139C
:100030000C94D5130C941A130C941A130C941A13D1
:100040000C941A130C9471670C9470150C941A1379
:100050000C941A130C941A130C941A130C941A136C
:100060000C941A130C941A130C941A130C941A135C
:100070000C941A130C941A130C947D400C941A13BC
:100080000C941A130C941A130C941A1351144F1441
:1000900053145514571459145B145D145F146114F0
:1000A0006314651467147514691475146B146D1456
:1000B00075146F14711473147514751469145B142A
:1000C00075145D1461146514A273BE73C774F6745D
:1000D0001F759275A175A875E4750B764E765876E6
:1000E00017765E7676766D767276D27361748374E7
:1000F0008F74A174B274C174C174F178F778FB780D
:1001000012792C7930795B7975797B798379867965
:1001100089798C798F799279967999799C79A47972
:10012000FE7F53806280A480B680CB80EE80A48165
:10013000AE8175880B8213835F83A5831D84AE8493
:10014000D1849785C1857A86938692870B874D8760
:100150002C885A88758898871B885F886688B1883C
:10016000B588D188B18CB18CB18CB18C1A89B18C25
:100170003A89B18C5789DE89378A5A8AFD88B18CD1
:10018000F189728AAA8AC28AFE8A0E8B1D8C2D8CF6
:10019000748C938CA58CAB8CAD8CE592FD920F93F7
:1001A000449373938993C493FC933E9446946595CA
:1001B0007195A195DE95F7951196519659931694E0
:1001C000BA95E2935E94AB94C794E1942D954B95C8
:1001D0008B96A196A696DD960C9751976F978D9763
:1001E000C7972A985B9CF296849C709D2E9D579D84
:1001F000A69D8A9DBD9DD79DE99D9E9CF79C149DC3
:100200003E985D9883989098B398C898F29807990B
:100210003199519982998F99EA99639A799A569B63
:10022000569B8F9AA59AAD9ACA9AE19AEC9A019B2D
:10023000169B349B599B6E9B839B989BAD9BC29B4B
:10024000D79BEC9BF99B0E9C2F9C41A244A2E4A25D
:10025000F3A224A332A35EA303A310A31AA368A34B
:1002600075A380A383A386A389A38CA38FA392A342
:1002700095A3B7A3A5A398A3B0A3CEA2496E697412
:1002800069616C697A652E2E2E200057617463684F
:10029000446F670042726F776E4F757400457874D3
:1002A00065726E616C00506F7765724F6E0001066B
:1002B0000206010D020D01140214010802080308D0
:1002C000040801130213020304020F0F01010000CE
:1002D0000000010A020A030A0204030303030304E1
:1002E00003044E2F410047696C626172636F0057CF
:1002F00061796E6520444152540054617473756E87
:100300006F004C4700E202E602EF02FA020203200D
:1003100020202020202020202020202020202020DD
:1003200020202020202020202020202020202020CD
:100330002020202020202000202020202020536565
:100340006D6F67612053656C616D61742053616DE1
:100350007061692054756A75616E2020202020200C
:100360000020202020202020202020202053656CE9
:10037000616D617420204A616C616E202020202014
:10038000202020202020202020002020202020208D
:1003900020202020202020546572696D61204B614F
:1003A0007369682020202020202020202020202069
:1003B000202000202020202020202020202020205D
:1003C000202020202020202020202020202020202D
:1003D000202020202020202020202000202020203D
:1003E000202020202020202020202020202020200D
:1003F00020202020202020202020202020202020FD
:10040000202020200020202020202020202020200C
:1004100020202020202020202020202020202020DC
:1004200020202020202020202020202020002020EC
:10043000202020202020202020204A616B6172741F
:10044000612053656C6174616E2020202020202083
:100450002020202020200020202020202020204A92
:100460004C2E205253204661746D6177617469206F
:100470004E6F2E35352020202020202020202000E7
:100480002020202050542E2048414E494E444F20D9
:100490004155544F4D4154494F4E20534F4C5554A4
:1004A000494F4E5320202020003030303030300073
:1004B00042524900424E49004D616E6469726900C2
:1004C0004243410044696573656C20200042696FB6
:1004D000536F6C722000536F6C61722020200050AB
:1004E00072656D69756D200050657274616D61781B
:1004F00000506572742B20202000363530300034D7
:100500003530300036353030003435303000373259
:100510003530003635303000202000256400542569
:100520002E3264252E326425732573257325732599
:100530007325733A00323025732F25732F257320CE
:1005400025733A25733A257300257300257300251A
:1005500063252E32643A004354535250003A004E01
:100560002F41002573000025642E25732573257304
:100570000025642E25732573257325732573005478
:100580004F54414C202573257300544F54414C2047
:100590002573257325732573002573257300257333
:1005A0002573257325730025732D2D2D2D2D2D2DB0
:1005B0002D2D2D2D20202020202020202020202007
:1005C000202020200025732D2D2D2D2D2D2D2D2D7E
:1005D0002D2D2020202D2D2D2D2D2D2D2D2D2D2D72
:1005E0002D2D004177616C203A25732573004177EA
:1005F000616C203A257325732573257300416B6860
:1006000069723A2573257300416B6869723A2573E4
:10061000257325732573005025642E2564202D2015
:10062000257320005025642E2564202D202573205D
:1006300025732025730048617267613A2052702E3D
:100640002573004E2F410050554D502D50524F44B0
:10065000554354202020564F4C554D45284C2920B9
:100660002020202020202020202020202000505545
:100670004D502D50524F44554354202020564F4C3E
:10068000554D45284C29202020205255504941489D
:100690002852502900416B6869722053686966745A
:1006A000203A20257320004177616C20205368692F
:1006B0006674203A20257320005465726D696E615E
:1006C0006C204944203A20252E326420202020200E
:1006D000202020202020202020202020202000203A
:1006E000202020202020204C61706F72616E2054E9
:1006F000757475702053686966743A2025732020DC
:1007000020202020002564002573003000300025C3
:10071000730025730025730025730025730025736E
:10072000003030303030303030004F7065726174DE
:100730006F723A202573002D2D2D2D2D2D2D2D2D51
:100740002D2D2D2D2D2D2D2D2D2D2D2D2D2D2D2DD9
:100750002D2D2D2D2D2D2D2D002020202020202051
:100760002020202020202020202020202020202089
:100770002020202020202020202020200020202099
:10078000202020202020202020204455504C494368
:1007900041544520434F5059202020202020202024
:1007A0000020202020204F70657261746F723A2003
:1007B000257300202020202D2D2D2D2D2D2D2D2D8C
:1007C0002D2D2D2D2D2D2D2D2D2D2D2D2D2D2D2D59
:1007D0002D2D2D2D2D002020202020537572636893
:1007E0006172676520416D743A20257300202020D6
:1007F0002020537572636861726765204473633AA1
:1008000020257300202020202D2D2D2D2D2D2D2D48
:100810002D2D2D2D2D2D2D2D2D2D2D2D2D2D2D2D08
:100820002D2D2D2D2D2D0020202020204D6F6E747C
:100830006820436F6E732041203A2052702E25733A
:100840000020202020204D6F6E746820436F6E734F
:100850002056203A202573204C00202020202054B0
:100860006F74616C2052656465656D203A20257354
:1008700000202020202045787069727920202020D7
:100880002020203A2025730020202020204375724C
:100890007220506F696E747320203A2025730020F7
:1008A000202020205072657620506F696E7473206E
:1008B000203A2025730020202020204761696E20E7
:1008C000506F696E747320203A2025730020202019
:1008D0002020436F7270204E616D65202020203AE9
:1008E000202573002020202020436F72702049446F
:1008F0002020202020203A202573002020202020A6
:100900004361726420486F6C64657220203A202530
:10091000732000202020202043617264204944205D
:1009200020202020203A2025730020202020202075
:100930002020204C4F59414C545920494E464F528B
:100940004D4154494F4E20202020202000202020BF
:10095000202D2D2D2D2D2D2D2D2D2D2D2D2D2D2DD4
:100960002D2D2D2D2D2D2D2D2D2D2D2D2D2D2D00E4
:10097000202020202E2573002020202054616E642A
:10098000612054616E67616E2020285F5F5F5F5F4A
:100990005F5F5F5F5F5F5F5F5F2900202020202037
:1009A0002020202020202020202020202020202047
:1009B0002000202020202020202020202020202057
:1009C0002020202020202020002020202020202047
:1009D0002020202020202020202000202000202057
:1009E00020204170707220436F64653A20257300A7
:1009F0002573202000202020204E616D61202020C2
:100A000020203A2025730020202020202020202094
:100A1000202A2A2A2050554D502054455354202A2C
:100A20002A2A202020202020200020202020566F4D
:100A30007563686572204E6F3A2025730020202070
:100A4000204B61727475204944203A2025730020A0
:100A50002020202D2D2D2D2D2D2D2D2D2D2D2D2DED
:100A60002D2D2D2D2D2D2D2D2D2D2D2D2D2D2D2DB6
:100A70002D002020202020204F646F6D657465724A
:100A8000202020203A202573002020202020204EE6
:100A90006F2E506F6C6973692020203A20257300F7
:100AA000002020202020204A6D6C20527570696142
:100AB0006820203A2052702E25730020202020200C
:100AC000204A6D6C204C697465722020203A2025E4
:100AD00073204C0000202020202020486172676194
:100AE0002F4C20202020203A2052702E25730020E9
:100AF000202020202050726F64756B202020202041
:100B0000203A2025730020202020202050756C6181
:100B1000752F506F6D7061203A205B25735D2D2518
:100B20007300202020202D2D2D2D2D2D2D2D2D2D10
:100B30002D2D2D2D2D2D2D2D2D2D2D2D2D2D2D2DE5
:100B40002D2D2D2D0020202020202057616B747525
:100B50003A202573202573200020202020202053B8
:100B6000686966743A20257320204E6F2E54726196
:100B70006E733A20257320002000202020202020A2
:100B8000202020202020204455504C4943415445EA
:100B900020434F5059202020202020202000457243
:100BA000726F72204E6F20436F6E6E656374696F53
:100BB0006E0050726F7365730053656E64205265EA
:100BC0007175657374005B2A5D43616E63656C20AB
:100BD00020205B235D456E746572005B2A5D426177
:100BE000636B20202020205B235D456E74657200BE
:100BF0005B2A5D43616E63656C20205B235D456EFF
:100C000074657220004F646F6D657465723A5F2081
:100C100000506C6174204E6F3A20257320005B2ACF
:100C20005D43616E63656C2020205B235D456E74BF
:100C30006572005B2A5D4261636B20202020205B8F
:100C4000235D456E746572005B2A5D43616E63656A
:100C50006C20205B235D456E74657220005F004947
:100C60006E70757420506C6174204E6F3A200023B2
:100C700029536176650034295465726D49443A25DB
:100C800064200025640025640023295361766500F3
:100C900034295465726D49443A2564200033294E45
:100CA0006F746966203A20202020202A294578691F
:100CB00074003229442F542020203A0031294D6FEE
:100CC0006E6579203A00252E326400256400252EB9
:100CD0003264002564003429437574203A20202AA8
:100CE00029457869740033294C6F676F3A202023B7
:100CF000295361766500322953697A653A20203696
:100D0000295370616365203A003129547970653A3E
:100D1000202035295363726F6C6C3A002A29436195
:100D20006E63656C20202020202023295361766586
:100D30000054494D45203A200044415445203A2072
:100D4000002564002564002A294578697420202044
:100D500020202020202329536176650032294E323D
:100D60003A202034294E343A202036294E363A0093
:100D700031294E313A202033294E333A202035296B
:100D80004E353A0050726F647563742046495025A1
:100D90002E326400436F6D706C657465640043614E
:100DA0006E63656C20202020200049645B25645D13
:100DB0003D252E3264202000536176696E672E2E09
:100DC000002D50756D7049442D00202020204E6F5D
:100DD0007420416C6C6F77656420202020200020F7
:100DE000204475706C69636174652050756D70493D
:100DF000442020002020202020205761726E696E40
:100E000067212020202020200025642E50252E320E
:100E100064207C2025642E50252E32640023295323
:100E2000617665002A294261636B0025642E502596
:100E30002E3264207C2025642E50252E326400251D
:100E40002E326400252E3264003429343A202020CA
:100E50003829383A2020202A294578697400332916
:100E6000333A2020203729373A2020202329536184
:100E70007665003229323A2020203629363A003170
:100E800029313A2020203529353A005B2A5D457802
:100E9000697420205B235D4368616E6765200025CF
:100EA000642E2573002D44697370656E736572201E
:100EB0004272616E642D002A2945786974003229D6
:100EC00050726F647563740031294944002A2945C2
:100ED0007869740025642E50252E3264207C2025EC
:100EE000642E50252E32642000252E3264005B2AA9
:100EF0005D4578697400362E4163743A2564003587
:100F00002E446C793A256400342E54696D506F6F0D
:100F10006C3A256400332E54727953656E643A2519
:100F20006400322E6E4E6F50756D703A256400313C
:100F30002E4D617850756D703A2564005B2A5D42D4
:100F400061636B202020202000434F4D25643A250B
:100F5000640020202020202D426175647261746538
:100F60002D2020202020005B2A5D4261636B202021
:100F70002020202000332E434F4D333A34383500A3
:100F8000332E434F4D333A32333200332E434F4DDD
:100F9000333A54544C00322E426175647261746568
:100FA00000312E4D6F64653A5374616E64616C6FED
:100FB0006E6500312E4D6F64653A536C6176650045
:100FC000312E4D6F64653A4E6F6E6500496E7661E5
:100FD0006C6964204F6C642050617373776F726426
:100FE000002020202020204552524F522020202037
:100FF000202020202000496E76616C6964204E65B7
:10100000772050617373776F726400202020202056
:10101000204552524F522020202020202020200006
:1010200020202050617373776F726420536176655E
:1010300064202020002020202020436F6D706C65EC
:10104000746564202020202020005B2A5D43616EAF
:1010500063656C2020205B235D456E746572005BC8
:101060002A5D4261636B20202020205B235D456E5A
:10107000746572005B2A5D43616E63656C2020209D
:101080005B235D456E746572004E65773A5F202084
:1010900020202020202020202020202020005661F9
:1010A0006C69646174696E672E2E005B2A5D436112
:1010B0006E63656C2020205B235D456E7465720055
:1010C0005B2A5D4261636B20202020205B235D450D
:1010D0006E746572005B2A5D43616E63656C2020EF
:1010E000205B235D456E746572004E65773A5F2024
:1010F0002020202020202020202020202020005BD5
:101100002A5D43616E63656C2020205B235D456E24
:10111000746572005B2A5D4261636B202020202091
:101120005B235D456E746572005B2A5D43616E638F
:10113000656C2020205B235D456E746572004E65F2
:10114000773A5F20202020202020202020202020EF
:101150002020005B2A5D43616E63656C2020205B6C
:10116000235D456E746572004F6C643A5F002D41DB
:10117000646D696E6973747261746F722D002D53A2
:10118000757065727669736F722D005B2A5D4261BE
:10119000636B202020202000322E41646D696E692F
:1011A00073747261746F7200312E5375706572764C
:1011B00069736F72002D4368616E676520506173BB
:1011C00073776F72642D00536176656420005B2A2B
:1011D0005D43616E63656C2020205B235D456E740A
:1011E0006572005B2A5D4261636B20202020205BDA
:1011F000235D456E746572005B2A5D4E6F20202072
:10120000205B235D59657300536176653F004E6531
:1012100077204F70657261746F723A002573005BBE
:101220002A5D43616E63656C2020205B235D456E03
:10123000746572004E6577203A5F202020202020C0
:101240002020202020202020004E616D653A0025BE
:1012500073005B2A5D4261636B20202020202020E8
:1012600020202000322E4368616E67652050617334
:1012700073776F726400312E4368616E6765204F2B
:1012800070657261746F72002A294261636B003469
:101290002E5370617261746F723A25632000332E91
:1012A000446563696D616C203A25632000322E54D9
:1012B0002E4D6F6E6579203A25642000312E542E14
:1012C000566F6C756D653A256420005B2A5D42613E
:1012D000636B20205B235D4E65787400332E4D6F69
:1012E0006E6579203A256400322E566F6C756D65F7
:1012F0003A256400312E5072696365203A256400F6
:1013000034294272616E6420202A2945786974006C
:1013100033294C6162656C202000322950726F6461
:1013200075637400312949442020202020002A2997
:101330004261636B2020202023294F4B2020202056
:101340002020004E65773A5F004F6C643A257300A9
:101350002A294261636B2020202023294F4B202023
:1013600020202020004E65773A5F00456469742094
:1013700050726F64756374204E616D65202020008B
:101380004F6C643A2573002A294261636B20202048
:101390002020202000322925730031292573002ABE
:1013A000294261636B002564292573002A29426163
:1013B000636B20202020202020202020202020209F
:1013C00000332950756D70506F6F6C696E67202007
:1013D000202020202000322953797374656D20204D
:1013E000202020202020202020200031294F70653F
:1013F0007261746F72202020202020202020200085
:1014000034294461746574696D65202A29457869B9
:1014100074202020003329446563696D616C2020AD
:1014200037294E65787420202000322950756D7060
:1014300020202020203629486F737420202000317E
:101440002950726F64756374202035295072696E5B
:10145000746572002E00256400202020002E0025D7
:101460006400202020005B2A5D63616E63656C2050
:10147000205B235D6E6578742020004E65773A20EE
:1014800020205F2E2020202E2020202E2020200013
:101490004F6C643A2025642E25642E25642E256425
:1014A00000536572766572204950002E0025640055
:1014B000202020002E00256400202020005B2A5DD3
:1014C00063616E63656C20205B235D6E65787420BC
:1014D00020004E65773A2020205F2E2020202E20ED
:1014E00020202E202020004F6C643A2025642E25D9
:1014F000642E25642E256400436C69656E74204952
:10150000500025732573005B2A5D4E6F205B235DC1
:10151000596573005361766520466F6F7465722557
:1015200064203F005B2A5D4E6F20205B235D596580
:101530007300416C69676E2043656E7465723F008D
:101540005B2A5D4261636B20205B235D4F4B00454E
:1015500064697420466F6F746572256420002A29BF
:101560004578697420202020202020202020202061
:10157000202000202020202020202020202020208B
:1015800020202020202020003229466F6F746572B1
:101590003220203429466F6F746572340031294639
:1015A0006F6F7465723120203329466F6F746572D6
:1015B000330025732573005B2A5D4E6F205B235D2E
:1015C00059657300536176652048656164657225CD
:1015D00064203F005B2A5D4E6F20205B235D5965D0
:1015E0007300416C69676E2043656E7465723F00DD
:1015F0005B2A5D4261636B20205B235D4F4B00459E
:1016000064697420486561646572256420002A2934
:1016100045786974202020202020202020202020B0
:101620002020003329486561646572332020362903
:101630004865616465723600322948656164657287
:1016400032202035294865616465723500312948AA
:101650006561646572312020342948656164657272
:1016600034002A29457869740033295061737377EF
:101670006F7264202020202020202020200032298A
:10168000466F6F74657220202020202020202020AB
:1016900020200031294865616465722020202020C7
:1016A00020202020202020003229466F6F74657290
:1016B0002020202035295365727665720031294833
:1016C0006561646572202020203429436C69656E51
:1016D0007400536176696E6720536869667444616B
:1016E00074612E2E20002573202573005072696EC0
:1016F00074696E6720546F74616C697A6572004317
:10170000616E63656C004572726F72202D204E6FA2
:101710002050756D703A256420005761697420501F
:10172000756D703A25642000576169742050756D9D
:10173000703A25642000546F74616C697A65722E6A
:101740002E002A294578697400332E4C6F636B2074
:1017500050756D70202000322E436C6F73652044ED
:101760006179202000312E436C6F736520536869C6
:10177000667400342953657474696E677320202081
:101780002A294578697420003329436C6F736544B6
:101790006179202020202020202020200032294391
:1017A0006C6F7365536869667420202020202020A8
:1017B0002000312952655072696E7420202020204B
:1017C0002020202020200050617373776F726420E6
:1017D000526573746F72656400496E76616C6964FA
:1017E00020526573746F72652020003030303030C5
:1017F000003131313131005B2A5D43616E63656CCC
:101800002020205B235D456E746572005B2A5D427B
:1018100061636B20202020205B235D456E74657220
:10182000005B2A5D43616E63656C2020205B235D55
:10183000456E746572005F2020202020202020202B
:101840002020202020202020202000456E7465725A
:1018500020526573746F726520436F6465202000A9
:101860004B6579205374616D703A25732000496E81
:1018700076616C696420436F6465202020202020FD
:10188000202000002573002573005B2A5D43616EF4
:1018900063656C2020205B235D456E746572005B80
:1018A0002A5D4261636B20202020205B235D456E12
:1018B00074657200005B2A5D43616E63656C202075
:1018C000205B235D456E746572005F202020202020
:1018D0002020202020202020202020202020004503
:1018E0006E7465722047654E69557320436F646559
:1018F00020202000496E76616C696420436F646526
:101900002020202020202020005265736574204371
:101910006F6D706C65746500506C65617365205700
:101920006169742E2E0052657365742045455052CE
:101930004F4D005B2A5D43616E63656C2020205B28
:10194000235D456E746572005B2A5D4261636B20A6
:10195000202020205B235D456E746572005B2A5D4C
:1019600043616E63656C2020205B235D456E74656A
:1019700072005265736574436F64653A5F2020207E
:10198000202020202020005365656420436F64657B
:101990003A2573002D4D617374657220526573652D
:1019A000742D000032323334353637380025730059
:1019B0005B2A5D457869742020202020202020208B
:1019C0002020202000322E4D6173746572205265F4
:1019D00073657420202020202000312E52657374FE
:1019E0006F72652050617373776F72642020002DD1
:1019F00053797374656D2041646D696E204C657612
:101A0000656C2D0025732573002573002563003256
:101A10003025730025730034323634363336005B9C
:101A20002A5D43616E63656C2020205B235D456EFB
:101A3000746572005B2A5D4261636B202020202068
:101A40005B235D456E746572005B2A5D43616E6366
:101A5000656C2020205B235D456E746572005F001D
:101A600050415353574F52443A0041636365737377
:101A70002044656E696564005443502F49502045E9
:101A800072726F72004E6F205265706C7920202048
:101A900020002020202020202000506C65617365EC
:101AA00020576169740025730050554D50205445EE
:101AB00053540025730025730025730025730025FA
:101AC000730050726F736573002D4D4F5020566F29
:101AD00075636865722D0050726F736573004944B9
:101AE0003A2573005B2A5D4261636B202020205BF6
:101AF000235D457869740046495025730054617030
:101B0000204B617274752052464944005B2A5D4344
:101B1000616E63656C2020205B235D456E74657289
:101B2000005B2A5D4261636B20202020205B235DE7
:101B3000456E746572005B2A5D43616E63656C205F
:101B400020205B235D456E74657200537572636877
:101B5000617267653A2020205F25002573005B2AAB
:101B60005D4261636B0025642E25730053656C65CF
:101B700063742042616E6B005B2A5D43616E636536
:101B80006C2020205B235D456E746572005B2A5DCE
:101B90004261636B20202020205B235D456E7465CD
:101BA00072005B2A5D43616E63656C2020205B23BD
:101BB0005D456E746572005F004B6F646520566F03
:101BC0007563686572005B2A5D4261636B2020204B
:101BD0002020202020202020202000322E42616E54
:101BE0006B20202020342E50756D70546573740066
:101BF000312E4163636F756E7420332E566F75639B
:101C0000686572200020202053656C656374205045
:101C100061796D656E74202020004352454449541B
:101C200043415244005B2A5D4261636B20202020C7
:101C300020202020202020202000322E43726564A6
:101C4000697420436172642020202020202000310C
:101C50002E44656269742F466C617368204361721B
:101C60006420200053656C656374204361726420B6
:101C700054797065004E6F20436F6E6E65637469B2
:101C80006F6E005443502F4950204552524F5220FE
:101C900000507265737320416E79204B6579004363
:101CA0006D20566F6C3A257300434D20416D743A98
:101CB000257300506F696E74733A25730025733A6B
:101CC00025730050726F7365730049443A257300A1
:101CD0005B2A5D4261636B202020205B235D457899
:101CE000697400546170204B6172747520524649CA
:101CF00044005B2A5D4261636B202020205B235DF2
:101D00004578697400546170204B6172747520527B
:101D1000464944004649503A2573005B2A5D4261BA
:101D2000636B2020202020202020202000322E4CF9
:101D30006F79616C7479205570646174652000312D
:101D40002E456E7175697279202020202020202078
:101D50000020204D656E75204C6F79616C74792080
:101D60002020004E6F20436F6E6E656374696F6E46
:101D7000005443502F4950204552524F5220005B8F
:101D80002A5D4261636B202020205B235D457869DA
:101D900074005461702053757065727669736F7248
:101DA00020436172640052655072696E7420464926
:101DB000503A25732000546964616B2041646120AE
:101DC0005472616E73616B73692000416363657364
:101DD000732044656E69656400252E3264002A29EB
:101DE000457869740023294F4B20002020202020B3
:101DF000004649503A5F0025642E502573207C2010
:101E000025642E50257300303225732573257325E4
:101E10007325732573257300300020202020202097
:101E200020202020202020202020202020200023CF
:101E3000257300252E326400404649503A00202088
:101E40002020202020202020202020202020202092
:101E50002020005072696E74696E672046495025D3
:101E6000732000443A256420433A2563202000254E
:101E700073202573004E6F2050756D7020466F756E
:101E80006E64005443502F4950204572726F7200A7
:101E900050756D70466F756E6400436F6E6E65634E
:101EA0007465642020202020202020202020002075
:101EB0002020202020202020202020202020202022
:101EC0002020002573005363616E2050756D7000F3
:101ED000436F6E6E65637420202020202020202018
:101EE00000436F6E6E65637400436F6E6E6563745E
:101EF00020202020202020202000434F4D25643A20
:101F00002569202020202020202020202000496E2C
:101F1000697469616C697A6520434F4D202E2E2EBD
:101F2000000A47654E695573205469636B657420D8
:101F30005072696E746572200A2056657273696FFB
:101F40006E3A25730A204C61737420557064617475
:101F500065202573200A2048616E696E646F2041F8
:101F600075746F6D6174696F6E20536F6C757469F1
:101F70006F6E73200A207777772E68616E696E64C2
:101F80006F67726F75702E636F6D0A0A0A0A0A0A0C
:101F90000A0A0032342F30352F3230313200322EDF
:101FA0003437004675656C696E6720404649503A83
:101FB000232564005472616E73616B7369205365ED
:101FC0006C657361690049443A20257300257300EC
:101FD00050257320257320004649502054696461C0
:101FE0006B20536961702020202000417574686F58
:101FF00072697361736920426572686173696C000C
:10200000417574686F7269736173692047616761B4
:102010006C202020002020202020202000202020B4
:1020200020202020202020202020202020202020B0
:1020300020004D6F686F6E2054756E6767752020A5
:102040002020202020200025730050257320257398
:10205000200043616E63656C205472616E7361632E
:1020600074696F6E2020005B2A5D4261636B205BA8
:10207000305D455343205B235D4F4B0025732000AB
:102080002046756C6C002573202025732000494480
:102090003A20257300257320005B2A5D4261636B43
:1020A00020205B235D4F4B202020004F646F6D6527
:1020B0007465723A5F2020202020202000257320A4
:1020C0000020202573202573200050756D7020504E
:1020D000726F6475637420416D6F756E7400507516
:1020E0006D702050726F6475637420566F6C756DDF
:1020F0006500202054616E6B00202025732025731D
:10210000200050756D702050726F647563742020CC
:102110002046756C6C005B2A5D4261636B20205B1E
:10212000235D4F4B202020202020005B325D416D3D
:102130006F756E743A5F2020202020202020200020
:10214000202020202020202020202020202020208F
:1021500020202020005025732D257320005B2A5D50
:102160004261636B20205B235D4F4B2020202020A9
:10217000200020202020202020202020202020207F
:10218000202020202020005B315D566F6C756D652E
:102190003A5F202020202020202020005025732D71
:1021A000257320004100410056005B2A5D426163B7
:1021B0006B202020205B235D4E6578742020005B1F
:1021C000325D416D6F756E7420202020202020200C
:1021D000202020005B315D566F6C756D65202020DE
:1021E0002020202020202020005025732D25732022
:1021F000002573005B2A5D4261636B202020202054
:102200002020202020202020002020202020002509
:10221000642E257300257300506F6D70612D25733A
:1022200000252E326400252E3264005B2A5D426157
:1022300074616C202020202020205B235D4F4B0008
:102240002573202573002573002573002573004B2B
:10225000617274752054657262617461732020200C
:1022600020202000546964616B20546572646166AB
:102270007461722020202020004461746120526526
:102280006365697665642020202020202000544367
:10229000502F4950204572726F722020202020203C
:1022A00020200053656E64696E67204661696C6525
:1022B000642020202020200020202020202020001A
:1022C00050726F7365730049443A257300202020D3
:1022D0004C6F63616C204163636F756E74202020C6
:1022E00000252E32640046393638434646420025E2
:1022F00073002573257325730025732573257325B6
:10230000730025732573002573004630303030305C
:102310003030453132333435364646464646002560
:1023200073257325640025732573256400257300C8
:1023300025732573002573257300257325730025E8
:1023400073257300257325730025730025733100F1
:10235000252E325800252E33642E252E33642E254B
:102360002E33642E252E336400252E33642E252E25
:1023700033642E252E33642E252E336400252E3211
:102380006400252E326400257320257300322E341C
:10239000370047654E69557300507265737320614D
:1023A0006E79206B65792E2E2020202020005B3155
:1023B0005D536C617665205B325D5374616E646160
:1023C0006C6F6E65003E00252E326400252E32644F
:1023D0000030003100256400252E32640025730092
:1023E0002573002573003C003C4F4B3E00256400E4
:1023F0002564002564003C536176696E673E004C9D
:10240000656E6774683A25640025730031300025D5
:102410007300257300257300257300257300252E96
:1024200032640025640025730025730025730025A0
:1024300064004E2F4100256400257300257300546D
:102440006964616B20416461205472616E73616BD9
:1024500073692000546F74616C697A6572416C6CA9
:10246000202020202000436C65617220446174614B
:1024700020546F74616C697A6572002020202020DE
:102480002020202020202020202020005265616470
:10249000792E2E2E202020202020202020202020B9
:1024A0000052656164792E2E2E20202020202020CD
:1024B0002020202020004E6F20526573706F6E73B5
:1024C000652E2E2020202020202000506C65617376
:1024D0006520576169742E2E2020202020202000A6
:1024E00052656164792E2E2E20202020202020206D
:1024F0002020202000546964616B204164612054D5
:1025000072616E73616B73692000536564616E67FD
:1025100050726F7365730034333536413331410087
:1025200020202020202020202020202020202020AB
:1025300020202020002020202020202020202020BB
:1025400020202020202020202000202020202020AB
:10255000202020202020202020202020202000209B
:10256000202020202020202020202020202020206B
:102570002020200030202E000000312E2C3F210092
:102580003261626300003364656600003467686925
:102590000000356A6B6C0000366D6E6F000037709E
:1025A00071727300387475760000397778797A0023
:1025B00030202E0000003126402B2D0032414243B6
:1025C0000000334445460000344748490000354A7E
:1025D0004B4C0000364D4E4F0000375051525300C7
:1025E000385455560000395758595A00020403030D
:1025F00003030304030411241FBECFEFD0E1DEBFA9
:10260000CDBF11E0A0E0B1E0EEE3FCE501E00BBFDF
:1026100002C007900D92AC35B107D9F71CE0ACE5CC
:10262000B1E001C01D92A43BB107E1F70E94D013B5
:102630000C941DAE0C9400001092BB0204B600FE78
:1026400030C014BE81E061E046EA52E00E9419A564
:1026500081E08093BB028FEF8093620080EF8093D4
:10266000610081E00E948BA60E94ECA5853389F56C
:1026700082E090E00E9404168EB588608EBD87B718
:10268000806187BF789488E09DE39BBD8ABD8EB54D
:1026900083608EBD0E9482738130E1F70E9446A55F
:1026A00018C004B601FE06C014BE81E061E04DE929
:1026B00052E00DC004B602FE06C014BE81E061E027
:1026C00044E952E004C081E061E04BE852E00E943E
:1026D00019A514BE80EE9EE220E731E0F9013197A2
:1026E000F1F70197D9F708950E9467A40E9446A5C3
:1026F0000E94AA160E941C1384E061E04CE752E09D
:102700000E9419A588EB9BE020E731E0F9013197A1
:10271000F1F70197D9F79FEF9BBB9ABBDB9A98BB68
:1027200097BB8DE082BB89E081BB909370008EE007
:1027300083B982B91B9A1A989093620080EF8093B4
:10274000610080E061E00E94FBA6BB9AC39ABA9840
:10275000C29AB998C19A8EB588608EBD87B78061DC
:1027600087BF789488E09DE39BBD8ABD8EB583606A
:102770008EBD81E060E00E940B600E94AA7981E03A
:102780008093AF021092B002809165008D7F80939C
:1027900065000E94A3450E9447910E9446A50895A6
:1027A0000E9474130E9430A2FDCF1F920F920FB6A9
:1027B0000F9211242F936F937F938F939F93809108
:1027C000AF02813081F48091B0028F5F8093B002BC
:1027D000863949F41092AF021092B00280916500E0
:1027E0008260809365008091BC01882331F0815024
:1027F0008093BC01BD9AC59805C098B388B38095F5
:10280000892B88BB8091BA018F5F8093BA01809138
:1028100090018F5F80939001209191012F5F209311
:102820009101822F65E00E947FAA992371F483B100
:1028300094E0892783B9809192018F5F8093920100
:102840008091B6018F5F8093B601822F6AE00E946B
:102850007FAA992329F48091BB018F5F8093BB01EC
:102860008091790C8F5F8093790C9F918F917F91EC
:102870006F912F910F900FBE0F901F90189586E1CA
:1028800008950895E82FF0E0EE31F10570F5EA5B68
:10289000FF4FEE0FFF1F0590F491E02D099481E3A7
:1028A000089585E4089582E3089583E3089584E319
:1028B000089585E3089589E608958EE6089581E6F2
:1028C000089584E608958FE4089586E4089583E5E5
:1028D00008958DE2089580E5089589E4089586E5D8
:1028E000089584E5089584E7089588E7089580931E
:1028F000A8056093D40B81E0809384010895282F6C
:10290000823039F481E08093A4021092A3021092E5
:10291000A2028091A402813069F48091A202909178
:10292000A302FC01E25EF64F208301969093A3027E
:102930008093A202233041F08091A2029091A302E1
:102940008D34910508F499C01092A40230912009A9
:10295000305180911F092AE0829FC0011124380F55
:10296000333009F065C0E1E2F9E0A8E8BCE081910C
:102970008D9389E0E732F807D1F710928E0C8081B1
:102980008093BA0781818093BB071092BC0732966F
:10299000A4EABCE081918D9389E0E833F807D1F790
:1029A0001092B30CAAE8BBE081918D9389E0EB34DF
:1029B000F807D1F710929D0B20E030E0F901EF50BD
:1029C000F84FD901A25EB64F9D968C9180832F5F00
:1029D0003F4F2630310591F71092F70720E030E0A5
:1029E000F901EC5AF84FD901A25EB64FD3968C91FB
:1029F00080832F5F3F4F2A30310591F710925E0799
:102A000020E030E0F901E054F44FD901A25EB64F66
:102A1000DD968C9180832F5F3F4F2E30310591F7EB
:102A20001092CE0B81E08093990180939A010895D2
:102A3000343019F5E1E2F9E0A1EFB7E081918D932F
:102A400089E0E732F807D1F71092F707A4E5B7E07D
:102A500081918D9389E0E133F807D1F710925E07F9
:102A6000A0ECBBE081918D9389E0EF33F807D1F7BB
:102A70001092CE0B81E080939B0108950895982FCA
:102A8000E0E7F8E080818183319788E0ED35F80751
:102A9000C9F79F012F5F3F4F918384858230F9F4FE
:102AA00080915F088A30D9F49330C9F4F9013A96DD
:102AB000A2E5BCE080818D93319788E0E036F8078D
:102AC000C9F710925A0C81E0809398018093AF026D
:102AD0001092B002809165008D7F8093650008950B
:102AE0001F920F920FB60F9211248F939F939CB158
:102AF0008091B201813021F08091B401813051F494
:102B0000933121F481E08093B30104C0913111F439
:102B10001092B3019F918F910F900FBE0F901F9055
:102B2000189580E00895282F8091A0028936E9F455
:102B300080919F028334C9F480919E028F36A9F45C
:102B400080919D028E3689F480919C02863669F4CC
:102B500080919B028F3349F480919A028D3029F441
:102B60002A3019F482E08093B00180918501813090
:102B700069F48091890190918A01FC01E25EF64F2F
:102B80002083019690938A018093890180919A0213
:102B9000843051F42034E9F481E08093850110926F
:102BA0008A011092890115C0853099F4203589F485
:102BB0008091890190918A0190938C0180938B017F
:102BC00010928A01109289011092850181E0809310
:102BD000B00180919F028093A00280919E02809319
:102BE0009F0280919D0280939E0280919C0280931F
:102BF0009D0280919B0280939C0280919A02809317
:102C00009B0220939A020895BD9AC5988093BC01B7
:102C1000089508958F70089582958F700895982F64
:102C20008A3010F4805D08958A50863010F080E07C
:102C30000895892F895C0895FF920F931F93F82EB2
:102C40008B0182958F700E940F16F80180838F2D63
:102C50008F700E940F16F801818312821F910F91CD
:102C6000FF900895FC0180812AE0829F9001112449
:102C70008051820F0895582FFB0164E60E947FAABD
:102C8000A82F852F0E947FAA892F6AE00E947FAA21
:102C9000482F8CE99FEFA89F802D1124850F26EFE8
:102CA0003FEF429F902D1124980F543640F0A05DC5
:102CB000A083405D4183905D9283138208955B30D1
:102CC00018F4905D908311820895089508950895F1
:102CD000089520E030E0F901E657F44FD901AE5AEB
:102CE000B34F8C9180832F5F3F4F2830310599F788
:102CF0001092920B0895CF93DF93DB01EC0120E05B
:102D000030E007C0FD01E20FF31F899180832F5F40
:102D10003F4F2417B8F3A40FB11D1C92DF91CF9140
:102D20000895CF93DF93DB01EC01C40FD11D40E088
:102D300050E007C0FD01E40FF51F899180834F5FCC
:102D40005F4F4217B8F3A20FB11D1C92DF91CF91D4
:102D50000895089581E08093AF021092B002E5E6F5
:102D6000F0E080818D7F80830895823059F0823039
:102D700018F0833021F409C020E835E208C020E0D3
:102D800030E005C020E03BE402C02BE936E1C90198
:102D9000089508950895089586270895089588232D
:102DA00019F0813049F511C0262F30E0240F311D74
:102DB000C9016AE070E00E94ACAA482FC9016AE02C
:102DC00070E00E94ACAA460F18C0662309F461E0C7
:102DD000442309F441E0469F90011124C9016AE0AF
:102DE00070E00E94ACAA462FC9016AE070E00E9420
:102DF000ACAA642F482FD8CF40E0842F089581E0FB
:102E00000895FF920F931F93CF93DF93F0905C018F
:102E1000EC0100E010E009C08EE00E9442149881AD
:102E2000981709F40F5F1F5F21961F15A8F3802FD5
:102E3000DF91CF911F910F91FF900895089508950C
:102E400081E008950895FC018081841718F48F5F54
:102E50008083089560830895FC018081681718F4C9
:102E600081508083089540830895582FFB01843654
:102E700000F164E60E947FAA482F852F0E947FAA56
:102E8000892F6AE00E947FAA405D40834053805DA5
:102E900081838053505D2CE93FEF429F402D1124E8
:102EA000450F26EF3FEF829F802D1124840F8283F0
:102EB00010C08A508A3578F480E38083852F6AE0D9
:102EC0000E947FAA805D8183852F0E947FAA905DEA
:102ED0009283138208955A3030F480E38083818393
:102EE000505D528313820895813029F0823019F0A9
:102EF000833009F080E008950895CF93DF93EB01CC
:102F0000DA01A80FB91F40E050E007C0FE01E40F4E
:102F1000F51F8D9180834F5F5F4F42175307B0F3CA
:102F2000C20FD31F1882DF91CF9108950F931F9383
:102F3000CF93DF938C01DB01EB01C40FD51F60E061
:102F400070E007C0F801E60FF71F808189936F5F7B
:102F50007F4F62177307B0F3A40FB51FA20FB31F03
:102F60001C92DF91CF911F910F910895FB01E80F03
:102F7000F91F8081089580911E09813051F480915C
:102F80008B0190918C018F9721F48091430980539C
:102F9000089580E008959091450920E030E0F9011E
:102FA000ED56F74FD901A25EB64F97968C9180836C
:102FB0002F5F3F4F2431310591F71092A70820E091
:102FC00030E0F901EC55F84FD901A25EB64FDB961F
:102FD0008C9180832F5F3F4F2431310591F7109200
:102FE000B80720E030E0F901E35EF74FD901A359BB
:102FF000B64F8C9180832F5F3F4F2431310599F775
:103000001092310820E030E0F901E952F44FD90183
:10301000AF57B64F8C9180832F5F3F4F24313105DE
:1030200099F71092EB0B892F8053089520E030E040
:10303000F901E657F44FD901A25EB64F95968C91EF
:1030400080832F5F3F4F2431310591F710929E0B03
:1030500020E030E0F901EB5DFC4FD901A25EB64FF4
:10306000D9968C9180832F5F3F4F2E31310591F798
:10307000109243038091750980938B0310928C0307
:1030800020E030E0F901EA5CF74FD901AA58B64FC9
:103090008C9180832F5F3F4F2830310599F7109234
:1030A0003E0820E030E0F901E158FC4FD901A25878
:1030B000B64F8C9180832F5F3F4F2A30310599F7AF
:1030C0001092890320E030E0F901E251F44FD90178
:1030D000A857B64F8C9180832F5F3F4F2A30310520
:1030E00099F71092F80B20E030E0F901E054F44F2A
:1030F000D901AE56B64F8C9180832F5F3F4F23315D
:10310000310599F71092D30B20E030E0F901EC542F
:10311000F44FD901AB55B64F8C9180832F5F3F4F51
:103120002730310599F71092BB0B20E030E0F90110
:10313000E454FD4FD901A455B64F8C9180832F5F85
:103140003F4F2430310599F71092C00280E0089576
:10315000CF93DF9380914309893511F490E801C042
:1031600090E080914409893509F490648091450983
:10317000893509F4906290618091460980538131CC
:1031800008F4982BC0918D01D0918E0120E030E0A1
:103190000BC0F901E351FC4FD901A25EB64F9C96DA
:1031A0008C9180832F5F3F4F2C173D0790F3C351C5
:1031B000DC4F1882892FDF91CF91089520E030E015
:1031C00006C0FC01E20FF31F40832F5F3F4F26171D
:1031D0003707B8F3089520E030E0F901E857F34FDE
:1031E000D901A25EB64F95968C9180832F5F3F4F99
:1031F0002630310591F710928E0C80914909809309
:10320000BA0780914A098093BB071092BC0720E05F
:1032100030E0F901E35FF74FD901A25EB64F9D960A
:103220008C9180832F5F3F4F2F30310591F71092A3
:103230001C0820E030E0F901E156FA4FD901A25E06
:10324000B64FDC968C9180832F5F3F4F263031053F
:1032500091F71092A50520E030E0F901EA58FC4F03
:10326000D901A05AB64F8C9180832F5F3F4F2830F1
:10327000310599F710927E0320E030E0F901EC541B
:10328000F44FD901A859B64F8C9180832F5F3F4FDF
:103290002830310599F71092BC0B8091700980930A
:1032A0008B0310928C0320E030E0F901E350FD4FD6
:1032B000D901AF58B64F8C9180832F5F3F4F293093
:1032C000310599F71092060308951F93813009F094
:1032D0005FC06F32710521F080912401882321F4B1
:1032E00081E080939E014AC06C36710511F08930EF
:1032F00021F481E08093A30141C092E06736790711
:1033000011F08B3021F481E08093A00137C0613946
:10331000710511F0873121F481E08093A2012EC064
:10332000663E710511F0893321F481E08093A50197
:1033300025C091E06839790711F0833621F481E0E6
:1033400080939F011BC091E0663B790711F08135A6
:1033500021F481E08093A60111C06C35710511F054
:103360008B3521F481E08093A70108C06635710593
:1033700011F0853119F481E08093A1011091A7012A
:10338000113031F41092A7010E94EB1810939701AD
:103390001F910895FC01DC0180E090E202C09D9342
:1033A0008F5F8617E0F3E60FF11D10820895DC01B0
:1033B00020E030E09C9190539A3008F090E0119614
:1033C0008C91119780538A3008F080E0FB01E20F66
:1033D000F31F8F709295907F982B90832F5F3F4FB4
:1033E00012962630310531F70895CF93DF93EB0124
:1033F000DB0120E030E0FC01E20FF31FE0814E2F03
:1034000042954F704A3010F040E301C0405DEF70CC
:10341000EA3010F0E0E301C0E05D4C931196EC93CC
:1034200011972F5F3F4F12962630310521F71C86EA
:10343000DF91CF910895861708F4865F861B805D23
:1034400008958056860F6AE00E948BAA892F805DBE
:1034500008958A3010F080E30895805D08958053C8
:103460008A3008F080E008950895482FFB0118166F
:1034700064F4562FDB0190E29D938A2F851B8417FD
:10348000D8F3E40FF11D1082089580E28083118249
:103490000895863051F1873070F4833011F1843013
:1034A00028F48130C1F08230C1F419C08430D9F0E1
:1034B000853099F422C08930F1F08A3028F48730C1
:1034C000B1F0883051F415C08B30D9F08B30B8F0A2
:1034D0008C3019F418C08AED089580E0089582ECCC
:1034E00008958FEB089583EC089584EB089580ECA4
:1034F000089581EC089589ED089585EC089583EB96
:10350000089584EC08958DE00895BF92CF92DF92E4
:10351000EF92FF920F931F93CF93DF93B82E8B01FF
:10352000E42E6901F901C081D1810C0F1D1FFF2418
:1035300007C08B2D0E94491AF80181938F01F394E3
:10354000FE14B8F3CE0DD11DF601D183C083DF91F7
:10355000CF911F910F91FF90EF90DF90CF90BF9090
:10356000089508950895089508950895E82F282F3F
:103570002F70822F869586958695A82FB0E0AB5246
:10358000B44F4C91623059F4277081E090E002C052
:10359000880F991F2A95E2F7482B4C9308956330C2
:1035A000B1F427708EEF90E001C0880F2A95EAF7FA
:1035B000E695E695E695F0E0EB52F44F282F30E0E3
:1035C0002095309535952795822B84238083089507
:1035D0008F70E82FE695E695E695F0E0EB52F44F14
:1035E0009081292F30E0877002C0359527958A9504
:1035F000E2F72130310511F482E00895232B11F414
:1036000083E0089580E00895DF93CF93CDB7DEB7D0
:1036100062970FB6F894DEBF0FBECDBF2091BB03FB
:103620002F832091BC03288719862091BE032C8309
:103630002091BF032D831E822091C10329832091F5
:10364000C2032A831B82209175082A87209176085D
:103650002B871C86209178082D87209179082E874A
:103660001F8620917B08288B20917C08298B1A8A41
:103670002DB73EB7205130400FB6F8943EBF0FBE75
:103680002DBFEDB7FEB73196ADB7BEB712969C937E
:103690008E93119785E395E093838283CE01019603
:1036A00095838483CE01049697838683CE01079603
:1036B00091878087CE010A9693878287CE010D96E7
:1036C00095878487CE014096978786870E9417AB9F
:1036D0002DB73EB7205F3F4F0FB6F8943EBF0FBEE9
:1036E0002DBF62960FB6F894DEBF0FBECDBFCF914F
:1036F000DF91089500D000D000D0EDB7FEB731962D
:10370000ADB7BEB712967C936E93119729EE3EE04B
:1037100033832283848315820E9417AB8DB79EB7B3
:1037200006960FB6F8949EBF0FBE8DBF0895AF9258
:10373000BF92CF92DF92EF92FF920F931F93DF938E
:10374000CF93CDB7DEB72B970FB6F894DEBF0FBE81
:10375000CDBF0AE011E033E4E32E39E0F32E6E0131
:103760000894C11CD11C2BE0A22EB12CAC0EBD1EA6
:10377000F601D7018D918193EA15FB05D9F71B86D8
:10378000C601B8014BE050E00E9466AD055F1F4FD7
:103790008AE090E0E80EF91E91E00633190741F740
:1037A00080E02B960FB6F894DEBF0FBECDBFCF9151
:1037B000DF911F910F91FF90EF90DF90CF90BF901E
:1037C000AF900895AF92BF92DF92EF92FF920F9366
:1037D0001F93DF93CF93CDB7DEB7EC970FB6F89476
:1037E000DEBF0FBECDBF00D000D05BE0E52EF12CD8
:1037F000EC0EFD1EEDB7FEB7F282E18288E195E0A6
:10380000948383830E9417AB0F900F900F900F90BB
:10381000C70165E170E043E150E00E9466AD40EC15
:10382000D42ED98208EA0A8310E11B8386E48C83B4
:103830005E010894A11CB11CC50168E270E044E07F
:1038400050E00E9466ADD9820A831B8384EB8C838F
:10385000C5016CE270E044E050E00E9466AD80E398
:1038600090E061E00E9470AD81E390E067E00E942B
:1038700070AD82E390E065E00E9470AD83E390E07C
:1038800062E00E9470AD84E390E060E00E9470AD61
:1038900085E390E063E00E9470AD86E390E060E035
:1038A0000E9470AD87E390E061E00E9470AD88E314
:1038B00090E061E00E9470AD89E390E060E00E94DA
:1038C00070AD8AE390E063E00E9470AD8BE390E01E
:1038D00060E00E9470AD8DE390E062E00E9470AD08
:1038E0008EE390E060E00E9470AD8FE390E06CE2C8
:1038F0000E9470AD80E490E06EE20E9470AD8CE2B8
:1039000089838EE28A8380E28B838FE28C838DE2CF
:103910008D83C50161E470E045E050E00E9466AD32
:10392000DD24D394D98212E01A831B821C821D826B
:103930001E821F82C50166E470E048E050E00E94EC
:1039400066ADC5016EE470E048E050E00E9466ADEF
:10395000D9821A831B821C821D821E8206E510E01A
:10396000C501B80146E050E00E9466AD0A5F1F4FF6
:10397000C501B80146E050E00E9466AD00D000D01D
:10398000EDB7FEB7F282E18283E195E09483838311
:103990000E9417AB0F900F900F900F9006E810E069
:1039A000C701B80149E050E00E9466AD00D000D0E8
:1039B000EDB7FEB7F282E1828EE095E094838383D7
:1039C0000E9417AB0F900F900F900F90075F1F4F43
:1039D000C701B80149E050E00E9466AD00D000D0B8
:1039E000EDB7FEB7F282E18289E095E094838383AC
:1039F0000E9417AB0F900F900F900F90075F1F4F13
:103A0000C701B80149E050E00E9466AD00D000D087
:103A1000EDB7FEB7F282E18284E095E09483838380
:103A20000E9417AB0F900F900F900F90075F1F4FE2
:103A3000C701B80149E050E00E9466AD00D000D057
:103A4000EDB7FEB7F282E1828FEF94E09483838337
:103A50000E9417AB0F900F900F900F90075F1F4FB2
:103A6000C701B80149E050E00E9466AD00D000D027
:103A7000EDB7FEB7F282E1828AEF94E0948383830C
:103A80000E9417AB0F900F900F900F90075F1F4F82
:103A9000C701B80149E050E00E9466AD00D000D0F7
:103AA000EDB7FEB7F282E18281EF94E094838383E5
:103AB0000E9417AB0F900F900F900F900CEB10E03F
:103AC000C701B8014DE050E00E9466AD00D000D0C3
:103AD000EDB7FEB7F282E18288EE94E094838383AF
:103AE0000E9417AB0F900F900F900F90035F1F4F26
:103AF000C701B8014DE050E00E9466AD00D000D093
:103B0000EDB7FEB7F282E1828FED94E09483838378
:103B10000E9417AB0F900F900F900F90035F1F4FF5
:103B2000C701B8014DE050E00E9466AD00D000D062
:103B3000EDB7FEB7F282E18286ED94E09483838351
:103B40000E9417AB0F900F900F900F90035F1F4FC5
:103B5000C701B8014DE050E00E9466AD00D000D032
:103B6000EDB7FEB7F282E1828DEC94E0948383831B
:103B70000E9417AB0F900F900F900F90035F1F4F95
:103B8000C701B8014DE050E00E9466AD00D000D002
:103B9000EDB7FEB7F282E18284EC94E094838383F4
:103BA0000E9417AB0F900F900F900F90C7016DEF11
:103BB00070E04DE050E00E9466AD00D000D0EDB75F
:103BC000FEB7F282E18280EC94E0948383830E94CA
:103BD00017AB0F900F900F900F900AE011E0C70104
:103BE000B8014BE050E00E9466AD00D000D0EDB7C8
:103BF000FEB7F282E18288EB94E0948383830E9493
:103C000017AB0F900F900F900F90055F1F4FC701DC
:103C1000B8014BE050E00E9466AD00D000D0EDB797
:103C2000FEB7F282E18284EB94E0948383830E9466
:103C300017AB0F900F900F900F90055F1F4FC701AC
:103C4000B8014BE050E00E9466AD00D000D0EDB767
:103C5000FEB7F282E18280EB94E0948383830E943A
:103C600017AB0F900F900F900F90055F1F4FC7017C
:103C7000B8014BE050E00E9466AD86E391E060E061
:103C80000E9470AD87E391E061E00E9470AD88E32F
:103C900091E061E00E9470AD00D000D0EDB7FEB7BA
:103CA000F282E18289EA94E0948383830E9417ABD5
:103CB0000F900F900F900F90C70169E371E047E0FC
:103CC00050E00E9466AD80E491E061E00E9470AD3A
:103CD000D982DA8283E08B83DC82C50161E471E002
:103CE00044E050E00E9466AD85E491E064E00E940B
:103CF00070AD86E491E065E00E9470AD87E491E0EC
:103D000062E00E9470AD88E491E065E00E9470ADD1
:103D100089E491E065E00E9470AD8AE491E064E09E
:103D20000E9470AD8BE491E06AE00E9470AD82EC7D
:103D300093E061E00E9470AD83EC93E061E00E944B
:103D400070AD00D000D0EDB7FEB7F282E18280E81E
:103D500094E0948383830E9417AB0F900F900F9091
:103D60000F9008E212E0C701B80149E250E00E945A
:103D700066AD00D000D0EDB7FEB7F282E18287E5F4
:103D800094E0948383830E9417AB0F900F900F9061
:103D90000F90075D1F4FC701B80149E250E00E9434
:103DA00066AD00D000D0EDB7FEB7F282E1828EE2C0
:103DB00094E0948383830E9417AB0F900F900F9031
:103DC0000F90C7016AE772E049E250E00E9466ADD9
:103DD00000D000D0EDB7FEB7F282E18285E094E03A
:103DE000948383830E9417AB0F900F900F900F90D6
:103DF000C70163EA72E049E250E00E9466AD00D07C
:103E000000D0EDB7FEB7F282E1828CED93E09483AF
:103E100083830E9417AB0F900F900F900F90C701F4
:103E20006CEC72E049E250E00E9466AD00D000D038
:103E3000EDB7FEB7F282E18283EB93E09483838354
:103E40000E9417AB0F900F900F900F90C70165EF76
:103E500072E049E250E00E9466AD00D000D0EDB7BC
:103E6000FEB7F282E1828AE893E0948383830E9422
:103E700017AB0F900F900F900F90C7016EE173E09A
:103E800049E250E00E9466AD00D000D0EDB7FEB729
:103E9000F282E18281E693E0948383830E9417ABF0
:103EA0000F900F900F900F90C70167E473E049E205
:103EB00050E00E9466AD00D000D0EDB7FEB7F282B0
:103EC000E18288E393E0948383830E9417AB0F9091
:103ED0000F900F900F90C70160E773E049E250E048
:103EE0000E9466AD00D000D0EDB7FEB7F282E1824D
:103EF0008FE093E0948383830E9417AB0F900F9021
:103F00000F900F90C70169E973E049E250E00E9409
:103F100066AD80E090E061E00E9470ADEC960FB677
:103F2000F894DEBF0FBECDBFCF91DF911F910F91EF
:103F3000FF90EF90DF90BF90AF900895EF92FF92C7
:103F40000F931F93DF93CF9300D000D00F92CDB784
:103F5000DEB7182F88E391E00E945EAD811729F04B
:103F600088E391E0612F0E9470AD113019F012309A
:103F700071F408C0198283E08A831B8282E08C83FB
:103F80001D8205C019821A831B821C831D8309E3CD
:103F900010E07E010894E11CF11CC8010E945EAD96
:103FA000F7016081861719F0C8010E9470AD0F5F9C
:103FB0001F4F0894E11CF11CF0E00E331F0769F756
:103FC0000F900F900F900F900F90CF91DF911F9156
:103FD0000F91FF90EF90089585E491E00E945EAD0F
:103FE00080935C018AE491E00E945EAD80935D0164
:103FF0000895FF920F931F93DF93CF93CDB7DEB752
:1040000028970FB6F894DEBF0FBECDBFF82E8E01F5
:104010000F5F1F4FC80166E470E048E050E00E9467
:104020004EADF8019E01275F3F4F9E2F901B808170
:104030008F1519F4892F8F5F05C03196E217F307AA
:10404000A1F780E028960FB6F894DEBF0FBECDBF73
:10405000CF91DF911F910F91FF900895FF920F93E1
:104060001F93CF93DF93182FF62E803108F04AC0AC
:1040700088E391E00E945EAD80935E0181508230C2
:1040800008F4812F0E94F91F8823E1F18150C82F85
:10409000D0E080E10E9442148E010E5F1E4FF801B5
:1040A00090819817B1F0F0E1FF1621F0FE01E15A7E
:1040B000FE4FF0828F2D0E9442148E010E5F1E4F24
:1040C000F8018083F5E1FF16C1F4C15ADE4F888103
:1040D00010C0FE01E15AFE4F81E1F81611F4808113
:1040E00008C0F0828BE0F81621F0F4E1FF1629F405
:1040F00084E10E944214F80180831092120181E051
:1041000080930101DF91CF911F910F91FF9008954E
:104110001F93DF93CF93CDB7DEB728970FB6F894F0
:10412000DEBF0FBECDBF182FCE01019666E470E052
:1041300048E050E00E944EAD812F8150873010F052
:1041400080E004C0FE01E10FF11D808128960FB6CA
:10415000F894DEBF0FBECDBFCF91DF911F910895C0
:104160000F931F93DF93CF9300D000D000D0CDB733
:10417000DEB7962F4F702150263008F4522F882337
:10418000D9F464E2469FB0011124292F30E080E287
:1041900091E0FC012E9FC0012F9F900D3E9F900D3E
:1041A0001124680F791F86E0589FC0011124680F01
:1041B000791F6C537C4F1CC0813001F564E2469F2F
:1041C000B0011124292F30E080E291E0FC012E9F04
:1041D000C0012F9F900D3E9F900D1124680F791FF5
:1041E00086E0589FC0011124680F791F6C5F794FDA
:1041F000CE01019646E050E00E944EADCE01019600
:10420000B8010E94F51926960FB6F894DEBF0FBECE
:10421000CDBFCF91DF911F910F910895EF92FF9243
:104220000F931F93DF93CF93CDB7DEB7AC970FB645
:10423000F894DEBF0FBECDBF9AA789A77CA76BA756
:104240007A018E01055D1F4FC801BE016F5F7F4F70
:104250000E944EADCE018996B801A7010E9466ADBD
:10426000AC960FB6F894DEBF0FBECDBFCF91DF91F5
:104270001F910F91FF90EF900895DF92EF92FF92C0
:104280000F931F93DF93CF9300D000D00F92CDB741
:10429000DEB7D82E8E010F5F1F4FC80161E470E0BA
:1042A00045E050E00E944EADED2D21E030E0780178
:1042B000D8018C91D81649F4C90165E070E00E94DC
:1042C000ACAAF701E80FF91FE0810F5F1F4F2F5FC6
:1042D0003F4F2630310561F78E2F0F900F900F90D2
:1042E0000F900F90CF91DF911F910F91FF90EF9062
:1042F000DF900895AC01DC010D900020E9F71197E3
:10430000A81BB90B20E030E090E006C0E40FF51FD9
:104310008081280F311D9F5FE92FF0E0EA17FB072E
:10432000A8F3C9016FEF70E00E9498AA882309F4EE
:104330008FEF0895FF920F931F93DF93CF93CDB725
:10434000DEB72A970FB6F894DEBF0FBECDBFF82EAA
:1043500000D000D08E010F5F1F4FEDB7FEB7128364
:10436000018387E595E0948383830E9417ABD8018E
:104370000D900020E9F71197A01BB10B90E00F9072
:104380000F900F900F90980108C0E20FF31F8081EB
:104390008F1511F481E007C09F5FE92FF0E0EA1765
:1043A000FB0798F380E02A960FB6F894DEBF0FBEA5
:1043B000CDBFCF91DF911F910F91FF9008950F9383
:1043C0001F93CF93DF93AC01FB0101900020E9F72D
:1043D00031971E2F161BFC0101900020E9F7319741
:1043E0000E2F081BDB0160E018C09C91FA01808150
:1043F000981789F4ED0120E030E009C0FA01E20FDE
:10440000F31F908189912F5F3F4F981721F4201758
:10441000A8F3862F05C06F5F1196611730F3812FC7
:1044200090E0DF91CF911F910F9108957F928F922D
:104430009F92AF92BF92CF92DF92EF92FF920F9333
:104440001F93CF93DF935C016B014A01EC0109904C
:104450000020E9F72197C81BD90BCB32D10510F00A
:10446000CAE2D0E0F401008111817601E00EF11E74
:104470008AE00E94491A782EF701808398012F5F05
:104480003F4FD70190E007C0EA0DFB1D80818C9360
:104490002F5F3F4F9F5FE92FF0E01196EC17FD076C
:1044A00098F3622FCA32D10591F0F601E20FF31FA3
:1044B0004AE250E04C1B5D0B70E203C071932F5F2A
:1044C0003F4F822F861B90E084179507B8F3F601C3
:1044D000E20FF31F7082C9010196C80ED91E2DE0AC
:1044E000F60120830196F40191838083DF91CF91BF
:1044F0001F910F91FF90EF90DF90CF90BF90AF9002
:104500009F908F907F900895382FAB018150863017
:1045100068F5FB0101900020E9F73197E61BF70BE6
:104520007E2FEE2311F420E014C080E090E0632F92
:10453000605DFA01E80FF91FE0813A3010F020E3E6
:1045400001C0262FE21791F0282F2F5F01968717C1
:1045500080F3622F70E03A3010F080E302C0832FC6
:10456000805DFA01E60FF71F808311820895DC0158
:104570000D900020E9F71197A81BB90B20E030E05F
:1045800006C0FC01E20FF31F10822F5F3F4F2A1776
:104590003B07B8F308956F927F928F929F92BF92DC
:1045A000CF92DF92EF92FF920F931F93DF93CF93FF
:1045B000CDB7DEB764970FB6F894DEBF0FBECDBFA0
:1045C0007C016A01BB2430E0062F10E0005310404C
:1045D0003E010894611C711C62E0862E912C8C0EA9
:1045E0009D1E24C01197A41BB50BAE0DBF1D8C9151
:1045F00090E0C097BC01609FC001619F900D709FCB
:10460000900D1124232F280F822F6AE00E947FAA89
:10461000382FF301E40FF51F822F0E947FAA905DCF
:104620009083480D591DFA011082B3944B2D50E030
:10463000D7010D900020E9F71197AE19BF094A176D
:104640005B0780F2332389F0FE013196DF010D9084
:104650000020E9F71197AE1BB0E0EA0FFB1F305DB9
:104660003083AC0FBD1F12961C92DE011196FD0126
:1046700001900020E9F731979E2F9A1BA90FB11DD9
:10468000F60102C08C9181931197AC17BD07D1F749
:10469000C90ED11CF601108264960FB6F894DEBFE5
:1046A0000FBECDBFCF91DF911F910F91FF90EF9083
:1046B000DF90CF90BF909F908F907F906F900895E4
:1046C000AC01DC010D900020E9F71197A81BB90B94
:1046D00020E00AC0E40FF51F8081922F9F5F8D328A
:1046E00011F4892F0895292FE22FF0E0EA17FB0734
:1046F00088F380E008950E946023811181E008958D
:10470000CF93DF93EC010E947B23813019F5CE011A
:104710000E946023DE010D900020E9F71197AC1B89
:10472000B0E090E0A81BB90BAE01480F591F20E084
:1047300030E00AC0BE01620F731FFA018191AF0120
:10474000FB0180832F5F3F4F2A173B0798F3AC0F85
:10475000BD1F1C92DF91CF910895AC01272FFC0162
:1047600001900020E9F731977E2F781BA62FB22FFA
:10477000FD0101900020E9F73197E61BE71748F1AA
:104780007E1749F5862F922F9C01D90120E030E059
:104790001DC0FA01E20FF31FE081E053EA3010F090
:1047A00060E001C06E2F8C9180538A3010F090E051
:1047B00001C0982F961768F0EA3008F0E0E08A30E0
:1047C00010F4E81740F02F5F3F4F1196271708F3BA
:1047D00002C081E0089580E00895FC01019000206E
:1047E000E9F73197E81BDC01AE0FB11D90E020E046
:1047F00006C08C91803309F42F5F9F5F11979E173D
:10480000C0F380E02E1709F481E00895CF93DF9381
:1048100020E008C0FB01EC0FFD1FE491C80FD91F79
:10482000E8832F5FC22FD0E0FB0101900020E9F761
:104830003197E61BF70BCE17DF0760F3DF91CF91BF
:104840000895AC01DC010D900020E9F71197A81B39
:10485000B90B90E020E030E009C0FA01E20FF31F4D
:104860008081803209F09F5F2F5F3F4F2A173B07FF
:10487000A0F380E0992309F481E00895CF93DF93BA
:10488000EC018FE390E00E945EAD382F20E008C07D
:10489000FE01E80FF91F8081831709F410822F5F52
:1048A000822F90E0FE0101900020E9F73197EC1B88
:1048B000FD0B8E179F0760F3DF91CF910895CF9284
:1048C000DF92EF92FF920F931F93DF93CF93CDB7B9
:1048D000DEB767970FB6F894DEBF0FBECDBF7C0181
:1048E000D62EC42E00D000D0ADB7BEB712969C9382
:1048F0008E93119786E695E014969C938E9313976A
:104900000E9417AB0F900F900F900F908E01095FD0
:104910001F4FC80166E470E048E050E00E944EADD1
:10492000F8019E01215F3F4F9E2F901B80818D15C6
:1049300011F4892F05C03196E217F307A9F780E03B
:10494000B5E0BC15E8F166E0869FB00111246A5A13
:104950007F4FCE01019646E050E00E944EAD8E01A1
:10496000015F1F4FFE01EC0DF11D608189E0689F22
:10497000B001112463587F4FC80149E050E00E9404
:104980004EADC8010E943E2400D000D000D0EDB74B
:10499000FEB73196ADB7BEB71296FC92EE92119764
:1049A00083E695E093838283158304830E9417AB8B
:1049B000EDB7FEB736960FB6F894FEBF0FBEEDBF4B
:1049C00067960FB6F894DEBF0FBECDBFCF91DF91D3
:1049D0001F910F91FF90EF90DF90CF900895DF939C
:1049E000CF93CDB7DEB72B970FB6F894DEBF0FBECF
:1049F000CDBF982F9B01FB018085898381858A83A8
:104A000087818B8385818C8386818D8384818E834E
:104A1000992319F0913059F40FC0FB0180818F83E5
:104A2000818188878281898783818A871B8690E03C
:104A3000AE014F5F5F4F0FC0FB0182818F83838187
:104A400088871986F4CFF901EA0FFB1FA40FB51F61
:104A50008C9180839F5FA92FB0E0FA010190002024
:104A6000E9F73197E41BF50BAE17BF0760F32B9600
:104A70000FB6F894DEBF0FBECDBFCF91DF91089582
:104A8000CF93DF93EC01FC0101900020E9F731970F
:104A9000E81BE230D0F188818033B9F54C2FDE017C
:104AA00090E08C91803369F411968C91119780334A
:104AB00011F49F5F06C08E3211F08C3241F4915098
:104AC00006C011968A2F841B8E1758F301C09F5F72
:104AD0009E1710F09E2F915040E0892F90E02E2FCE
:104AE00030E0281B390BBE01680F791F09C0FE0199
:104AF000EA0FFB1FA60FB71F8C91808311824F5FB7
:104B0000A42FB0E0A217B30794F3DF91CF910895DB
:104B1000CF93DF93EC01FC0101900020E9F731977E
:104B20006E2F681B6230E0F188818032C9F54C2F0E
:104B3000FE0190E020E08081803241F4818180326A
:104B400021F4222319F49F5F01C021E031968E2FBA
:104B5000841B861780F3392F3F5F20E0432F50E0FE
:104B600009C0FE01E80FF91FDF01A40FB51F8C91EA
:104B700080832F5F822F90E0FE0101900020E9F7F3
:104B80003197EC1BFD0B8E179F0758F3862F831B65
:104B900005C0FE01E80FF11D10828F5F8617C8F374
:104BA000DF91CF9108950F931F93CF93DF93EC0183
:104BB000DC010D900020E9F71197A81BB0E020E080
:104BC00030E06A2F70E08B0101501040A15016C0F8
:104BD000AB01481B590BFE01E40FF51F3297808192
:104BE000803289F4FA013197EC0FFD1F2F5F3F4FA0
:104BF0008081803241F41082BA2FB21B822F90E064
:104C0000801791072CF3FE01EB0FF11D808180329C
:104C100009F410828881803209F41882FE01019023
:104C20000020E9F73197EC1BFD0BEC0FFD1F108204
:104C3000DF91CF911F910F9108951F931091570904
:104C400020E030E0F901E25EF64FD901A657B44FFB
:104C500095968C9180832F5F3F4F2431310591F7DA
:104C6000109232098AE89BE00E94882520E030E01B
:104C7000F901EB5DFC4FD901A25EB64FDC968C9139
:104C800080832F5F3F4F2832310591F710924D03FB
:104C900085E293E00E94D32520E030E0F901E45A58
:104CA000FC4FD901AA54B64F8C9180832F5F3F4FA0
:104CB0002931310599F7109275038CE593E00E9434
:104CC000D3258091CF098093E6021092E70220E07D
:104CD00030E0F901E750F44FD901A053B64F8C9161
:104CE00080832F5F3F4F2D30310599F71092060CCE
:104CF00089EF9BE00E94882520E030E0F901E55033
:104D0000F74FD901A352B64F8C9180832F5F3F4F4D
:104D10002A30310599F7109205098BEF98E00E942F
:104D2000D32520E030E0F901E658F84FD901A95128
:104D3000B64F8C9180832F5F3F4F2431310599F717
:104D400010928E078AE797E00E94D325812F8F5219
:104D50001F91089520E030E006C0FC01E20FF31F30
:104D600010822F5F3F4FFC0101900020E9F731973F
:104D7000E81BF90B2E173F0780F30895BF92CF92DF
:104D8000DF92EF92FF920F931F93DF93CF93CDB7F4
:104D9000DEB76E970FB6F894DEBF0FBECDBF8C01A5
:104DA000FC0101900020E9F731972E2F281B2617D0
:104DB000E0F57E010894E11CF11CF701BE2C90E3A4
:104DC00001C091938E2F8B198617D8F3462F50E090
:104DD000CE010196FC01E40FF51F1082762F721BA5
:104DE0006C0130E0241B350B0CC0E72FF0E0D6013E
:104DF000AE0FBF1FE00FF11FE20FF31F80818C93F6
:104E00007F5F761790F34C0D5D1DDA011C92F8015F
:104E100004C0D7018D917D0181938E2D8B1986174A
:104E2000C0F3060F111DF80110826E960FB6F894AC
:104E3000DEBF0FBECDBFCF91DF911F910F91FF90CD
:104E4000EF90DF90CF90BF9008950F931F93CF9373
:104E5000DF93182F062FEA01CA016DE00E94BE26DB
:104E6000812F0E94F91F482F882339F0415081E09B
:104E700061E0202F8E010E94B020DF91CF911F9121
:104E80000F9108950F931F93CF93DF93182F062F41
:104E9000EA01CA016BE00E94BE26812F0E94F91F21
:104EA000482F882339F0415080E061E0202F8E01A7
:104EB0000E94B020DF91CF911F910F910895EF9242
:104EC000FF920F931F93082F7B01CB016AE00E9492
:104ED000BE2600D000D000D0EDB7FEB73196ADB7FA
:104EE000BEB71296FC92EE92119789E495E09383F7
:104EF000828310E00F70107085E390E09C01029FA8
:104F0000C001039F900D129F900D11248B529A4F58
:104F1000958384830E9417AB8DB79EB706960FB614
:104F2000F8949EBF0FBE8DBF1F910F91FF90EF9021
:104F30000895EF92FF920F931F93082F7B01CB01EF
:104F40006AE00E94BE2600D000D000D0EDB7FEB7C8
:104F50003196ADB7BEB71296FC92EE9211978CE4E3
:104F600095E09383828310E00F70107085E390E0EA
:104F70009C01029FC001039F900D129F900D112470
:104F800084539A4F958384830E9417AB8DB79EB745
:104F900006960FB6F8949EBF0FBE8DBF1F910F915E
:104FA000FF90EF900895AF92BF92CF92DF92EF9271
:104FB000FF920F931F93DF93CF93CDB7DEB7659723
:104FC0000FB6F894DEBF0FBECDBFD82EC62EB42EBE
:104FD000A22ED8010D900020E9F71197A01BB10B6C
:104FE00077E0E72EF12CEC0EFD1EAD30B10558F543
:104FF00000D000D000D0EDB7FEB73196ADB7BEB748
:105000001296FC92EE9211978EE197E09383828341
:10501000158304830E9417ABF70101900020E9F784
:105020003197EE19FF094DB75EB74A5F5F4F0FB674
:10503000F8945EBF0FBE4DBF3C97A0F4C7016CE073
:105040000E94BE260FC08A2F8C50F801E80FF11D78
:10505000D7019E012D5E3F4F81918D93A217B3071B
:10506000D9F71B8A0B2D0F701A2D1150163008F02E
:1050700010E0CE0107967E010894E11CF11CB701F7
:105080000E94D719DD20D9F464E2069FB0011124F3
:105090002C2D30E080E291E0DC012A9FC0012B9FA3
:1050A000900D3A9F900D1124680F791F86E0189F8C
:1050B000C0011124680F791F6C537C4F1DC0B1E0F3
:1050C000DB16F9F464E2069FB00111242C2D30E0C8
:1050D00080E291E0AC01249FC001259F900D349F98
:1050E000900D1124680F791F86E0189FC0011124CC
:1050F000680F791F6C5F794FC70146E050E00E944E
:1051000066AD65960FB6F894DEBF0FBECDBFCF91EA
:10511000DF911F910F91FF90EF90DF90CF90BF90A4
:10512000AF9008954F925F927F928F929F92AF922D
:10513000BF92CF92DF92EF92FF920F931F93DF9374
:10514000CF93CDB7DEB72F970FB6F894DEBF0FBE63
:10515000CDBF772473944E010894811C911CE0E12B
:105160004E2E512C4C0E5D1E872D0E94F91F882358
:1051700091F1A82EAA94BB24B3942AC0F7011192EE
:105180007F01E415F505D1F780E061E04A2D2B2D74
:1051900084010E94B02080E060E04A2D2B2D0E9407
:1051A000D327F60111926F01EE15FF05D1F781E0CB
:1051B00061E04A2D2B2D84010E94B02081E060E047
:1051C0004A2D2B2D0E94D327B394F7E0BF1619F078
:1051D00064017401D3CF739481E1781629F62F9678
:1051E0000FB6F894DEBF0FBECDBFCF91DF911F91F8
:1051F0000F91FF90EF90DF90CF90BF90AF909F9076
:105200008F907F905F904F900895AF92BF92CF9212
:10521000DF92EF92FF920F931F93DF93CF93CDB75F
:10522000DEB729970FB6F894DEBF0FBECDBFA82E0C
:1052300000D000D06E010894C11CD11CEDB7FEB7A0
:10524000D282C18281E297E0948383830E9417AB6C
:10525000EE24E3940F900F900F900F908E2D0E94EC
:10526000F91F8823A9F0B82EBA94FF24F39480E0A4
:105270006A2D4B2D2F2D86010E94D32781E06A2DA8
:105280004B2D2F2D0E94D327F394F7E0FF1679F7CB
:10529000E39481E1E81611F729960FB6F894DEBF82
:1052A0000FBECDBFCF91DF911F910F91FF90EF9077
:1052B000DF90CF90BF90AF900895CF93DF93EC0134
:1052C000DC010D900020E9F71197A81BB90BA61778
:1052D00060F48A2F90E3FE01E80FF11D90838F5F49
:1052E0008617C8F3C60FD11D1882DF91CF9108959C
:1052F0003F924F925F926F927F928F929F92AF9266
:10530000BF92CF92DF92EF92FF920F931F93DF93A2
:10531000CF93CDB7DEB7C855D0400FB6F894DEBFF7
:105320000FBECDBF682E67967FAF6EAF6797699649
:105330005FAF4EAF69975901FE013196CE01459698
:105340001192E817F907E1F7CE0189961192E81753
:10535000F907E1F7FE01FD96CF0144961192E81797
:10536000F907E1F700D000D000D0EDB7FEB73196D5
:105370008E010F5F1F4FADB7BEB712961C930E93F1
:1053800011978BE197E09383828367962EAD3FADB3
:105390006797358324830E9417ABEDB7FEB731962C
:1053A000CE014596ADB7BEB712969C938E931197DA
:1053B00088E197E09383828369962EAD3FAD69972C
:1053C000358324830E9417AB8DB79EB706960FB620
:1053D000F8949EBF0FBE8DBFC8010E947B23813011
:1053E00021F065961FAE659707C0C8010E94802313
:1053F00091E065969FAF65978E010B5E1F4FC801C8
:105400000E947B23813021F064961FAE649707C011
:10541000C8010E948023A1E06496AFAF6497FE01AB
:105420003196DF010D900020E9F7CD0101978E1B29
:105430009F0BDE015596FD0101900020E9F73197A1
:105440001E2F1A1B181708F4182F1F5F7E010894CF
:10545000E11CF11CC701612F0E94BE2605E1C02E90
:10546000D12CCC0EDD1EC601612F0E94BE26F70195
:1054700001900020E9F731977E2E7E18F601019009
:105480000020E9F731979E2E9C18C601B7010E94B3
:10549000AD23813011F080E042C000D000D000D0B8
:1054A000EDB7FEB731968E01075D1F4FADB7BEB7A2
:1054B00012961C930E93119785E197E09383828354
:1054C000F582E4820E9417ABEDB7FEB73196ADB717
:1054D000BEB71296FC92EE92119782E197E0938309
:1054E0008283D582C4820E9417ABEDB7FEB7319696
:1054F000ADB7BEB71296DC92CE9211978FE097E0CF
:1055000093838283158304830E9417AB81E0EDB7F8
:10551000FEB736960FB6F894FEBF0FBEEDBF6620FD
:1055200039F5813099F46596FFAD6597F13039F41E
:1055300064962FAD6497213009F09EC142C06496F5
:105540003FAD6497313009F08EC192C165968FAD41
:105550006597813039F464969FAD6497913009F076
:105560008BC181C16496AFAD6497A13051F580C104
:10557000B1E06B1631F5813091F46596EFAD65972A
:10558000E13031F46496FFAD6497F130D1F474C129
:1055900064962FAD6497213009F06AC164C16596A5
:1055A0003FAD6597313039F464968FAD64978130A3
:1055B00009F059C161C164969FAD6497913009F0BB
:1055C00057C162961FAE6297E72CFF2467010894CB
:1055D000C108D108AE01435C5F4F4C0D5D1DCE018B
:1055E00001968C010C0D1D1DBE01690D711D6C5EB7
:1055F0007F4F99242C01B9E38B2E9AE052C0D80139
:105600008C9180538A3010F020E001C0282FFB01DC
:10561000308130533A3010F4231740F08A3008F0CC
:1056200080E03A3008F030E0831B2DC08A3010F45F
:10563000831780F5292D0AC0F601E21BF109D2017A
:10564000AE0FBF1F8C91803329F48C922F5F2715EA
:1056500098F310C0282F20532A3008F020E0822F22
:1056600081508A3010F080E302C0822F815DE40D0A
:10567000F51D8083F801208120532A3008F020E0B6
:10568000892F831B820F8A3010F080E301C0805D78
:10569000DA018C9393944150504001501040615076
:1056A0007040971408F4ABCF8E01035C1F4FE00EDF
:1056B000F11EF7011082C8010E944025F8010190F7
:1056C0000020E9F731973E2F301BD80120E090E011
:1056D0004DE213C0222351F46296FFAD6297F13080
:1056E00029F4F501E90FF11D40839F5FF501E90FF2
:1056F000F11D8D9180839F5F2F5F231758F3F50174
:10570000E90FF11D1082A0C0ADE3EA2EF12CEC0EE2
:10571000FD1EAE01490D511D4C5E5F4F072D10E07F
:105720004801089481089108CE0101966C01C80CCB
:10573000D91C30E020E02C01F0E33F2E47C0D60119
:105740009C9190539A3008F090E0FA018081805348
:105750008A3008F080E0890F8A3018F4805DD70124
:1057600028C06AE00E947FAA9A3010F090E301C03E
:10577000905DF7019083832F0EC0D401A81BB1095F
:10578000F201EA0FFB1F908190539A3008F079C024
:10579000993029F430828F5F871578F30DC0892FF7
:1057A0008F5F8A3010F080E302C0892F8F5CA40DD8
:1057B000B51D8C9320E001C021E03F5F0894E11CFF
:1057C000F11C415050400894C108D108371508F425
:1057D000B6CF205DDE01DD96FD01E00FF11F2083D5
:1057E0000C0F1D1FF80116AEFD0101900020E9F716
:1057F00031975E2F5A1B252F30E0215030402A0F61
:105800003B1F40E090E06DE216C0442351F46396E4
:10581000FFAD6397F13029F4F501E90FF11D6083C5
:105820009F5FF501E90FF11DD9018C9180839F5F86
:105830004F5F21503040451740F3F501E90FF11D4E
:105840001082C5010E944025B2E06B16E1F4679614
:105850008EAD9FAD679769966EAD7FAD6997A501D7
:105860000E945C2C10C0E1E06296EFAF6297ACCE74
:1058700063961FAE639748CFF1E06396FFAF6397DF
:1058800043CF90E08CCFC85ADF4F0FB6F894DEBFFD
:105890000FBECDBFCF91DF911F910F91FF90EF9081
:1058A000DF90CF90BF90AF909F908F907F906F9040
:1058B0005F904F903F9008954F925F926F927F92CA
:1058C0008F929F92AF92BF92CF92DF92EF92FF9210
:1058D0000F931F93DF93CF93CDB7DEB7A8970FB683
:1058E000F894DEBF0FBECDBF3C016B012A010E94C0
:1058F0004025C6010E944025D6010D900020E9F701
:1059000011978A2E8C1800D000D08E010F5F1F4F88
:10591000ADB7BEB712961C930E9311978DE097E02A
:1059200014969C938E9313970E9417AB85E1E82EF3
:10593000F12CEC0EFD1EEDB7FEB7F282E1828BE09A
:1059400097E0948383830E9417ABBB240F900F9042
:105950000F900F90A02E912E082D10E001501040B6
:105960001FC0F801E81BF90BEC0DFD1DC3016081A0
:10597000A7010E94CB22F70101900020E9F731979F
:10598000EE19FF096B2D6E0FC7010E945D2981E0A2
:105990006A2D792DA7012A2D392D0E947829B394DB
:1059A000F60101900020E9F73197EC19FD098B2DE4
:1059B00090E08E179F07A8F200D000D000D0EDB77E
:1059C000FEB73196ADB7BEB712965C924E92119764
:1059D00088E097E093838283A48295820E9417AB2C
:1059E000EDB7FEB736960FB6F894FEBF0FBEEDBF0B
:1059F000A8960FB6F894DEBF0FBECDBFCF91DF9152
:105A00001F910F91FF90EF90DF90CF90BF90AF90DC
:105A10009F908F907F906F905F904F900895CF925E
:105A2000DF92EF92FF920F931F93DF93CF93CDB747
:105A3000DEB764970FB6F894DEBF0FBECDBFD82E89
:105A4000C92EA82FB92FFD0101900020E9F7319749
:105A50004E2F481B20E030E07E010894E11CF11C31
:105A6000042F10E00EC0F701E20FF31FC801821BE4
:105A7000930B642F70E00E94ACAA605D60832F5F7F
:105A80003F4F241780F30E0D1F1DF801108281E097
:105A9000B7014D2D5C2D2D2D3C2D0E94782964964B
:105AA0000FB6F894DEBF0FBECDBFCF91DF911F912F
:105AB0000F91FF90EF90DF90CF900895BF92CF921B
:105AC000DF92EF92FF920F931F93DF93CF93CDB7A7
:105AD000DEB7E2970FB6F894DEBF0FBECDBF8C01E4
