:100000000C9451010C946E010C946E010C946E01D1
:100010000C946E010C946E010C946E010C946E01A4
:100020000C946E010C946E010C946E010C946E0194
:100030000C946E010C946E010C946E010C946E0184
:100040000C946E010C9470010C94591A0C94AC072A
:100050000C947C070C946E010C946E010C946E0150
:100060000C946E010C946E010C946E010C946E0154
:10007000560EA90ECC0EF90EFF0E0A0F1F0F5F0FC2
:10008000EB0F61108A102F10F20FFF0F3710441082
:10009000461190109D10C21046116F10C410860FAB
:1000A000940F7B10E410F710FD100A112E1130117F
:1000B0003C11BD110D12471256128E12A412B61227
:1000C000C4120215BC13CE13F61302140E145B13E4
:1000D0006D138B1397131F14331472147F14811430
:1000E000881492149F14A514B41405172117441AE8
:1000F0001D189417BE17441A441A4A188A18441A2D
:10010000441AB518441A98199D19A219441A441A88
:10011000BB18F0181A1944196E19441A441AAB196D
:100120004B17E5190A1A3E1A421A496E6974696139
:100130006C697A656400256400257325730030328C
:10014000252E3264002564003031252E3264252EA0
:100150003164252E3164257325732573005478503E
:10016000756D7049443A256400506F6F6C52657329
:100170007461727465640047506F6F6C3A25640057
:10018000547850756D7049443A2564005478507520
:100190006D7049443A256400506F6F6C52657374FA
:1001A00061727465640057506F6F6C3A2564005338
:1001B000435F434C4541525F50554D5049443A5B73
:1001C000252E32585D0053435F5345545F50554DC3
:1001D0005049443A5B252E32585D00506F6F6C5485
:1001E000727953656E643A25640044656C61794E9A
:1001F00065787450756D703A256400506F6F6C545B
:10020000696D656F75743A256400506F6F6C547238
:100210007953656E643A2564004D617850756D7050
:100220003A2564004E6F50756D70436F756E743A69
:1002300025640050756D70556E4C6F636B3A256484
:100240000050756D704C6F636B3A25640052657198
:100250005472616E733A256400434F4D3A25642C05
:1002600025690050554D50414C4C0053435F544F4D
:1002700054414C495A45520053435F5345545F50D3
:10028000554D505F545950450050756D703A256476
:10029000005374616E64616C6F6E6500536C6176BF
:1002A000650011241FBECFEFD4E0DEBFCDBF11E04B
:1002B000A0E0B1E0E4EFFDE302C005900D92AE30A6
:1002C000B107D9F714E0AEE0B1E001C01D92A73349
:1002D000B107E1F70E949D160C94F81E0C940000E3
:1002E0001F920F920FB60F9211242F933F935F939B
:1002F0006F937F938F939F93AF93BF9380913A01B6
:100300008F5F80933A01609111040E947F1E9923B0
:1003100021F487B194E0892787B920911F0130919A
:1003200020012F5F3F4F3093200120931F0120FDBC
:1003300009C0809123049091240401969093240491
:1003400080932304C90164E670E00E948B1E892B10
:1003500029F48091DE028F5F8093DE0280910F048A
:100360009091100401969093100480930F04809153
:100370002101909122010196909322018093210105
:10038000BF91AF919F918F917F916F915F913F91BD
:100390002F910F900FBE0F901F90189508950895FC
:1003A000823059F0823018F0833021F409C020E8FF
:1003B00035E208C020E030E005C020E03BE402C0A8
:1003C0002BE936E1C901089580E00895D89ADB9AB7
:1003D000882321F0813019F4DB980895D898089586
:1003E0000895809100018230A9F420912601809126
:1003F0003501821710F41092DE029091DE02809196
:100400003604891728F41092DE0281E080930301FC
:1004100020933501089570E06827792720E041E0B6
:1004200050EACB019695879560FF04C0BC01642714
:10043000752701C0BC012F5F283099F7CB010895C3
:100440000895813019F0823071F407C0C19AB99AC9
:1004500084EC99E00197F1F7089586ED96E0019715
:10046000F1F7B99AC19808950895FC01E60FF11DBE
:10047000D90190E00DC0808182958F70805D8C9352
:1004800081918F70805D11968C9311979F5F12966A
:10049000941788F3E42FF0E0EE0FFF1FE20FF31F35
:1004A0001082089580910101813001F580E090E093
:1004B0002EE0FC01E657FD4F1082FC01ED5EFB4F84
:1004C0001082FC01E556FD4F2083FC01EB54FC4FEC
:1004D0002083FC01EB5DFB4F1082FC01E453FD4FD8
:1004E000108201968031910521F7089580910101D4
:1004F0008230F1F480E090E0FC01E657FD4F10827D
:10050000FC01ED5EFB4F1082FC01E556FD4F1082B1
:10051000FC01EB54FC4F1082FC01EB5DFB4F1082A1
:10052000FC01E453FD4F108201968031910521F7C3
:100530000895089583B7856083BF89B7826089BFB6
:1005400008958F70089582958F7008950895089585
:10055000282F80912B01863041F1873030F4843090
:1005600051F0853009F056C017C0873079F18A30D4
:1005700009F050C03BC090912A01913029F4822F9C
:100580008F7080933B0143C0923009F040C0822FAE
:100590008F708093E0023BC090912A019923B9F5B6
:1005A000822F8F708093F60232C0293F09F440C039
:1005B00090912A01E92FF0E0822F8F708A3010F09D
:1005C00080E301C0805DE455FD4F1FC02A3F91F1DB
:1005D00090912A01E92FF0E0822F8F708A3010F07D
:1005E00080E301C0805DE95AFD4F0FC02B3FF1F061
:1005F00090912A01E92FF0E0822F8F708A3010F05D
:1006000080E301C0805DE555FC4F808311829F5FD0
:1006100090932A01283F11F484E00FC0263F11F483
:1006200085E00BC0273F11F486E007C0293F11F495
:1006300087E003C02A3F31F48AE080932B011092B7
:100640002A0108952B3F49F480912A0180930B01E0
:100650008BE080932B0110922A010895282F80911E
:1006600029018230B9F0833009F44AC0813009F0A1
:100670007EC090912801992349F4822F8F70809336
:10068000DC02853018F085E08093DC029F5F909358
:1006900028016DC0822F807F803E09F068C0509194
:1006A000DC0230912801632F70E0822F8F708A3036
:1006B00010F040E302C0482F405D852F90E0FC0120
:1006C000B5E0EE0FFF1FBA95E1F7880F991FE81B01
:1006D000F90BE60FF71FE950FD4F4083852F90E09F
:1006E000FC0155E0EE0FFF1F5A95E1F7880F991FA7
:1006F000E81BF90BE950FD4FE60FF71F118234C0DC
:10070000822F807F803E99F57091DC023091280124
:10071000432F50E0822F8F708A3010F060E302C0C8
:10072000682F605D872F90E0FC01B5E0EE0FFF1FA2
:10073000BA95E1F7880F991FE81BF90BE950FD4FB7
:10074000E40FF51F6787872F90E0FC0175E0EE0F3F
:10075000FF1F7A95E1F7880F991FE81BF90BE95005
:10076000FD4FE40FF51F108A3F5F30932801263FAD
:1007700021F41092280181E013C0293F11F482E096
:1007800007C02A3F51F48091280180930C0183E037
:1007900080932901109228010895243F21F488E0D4
:1007A000809329010895253F19F489E08093290158
:1007B00008950895CF93DF93EC0120E00BC0FE0174
:1007C000E80FF91FDA01A81BB90BA60FB71F8C9110
:1007D00080832F5F822F90E08417950780F3C40FEA
:1007E000D51F1882DF91CF9108958F7008958A30B8
:1007F00010F080E30895805D0895982FEDE0F4E017
:1008000080818183319784E0E230F807C9F79183D2
:100810000895809304010895809104010895CF9371
:10082000DF93EB01DA01A80FB91F40E050E007C0E9
:10083000FE01E40FF51F8D9180834F5F5F4F4217DC
:100840005307B0F3C20FD31F1882DF91CF910895E1
:10085000FB01E80FF91F808108958A3010F4805D54
:100860000895803110F080E30895895C0895CF9356
:10087000DF93EB01DA01A80FB91F40E050E00EC092
:100880008C918F708A3010F080E301C0805DFE0192
:10089000E40FF51F80834F5F5F4F11974217530797
:1008A00078F3C20FD31F1882DF91CF910895089576
:1008B00020E030E006C0FC01E20FF31F40832F5F11
:1008C0003F4F26173707B8F3089581E061E04AE209
:1008D00051E00E94B51B0895BF92CF92DF92EF9234
:1008E000FF920F931F93DF93CF93CDB7DEB764973B
:1008F0000FB6F894DEBF0FBECDBF8C01FC01019096
:100900000020E9F731972E2F281B2617E0F57E01EE
:100910000894E11CF11CF701BE2C90E301C09193F7
:100920008E2F8B198617D8F3462F50E0CE010196F3
:10093000FC01E40FF51F1082762F721B6C0130E072
:10094000241B350B0CC0E72FF0E0D601AE0FBF1F04
:10095000E00FF11FE20FF31F80818C937F5F76170A
:1009600090F34C0D5D1DDA011C92F80104C0D70113
:100970008D917D0181938E2D8B198617C0F3060F03
:10098000111DF801108264960FB6F894DEBF0FBEF9
:10099000CDBFCF91DF911F910F91FF90EF90DF902E
:1009A000CF90BF900895CF93DF93EC01FC010190AD
:1009B0000020E9F73197E81BE230D0F188818033DD
:1009C000B9F54C2FDE0190E08C91803369F41196DB
:1009D0008C911197803311F49F5F06C08E3211F015
:1009E0008C3241F4915006C011968A2F841B8E17C9
:1009F00058F301C09F5F9E1710F09E2F915040E06A
:100A0000892F90E02E2F30E0281B390BBE01680F94
:100A1000791F09C0FE01EA0FFB1FA60FB71F8C91BB
:100A2000808311824F5FA42FB0E0A217B30794F325
:100A3000DF91CF9108950F931F9390911501E92FA6
:100A4000F0E0E35CFE4F8083963418F49F5F909350
:100A5000150120911501E22FF0E0E35CFE4F329783
:100A600090813296933009F0A3C08A3F09F0ABC061
:100A700080913E018F708093180100913F01009397
:100A80003301909140019093340187E080931901E4
:100A9000063071F59F3109F089C0293308F486C00A
:100AA00088E080931901009162010F7010E0C80185
:100AB00001979C0155E0220F331F5A95E1F7880FEB
:100AC000991F281B390B29503D4F8DE391E066E2B9
:100AD00045E00E943502C80135E0880F991F3A951C
:100AE000E1F7000F111F801B910B89509D4F38C0FB
:100AF0000130A9F4913009F059C0263208F456C0EB
:100B000086E0809319018DE391E06DE044E027E5F4
:100B100032E00E9435028DE391E061E116C00230BF
:100B200011F5983009F042C0233108F43FC086E047
:100B3000809319018DE391E064E044E027E532E021
:100B40000E9435028DE391E068E044E02BEA33E057
:100B50000E94350287E592E00E94D3048BEA93E07D
:100B60000E94D30423C0033009F59430F9F4809136
:100B7000440182958F70813021F482E080931901C5
:100B800010C0882371F48DE391E064E043E02CEA27
:100B900032E00E9435028CEA92E00E94D304009376
:100BA0001901809144018F7080931C0184E007C07B
:100BB000903749F4319780818A3F29F481E080930E
:100BC0001A011092150180911501A82FB0E0A35CC5
:100BD000BE4F13978C911396807F8035C1F4FD0131
:100BE000319780818A3F99F4FD013297808190E0AE
:100BF000807F9070803C910511F482E004C08035C4
:100C0000910519F483E080931A01109215011F9148
:100C10000F910895DF93CF93CDB7DEB764970FB6EA
:100C2000F894DEBF0FBECDBFAC01FC0101900020E7
:100C3000E9F731972E2F281BA22FB0E01197A80FAC
:100C4000B91FBE016F5F7F4FFB0103C08C91819381
:100C500011978E2F861B8217C8F3CE010196FC01D7
:100C6000E20FF11D108260E09C0109C0FA01EA0F59
:100C7000FB1FA20FB31F8C91808311826F5FA62F81
:100C8000B0E0F90101900020E9F73197E21BF30B86
:100C9000AE17BF0758F364960FB6F894DEBF0FBEC9
:100CA000CDBFCF91DF9108951F93CF93DF93182F7E
:100CB000EDE0F4E080818183319784E0E230F80751
:100CC000C9F71183909104019330D1F1943030F43D
:100CD000913069F0923009F09FC014C0953009F44A
:100CE00047C09530C0F1963009F096C078C0812F8A
:100CF00082958F7080938D011F7010930E019093D9
:100D00000F018AC090912301E92FF0E0812F8F70AD
:100D10008A3010F080E301C0805DE858FD4F808389
:100D200011821092100410920F04892F8F5F80930C
:100D30002301873008F470C081E0809310016CC0FB
:100D40001F3F09F069C01092270110921004109201
:100D50000F0486E00AC01F3F09F05EC01092270111
:100D60001092100410920F0485E08093040154C087
:100D7000812F0E942E03103F41F080910F0490912B
:100D80001004893C910508F447C0C0E0D0E09E0102
:100D9000CE01F5E0880F991FFA95E1F7220F331F76
:100DA000821B930B8A5F9C4F0E940A069E01CE0114
:100DB00075E0880F991F7A95E1F7220F331F821B88
:100DC000930B89509D4F0E940A062196C630D1058B
:100DD000F1F681E080930401809312011DC0812F00
:100DE0000E94A802103F39F080910F0490911004E6
:100DF000893C910588F08CEA92E00E940A0687E51A
:100E000092E00E940A068BEA93E00E940A0681E0C3
:100E10008093040180931101DF91CF911F91089578
:100E20000E94AC1A0895FF920F931F93CF93DF9304
:100E30008C01FF2406C0C00FD11F88810E94AC1A0C
:100E4000F394CF2DD0E0F80101900020E9F731971D
:100E5000E01BF10BCE17DF0770F3DF91CF911F91ED
:100E60000F91FF90089580E061E00E948A1ABE9A77
:100E7000C69ABD98C59ABF98C79A8A9A929A0895B9
:100E800081E060E00E948A1ABE98C69ABC9ABD9A18
:100E9000BF9AC79A8A9A929808950F931F93082F22
:100EA000162F0E94400787E00E94AC1A1F7002951F
:100EB000007F802F812B0E94AC1A88E00E94AC1A20
:100EC0000E9433071F910F9108950F931F93182FBE
:100ED000062F0E94400789E00E94AC1A812F0E94D1
:100EE000AC1A802F0E94AC1A8AE00E94AC1A0E94B1
:100EF00033071F910F9108951F920F920FB60F9213
:100F000011241F932F933F934F935F936F937F937E
:100F10008F939F93AF93BF93EF93FF9313B1809100
:100F20000001813039F40E944007812F0E94AC1AE1
:100F30000E943307FF91EF91BF91AF919F918F91E5
:100F40007F916F915F914F913F912F911F910F90E2
:100F50000FBE0F901F9018951F920F920FB60F9211
:100F600011241F932F933F934F935F936F937F931E
:100F70008F939F93AF93BF93EF93FF931CB1809197
:100F80000001813019F08230B9F408C00E94400796
:100F9000812F0E94AC1A0E9433070EC0809101017C
:100FA000813019F0823041F404C0812F0E94540630
:100FB00003C0812F0E941B05FF91EF91BF91AF915C
:100FC0009F918F917F916F915F914F913F912F9161
:100FD0001F910F900FBE0F901F9018956295607F24
:100FE000482F4F70462B80E061E00E94761B0895E9
:100FF0001F93182F81E00E94210280E061E0412FC1
:101000000E94761B82E00E9421021F9108950F9397
:101010001F93CF93DF93062FEC0110E004C089915A
:101020000E94F8071F5F1017D0F3DF91CF911F9137
:101030000F9108950F931F93DF93CF93CDB7DEB732
:101040006E970FB6F894DEBF0FBECDBF109215019C
:101050008A3049F18B3040F4853009F475C287300D
:10106000B1F0882371F0E1C38C3009F4F8C08C3002
:1010700008F487C08D3009F4ABC18E3009F0D5C3B8
:10108000DEC24F704065498380E28A8306C04F709C
:10109000406549836F70606C6A838AEF8B83CE01F1
:1010A000019663E0C0C34F704065842F90E050E02C
:1010B000E1E0F0EA9C013695279580FF04C0C90164
:1010C0008E279F2701C0C9015F5F583099F76F7065
:1010D0006063262F30E02827392750E0E1E0F0EA6E
:1010E000C9019695879520FF04C09C012E273F27B4
:1010F00001C09C015F5F583099F781E090E0822742
:10110000932750E0E1E0F0EA9C013695279580FFB7
:1011100004C0C9018E279F2701C0C9015F5F5830F5
:1011200099F721E030E02827392750E0E1E0F0EAA4
:10113000C9019695879520FF04C09C012E273F2763
:1011400001C09C015F5F583099F7E5E0F0E0E227CD
:10115000F32720E0A1E0B0EACF0196958795E0FF64
:1011600004C0FC01EA27FB2701C0FC012F5F2830E7
:1011700099F749836A8381E08B838C8385E08D8333
:1011800068C04F704065242F30E050E0E1E0F0EAA5
:10119000C9019695879520FF04C09C012E273F2703
:1011A00001C09C015F5F583099F76F706063862FB4
:1011B00090E08227932750E0E1E0F0EA9C01369529
:1011C000279580FF04C0C9018E279F2701C0C90150
:1011D0005F5F583099F721E030E02827392750E049
:1011E000E1E0F0EAC9019695879520FF04C09C01D3
:1011F0002E273F2701C09C015F5F583099F7E1E03F
:10120000F0E0E227F32780E0A1E0B0EA9F01369505
:101210002795E0FF04C0F901EA27FB2701C0F90187
:101220008F5F883099F780E0A1E0B0EA9F013695A2
:101230002795E0FF04C0F901EA27FB2701C0F90167
:101240008F5F883099F749836A8381E08B838C8331
:101250001D82EE838F2F992787FD9A95E7C14F70E6
:101260004065842F90E050E0E1E0F0EA9C01369583
:10127000279580FF04C0C9018E279F2701C0C9019F
:101280005F5F583099F76F706063262F30E0282732
:10129000392750E0E1E0F0EAC9019695879520FFF3
:1012A00004C09C012E273F2701C09C015F5F58307E
:1012B00099F784E090E08227932750E0E1E0F0EA9C
:1012C0009C013695279580FF04C0C9018E279F2772
:1012D00001C0C9015F5F583099F7E4E0F0E0E8270A
:1012E000F92720E0A1E0B0EACF0196958795E0FFCD
:1012F00004C0FC01EA27FB2701C0FC012F5F283056
:1013000099F700910701202F30E02E273F2750E06A
:10131000E1E0F0EAC9019695879520FF04C09C01A1
:101320002E273F2701C09C015F5F583099F710912D
:101330000801812F90E08227932750E0E1E0F0EA56
:101340009C013695279580FF04C0C9018E279F27F1
:1013500001C0C9015F5F583099F770910901272FCB
:1013600030E02827392750E0E1E0F0EAC9019695FE
:10137000879520FF04C09C012E273F2701C09C01B8
:101380005F5F583099F750910A01E52FF0E0E227AE
:10139000F32720E0A1E0B0EACF0196958795E0FF22
:1013A00004C0FC01EA27FB2701C0FC012F5F2830A5
:1013B00099F749836A8384E08B838C830D831E8332
:1013C0007F835887E9878F2F992787FD9A95B3C028
:1013D0004F704065842F90E030E0A1E0B0EAFC015E
:1013E000F695E79580FF04C0CF018A279B2701C0AF
:1013F000CF013F5F383099F76F706063E62FF0E000
:10140000E827F92730E0A1E0B0EACF01969587956B
:10141000E0FF04C0FC01EA27FB2701C0FC013F5F9D
:10142000383099F782E090E08E279F2730E0A1E0E6
:10143000B0EAFC01F695E79580FF04C0CF018A274A
:101440009B2701C0CF013F5F383099F7A1E0B0E0A2
:10145000A827B92730E0E1E0F0EACD01969587951D
:10146000A0FF04C0DC01AE27BF2701C0DC013F5F45
:10147000383099F72F70E22FF0E0EA27FB2730E0B1
:10148000A1E0B0EACF0196958795E0FF04C0FC018A
:10149000EA27FB2701C0FC013F5F383099F781E064
:1014A00090E08E279F2730E0A1E0B0EAFC01F6959E
:1014B000E79580FF04C0CF018A279B2701C0CF0199
:1014C0003F5F383099F7E1E0F0E0E827F92730E0B6
:1014D000A1E0B0EACF0196958795E0FF04C0FC013A
:1014E000EA27FB2701C0FC013F5F383099F7A6E0EF
:1014F000B0E0AE27BF2730E0E1E0F0EACD019695FD
:101500008795A0FF04C0DC01AE27BF2701C0DC0126
:101510003F5F383099F749836A8382E08B8381E0AB
:101520008C832D838E838F8386E08887A9878B2F7A
:10153000992787FD9A958A8783E08B878AEF8C8726
:10154000CE0101966CE06FC14F704065842F90E032
:1015500030E0A1E0B0EAFC01F695E79580FF04C019
:10156000CF018A279B2701C0CF013F5F383099F711
:101570006F706063E62FF0E0E827F92730E0A1E024
:10158000B0EACF0196958795E0FF04C0FC01EA27F9
:10159000FB2701C0FC013F5F383099F788E090E0FD
:1015A0008E279F2730E0A1E0B0EAFC01F695E79591
:1015B00080FF04C0CF018A279B2701C0CF013F5F76
:1015C000383099F7E1E0F0E0E827F92730E0A1E0D2
:1015D000B0EACF0196958795E0FF04C0FC01EA27A9
:1015E000FB2701C0FC013F5F383099F72F70A22F15
:1015F000B0E0AE27BF2730E0E1E0F0EACD019695FC
:101600008795A0FF04C0DC01AE27BF2701C0DC0125
:101610003F5F383099F749836A833B8381E08C834D
:101620002D83AE838B2F992787FD9A958F8383E037
:1016300088878AEF8987CE01019669E0F4C04F70F0
:101640004065842F90E050E0E1E0F0EA9C0136959F
:10165000279580FF04C0C9018E279F2701C0C901BB
:101660005F5F583099F76F706063262F30E028274E
:10167000392750E0E1E0F0EAC9019695879520FF0F
:1016800004C09C012E273F2701C09C015F5F58309A
:1016900099F781E090E08227932750E0E1E0F0EABB
:1016A0009C013695279580FF04C0C9018E279F278E
:1016B00001C0C9015F5F583099F721E030E0282769
:1016C000392750E0E1E0F0EAC9019695879520FFBF
:1016D00004C09C012E273F2701C09C015F5F58304A
:1016E00099F750E0E1E0F0EAC9019695879520FF6F
:1016F00004C09C012E273F2701C09C015F5F58302A
:1017000099F781E090E08227932750E0E1E0F0EA4A
:101710009C013695279580FF04C0C9018E279F271D
:1017200001C0C9015F5F583099F721E030E02827F8
:10173000392750E0E1E0F0EAC9019695879520FF4E
:1017400004C09C012E273F2701C09C015F5F5830D9
:1017500099F784E090E08227932750E0E1E0F0EAF7
:101760009C013695279580FF04C0C9018E279F27CD
:1017700001C0C9015F5F583099F721E030E02827A8
:10178000392750E0E1E0F0EAC9019695879520FFFE
:1017900004C09C012E273F2701C09C015F5F583089
:1017A00099F781E090E08227932750E0E1E0F0EAAA
:1017B0009C013695279580FF04C0C9018E279F277D
:1017C00001C0C9015F5F583099F7E3E0F0E0E82716
:1017D000F92720E0A1E0B0EACF0196958795E0FFD8
:1017E00004C0FC01EA27FB2701C0FC012F5F283061
:1017F00099F749836A8391E09B839C831D829E8332
:101800009F8384E0888799879A8723E02B87EC87DA
:101810008F2F992787FD9A958D872E878AEF8F873F
:10182000CE0101966FE00E9407086E960FB6F894FD
:10183000DEBF0FBECDBFCF91DF911F910F910895F5
:101840001F93CF93DF93182FEB01E199FECF84E034
:1018500090E09FBB8EBBE09A8DB3882341F40CC00F
:101860002196F9014491812F61E00E94761B9E012F
:10187000FE0184918823A1F7DF91CF911F910895F4
:101880004F925F926F927F928F929F92AF92BF9290
:10189000CF92DF92EF92FF920F931F93DF93CF933C
:1018A000CDB7DEB7A8970FB6F894DEBF0FBECDBF99
:1018B000803110F4F82E02C000E1F02E0E944007A3
:1018C00085E00E94AC1A80E50E94AC1A2E010894B3
:1018D000411C511C5201CE018996D5011D925D011A
:1018E000A817B907D1F700D000D000D0EDB7FEB7E8
:1018F00031968E010F5F1F4FADB7BEB712961C9386
:101900000E9311978EE391E093838283F482158284
:101910000E94DE1BEDB7FEB736960FB6F894FEBFF9
:101920000FBEEDBFC8010E941307EE24FF24902EC6
:10193000812E19E3612E11E0712EC7016701B5E018
:10194000CC0CDD1CBA95E1F7880F991FC81AD90A8B
:1019500086E093E0C80ED91EC6016CE00E946C04BC
:10196000C7018701F5E0000F111FFA95E1F7880F15
:10197000991F081B190B09501D4FC8016CE00E94EC
:101980006C04F2011192EA15FB05E1F7ADB7BEB7A1
:1019900018970FB6F894BEBF0FBEADBFEDB7FEB738
:1019A000319611969C92119712968C927382628254
:1019B00015830483D782C6820E94DE1BEDB7FEB773
:1019C00038960FB6F894FEBF0FBEEDBF892D982D47
:1019D0000E9413070894E11CF11CF6E0EF16F104D5
:1019E00009F0ABCF00D000D000D0EDB7FEB73196F4
:1019F000ADB7BEB711969C92119712968C9286E362
:101A000091E09383828380910C01848315820E94EC
:101A1000DE1BEDB7FEB736960FB6F894FEBF0FBECD
:101A2000EDBF892D982D0E94130786E00E94AC1A05
:101A300080E60E94AC1A0E9433078AEF90E001977B
:101A4000F1F7A8960FB6F894DEBF0FBECDBFCF91C9
:101A5000DF911F910F91FF90EF90DF90CF90BF909B
:101A6000AF909F908F907F906F905F904F90089570
:101A70006F927F928F929F92AF92BF92CF92DF929E
:101A8000EF92FF920F931F93DF93CF93CDB7DEB703
:101A90006E970FB6F894DEBF0FBECDBF682EB42E82
:101AA000722E4801C80166E00E946C04C70168E01C
:101AB0000E946C04C60168E00E946C0483E08B15F0
:101AC00010F04B2D01C044E093E0971510F0272D46
:101AD00001C024E0AFE0A61510F0362D01C030E1C2
:101AE0008DB79EB740970FB6F8949EBF0FBE8DBFBF
:101AF000EDB7FEB731968E010F5F1F4FADB7BEB782
:101B000012961C930E93119788E491E0938382833D
:101B100034831582468317822087118693868286B6
:101B2000F586E486D786C6860E94DE1B8DB79EB7F3
:101B300040960FB6F8949EBF0FBE8DBF0E9440071F
:101B400085E00E94AC1A80E50E94AC1AFF2406C012
:101B5000A00FB11F8C910E94AC1AF394F801019070
:101B60000020E9F73197E01BF10BAF2DB0E0AE1785
:101B7000BF0770F300D000D000D0EDB7FEB73196AC
:101B8000ADB7BEB712961C930E93119785E491E002
:101B900093838283A48215820E94DE1B8DB79EB739
:101BA00006960FB6F8949EBF0FBE8DBFC8010E9467
:101BB000130786E00E94AC1A80E60E94AC1A0E94CD
:101BC00033076E960FB6F894DEBF0FBECDBFCF9130
:101BD000DF911F910F91FF90EF90DF90CF90BF901A
:101BE000AF909F908F907F906F900895AF92CF921B
:101BF000DF92EF92FF920F931F93DF93CF93CDB7B6
:101C0000DEB764970FB6F894DEBF0FBECDBF20914C
:101C10002C0180912D01821731F120932D0100D0EC
:101C200000D000D0EDB7FEB731968E010F5F1F4F89
:101C3000ADB7BEB712961C930E93119787E791E04C
:101C400093838283248315820E94DE1B8DB79EB707
:101C500006960FB6F8949EBF0FBE8DBF81E061E07F
:101C6000A8010E948D1B80910301813079F41092AC
:101C700003018AE160912C010E94650781E061E027
:101C800049E651E00E94B51B10922C0180912C0175
:101C9000E82FF0E0E132F10508F0FFC2E85CFF4F09
:101CA000EE0FFF1F0590F491E02D0994109216019C
:101CB000E199FECF8DE090E09FBB8EBBE09A8DB3A3
:101CC000809317011092F9031092240410922304B8
:101CD000E199FECF88E090E09FBB8EBBE09A8DB388
:101CE00080933504E199FECF87E090E09FBB8EBBE7
:101CF000E09A8DB380936102E199FECF89E090E094
:101D00009FBB8EBBE09A8DB38093770280911301C5
:101D1000813029F089E1609126010E946507809158
:101D200026018F5F80932601E199FECF8AE090E043
:101D30009FBB8EBBE09A8DB38093B602E199FECF34
:101D40008BE090E09FBB8EBBE09A8DB380933C010B
:101D50001EC0909116019F5F9093160180916102C1
:101D60009817B8F4E199FECF892F90E0835F9F4FD9
:101D70009FBB8EBBE09A8DB380931701882309F433
:101D800034C21092F903109224041092230482E0CA
:101D900082C210922C0181C200D000D000D0EDB7D9
:101DA000FEB731968E010F5F1F4FADB7BEB71296CB
:101DB0001C930E9311978DE591E09383828380911C
:101DC0001701848315820E94DE1B8DB79EB706968D
:101DD0000FB6F8949EBF0FBE8DBF81E061E0A801F1
:101DE0000E948D1B10920F011092060181E08093DA
:101DF000040180910401813051F684E04CC280914D
:101E0000170160E00E94EE07109224041092230450
:101E100086E041C280911701E82FF0E0EF70F0708A
:101E2000EB5DFB4F80818F5F808390913504981725
:101E300008F0CFC0108281E0809306010CC1809130
:101E4000B60290E020912304309124048217930776
:101E500080F48091F9038F5F8093F903909177026A
:101E6000891710F482E003C0981718F485E0809376
:101E70002C0180910F01813009F00FC240910E01B9
:101E80008091170190E08F709070242F30E08217BE
:101E9000930711F487E001C089E080932C018091C1
:101EA0008D018F3009F0F9C14F3009F0F6C19091E2
:101EB000F90380917702981708F0EFC168CF9091ED
:101EC00017019F709093050180910601882339F4D2
:101ED000E92FF0E0EB54FC4F80918D0107C0813079
:101EE00031F4E92FF0E0EB54FC4F8EE08083892F32
:101EF00090E0FC01EB54FC4F2081FC01E556FD4FC6
:101F00008081281779F0208387E1C5C1809117016E
:101F1000E82FEF70E0930501F0E0EB54FC4F608197
:101F20000E944D0788E1B7C1809117018F7080939F
:101F3000050190918D01983009F441C0993028F441
:101F4000963041F09730D9F516C0993079F19B3031
:101F5000B1F523C0A82FB0E0FD01E657FD4F808109
:101F6000813011F1AD5EBB4F8C91813011F48BE16A
:101F700027C081E025C0282F30E0F901E453FD4F50
:101F800080818823F9F4F901E657FD4F8081882389
:101F900011F481E0808388E013C0E82FF0E0E65779
:101FA000FD4F8081813059F48AE00AC0E82FF0E0CB
:101FB000E657FD4F8081882311F481E0808384E11E
:101FC00080932C0180910601813009F066C1109246
:101FD000060184E160C181E0809304011092F9035D
:101FE0008CE059C1109224041092230410920F0126
:101FF0008091170161E00E94EE078DE04CC1809155
:10200000B60290E0209123043091240482179307B4
:1020100080F48091F9038F5F8093F90390917702A8
:10202000891710F48CE003C0981718F485E08093AA
:102030002C0180910F01813009F02FC110920F0106
:102040002091170130E02F70307080910E0190E0E8
:102050002817390711F487E01EC189E01CC11092CE
:10206000230182E0809304011092F90325C01092AD
:10207000240410922304109210018091170166E04D
:102080000E94EE078FE007C1809110018823D9F4E8
:102090008091B60290E020912304309124048217AD
:1020A000930708F0FAC08091F9038F5F8093F903DA
:1020B00090917702891710F48EE0EDC0981708F020
:1020C000ECC085E0E8C0813009F0E7C01092100153
:1020D000809117018F708093050180E1DCC08091B1
:1020E0003C0190E02091210130912201281739070D
:1020F00008F4D3C07AC0E0911701EF70E0930501B6
:10210000F0E0E657FD4F8081882311F08AE0C3C0DC
:102110008AE1C1C083E0809304011092F90330C0CA
:10212000109224041092230410921101809117013F
:1021300064E00E94EE0782E1AEC08091110181301F
:1021400041F4809117018F708093050183E18093A2
:102150002C018091B60290E0880F991F20912304F2
:10216000309124048217930708F097C08091F903F7
:102170008F5F8093F90390917702891708F06BC005
:1021800081E189C086E187C080911701982F9F70F7
:102190009093050160913B014091E0022091F6028D
:1021A0000CEA12E037E5E32E32E0F32E9BEAC92E6B
:1021B00093E0D92EA0900B010E94380DE09105010B
:1021C000F0E0E657FD4F61C0E0911701EF70E0933A
:1021D0000501F0E0ED5EFB4F8081813011F48BE171
:1021E0005AC0109222011092210181E054C084E073
:1021F000809304011092F9032CC0109224041092D1
:102200002304109212018091170165E00E94EE07ED
:102210008DE141C080911201813029F410921201A8
:102220008EE180932C018091B60225E0829FC0014F
:10223000112420912304309124048217930768F518
:102240008091F9038F5F8093F9039091770289174A
:1022500010F48CE120C0981700F51CC08FE11BC062
:1022600080911701982F9F70909305010E94400C58
:102270001092140180E20FC080911401813069F442
:10228000E0910501F0E0ED5EFB4F1082109222011B
:102290001092210185E180932C0164960FB6F89489
:1022A000DEBF0FBECDBFCF91DF911F910F91FF9089
:1022B000EF90DF90CF90AF900895AF92CF92DF92E2
:1022C000EF92FF920F931F93DF93CF93CDB7DEB7BB
:1022D0006E970FB6F894DEBF0FBECDBF20913101CF
:1022E00080913201821731F12093320100D000D069
:1022F00000D0EDB7FEB731968E010F5F1F4FADB71F
:10230000BEB712961C930E93119786EA91E09383C1
:102310008283248315820E94DE1B8DB79EB70696AA
:102320000FB6F8949EBF0FBE8DBF81E061E0A8019B
:102330000E948D1B80910301813079F4109203017A
:102340008AE1609131010E94650781E061E048E91E
:1023500051E00E94B51B1092310180913101E82FAC
:10236000F0E0EC31F10508F04DC3E75AFF4FEE0FF6
:10237000FF1F0590F491E02D0994E199FECF88E0CC
:1023800090E09FBB8EBBE09A8DB380933504E199BA
:10239000FECF87E090E09FBB8EBBE09A8DB3809329
:1023A0006102E199FECF89E090E09FBB8EBBE09A8D
:1023B0008DB380937702E199FECF8DE190E09FBBD2
:1023C0008EBBE09A8DB380933001E199FECF8AE015
:1023D00090E09FBB8EBBE09A8DB38093B602E199EB
:1023E000FECF8BE090E09FBB8EBBE09A8DB38093D5
:1023F0003C0180911301813029F089E1609126012F
:102400000E946507809126018F5F809326011092BC
:10241000160110922F0181E0A4C280911601E1996A
:10242000FECF90E0835F9F4F9FBB8EBBE09A2DB3A2
:1024300021502093170100D000D000D0EDB7FEB797
:1024400031968E010F5F1F4FADB7BEB712961C932A
:102450000E9311978CE891E09383828324831582F5
:102460000E94DE1B8DB79EB706960FB6F8949EBFEE
:102470000FBE8DBF81E061E0A8010E948D1B80919D
:1024800026018F5F809326011092F90312C11092EA
:102490001A0180E060E04091170120E00E941A08D4
:1024A000109224041092230483E05BC28091B60250
:1024B00090E020912304309124048217930770F454
:1024C0008091F9038F5F8093F903909177028917C8
:1024D00010F482E001C084E08093310180911A0100
:1024E000813021F0843009F08DC216C0809117012F
:1024F000A82FB0E0FD01EB54FC4FE081EE2319F072
:10250000EE3009F01AC2A657BD4F1C92E091170198
:10251000F0E0EB54FC4F0FC287E123C2809117011A
:10252000A82FB0E0FD01EF70F070EB5DFB4F8081F4
:102530008F5F808390913504981708F07EC11082D8
:10254000AB54BC4F8EE04FC08091170180930501C2
:1025500090E0FC01EB54FC4FE081DC01A556BD4F3F
:102560008C91E81779F0EC9386E0FBC1809117011C
:1025700080930501E82FF0E0EB54FC4F8F5F608102
:102580000E944D0787E0EDC18091170180930501FE
:10259000E82FF0E0DF01AB54BC4F8C91873009F499
:1025A00072C0883020F4863009F02CC21EC08930F9
:1025B00009F46CC08E3009F025C280911A0188237D
:1025C00009F43BC1843009F01DC2809119018330A8
:1025D00029F0883039F0823029F437C0E657FD4FB2
:1025E00081E0808386E08C93A8C180911A018130BC
:1025F00021F0843009F006C218C0E657FD4F8081F3
:10260000813029F41092F9038EE080933101E0913A
:102610001701F0E0ED5EFB4FE081E13009F00DC104
:102620001092F903E0931C01EBC0809119018330F3
:10263000C9F0843020F4823009F0E4C106C086304D
:1026400049F0883009F0DEC112C087E08C93109207
:102650002E0173C1E657FD4F8081813009F0EDC036
:1026600081E17FC1E657FD4F81E08083E6C0809124
:102670001C01843030F41092F9038F5F80931C01A9
:10268000BFC08CE06EC11092F90335C180911A0170
:10269000813009F4D2C080911A01843009F0B2C1AE
:1026A00080911901833029F486E08C931092F9030C
:1026B0003CC082E056C140911701E42FF0E0EE5794
:1026C000FD4F8EE0608120911C010E941A0810923B
:1026D0002404109223048FE044C18091B60290E05C
:1026E00020912304309124048217930718F480E189
:1026F0008093310190911A01923009F460C0809169
:102700001A01833009F07EC1E0911701F0E0EE5725
:10271000FD4F10820AC08091F9038F5F8093F90307
:1027200090917702891708F0E8C08EE01AC1609195
:10273000170160933B0120911C012093E00220933C
:10274000F60286E080930B016F5F862F422F0CEA22
:1027500012E0E7E5EE2EE2E0FE2E7BEAC72E73E004
:10276000D72E56E0A52E0E94380DE0911701F0E01B
:10277000E657FD4F108261C040911701E42FF0E051
:10278000EE57FD4F85E0608120911C010E941A08E0
:1027900010922404109223048AE0E3C08091B602D0
:1027A00090E020912304309124048217930718F4B9
:1027B0008BE08093310190911A01923059F4E091AD
:1027C0001701F0E0EE57FD4F80818F5F808390937B
:1027D000310118C180911A01833009F013C1E091D1
:1027E0001701F0E0EE57FD4F10820AC08091F90307
:1027F0008F5F8093F90390917702891708F07DC06D
:1028000089E0AFC08AE080930C01809117018F5F4F
:102810000E94400C109214018DE0A3C0809114011D
:10282000813009F0EFC0E0910501F0E0ED5EFB4F73
:102830001082109222011092210189E192C04091F0
:10284000170180912E01E42FF0E0EE57FD4F865FD7
:10285000608120911C010E941A0810922404109299
:10286000230483E17EC08091B60290E0209123048E
:10287000309124048217930718F484E18093310186
:1028800020911A01223009F580912E018F5F8093EB
:102890002E0190911701843080F0E0910501F0E065
:1028A000EB54FC4F89E08083E92FF0E0E657FD4FC1
:1028B00081E0808320933101A5C0E92FF0E0EE573D
:1028C000FD4F80818F5F808316C080911A01833015
:1028D00009F098C0E0911701F0E0EE57FD4F10822B
:1028E00084E13FC08091F9038F5F8093F903909159
:1028F0007702891710F482E134C084E032C086E1A7
:1029000030C0E0910501F0E0EB54FC4F8FE014C0C3
:1029100087E0609118014091170120E00E941A0899
:1029200088E11FC080911701E82FF0E0EB54FC4FC5
:102930008081882311F486E0808385E012C01092A4
:102940002201109221018AE10CC080913C0190E0AB
:1029500020912101309122012817390708F452C033
:102960008BE1809331014EC0909116019F5F90934F
:102970001601809161029817E8F4E199FECF892F42
:1029800090E0835F9F4F9FBB8EBBE09A8DB3809397
:102990001701882359F08150809317011092F90391
:1029A000109224041092230482E001C08BE18093F2
:1029B000310102C01092310100D000D000D0EDB73B
:1029C000FEB731968E010F5F1F4FADB7BEB712969F
:1029D0001C930E93119780E891E0938382838091FA
:1029E0001701848315820E94DE1B8DB79EB7069661
:1029F0000FB6F8949EBF0FBE8DBF81E061E0A801C5
:102A00000E948D1B6E960FB6F894DEBF0FBECDBF31
:102A1000CF91DF911F910F91FF90EF90DF90CF90BA
:102A2000AF900895282FAB01E199FECF84E090E0AC
:102A30009FBB8EBBE09A8DB3882321F0822F61E08B
:102A40000E948D1B0895EF920F93813099F1813090
:102A500038F0823009F45CC0833009F0B8C086C019
:102A6000E199FECF85E090E09FBB8EBBE09A8DB3ED
:102A7000823059F0823018F0833021F409C080E8A8
:102A800095E208C080E090E005C080E09BE402C0D1
:102A90008BE996E1AC01662757FD6095762F80E0C3
:102AA00028E000E0EE24E3940E94B51A80E00E9442
:102AB000E6018DC080E00E94E601E199FECF25E0AD
:102AC00030E03FBB2EBB83E08DBB0FB6F894E29A9B
:102AD000E19A0FBEE199FECF3FBB2EBBE09A8DB3CA
:102AE000823059F0823018F0833021F409C040E878
:102AF00055E208C040E050E005C040E05BE402C0A1
:102B00004BE956E160E070E080E028E000E05BC067
:102B100081E00E94E601E199FECF25E030E03FBB75
:102B20002EBB81E08DBB0FB6F894E29AE19A0FBEFE
:102B3000E199FECF3FBB2EBBE09A8DB3823059F0B6
:102B4000823018F0833021F409C040E855E208C013
:102B500040E050E005C040E05BE402C04BE956E1D4
:102B600060E070E080E028E001E02DC081E00E949C
:102B7000E601E199FECF25E030E03FBB2EBB81E0CE
:102B80008DBB0FB6F894E29AE19A0FBEE199FECFA1
:102B90003FBB2EBBE09A8DB3823059F0823018F0E3
:102BA000833021F409C040E855E208C040E050E01D
:102BB00005C040E05BE402C04BE956E160E070E034
:102BC00080E028E002E0EE24E3940E94B51A0E941F
:102BD00052020F91EF900895EF920F9380E00E94C0
:102BE000E601E199FECF86E090E09FBB8EBBE09AC4
:102BF0008DB3823059F0823018F0833021F409C04F
:102C000080E895E208C080E090E005C080E09BE4A9
:102C100002C08BE996E1AC01662757FD6095762FDF
:102C200081E028E000E0EE24E3940E94B51A0F91C1
:102C3000EF9008959FEF9BBB9ABB97B996B98FE42D
:102C400087BB98BB11BA92BB8A9A929A80E061E0E6
:102C50000E948A1A83B7856083BF89B7826089BF63
:102C60007894E199FECF86E090E09FBB8EBBE09A1E
:102C70008DB3823059F0823018F0833021F409C0CE
:102C800080E895E208C080E090E005C080E09BE429
:102C900002C08BE996E1AC01662757FD6095762F5F
:102CA00081E00E944A1BE199FECF80E090E09FBB4B
:102CB0008EBBE09A8DB380930001E199FECF8CE04A
:102CC00090E09FBB8EBBE09A8DB380933604E19970
:102CD000FECF83E090E09FBB8EBBE09A8DB38093E4
:102CE000250180910001813019F08230C1F406C0C5
:102CF00084E1809311040E94EC1511C085E080935B
:102D00001104E199FECF81E090E09FBB8EBBE09A79
:102D10008DB380930101809101010E9423150E94CF
:102D200052021092130181E061E04AE251E00E94F8
:102D3000B51B82E00E94210208951F930E941A167B
:102D400011E030912601409136042091DE029091ED
:102D50003501809100018230E1F7809100018230DD
:102D600041F4931720F0421718F41093030120E068
:102D7000932F80910101813019F0823051F707C003
:102D80002093DE02909335010E94F60DDACF209356
:102D9000DE02909335010E945D11D3CF9F92AF92D6
:102DA000BF92CF92DF92EF92FF920F93DF93CF9378
:102DB000CDB7DEB764970FB6F894DEBF0FBECDBFB8
:102DC0009091380190933901909037019092380199
:102DD000009136010093370180933601863009F067
:102DE00057C3953009F054C3C02E892D90E0FC01E3
:102DF0003197E032F10508F047C3EB58FF4FEE0F73
:102E0000FF1F0590F491E02D099481E0809300016B
:102E100084E18093110420910001E199FECF80E0CC
:102E200090E09FBB8EBB2DBB0FB6F894E29AE19A5F
:102E30000FBE81E06CE972E00E94200C0E94EC154C
:102E400023C30E94520282E08093000185E08093B8
:102E5000110420910001E199FECF80E090E09FBB3A
:102E60008EBB2DBB0FB6F894E29AE19A0FBE81E0BB
:102E700061E972E00E94200CE199FECF81E090E0D0
:102E80009FBB8EBBE09A8DB38093010180910101BD
:102E90000E942315A1C182E08093000185E0809308
:102EA00011040093010120910101E199FECF81E01D
:102EB00090E09FBB8EBB2DBB0FB6F894E29AE19ACF
:102EC0000FBE2091010100D000D000D0EDB7FEB7B9
:102ED00031967E010894E11CF11CADB7BEB7129685
:102EE000FC92EE92119789E892E093838283248387
:102EF00015820E94DE1B809101012DB73EB72A5F2B
:102F00003F4F0FB6F8943EBF0FBE2DBF0E94231552
:102F100081E061E048E752E00E94B51B81E061E09A
:102F2000A7010E948D1B58C181E061E04BE652E091
:102F30000E94B51B802F8150803148F4E02FF0E0D3
:102F4000EF70F070ED5EFB4F81E080839DC2023137
:102F500009F09AC281E061E043E652E00E94B51BAD
:102F600081E090E021E0FC01EF70F070ED5EFB4F3E
:102F70002083019681319105B1F786C2D02ED2947B
:102F80008FE0D8223DEFD30EE02FEF70E23061F0FA
:102F9000E23028F0E33061F0EE24FF240DC0B0E809
:102FA000EB2EB5E2FB2E08C0E12CABE4FA2E04C0F8
:102FB000FBE9EF2EF6E1FF2EE199FECF8D2D90E09B
:102FC0008B5F9F4F9FBB8EBBEDBB0FB6F894E29A11
:102FD000E19A0FBE8DB79EB708970FB6F8949EBFC3
:102FE0000FBE8DBFEDB7FEB731965E010894A11CF0
:102FF000B11CADB7BEB71296BC92AE92119789E5DF
:1030000092E093838283D4821582F782E6820E94C3
:10301000DE1B2DB73EB7285F3F4F0FB6F8943EBF7B
:103020000FBE2DBF81E0B5010E941215A70160E01F
:1030300070E08D2D0E944A1B27C2013148F4E02F19
:10304000F0E0EF70F070ED5EFB4F81E080830FC029
:10305000023169F481E090E021E0FC01EF70F07052
:10306000ED5EFB4F2083019681319105B1F700D0D1
:1030700000D000D0EDB7FEB731967E010894E11C78
:10308000F11CADB7BEB71296FC92EE9211978DE48B
:1030900092E02CC0013148F4E02FF0E0EF70F070C6
:1030A000E453FD4F81E080830FC0023169F481E079
:1030B00090E021E0FC01EF70F070E453FD4F2083BD
:1030C000019681319105B1F700D000D000D0EDB765
:1030D000FEB731967E010894E11CF11CADB7BEB776
:1030E0001296FC92EE92119781E492E09383828390
:1030F000048315820E94DE1B2DB73EB72A5F3F4F27
:103100000FB6F8943EBF0FBE2DBF81E0B7010E94FD
:103110001215BAC1013140F4E02FF0E0EF70F07009
:10312000E453FD4F10820EC0023161F481E090E063
:10313000FC01EF70F070E453FD4F10820196813175
:103140009105B1F700D000D000D0EDB7FEB73196B1
:103150007E010894E11CF11CADB7BEB71296FC923B
:10316000EE92119783E392E0C1CF81E08093140146
:103170000093DF0289C100D000D000D0EDB7FEB7C8
:1031800031967E010894E11CF11CADB7BEB71296D2
:10319000FC92EE92119784E292E0938382830483FF
:1031A00015820E94DE1B2DB73EB72A5F3F4F0FB638
:1031B000F8943EBF0FBE2DBF81E0B7010E941215EB
:1031C000E199FECF88E090E09FBB8EBB0DBB0FB6B0
:1031D000F894E29AE19A0FBE81E08093030154C112
:1031E00000D000D000D0EDB7FEB731967E01089434
:1031F000E11CF11CADB7BEB71296FC92EE9211978E
:1032000089E192E093838283048315820E94DE1B0E
:103210002DB73EB72A5F3F4F0FB6F8943EBF0FBEA3
:103220002DBF81E0B7010E941215E199FECF87E022
:1032300090E0CACF00D000D000D0EDB7FEB73196F5
:103240007E010894E11CF11CADB7BEB71296FC924A
:10325000EE9211978AE092E0938382830483158231
:103260000E94DE1B2DB73EB72A5F3F4F0FB6F89482
:103270003EBF0FBE2DBF81E0B7010E941215E1993C
:10328000FECF89E090E0A0CF00D000D000D0EDB715
:10329000FEB731967E010894E11CF11CADB7BEB7B4
:1032A0001296FC92EE9211978BEF91E093838283BA
:1032B000048315820E94DE1B2DB73EB72A5F3F4F65
:1032C0000FB6F8943EBF0FBE2DBF81E0B7010E943C
:1032D0001215E199FECF8AE090E076CF00D000D0C1
:1032E00000D0EDB7FEB731967E010894E11CF11CC9
:1032F000ADB7BEB71296FC92EE9211978AEE91E0AE
:1033000093838283048315820E94DE1B2DB73EB710
:103310002A5F3F4F0FB6F8943EBF0FBE2DBF81E02E
:10332000B7010E941215E199FECF8BE090E04CCFDF
:10333000E199FECF88E090E009C0E199FECF87E0F7
:1033400090E004C0E199FECF89E090E09FBB8EBB86
:10335000E09ACDB299C000D000D000D0EDB7FEB752
:1033600031967E010894E11CF11CADB7BEB71296F0
:10337000FC92EE9211978BED91E09383828304830C
:1033800015820E94DE1B2DB73EB72A5F3F4F0FB656
:10339000F8943EBF0FBE2DBF81E0B7010E94121509
:1033A000E199FECF8CE090E09FBB8EBB0DBB0FB6CA
:1033B000F894E29AE19A0FBEE199FECF9FBB8EBBD3
:1033C000E09A8DB38093360407CFE199FECF802F2A
:1033D00082958F7090E0835F9F4F9FBB8EBB802F45
:1033E0008F708DBB0FB6F894E29AE19A0FBE00D0B1
:1033F00000D000D0EDB7FEB731967E010894E11CF5
:10340000F11CADB7BEB71296FC92EE92119786EC06
:1034100091E020C0E199FECF802F90E0835F9F4F25
:103420009FBB8EBB1DBA0FB6F894E29AE19A0FBE0D
:1034300000D000D000D0EDB7FEB731967E010894E1
:10344000E11CF11CADB7BEB71296FC92EE9211973B
:103450008FEA91E093838283048315820E94DE1BAE
:103460002DB73EB72A5F3F4F0FB6F8943EBF0FBE51
:103470002DBF81E0B7010E941215AECE81E080938E
:10348000130102C010921301892D6C2D0E94650753
:1034900064960FB6F894DEBF0FBECDBFCF91DF911B
:1034A0000F91FF90EF90DF90CF90BF90AF909F90E3
:1034B00008951F920F920FB60F9211241F932F930E
:1034C0003F934F935F936F937F938F939F93AF93AC
:1034D000BF93EF93FF931FB180910001813029F4D6
:1034E00080E061E0412F0E94761B812F0E94CE1662
:1034F000FF91EF91BF91AF919F918F917F916F91CC
:103500005F914F913F912F911F910F900FBE0F90A0
:103510001F901895882341F080EA87BB662311F03D
:1035200082ED0AC082E508C080E487BB662321F0F3
:1035300080EC8DB9789408958DB90895882331F081
:10354000662311F03B98089592980895662311F030
:103550003B9A0895929A08958FB9779BFECF8FB1C9
:1035600008950895089508950895AF92BF92CF9257
:10357000DF92EF92FF920F931F93F82E5A016B0187
:10358000122FCB01BA016050704E834E9F4F33E033
:10359000660F771F881F991F3A95D1F724E0AA0C70
:1035A000BB1CCC1CDD1C2A95D1F7A60195010E94FD
:1035B0009F1E2150304040405040013031F00230D9
:1035C00011F460EA03C060E801C060EB82E0E81635
:1035D00009F46860173061F0183018F4163059F4A7
:1035E00005C0183039F0193031F407C0626003C0EB
:1035F000646001C0666078E902C066607CE9FF2013
:1036000021F081E0F81691F409C0BB27A52F942F73
:10361000832F80BD29B97AB960BD08C0BB27A52F0B
:10362000942F832F8CBF20B971B96CBF1F910F915C
:10363000FF90EF90DF90CF90BF90AF9008951F93D1
:10364000182F9A01AB01CA01B9016050704E834E28
:103650009F4FF3E0660F771F881F991FFA95D1F7E8
:10366000E4E0220F331F441F551FEA95D1F70E9453
:103670009F1E2150304040405040BB27A52F942F23
:10368000832F112319F020B98CBF02C029B980BD46
:103690001F910895EF92FF920F931F93982F7A0135
:1036A0008B01882329F088E981B986E08CBF04C0AA
:1036B00088E98AB986E080BD892FB801A7010E94F8
:1036C0001F1B8BE9E81686E1F80680E0080780E01A
:1036D000180739F488E98AB986EA80BD10BC8EE9FA
:1036E00089B91F910F91FF90EF900895882351F0B1
:1036F000662321F0159BFECF43B909C0179BFECF6F
:1037000083B10895662329F05D9BFECF4CB981E01B
:1037100008955F9BFECF8CB108950F931F93CF93B5
:10372000DF93182F062FEA018881882331F408C01F
:103730002196812F61E00E94761B48814423C1F7C6
:10374000002351F0812F61E04DE00E94761B812F14
:1037500061E04AE00E94761B82EE94E00197F1F767
:10376000DF91CF911F910F9108950F931F93CF93E6
:10377000DF93182F062FEA0107C02196F901449123
:10378000812F61E00E94761B9E01FE0184918823B7
:10379000A1F7002351F0812F61E04DE00E94761BDC
:1037A000812F61E04AE00E94761B86EA9EE0019745
:1037B000F1F7DF91CF911F910F910895AEE0B0E046
:1037C000E4EEFBE10C94CF1E0D891E898EE08C8304
:1037D0001A8309838FEF9FE79E838D839E01275E67
:1037E0003F4FCE0101966F89788DA9010E94021C7E
:1037F0002F813885020F131FF80110822E96E4E006
:103800000C94EB1EABE0B0E0E8E0FCE10C94C11ED0
:103810003C012B015A01FC0117821682838181FD34
:1038200003C06FEF7FEFC6C19AE0892E1E01089496
:10383000211C311CF3012381F20123FD859123FF1B
:1038400081912F01882309F4B2C1853239F423FD17
:10385000859123FF81912F01853229F490E0B301F6
:103860000E94F51DE7CF982FFF24EE249924FFE155
:10387000FF15D0F09B3269F09C3228F4903259F059
:10388000933291F40EC09D3249F0903369F441E0D7
:1038900024C052E0F52A84E0F82A28C098E0F92AEA
:1038A00025C0E0E1FE2A22C0F7FC29C0892F805301
:1038B0008A3070F4F6FE05C0989C902C1124980E66
:1038C00015C0E89CE02C1124E80EF0E2FF2A0EC09F
:1038D0009E3229F4F6FC6BC140E4F42A07C09C3602
:1038E00019F450E8F52A02C0983649F4F20123FD94
:1038F000959123FF91912F01992309F0B8CF892F3A
:103900008554833018F08052833038F444E050E01E
:10391000A40EB51E5FE359830FC0933631F0933781
:1039200079F0933509F056C020C0F5018081898374
:1039300042E050E0A40EB51E610101E010E012C0AB
:10394000F501C080D180F6FC03C06FEF7FEF02C0AD
:10395000692D70E042E050E0A40EB51EC6010E9441
:10396000EA1D8C015FE7F52214C0F501C080D1800B
:10397000F6FC03C06FEF7FEF02C0692D70E042E0FC
:1039800050E0A40EB51EC6010E94DF1D8C0150E858
:10399000F52AF3FE07C01AC080E290E0B3010E944E
:1039A000F51DEA948E2D90E008171907A8F30EC0B4
:1039B000F601F7FC8591F7FE81916F0190E0B3016C
:1039C0000E94F51DE110EA94015010400115110507
:1039D00079F7EAC0943611F0993669F5F7FE08C018
:1039E000F501208131814281538184E090E00AC059
:1039F000F501808191819C01442737FD4095542F2A
:103A000082E090E0A80EB91E9FE6F92257FF09C098
:103A100050954095309521953F4F4F4F5F4FE0E8CF
:103A2000FE2ACA01B901A1012AE030E00E94211E4C
:103A3000D82ED21840C0953729F41F2D1F7E2AE0BA
:103A400030E01DC01F2D197F9F3661F0903720F4A4
:103A5000983509F0ACC00FC0903739F0983709F0AD
:103A6000A6C004C028E030E00AC0106114FD146054
:103A700020E130E004C014FD166020E132E017FFC1
:103A800008C0F501608171818281938144E050E03A
:103A900008C0F50180819181BC0180E090E042E0A6
:103AA00050E0A40EB51EA1010E94211ED82ED218EE
:103AB0008FE7F82EF122F6FE0BC05EEFF522D91447
:103AC00038F4F4FE07C0F2FC05C08FEEF82202C005
:103AD0001D2D01C0192DF4FE0DC0FE01ED0DF11DCF
:103AE0008081803319F499EEF92208C01F5FF2FE3D
:103AF00005C003C08F2D867809F01F5F0F2DF3FCE2
:103B000014C0F0FE0FC01E1510F09D2C0BC09D2C94
:103B10009E0C911A1E2D06C080E290E0B3010E9417
:103B2000F51D1F5F1E15C0F304C01E1510F4E11A29
:103B300001C0EE2404FF0FC080E390E0B3010E94B7
:103B4000F51D02FF1DC001FD03C088E790E00EC017
:103B500088E590E00BC0802F867891F001FF02C0CD
:103B60008BE201C080E2F7FC8DE290E0B3010E949D
:103B7000F51D06C080E390E0B3010E94F51D9A9404
:103B8000D914C0F3DA94F101ED0DF11D808190E0BC
:103B9000B3010E94F51DDD20A9F706C080E290E088
:103BA000B3010E94F51DEA94EE20C1F743CEF30164
:103BB00066817781CB012B96E2E10C94DD1EFC013E
:103BC0000590615070400110D8F7809590958E0F48
:103BD0009F1F0895FC016150704001900110D8F7BB
:103BE000809590958E0F9F1F08950F931F93CF93ED
:103BF000DF938C01EB018B8181FF1BC082FF0DC025
:103C00002E813F818C819D812817390764F4E881DA
:103C1000F9810193F983E88306C0E885F985802F4F
:103C20000995892B31F48E819F8101969F838E8324
:103C300002C00FEF1FEFC801DF91CF911F910F91CD
:103C40000895FA01AA27283051F1203181F1E89432
:103C50006F936E7F6E5F7F4F8F4F9F4FAF4FB1E07F
:103C60003ED0B4E03CD0670F781F891F9A1FA11D7A
:103C7000680F791F8A1F911DA11D6A0F711D811D7B
:103C8000911DA11D20D009F468943F912AE0269F40
:103C900011243019305D3193DEF6CF010895462F9F
:103CA0004770405D4193B3E00FD0C9F7F6CF462F80
:103CB0004F70405D4A3318F0495D31FD40524193E9
:103CC00002D0A9F7EACFB4E0A695979587957795A6
:103CD0006795BA95C9F700976105710508959B012D
:103CE000AC010A2E06945795479537952795BA95B6
:103CF000C9F7620F731F841F951FA01D0895991B9C
:103D000079E004C0991F961708F0961B881F7A95D2
:103D1000C9F780950895AA1BBB1B51E107C0AA1FD4
:103D2000BB1FA617B70710F0A61BB70B881F991F5C
:103D30005A95A9F780959095BC01CD010895A1E20F
:103D40001A2EAA1BBB1BFD010DC0AA1FBB1FEE1F15
:103D5000FF1FA217B307E407F50720F0A21BB30B60
:103D6000E40BF50B661F771F881F991F1A9469F7DC
:103D700060957095809590959B01AC01BD01CF0138
:103D800008952F923F924F925F926F927F928F92FF
:103D90009F92AF92BF92CF92DF92EF92FF920F93DA
:103DA0001F93CF93DF93CDB7DEB7CA1BDB0B0FB6E4
:103DB000F894DEBF0FBECDBF09942A8839884888A1
:103DC0005F846E847D848C849B84AA84B984C88437
:103DD000DF80EE80FD800C811B81AA81B981CE0F2E
:103DE000D11D0FB6F894DEBF0FBECDBFED01089513
:043DF000F894FFCF75
:0E3DF400010101010101019999999906080048
:00000001FF
