:100000000C9402120C9421120C9421120C942112C3
:100010000C9421120C9421120C9421120C94211294
:100020000C9421120C9421120C9421120C94211284
:100030000C9436AA0C9421120C9421120C942112C7
:100040000C9421120C94427D0C94F0130C94211208
:100050000C9421120C9421120C9421120C94211254
:100060000C9421120C9421120C9421120C94211244
:100070000C9421120C9421120C949FA90C9421121F
:100080000C9421120C9421120C942112D112CF1233
:10009000D312D512D712D912DB12DD12DF12E11200
:1000A000F312E312E512F112E712F112F312E91260
:1000B000F112EB12ED12EF12F112F112E712DB1254
:1000C000F112DD12E112E312A652BE52D0520553D4
:1000D00036534C538153BB53FF5307541F542B5477
:1000E0005D549E54BB54D55415551C53D753785466
:1000F000A1533B55515556558F55C055055625565C
:100100003F567956D8561C5BA655445BA45B5E5B94
:10011000895BDE5BBE5BF75B125C245CE8560857CC
:100120002F573E575C5773579F57B657E2570258A1
:10013000335842589B5812592659015A015A3A5974
:100140004E595659725986599359AA59C159DF596E
:10015000045A1B5A325A495A605A775A8E5AA55A2B
:10016000B45ACB5AEE5AE08CFC8C0F8D3E8D678DC5
:10017000DA8DEC8DF58D318E588E9F8EA98E648E22
:10018000AF8E0C8DC18EC78E69916D9189916C95E2
:100190006C956C956C95DB916C95FD916C951C92B2
:1001A000A59205932993BA916C95BD924193799349
:1001B0009693D293E293DA94EA942F954E956095B4
:1001C00066956895A295FB95099651966A968196D3
:1001D000AA9660976E97ED9799989B99EC99329AA9
:1001E000AF9A439BE99BAF9CDB9C949DB19DC79EBE
:1001F0002B9E729E689F969FAB9FCF9E539F9C9F06
:10020000A49F67A16DA171A188A1A2A1A6A1D5A15A
:10021000F4A1FAA106A209A20CA20FA212A215A291
:1002200018A21EA221A228A2A7A2AAA258A367A32D
:100230009AA3AAA3D8A377A386A390A3E2A3EFA32C
:1002400003A406A409A40CA40FA412A415A418A422
:1002500042A428A41BA433A444A339A40000000191
:100260000101050900000011111115151100000010
:10027000001010101412000F07030101010100000B
:100280001111111111110000001E1C181010101076
:1002900000001F1B151717151B1F00141408080753
:1002A00004060400496E697469616C697A652E2ED2
:1002B0002E20005761746368446F670042726F7745
:1002C0006E4F75740045787465726E616C00506F86
:1002D0007765724F6E000106020603060406010DE3
:1002E000020D030D040D0405060708090A0B01059C
:1002F000020503050405010C020C030C040C0106A5
:100300000206010D020D011402140109020903097C
:100310000409011401080208030804080113021368
:10032000020304020F0F010100000000010A020A8B
:10033000030A48656164657231203A00486561646A
:10034000657232203A0048656164657233203A0074
:1003500048656164657234203A00466F6F74657257
:1003600031203A00466F6F74657232203A00466F52
:100370006F74657233203A00466F6F746572342073
:100380003A00020403030303030403044E2F410055
:1003900047696C626172636F005761796E652044D2
:1003A0004152540054617473756E6F004C47008C59
:1003B0000390039903A403AC0325640054252E3253
:1003C00064252E32642573257325732573257325C3
:1003D000733A00323025732F25732F257320257330
:1003E0003A25733A2573002573002573002563258C
:1003F0002E32643A004354535250003A00466D7412
:10040000544D6F6E65793A257300466D744D6F6E6D
:1004100065793A257300544D6F6E65793A257300FE
:1004200054566F6C756D653A2573004D6F6E657926
:100430003A257300566F6C756D653A2573005265E9
:100440006D6F7665643A2573004D696E75733A2554
:1004500073005261773A257300466F726D6174655F
:10046000643A2573002573002573002573002573F6
:1004700000446174613A2573004E2F4100257300DA
:100480000025642E2573257325730025642E25739E
:10049000257325732573257300544F54414C202533
:1004A00073257300544F54414C20257325732573D5
:1004B0002573002573257300257325732573257314
:1004C0000025732D2D2D2D2D2D2D2D2D2D2D202065
:1004D0002020202020202020202020202020002537
:1004E000732D2D2D2D2D2D2D2D2D2D2D2020202D1D
:1004F0002D2D2D2D2D2D2D2D2D2D2D2D00417761C7
:100500006C203A25732573004177616C203A25737E
:1005100025732573257300416B6869723A2573252D
:100520007300416B6869723A2573257325732573CF
:10053000005025642E2564202D2025732000502591
:10054000642E2564202D202573202573202573001B
:1005500048617267613A2052702E2573004E2F4118
:100560000050554D502D50524F445543542020209B
:10057000564F4C554D45284C292020202020202026
:10058000202020202020200050554D502D50524F2B
:1005900044554354202020564F4C554D45284C2956
:1005A00020202020525550494148285250290041CE
:1005B0006B686972205368696674203A202573203D
:1005C000004177616C20205368696674203A2025C9
:1005D0007320005465726D696E616C204944203A45
:1005E00020252E32642020202020202020202020A2
:1005F000202020202020202000202020202020201B
:10060000204C61706F72616E205475747570205348
:10061000686966743A202573202020202020002558
:100620006400257300300030002573002573002519
:100630007300257300257300412B423A257300494E
:100640006E423A257300496E423A5F00496E413A64
:10065000257300496E413A5F004F7065726174699D
:100660006F6E204D756C7469706C79002573003065
:10067000303030303030300020202020202020202A
:10068000202020202020202020202020202020206A
:10069000202020202020202020202000202020207A
:1006A0002020202020202020204455504C49434128
:1006B000544520434F505920202020202020200046
:1006C000202020202D2D2D2D2D2D2D2D2D2D2D2D8E
:1006D0002D2D2D2D2D2D2D2D2D2D2D2D2D2D2D2D4A
:1006E0002D2D0020202020205375726368617267D1
:1006F0006520416D743A202573002020202020536E
:100700007572636861726765204473633A2025736C
:1007100000202020202D2D2D2D2D2D2D2D2D2D2D6A
:100720002D2D2D2D2D2D2D2D2D2D2D2D2D2D2D2DF9
:100730002D2D2D0020202020204D6F6E7468204329
:100740006F6E732041203A2052702E2573002020B6
:100750002020204D6F6E746820436F6E73205620EA
:100760003A202573204C002020202020546F7461F3
:100770006C2052656465656D203A20257300202049
:1007800020202045787069727920202020202020A8
:100790003A202573002020202020437572722050BB
:1007A0006F696E747320203A20257300202020206A
:1007B000205072657620506F696E747320203A2045
:1007C00025730020202020204761696E20506F692A
:1007D0006E747320203A20257300202020202043AF
:1007E0006F7270204E616D65202020203A202573A5
:1007F000002020202020436F7270204944202020B8
:100800002020203A202573002020202020436172E0
:100810006420486F6C64657220203A2025732000A4
:100820002020202020436172642049442020202081
:1008300020203A2025730020202020202020202066
:100840004C4F59414C545920494E464F524D4154FA
:10085000494F4E20202020202000202020202D2D18
:100860002D2D2D2D2D2D2D2D2D2D2D2D2D2D2D2DB8
:100870002D2D2D2D2D2D2D2D2D2D2D2D00202020FC
:10088000202E2573002020202054616E64612054A6
:10089000616E67616E2020285F5F5F5F5F5F5F5FF3
:1008A0005F5F5F5F5F5F29002020202020202020E5
:1008B0002020202020202020202020202020002058
:1008C0002020202020202020202020202020202028
:1008D0002020202020002020202020202020202038
:1008E0002020202020202000202000202020204127
:1008F00070707220436F64653A2025730025732061
:100900002000202020204E616D6120202020203AF0
:1009100020257300202020202020202020202A2A8B
:100920002A2050554D502054455354202A2A2A201D
:100930002020202020200020202020566F75636872
:100940006572204E6F3A20257300202020204B61D5
:10095000727475204944203A2025730020202020FD
:100960002D2D2D2D2D2D2D2D2D2D2D2D2D2D2D2DB7
:100970002D2D2D2D2D2D2D2D2D2D2D2D2D2D0020E1
:1009800020202020204F646F6D6574657220202028
:10099000203A202573002020202020204E6F2E504A
:1009A0006F6C6973692020203A2025730000202095
:1009B000202020204A6D6C205275706961682020CB
:1009C0003A2052702E2573002020202020204A6DCE
:1009D0006C204C697465722020203A202573204CCD
:1009E000000020202020202048617267612F4C20C9
:1009F000202020203A2052702E2573002020202015
:100A0000202050726F64756B2020202020203A2017
:100A100025730020202020202050756C61752F50F8
:100A20006F6D7061203A205B25735D2D257300206A
:100A30002020202D2D2D2D2D2D2D2D2D2D2D2D2D0D
:100A40002D2D2D2D2D2D2D2D2D2D2D2D2D2D2D2DD6
:100A50002D0020202020202057616B74753A20251E
:100A600073202573200020202020202053686966F1
:100A7000743A20257320204E6F2E5472616E733AA3
:100A8000202573200020002020202020202020204E
:100A9000202020204455504C494341544520434F89
:100AA000505920202020202020200030003030000D
:100AB00030303030003031323330300030302E3092
:100AC00031323330300030302C303132333030007E
:100AD0003030303132333030004572726F72204E18
:100AE0006F20436F6E6E656374696F6E0050726F36
:100AF0007365730053656E64205265717565737418
:100B0000005B2A5D43616E63656C2020205B235D82
:100B1000456E746572005B2A5D4261636B20202024
:100B200020205B235D456E746572005B2A5D436126
:100B30006E63656C20205B235D456E7465722000DA
:100B40004F646F6D657465723A5F2000506C61741C
:100B5000204E6F3A20257320005B2A5D43616E634F
:100B6000656C2020205B235D456E746572005B2AF6
:100B70005D4261636B20202020205B235D456E7405
:100B80006572005B2A5D43616E63656C20205B23A8
:100B90005D456E74657220005F00496E707574204B
:100BA000506C6174204E6F3A20002A2943616E63B5
:100BB000656C202020202020232953617665004F7A
:100BC00050455241544F52203A002A2945786974C1
:100BD000003329557365722800322952652D5072F1
:100BE000696E74003129436C6F73652053686966C0
:100BF00074002A2945786974202020202020202094
:100C00002329536176650050415353574F52442076
:100C1000284D4158202020293A002A294578697416
:100C20000032294C323A0031294C313A0023295301
:100C30006176650034295465726D49443A25642013
:100C4000002329536176650034295465726D494447
:100C50003A2564200033294E6F746966203A2020BB
:100C60002020202A2945786974003229442F5420F5
:100C700020203A0031294D6F6E6579203A003429E1
:100C8000437574203A20202A294578697400332955
:100C90004C6F676F3A202023295361766500322913
:100CA00053697A653A202036295370616365203A8A
:100CB000003129547970653A202035295363726FC9
:100CC0006C6C3A002A2943616E63656C20202020F9
:100CD00020202329536176650054494D45203A2050
:100CE0000044415445203A20002A2945786974205F
:100CF00020202020202020232953617665003229DE
:100D00004E323A202034294E343A202036294E36AD
:100D10003A0031294E313A202033294E333A2020EF
:100D200035294E353A0050726F6475637420464918
:100D300050252E326400436F6D706C6574656400DD
:100D400043616E63656C20202020200049645B2590
:100D5000645D3D252E3264202000536176696E6704
:100D60002E2E002D50756D7049442D00202020201E
:100D70004E6F7420416C6C6F7765642020202020BA
:100D80000020204475706C69636174652050756D36
:100D90007049442020002020202020205761726EBE
:100DA000696E67212020202020200025642E5025F8
:100DB0002E3264207C2025642E50252E32640023A0
:100DC0002953617665002A294261636B0025642EF0
:100DD00050252E3264207C2025642E50252E32642E
:100DE00000252E326400252E3264003429343A2046
:100DF00020203829383A2020202A29457869740093
:100E00003329333A2020203729373A20202023293C
:100E100053617665003229323A2020203629363A4D
:100E2000003129313A2020203529353A005B2A5DEE
:100E30004578697420205B235D4368616E67652097
:100E40000025642E2573002D44697370656E7365EB
:100E500072204272616E642D002A294578697400FF
:100E6000322950726F64756374003129494400203F
:100E70002020202020202020202020202020202072
:100E8000202020005B2A5D43616E63656C2020207A
:100E9000205B235D53617665002A294578697400DB
:100EA00025642E50252E3264207C2025642E50256A
:100EB0002E32642000252E3264005B2A5D4578695D
:100EC0007400362E4163743A256400352E446C79E3
:100ED0003A256400342E54696D506F6F6C3A256466
:100EE00000332E54727953656E643A256400322EB5
:100EF0006E4E6F50756D703A256400312E4D6178DD
:100F000050756D703A2564005B2A5D4261636B2009
:100F10002020202000434F4D25643A2564002020E6
:100F20002020202D42617564726174652D2020207F
:100F30002020005B2A5D4261636B2020202020205E
:100F400000322E426175647261746500312E4D6FFE
:100F500064653A5374616E64616C6F6E6500312E26
:100F60004D6F64653A536C61766500312E4D6F6448
:100F7000653A4E6F6E65002A294261636B00342E1C
:100F80005370617261746F723A25632000332E448E
:100F90006563696D616C203A25632000322E542E02
:100FA0004D6F6E6579203A25642000312E542E56FF
:100FB0006F6C756D653A25642020352E5465737409
:100FC000005B2A5D4261636B20205B235D4E657888
:100FD0007400332E4D6F6E6579203A256400322EF1
:100FE000566F6C756D653A256400312E50726963D9
:100FF00065203A25640034294272616E6420202AFB
:1010000029457869740033294C6162656C202000A1
:10101000322950726F64756374003129494420206D
:10102000202020002A294261636B202020202329D0
:101030004F4B202020202020004E65773A5F004F44
:101040006C643A2573002A294261636B20202020BA
:1010500023294F4B202020202020004E65773A5F27
:1010600000456469742050726F64756374204E612A
:101070006D65202020004F6C643A2573002A2942B8
:1010800061636B202020202020200032292573005E
:1010900031292573002A294261636B0025642925C3
:1010A00073002A294261636B202020202020202009
:1010B00020202020202000332950756D70506F6F44
:1010C0006C696E672020202020202000322953796F
:1010D0007374656D202020202020202020202020D7
:1010E0000031294F70657261746F722020202020BA
:1010F00020202020200034294461746574696D65C6
:10110000202A29457869742020200033294465630A
:10111000696D616C202037294E657874202020008D
:10112000322950756D7020202020203629486F7399
:101130007420202000312950726F64756374202060
:1011400035295072696E746572002E002564002086
:101150002020002E00256400202020005B2A5D63F3
:10116000616E63656C20205B235D6E657874202062
:10117000004E65773A2020205F2E2020202E202050
:10118000202E202020004F6C643A2025642E2564F8
:101190002E25642E256400536572766572204950B1
:1011A000002E00256400202020002E002564002051
:1011B0002020005B2A5D63616E63656C20205B23E9
:1011C0005D6E6578742020004E65773A2020205FA0
:1011D0002E2020202E2020202E202020004F6C6446
:1011E0003A2025642E25642E25642E256400436C48
:1011F00069656E74204950002A2945786974202059
:10120000202020202020232953617665002A2945AB
:10121000786974003229466F6F7465723220203409
:1012200029466F6F74657234003129466F6F74659B
:10123000723120203329466F6F74657233002A297A
:1012400045786974003229486561646572322020EE
:1012500034294865616465723400312948656164E8
:101260006572312020332948656164657233002539
:10127000732573005B2A5D4261636B20205B235DF5
:101280004F4B004564697420466F6F746572256426
:10129000204C696E6531005B2A5D4E6F205B235DDB
:1012A000596573005361766520466F6F74657225CA
:1012B00064203F005B2A5D4261636B20205B235DFD
:1012C0004F4B004564697420466F6F7465722564E6
:1012D000204C696E6532005B2A5D4261636B2020A1
:1012E0005B235D4F4B004564697420466F6F7465E6
:1012F000722564204C696E6531002A29457869742D
:1013000020202020202020202020202020200020FD
:1013100020202020202020202020202020202020CD
:10132000202020003229466F6F74657232202034ED
:1013300029466F6F74657234003129466F6F74658A
:10134000723120203329466F6F7465723300257324
:101350002573005B2A5D4261636B20205B235D4F38
:101360004B0045646974204865616465722564209A
:101370004C696E6531005B2A5D4E6F205B235D59C1
:101380006573005361766520486561646572256404
:10139000203F005B2A5D4261636B20205B235D4F31
:1013A0004B0045646974204865616465722564205A
:1013B0004C696E6532005B2A5D4261636B20205B85
:1013C000235D4F4B00456469742048656164657214
:1013D0002564204C696E6531002A2945786974209E
:1013E0002020202020202020202020202000332901
:1013F00048656164657233202036294865616465FB
:1014000072360032294865616465723220203529C0
:1014100048656164657235003129486561646572AB
:10142000312020342948656164657234002A2945D9
:1014300078697400332950617373776F7264202068
:101440002020202020202020003229466F6F746544
:101450007220202020202020202020202000312940
:1014600048656164657220202020202020202020F3
:101470002020003229466F6F7465722020202035AD
:101480002953657276657200312948656164657219
:10149000202020203429436C69656E7400536176E6
:1014A000696E67205368696674446174612E2E20EA
:1014B000002573202573005072696E74696E672071
:1014C000546F74616C697A65720043616E63656C18
:1014D000004572726F72202D204E6F2050756D7016
:1014E0003A25642000576169742050756D703A2563
:1014F000642000576169742050756D703A2564202E
:1015000000546F74616C697A65722E2E002A294529
:1015100078697400332E4C6F636B2050756D7020AA
:101520002000322E436C6F736520446179202000C7
:10153000312E436C6F7365205368696674003429DB
:1015400053657474696E67732020202A2945786971
:101550007420003329436C6F736544617920202027
:1015600020202020202020003229436C6F736553F7
:101570006869667420202020202020200031295214
:10158000655072696E7420202020202020202020A9
:10159000200050617373776F726420526573746FAB
:1015A00072656400496E76616C696420526573747B
:1015B0006F726520200030303030300031313131F1
:1015C00031005B2A5D43616E63656C2020205B23E4
:1015D0005D456E746572005B2A5D4261636B20201D
:1015E0002020205B235D456E746572005B2A5D439D
:1015F000616E63656C2020205B235D456E746572AF
:10160000005F2020202020202020202020202020BB
:10161000202020202000456E74657220526573746E
:101620006F726520436F64652020004B65792053FD
:1016300074616D703A25732000496E76616C69643F
:1016400020436F64652020202020202020000025DA
:1016500073002573005B2A5D43616E63656C202017
:10166000205B235D456E746572005B2A5D42616399
:101670006B20202020205B235D456E746572000086
:101680005B2A5D43616E63656C2020205B235D45B2
:101690006E746572005F20202020202020202020F2
:1016A00020202020202020202000456E74657220FC
:1016B00047654E69557320436F6465202020005BA9
:1016C0002A5D4578697420202020202020202020B9
:1016D00020202000322E4368616E676520506173C0
:1016E00073776F726420202000312E526573746FFF
:1016F00072652050617373776F72642020002D53E0
:10170000797374656D2041646D696E204C657665F2
:101710006C2D00257325730025730025630032307E
:1017200025730025730034323634363336005B2A95
:101730005D43616E63656C2020205B235D456E74A4
:101740006572005B2A5D4261636B20202020205B74
:10175000235D456E746572005B2A5D43616E63654F
:101760006C2020205B235D456E746572005F005025
:10177000415353574F52443A00416363657373209A
:1017800044656E696564005B2A5D43616E63656CE8
:101790002020205B235D456E7465720050415353D9
:1017A000574F52443A005443502F495020457272CB
:1017B0006F72004E6F205265706C792020202000DF
:1017C0002020202020202000506C65617365205768
:1017D0006169740025730050554D50205445535491
:1017E0000025730025730025730025730025730001
:1017F00050726F736573002D4D4F5020566F756397
:101800006865722D0050726F7365730049443A2504
:1018100073005B2A5D4261636B202020205B235DA7
:101820004578697400464950257300546170204B17
:10183000617274752052464944005B2A5D43616EB3
:1018400063656C2020205B235D456E746572005BD0
:101850002A5D4261636B20202020205B235D456E62
:10186000746572005B2A5D43616E63656C202020A5
:101870005B235D456E7465720053757263686172B7
:1018800067653A2020205F25002573005B2A5D42B2
:1018900061636B0025642E25730053656C6563746A
:1018A0002042616E6B005B2A5D43616E63656C2054
:1018B00020205B235D456E746572005B2A5D42618A
:1018C000636B20202020205B235D456E74657200D1
:1018D0005B2A5D43616E63656C2020205B235D4560
:1018E0006E746572005F004B6F646520566F7563A0
:1018F000686572005B2A5D4261636B2020202020B6
:10190000202020202020202000322E42616E6B20DB
:10191000202020342E50756D705465737400312E64
:101920004163636F756E7420332E566F75636865FF
:1019300072200020202053656C656374205061790B
:101940006D656E7420202000435245444954434144
:101950005244005B2A5D4261636B202020202020DE
:101960002020202020202000322E437265646974DC
:1019700020436172642020202020202000312E444A
:10198000656269742F466C617368204361726420DC
:10199000200053656C656374204361726420547940
:1019A0007065004E6F20436F6E6E656374696F6E75
:1019B000005443502F4950204552524F522000436B
:1019C0006D20566F6C3A257300434D20416D743A7B
:1019D000257300506F696E74733A25730025733A4E
:1019E00025730050726F7365730049443A25730084
:1019F0005B2A5D4261636B202020205B235D45787C
:101A0000697400546170204B6172747520524649AC
:101A100044005B2A5D4261636B202020205B235DD4
:101A20004578697400546170204B6172747520525E
:101A3000464944004649503A2573005B2A5D42619D
:101A4000636B2020202020202020202000322E4CDC
:101A50006F79616C74792055706461746520003110
:101A60002E456E717569727920202020202020205B
:101A70000020204D656E75204C6F79616C74792063
:101A80002020004E6F20436F6E6E656374696F6E29
:101A9000005443502F4950204552524F5220005B72
:101AA0002A5D4261636B202020205B235D457869BD
:101AB00074005461702053757065727669736F722B
:101AC00020436172640052655072696E7420464909
:101AD000503A25732000546964616B204164612091
:101AE0005472616E73616B73692000416363657347
:101AF000732044656E696564002A2945786974001D
:101B000023294F4B20002020202020004649503A16
:101B10005F0025642E502573207C2025642E5025DF
:101B20007300303225732573257325732573257350
:101B3000257300300020202020202020202020207D
:101B40002020202020202020200023257300252E67
:101B5000326400404649503A0020202020202020B6
:101B60002020202020202020202020202000507213
:101B7000696E74696E672046495025732000443AA7
:101B8000256420433A256320200025732025730017
:101B90004E6F2050756D7020466F756E6400544313
:101BA000502F4950204572726F720050756D70460B
:101BB0006F756E6400436F6E6E65637465640020BC
:101BC0002020202020202020202020202020202015
:101BD0002020002573005363616E2050756D7000E6
:101BE000436F6E6E6563742020202020202020200B
:101BF00000436F6E6E65637400436F6E6E65637451
:101C000020202020202020202000434F4D25643A12
:101C10002569202020202020202020202000496E1F
:101C2000697469616C697A6520434F4D202E2E2EB0
:101C3000000A47654E695573205469636B657420CB
:101C40005072696E746572200A2056657273696FEE
:101C50006E3A25730A204C61737420557064617468
:101C600065202573200A2048616E696E646F2041EB
:101C700075746F6D6174696F6E20536F6C757469E4
:101C80006F6E73200A207777772E68616E696E64B5
:101C90006F67726F75702E636F6D0A0A0A0A0A0AFF
:101CA0000A0A0030372F30312F3230313100322ED6
:101CB00033300025732573257325733938252E326B
:101CC000644639363843464642004675656C696E4F
:101CD0006720404649503A232564005472616E7370
:101CE000616B73692053656C657361690049443A9F
:101CF000202573002573005025732025732000468E
:101D0000495020546964616B205369617020202020
:101D10002000417574686F72697361736920426550
:101D200072686173696C00417574686F7269736180
:101D3000736920476167616C2020200020202020EB
:101D400020202000202020202020202020202020B3
:101D50002020202020202020004D6F686F6E20540E
:101D6000756E6767752020202020202020002573B5
:101D700000502573202573200043616E63656C203D
:101D80005472616E73616374696F6E2020005B2A08
:101D90005D4261636B205B305D455343205B235D97
:101DA0004F4B00257320002046756C6C0025732076
:101DB000202573200049443A202573002573200014
:101DC0005B2A5D4261636B20205B235D4F4B2020CB
:101DD00020004F646F6D657465723A5F202020208B
:101DE000202020002573200020202573202573202B
:101DF0000050756D702050726F6475637420416D72
:101E00006F756E740050756D702050726F647563DD
:101E10007420566F6C756D6500202054616E6B00E8
:101E200020202573202573200050756D702050727E
:101E30006F6475637420202046756C6C00257300F8
:101E40005B2A5D4261636B20205B235D4F4B20204A
:101E500020202020005B325D416D6F756E743A5F0B
:101E60002020202020202020200020202020202092
:101E70002020202020202020202020202020005052
:101E800025732D257320005B2A5D4261636B202042
:101E90005B235D4F4B20202020202000202020208D
:101EA0002020202020202020202020202020202032
:101EB000005B315D566F6C756D653A5F20202020A8
:101EC0002020202020005025732D25732000410064
:101ED000410056005B2A5D4261636B202020205B3D
:101EE000235D4E6578742020005B325D416D6F7517
:101EF0006E742020202020202020202020005B3114
:101F00005D566F6C756D65202020202020202020DC
:101F10002020005025732D257320002573005B2A97
:101F20005D4261636B202020202020202020202083
:101F300020200020202020200025642E257300254D
:101F40007300506F6D70612D257300252E32640073
:101F5000252E3264002A29457869740023294F4BC5
:101F600020002020202020004649503A5F002564B0
:101F70002E50252E3264207C2025642E50252E32B2
:101F800064005B2A5D426174616C20202020202067
:101F9000205B235D4F4B00257320257300257300C4
:101FA0002573002573004B6172747520546572624D
:101FB0006174617320202020202000546964616BCB
:101FC00020546572646166746172202020202000B4
:101FD00044617461205265636569766564202020E0
:101FE00020202020005443502F4950204572726F0A
:101FF0007220202020202020200053656E64696E0E
:1020000067204661696C6564202020202020002024
:102010002020202020200050726F736573004944F7
:102020003A2573002020204C6F63616C204163636C
:102030006F756E74202020004539343435353132C7
:102040000025732573002573257325732573393493
:102050000045393434353531320025732573257305
:102060000025732573257325730025732573257348
:102070002573393200453934343535313200257312
:102080002573002573257325732573393000256466
:1020900046303030303030304531323334353646EA
:1020A00046464646257345393434353531320025A8
:1020B0007325732564257325730025732573257394
:1020C000257335380025732573257325733536251B
:1020D000734146393638434646420046393638431E
:1020E0004646420025732573002573257325732505
:1020F00073002573257325732573333200257325EB
:102100007346393638434646420025732573257396
:1021100025733238002573257346393638434646D1
:1021200042002573257325732573323400257346C9
:102130003936384346464200257325732573257387
:1021400032320025732573257325733130463936B5
:102150003843464642002573257325732573303472
:1021600025733146393638434646420025732E25BD
:10217000732E25732E25730025732E25732E25733C
:102180002E257300257320257300322E333000472F
:10219000654E695573002850292B28432932303069
:1021A000392C204841530049465476352E313300AE
:1021B000507265737320616E79206B65792E2E20C5
:1021C00020202020005B315D536C617665205B32FE
:1021D0005D5374616E64616C6F6E65003E00252E08
:1021E000326400252E326400300031002564002561
:1021F0002E3264002573002573002573003C003CDB
:102200004F4B3E002564002564002564003C53616B
:1022100076696E673E0025730025730025730025DF
:102220007300257300252E32640025640025730099
:102230002573002573002564004E2F41002564009E
:10224000257300257300546964616B20416461202B
:102250005472616E73616B73692000546F74616CAA
:10226000697A6572416C6C202020202000436C65E7
:102270006172204461746120546F74616C697A6585
:1022800072004175746F0020202020202020202023
:10229000202020202020200052656164792E2E2EDF
:1022A0002020202020202020202020200052656196
:1022B00064792E2E2E202020202020202020202057
:1022C00020004E6F20526573706F6E73652E2E2046
:1022D00020202020202000506C656173652057610C
:1022E00069742E2E20202020202020005265616459
:1022F000792E2E2E2020202020202020202020205B
:1023000000546964616B20416461205472616E7392
:10231000616B73692000536564616E6750726F73FF
:1023200065730020202020004175746F002020205C
:10233000202020202020202020202020202020209D
:1023400020002020202020202020202020202020AD
:10235000202020202020002020202020202020209D
:10236000202020202020202020202000202020208D
:10237000202020202020202020202020202020205D
:102380000030202E000000312E2C3F2100326162EF
:1023900063000033646566000034676869000035D7
:1023A0006A6B6C0000366D6E6F000037707172736F
:1023B00000387475760000397778797A0030202EED
:1023C0000000003126402B2D0032414243000033F3
:1023D0004445460000344748490000354A4B4C000C
:1023E00000364D4E4F00003750515253003854556F
:1023F000560000395758595A0002040303030303D7
:102400000403040011241FBECFEFD0E1DEBFCDBF17
:1024100011E0A0E0B1E0ECE7F0E701E00BBF02C0A3
:1024200007900D92A437B107D9F71EE0A4E7B1E0F9
:1024300001C01D92A43DB107E1F70E94A7120C94C0
:102440003CB80C94000004B600FE06C014BE81E047
:1024500061E04EEC52E016C004B601FE06C014BEA8
:1024600081E061E045EC52E00DC004B602FE06C01A
:1024700014BE81E061E04CEB52E004C081E061E019
:1024800043EB52E00E94BEAB14BE80EE9EE220E71A
:1024900031E0F9013197F1F70197D9F708950E94DA
:1024A0000CAB0E94EBAB0E94C6140E94231284E086
:1024B00061E044EA52E00E94BEAB88EB9BE020E77B
:1024C00031E0F9013197F1F70197D9F79FEF9BBB05
:1024D0009ABBDB9A98BB97BB8DE082BB89E081BB3E
:1024E000909370008EE083B982B91B9A1A989093EA
:1024F000620080EF8093610080E061E00E9403B0A1
:10250000BB9AC39ABA98C29AB998C19A8EB5886094
:102510008EBD87B7806187BF789488E09DE39BBDBF
:102520008ABD8EB583608EBD0E94C6A481E0809373
:10253000E2031092E303809165008D7F8093650034
:102540000E94A64A0E940F780E94EBAB08950E9459
:102550004F120E9496A2FDCF9C01E199FECF3FBB96
:102560002EBBE09A8DB308959C01E199FECF3FBB4D
:102570002EBB6DBB0FB6F894E29AE19A0FBE089598
:1025800086E10895E82FF0E0EE31F10550F5EA5BC1
:10259000FF4FEE0FFF1F0590F491E02D099481E3AA
:1025A000089585E4089582E3089583E3089584E31C
:1025B000089585E3089589E608958EE6089581E6F5
:1025C000089584E6089586E4089583E508958DE2EC
:1025D000089589E4089586E5089584E5089584E7DB
:1025E000089588E7089580E508958093B60760937D
:1025F000DE0D81E08093AD010895282F823039F4FB
:1026000081E08093CC031092CA031092C903809199
:10261000CC03813069F48091C9039091CA03FC0115
:10262000EB5DF44F208301969093CA038093C90316
:10263000233041F08091C9039091CA038D349105F4
:1026400008F49BC01092CC033091270B305180913D
:10265000260B2AE0829FC0011124380F3093CB0350
:10266000333009F065C0E8E2FBE0A2E9BEE0819109
:102670008D938BE0EE32F807D1F71092980E80819F
:102680008093C80981818093C9091092CA09329642
:10269000AEEABEE081918D938BE0EF33F807D1F77E
:1026A0001092BD0EA1E9BDE081918D938BE0E235E2
:1026B000F807D1F71092A40D20E030E0F901E05FB7
:1026C000F54FD901AB5DB44F9D968C9180832F5F00
:1026D0003F4F2630310591F71092160A20E030E086
:1026E000F901EE59F64FD901AB5DB44FD3968C91F9
:1026F00080832F5F3F4F2A30310591F710926C098C
:1027000020E030E0F901E953F24FD901AB5DB44F5D
:10271000DD968C9180832F5F3F4F2E30310591F7EE
:102720001092D50D81E08093C5018093C601089574
:10273000343019F5E8E2FBE0A0E1BAE081918D9335
:102740008BE0EE32F807D1F71092160AA2E6B9E054
:1027500081918D938BE0E833F807D1F710926C09E3
:10276000A7ECBDE081918D938BE0E634F807D1F7BB
:102770001092D50D81E08093C70108950895982F98
:10278000E4EAFAE08081818331978AE0E139F80751
:10279000C9F79F012F5F3F4F918384858230F9F401
:1027A0008091930A8A30D9F49330C9F4F9013A96AA
:1027B000ACE5BEE080818D9331978AE0E439F8077B
:1027C000C9F71092640E81E08093C4018093E20304
:1027D0001092E303809165008D7F809365000895DA
:1027E0001F920F920FB60F9211248F939F939CB15B
:1027F0008091DF01813021F08091DE01813051F440
:10280000933121F481E08093DD0104C0913111F412
:102810001092DD019F918F910F900FBE0F901F902E
:10282000189580E00895BD9AC5989093EC01809327
:10283000EB01089508958F70089582958F70089523
:10284000982F8A3010F4805D08958A50863010F0F9
:1028500080E00895892F895C0895282FFB01982F27
:1028600092959F709A3018F4892F805D08C0892F47
:102870008A50863010F080E002C0892F895C808306
:10288000922F9F709A3018F4892F805D08C0892F8D
:102890008A50863010F080E002C0892F895C8183E5
:1028A00012820895FC0180812AE0829F9001112408
:1028B0008051820F0895582FFB0164E60E94A3B750
:1028C000A82F852F0E94A3B7892F6AE00E94A3B783
:1028D000482F8CE99FEFA89F802D1124850F26EFAC
:1028E0003FEF429F902D1124980F543640F0A05D89
:1028F000A083405D4183905D9283138208955B3095
:1029000018F4905D90831182089520E030E0F90181
:10291000EF56F24FD901A45AB14F8C9180832F5FAB
:102920003F4F2830310599F71092990D0895CF93B4
:10293000DF93DB01EC0120E030E007C0FD01E20F96
:10294000F31F899180832F5F3F4F2417B8F3A40FA3
:10295000B11D1C92DF91CF910895CF93DF93DB01DE
:10296000EC01C40FD11D40E050E007C0FD01E40FB1
:10297000F51F899180834F5F5F4F4217B8F3A20F15
:10298000B11D1C92DF91CF910895089581E080934D
:10299000E2031092E303E5E6F0E080818D7F80831F
:1029A00008952091B7013091B8012115310561F0EA
:1029B000809165008D7F8093650021503040309379
:1029C000B8012093B70108958091650082608093DB
:1029D00065000895823059F0823018F0833021F478
:1029E00009C020E835E208C020E030E005C020E062
:1029F0003BE402C02BE936E1C9010895E199FECF1D
:102A000084E791E09FBB8EBBE09A8DB38093750104
:102A1000E199FECF89E791E09FBB8EBBE09A8DB331
:102A2000809376010895089508958627089508955E
:102A3000882319F0813049F511C0262F30E0240F8A
:102A4000311DC9016AE070E00E94D0B7482FC9016A
:102A50006AE070E00E94D0B7460F17C0662309F401
:102A600061E0442309F441E0469F90011124C9012B
:102A70006AE070E00E94D0B7462FC9016AE070E0BA
:102A80000E94D0B7642F482FD8CF842F089581E0BB
:102A90000895FF920F931F93CF93DF93F0907501EA
:102AA000EC0100E010E009C08EE00E94C2129881A3
:102AB000981709F41F5F0F5F21960F15A8F3812F58
:102AC000DF91CF911F910F91FF9008950895089580
:102AD0000895FC018081841718F48F5F8083089526
:102AE00060830895FC018081681718F48150808309
:102AF000089540830895582FFB01843600F164E661
:102B00000E94A3B7482F852F0E94A3B7892F6AE0A0
:102B10000E94A3B7405D40834053805D8183805312
:102B2000505D2CE93FEF429F402D1124450F26EFC9
:102B30003FEF829F802D1124840F828310C08A5022
:102B40008A3578F480E38083852F6AE00E94A3B7FA
:102B5000805D8183852F0E94A3B7905D928313824D
:102B600008955A3030F480E380838183505D52832E
:102B700013820895813029F0823019F0833009F0F2
:102B800080E00895CF93DF93EB01DA01A80FB91F1E
:102B900040E050E007C0FE01E40FF51F8D918083F7
:102BA0004F5F5F4F42175307B0F3C20FD31F188216
:102BB000DF91CF9108950F931F93CF93DF938C01F3
:102BC000DB01EB01C40FD51F60E070E007C0F80126
:102BD000E60FF71F808189936F5F7F4F621773073E
:102BE000B0F3A40FB51FA20FB31F1C92DF91CF91BA
:102BF0001F910F910895FB01E80FF91F808108953F
:102C00008091250B813051F48091B3019091B401F2
:102C10008F9721F480914A0B8053089580E00895A6
:102C200090914C0B20E030E0F901E953F54FD901C8
:102C3000AB5DB44F97968C9180832F5F3F4F2431CB
:102C4000310591F71092DB0A20E030E0F901EE54F3
:102C5000F64FD901AB5DB44FDB968C9180832F5F2B
:102C60003F4F2431310591F71092C60920E030E042
:102C7000F901E35BF54FD901AC58B44F8C918083D7
:102C80002F5F3F4F2431310599F71092610A20E000
:102C900030E0F901EF51F24FD901A857B44F8C91B0
:102CA00080832F5F3F4F2431310599F71092F50D46
:102CB000892F8053089520E030E0F901EF56F24F5C
:102CC000D901AB5DB44F95968C9180832F5F3F4FB8
:102CD0002431310591F71092A50D20E030E0F90183
:102CE000E65DFA4FD901AB5DB44FD9968C918083E4
:102CF0002F5F3F4F2E31310591F71092480580919B
:102D00007C0B809390051092910520E030E0F90152
:102D1000EA59F54FD901A358B44F8C9180832F5FA6
:102D20003F4F2830310599F710926E0A20E030E0CD
:102D3000F901EC57FA4FD901AB57B44F8C9180830E
:102D40002F5F3F4F2A30310599F710928E0520E012
:102D500030E0F901E850F24FD901A157B44F8C91FE
:102D600080832F5F3F4F2A30310599F71092020E72
:102D700020E030E0F901E953F24FD901A756B44FF2
:102D80008C9180832F5F3F4F2331310599F710924B
:102D9000DA0D20E030E0F901E554F24FD901A455F5
:102DA000B44F8C9180832F5F3F4F2730310599F7C7
:102DB0001092C20D20E030E0F901EF53FB4FD90132
:102DC000AD54B44F8C9180832F5F3F4F2430310539
:102DD00099F71092C50480E00895CF93DF93809116
:102DE0004A0B893511F490E801C090E080914B0BBB
:102DF000893509F4906480914C0B893509F490620F
:102E0000906180914D0B8053813108F4982BC091D3
:102E1000B501D091B60120E030E00BC0F901E950D6
:102E2000FA4FD901AB5DB44F9C968C9180832F5F94
:102E30003F4F2C173D0790F3C950DA4F1882892F66
:102E4000DF91CF91089520E030E006C0FC01E20F51
:102E5000F31F40832F5F3F4F26173707B8F30895BE
:102E600020E030E0F901EE56F14FD901AB5DB44FEF
:102E700095968C9180832F5F3F4F2630310591F7D7
:102E80001092980E8091500B8093C8098091510B3D
:102E90008093C9091092CA0920E030E0F901E35C8F
:102EA000F54FD901AB5DB44F9D968C9180832F5F18
:102EB0003F4F2F30310591F710924C0A20E030E05F
:102EC000F901E355F84FD901AB5DB44FDC968C9115
:102ED00080832F5F3F4F2630310591F71092B30763
:102EE00020E030E0F901E558FA4FD901A959B44F73
:102EF0008C9180832F5F3F4F2830310599F71092D6
:102F0000830520E030E0F901E554F24FD901A159E1
:102F1000B44F8C9180832F5F3F4F2830310599F754
:102F20001092C30D8091770B8093900510929105BC
:102F300020E030E0F901EE5FFA4FD901A858B44F14
:102F40008C9180832F5F3F4F2930310599F7109284
:102F50000B0508951F93813009F05FC06F32710532
:102F600021F080913901882321F481E08093CB0105
:102F70004AC06C36710511F0893021F481E08093EC
:102F8000D00141C092E06736790711F08B3021F40F
:102F900081E08093CD0137C06139710511F087312F
:102FA00021F481E08093CF012EC0663E710511F0BF
:102FB000893321F481E08093D20125C091E0683902
:102FC000790711F0833621F481E08093CC011BC096
:102FD00091E0663B790711F0813521F481E080931F
:102FE000D30111C06C35710511F08B3521F481E0EE
:102FF0008093D40108C06635710511F0853119F44C
:1030000081E08093CE011091D401113031F41092FF
:10301000D4010E9430171093C3011F910895FC0141
:10302000DC0180E090E202C09D938F5F8617E0F3A1
:10303000E60FF11D108208956F927F928F929F92FA
:10304000AF92BF92CF92DF92EF92FF920F931F93B6
:10305000CF93DF93EC01411551056105710521F412
:1030600080E38883198248C04A015B0110E000E0D8
:103070007724C12C9AECD92E9AE9E92E9BE3F92EFC
:1030800080E3682E8C149D04AE04BF04D0F0C5010B
:10309000B401A70196010E94E3B7122FC501B40144
:1030A000A70196010E94E3B7AC01CB01DA014C0104
:1030B0005D01FE01E00FF11D105D10830F5F11E057
:1030C00007C0112329F0FE01E00FF11D60820F5FA0
:1030D00073948AE0781669F0C701B6012AE030E0FF
:1030E00040E050E00E94E3B7C901DA016C017D01C4
:1030F000C9CFC00FD11D1882DF91CF911F910F91C1
:10310000FF90EF90DF90CF90BF90AF909F908F9007
:103110007F906F900895DC0120E030E09C91905307
:103120009A3008F090E011968C91119780538A3074
:1031300008F080E0FB01E20FF31F8F709295907F03
:10314000982B90832F5F3F4F12962630310531F731
:103150000895CF93DF93EB01DB0120E030E0FC0129
:10316000E20FF31FE0814E2F42954F704A3010F06E
:1031700040E301C0405DEF70EA3010F0E0E301C0D1
:10318000E05D4C931196EC9311972F5F3F4F129691
:103190002630310521F71C86DF91CF9108958617DF
:1031A00008F4865F861B805D08958056860F6AE06E
:1031B0000E94AFB7892F805D08958A3010F080E3B8
:1031C0000895805D089580538A3008F080E0089566
:1031D000482FFB01181664F4562FDB0190E29D93F3
:1031E0008A2F851B8417D8F3E40FF11D10820895F0
:1031F00080E2808311820895863051F1873070F427
:10320000833011F1843028F48130C1F08230C1F470
:1032100019C08430D9F0853099F422C08930F1F09A
:103220008A3028F48730B1F0883051F415C08B30E3
:10323000D9F08B30B8F08C3019F418C08AED0895AD
:1032400080E0089582EC08958FEB089583EC089553
:1032500084EB089580EC089581EC089589ED08953C
:1032600085EC089583EB089584EC08958DE008952E
:10327000BF92CF92DF92EF92FF920F931F93CF9363
:10328000DF93B82E8B01E42E6901F901C081D18151
:103290000C0F1D1FFF2407C08B2D0E94FC18F80186
:1032A00081938F01F394FE14B8F3CE0DD11DF60176
:1032B000D183C083DF91CF911F910F91FF90EF9049
:1032C000DF90CF90BF9008950895089508950895D0
:1032D000E82F282F2F70822F869586958695A82F08
:1032E000B0E0A152B24F4C91623059F4277081E0A6
:1032F00090E002C0880F991F2A95E2F7482B4C9363
:1033000008956330B1F427708EEF90E001C0880F0C
:103310002A95EAF7E695E695E695F0E0E152F24F58
:10332000282F30E02095309535952795822B8423E2
:10333000808308958F70E82FE695E695E695F0E096
:10334000E152F24F9081292F30E0877002C035950D
:1033500027958A95E2F72130310511F482E008952E
:10336000232B11F483E0089580E00895DF93CF9339
:1033700000D000D00F92CDB7DEB7982FE199FECFE5
:1033800027E631E03FBB2EBBE09A8DB3891751F0A1
:10339000E199FECF3FBB2EBB9DBB0FB6F894E29ADE
:1033A000E19A0FBE913019F0923071F408C0198281
:1033B00083E08A831B8282E08C831D8205C0198290
:1033C0009A831B829C839D8329E330E0FE01319622
:1033D000E199FECF3FBB2EBBE09A8DB39081891758
:1033E00051F0E199FECF3FBB2EBB9DBB0FB6F894C9
:1033F000E29AE19A0FBE2F5F3F4F319680E02E3365
:10340000380731F70F900F900F900F900F90CF91DA
:10341000DF910895DF93CF93CDB7DEB762970FB6F4
:10342000F894DEBF0FBECDBF2091C0052F83209141
:10343000C10528872091C3052C832091C4052D83C5
:103440002091C60529832091C7052A832091A90AC6
:103450002A872091AA0A2B872091AC0A2D872091D8
:10346000AD0A2E872091AF0A288B2091B00A298BB4
:103470001A8A1F861C861B821E8219862DB73EB7AC
:10348000205130400FB6F8943EBF0FBE2DBFEDB7B0
:10349000FEB73196ADB7BEB712969C938E93119737
:1034A00083ED93E093838283CE0101969583848399
:1034B000CE01049697838683CE01079691878087F5
:1034C000CE010A9693878287CE010D9695878487D1
:1034D000CE014096978786870E94E3B42DB73EB70A
:1034E000205F3F4F0FB6F8943EBF0FBE2DBF6296D0
:1034F0000FB6F894DEBF0FBECDBFCF91DF91089518
:1035000000D000D000D0EDB7FEB73196ADB7BEB752
:1035100012967C936E93119725EB3EE033832283C2
:10352000848315820E94E3B48DB79EB706960FB6CA
:10353000F8949EBF0FBE8DBF08958091E60184363A
:1035400020F48F5F8093E60102C01092E601809123
:10355000E60190E06BED7DE00E94801A0895E1990C
:10356000FECF80E090E09FBB8EBBE09A8DB390E0F1
:1035700062EF75E00E94801A0895FF920F931F93E7
:10358000DF93CF93CDB7DEB728970FB6F894DEBFA1
:103590000FBECDBFF82E8E010F5F1F4FC80165E42F
:1035A00070E048E050E02CEA32E10E94A3B4F80158
:1035B0009E01275F3F4F9E2F901B80818F1519F42E
:1035C000892F8F5F05C03196E217F307A1F780E0DE
:1035D00028960FB6F894DEBF0FBECDBFCF91DF9116
:1035E0001F910F91FF900895FF920F931F93CF9318
:1035F000DF93282FF62E803108F056C0E199FECFD8
:1036000087E691E09FBB8EBBE09A8DB380937701F4
:10361000813021F0823041F4822F06C0222311F440
:103620008FE002C0822F81500E94BD1A8823E1F1F1
:103630008150C82FD0E080E10E94C2128E01095D46
:103640001E4FF80190819817B1F0F0E1FF1621F0BC
:10365000FE01E858FE4FF0828F2D0E94C2128E01AB
:10366000095D1E4FF8018083F5E1FF16C1F4C858CB
:10367000DE4F888110C0FE01E858FE4F81E1F81648
:1036800011F4808108C0F0828BE0F81621F0F4E19B
:10369000FF1629F484E10E94C212F801808310927F
:1036A000370181E080932601DF91CF911F910F9127
:1036B000FF9008951F93DF93CF93CDB7DEB7289780
:1036C0000FB6F894DEBF0FBECDBF182FCE01019606
:1036D00065E470E048E050E02CEA32E10E94A3B4D7
:1036E000812F8150873010F080E004C0FE01E10F8F
:1036F000F11D808128960FB6F894DEBF0FBECDBFB6
:10370000CF91DF911F9108950F931F93DF93CF9374
:1037100000D000D000D0CDB7DEB7962F4F7021502B
:10372000263008F4522F8823D9F464E2469FB00172
:103730001124292F30E080E291E0FC012E9FC0018E
:103740002F9F900D3E9F900D1124680F791F86E0EA
:10375000589FC0011124680F791F6E507C4F1CC008
:10376000813011F564E2469FB0011124292F30E029
:1037700080E291E0FC012E9FC0012F9F900D3E9FA3
:10378000900D1124680F791F86E0589FC001112405
:10379000680F791F6E5C794FCE01019646E050E0CC
:1037A0002CEA32E10E94A3B4CE010196B8010E9436
:1037B000A91826960FB6F894DEBF0FBECDBFCF91E5
:1037C000DF911F910F910895DF92EF92FF920F9377
:1037D0001F93DF93CF9300D000D00F92CDB7DEB709
:1037E000D82E8E010F5F1F4FC80160E470E045E0E6
:1037F00050E02CEA32E10E94A3B4ED2D21E030E04C
:103800007801D8018C91D81649F4C90165E070E0BF
:103810000E94D0B7F701E80FF91FE0810F5F1F4F3B
:103820002F5F3F4F2630310561F78E2F0F900F909D
:103830000F900F900F90CF91DF911F910F91FF90FC
:10384000EF90DF900895CF92DF92EF92FF920F9367
:103850001F93DF93CF93CDB7DEB764970FB6F8947D
:10386000DEBF0FBECDBF8E010F5F1F4FC8016CE2E0
:1038700070E044E050E02CEA32E10E94A3B4780109
:103880008E010B5F1F4F6801D7018D917D01B8013B
:103890000E947B150C5F1F4FEC14FD04A9F7EDB7D8
:1038A000FEB73C970FB6F894FEBF0FBEEDBF319642
:1038B00087E19AE0ADB7BEB712969C938E931197AD
:1038C0008CE691E293838283F582E482CE010996AD
:1038D00097838683CE010D9691878087CE0141968E
:1038E000938782870E94E3B4EDB7FEB73C960FB68C
:1038F000F894FEBF0FBEEDBF64960FB6F894DEBF1E
:103900000FBECDBFCF91DF911F910F91FF90EF9030
:10391000DF90CF900895CF92DF92EF92FF920F93B6
:103920001F93DF93CF93CDB7DEB768970FB6F894A8
:10393000DEBF0FBECDBF8E010F5F1F4FC80168E213
:1039400070E044E050E02CEA32E10E94A3B4780138
:103950008E010B5F1F4F6801D7018D917D01B8016A
:103960000E947B150B5F1F4FEC14FD04A9F7EDB708
:10397000FEB73C970FB6F894FEBF0FBEEDBF319671
:103980008AEE99E0ADB7BEB712969C938E931197CD
:1039900088E791E293838283F582E482CE010A96DE
:1039A00097838683CE010F9691878087CE014496B8
:1039B000938782870E94E3B4EDB7FEB73C960FB6BB
:1039C000F894FEBF0FBEEDBF68960FB6F894DEBF49
:1039D0000FBECDBFCF91DF911F910F91FF90EF9060
:1039E000DF90CF900895CF92DF92EF92FF920F93E6
:1039F0001F93DF93CF93CDB7DEB72F970FB6F89411
:103A0000DEBF0FBECDBFE82E8B018F700E94BD1AA6
:103A1000882309F42DC18150C82EDD2485E390E070
:103A2000C89EF001C99EF00DD89EF00D1124E954F6
:103A3000F84F8081080F111DD8012C91CE010196FD
:103A4000222369F06DE0269FB001112462527F4F5E
:103A50004DE050E02CEA32E10E94A3B410C000D047
:103A600000D0EDB7FEB79283818389E392E294831D
:103A700083830E94E3B40F900F900F900F90E19911
:103A8000FECF80E090E09FBB8EBBE09AFDB200D0FD
:103A900000D000D0ADB7BEB7119683E79EE0EDB77A
:103AA000FEB79283818386E392E213969C938E9372
:103AB000129785E390E0C89E8001C99E100DD89EA4
:103AC000100D1124F801E954F84F828114968C935B
:103AD000149715961C920E94E3B4EDB7FEB7319689
:103AE00082E99EE0ADB7BEB712969C938E93119774
:103AF00083E392E293838283C8018654984F95832F
:103B000084830E94E3B4EDB7FEB731968DE799E068
:103B1000ADB7BEB712969C938E93119780E392E255
:103B200093838283C8018F53984F958384830E9427
:103B3000E3B4EDB7FEB7319683E595E0ADB7BEB718
:103B400012969C938E9311978DE292E293838283D7
:103B5000C8018653984F958384830E94E3B4EDB7E0
:103B6000FEB731968FEF9AE0ADB7BEB712969C9331
:103B70008E9311978AE292E293838283F482158274
:103B80000E94E3B4EDB7FEB7319688EC99E0ADB78B
:103B9000BEB712969C938E93119785E292E293831F
:103BA0008283E48215820E94E3B4EDB7FEB73196BA
:103BB0008DE39AE0ADB7BEB712969C938E931197A2
:103BC00082E292E293838283CE010196958384837D
:103BD0000E94E3B4EDB7FEB731968DEA97E0ADB73A
:103BE000BEB712969C938E9311978FE192E29383C6
:103BF0008283C8018D52984F958384830E94E3B4D9
:103C0000EDB7FEB731968BE795E0ADB7BEB712962C
:103C10009C938E9311978CE192E293838283C801E7
:103C20008652984F958384830E94E3B4EDB7FEB724
:103C300031968BEB9DE0ADB7BEB712969C938E93F9
:103C4000119789E192E2938382830D51184F158376
:103C500004830E94E3B41092E40181E08093D901CF
:103C6000EDB7FEB736960FB6F894FEBF0FBEEDBFA8
:103C70002F960FB6F894DEBF0FBECDBFCF91DF9168
:103C80001F910F91FF90EF90DF90CF900895EF92EA
:103C9000FF920F931F93DF93CF9300D000D000D0FB
:103CA000CDB7DEB7F82E062F0E945A1BE82E0E94D1
:103CB000BD1A182F882399F1013069F0EE2079F1AF
:103CC00080E10E94C2121150E12FF0E0E95DFE4F49
:103CD0009081981721F566E0F69EB0011124615B92
:103CE0007F4FCE01019646E050E02CEA32E10E947F
:103CF000A3B4EF2DF0E0E956FE4F8081813019F03A
:103D0000002329F00CC0013011F40093A8018E2D7E
:103D1000BE016F5F7F4F0E94F31C81E101C082E111
:103D200026960FB6F894DEBF0FBECDBFCF91DF91C0
:103D30001F910F91FF90EF900895AC01DC010D9061
:103D40000020E9F71197A81BB90B20E030E090E0C4
:103D500006C0E40FF51F8081280F311D9F5FE92FFA
:103D6000F0E0EA17FB07A8F3C9016FEF70E00E94CB
:103D7000BCB7882309F48FEF0895FF920F931F9328
:103D8000DF93CF93CDB7DEB72A970FB6F894DEBF97
:103D90000FBECDBFF82E00D000D08E010F5F1F4F99
:103DA000EDB7FEB71283018385EF93E0948383839D
:103DB0000E94E3B4D8010D900020E9F71197A01BF1
:103DC000B10B90E00F900F900F900F90980108C0EA
:103DD000E20FF31F80818F1511F481E007C09F5F10
:103DE000E92FF0E0EA17FB0798F380E02A960FB678
:103DF000F894DEBF0FBECDBFCF91DF911F910F9121
:103E0000FF9008950F931F93CF93DF93AC01FB01B5
:103E100001900020E9F731971E2F161BFC0101903D
:103E20000020E9F731970E2F081BDB0160E018C076
:103E30009C91FA018081981789F4ED0120E030E02F
:103E400009C0FA01E20FF31F908189912F5F3F4F64
:103E5000981721F42017A8F3862F05C06F5F1196DD
:103E6000611730F3812F90E0DF91CF911F910F9177
:103E700008957F928F929F92AF92BF92CF92DF92DE
:103E8000EF92FF920F931F93CF93DF935C016B012F
:103E90004A01EC0109900020E9F72197C81BD90BD2
:103EA000CB32D10510F0CAE2D0E0F40100811181DB
:103EB0007601E00EF11E8AE00E94FC18782EF701D0
:103EC000808398012F5F3F4FD70190E007C0EA0D34
:103ED000FB1D80818C932F5F3F4F9F5FE92FF0E0A8
:103EE0001196EC17FD0798F3622FCA32D10591F0B5
:103EF000F601E20FF31F4AE250E04C1B5D0B70E24B
:103F000003C071932F5F3F4F822F861B90E0841771
:103F10009507B8F3F601E20FF31F7082C90101960D
:103F2000C80ED91E2DE0F60120830196F40191837D
:103F30008083DF91CF911F910F91FF90EF90DF90E1
:103F4000CF90BF90AF909F908F907F900895382F23
:103F5000AB018150863068F5FB0101900020E9F744
:103F60003197E61BF70B7E2FEE2311F420E014C0EF
:103F700080E090E0632F605DFA01E80FF91FE081B7
:103F80003A3010F020E301C0262FE21791F0282FDD
:103F90002F5F0196871780F3622F70E03A3010F0A0
:103FA00080E302C0832F805DFA01E60FF71F808354
:103FB00011820895DC010D900020E9F71197A81BEC
:103FC000B90B20E030E006C0FC01E20FF31F1082C5
:103FD0002F5F3F4F2A173B07B8F308956F927F92E8
:103FE0008F929F92BF92CF92DF92EF92FF920F93A8
:103FF0001F93DF93CF93CDB7DEB764970FB6F894D6
:10400000DEBF0FBECDBF7C016A01BB2430E0062FAE
:1040100010E0005310403E010894611C711C62E0E6
:10402000862E912C8C0E9D1E24C01197A41BB50BBF
:10403000AE0DBF1D8C9190E0C097BC01609FC00188
:10404000619F900D709F900D1124232F280F822FB8
:104050006AE00E94A3B7382FF301E40FF51F822F07
:104060000E94A3B7905D9083480D591DFA011082FC
:10407000B3944B2D50E0D7010D900020E9F7119734
:10408000AE19BF094A175B0780F2332389F0FE019E
:104090003196DF010D900020E9F71197AE1BB0E0DB
:1040A000EA0FFB1F305D3083AC0FBD1F12961C92D0
:1040B000DE011196FD0101900020E9F731979E2F56
:1040C0009A1BA90FB11DF60102C08C918193119723
:1040D000AC17BD07D1F7C90ED11CF601108264964A
:1040E0000FB6F894DEBF0FBECDBFCF91DF911F9109
:1040F0000F91FF90EF90DF90CF90BF909F908F90A7
:104100007F906F900895AC01DC010D900020E9F7DD
:104110001197A81BB90B20E00AC0E40FF51F80819E
:10412000922F9F5F8D3211F4892F0895292FE22F4E
:10413000F0E0EA17FB0788F380E008950E948320EF
:10414000811181E00895CF93DF93EC010E949E20BE
:10415000813019F5CE010E948320DE010D900020F0
:10416000E9F71197AC1BB0E090E0A81BB90BAE01CA
:10417000480F591F20E030E00AC0BE01620F731FD4
:10418000FA018191AF01FB0180832F5F3F4F2A1716
:104190003B0798F3AC0FBD1F1C92DF91CF910895A0
:1041A000AC01272FFC0101900020E9F731977E2F09
:1041B000781BA62FB22FFD0101900020E9F731975F
:1041C000E61BE71748F17E1749F5862F922F9C01D1
:1041D000D90120E030E01DC0FA01E20FF31FE081B9
:1041E000E053EA3010F060E001C06E2F8C918053F4
:1041F0008A3010F090E001C0982F961768F0EA30EE
:1042000008F0E0E08A3010F4E81740F02F5F3F4FED
:104210001196271708F302C081E0089580E0089501
:10422000FC0101900020E9F73197E81BDC01AE0F9B
:10423000B11D90E020E006C08C91803309F42F5F1F
:104240009F5F11979E17C0F380E02E1709F481E05D
:104250000895CF93DF9320E008C0FB01EC0FFD1F12
:10426000E491C80FD91FE8832F5FC22FD0E0FB0174
:1042700001900020E9F73197E61BF70BCE17DF0717
:1042800060F3DF91CF910895AC01DC010D90002027
:10429000E9F71197A81BB90B90E020E030E009C0C6
:1042A000FA01E20FF31F8081803209F09F5F2F5FD8
:1042B0003F4F2A173B07A0F380E0992309F481E0E0
:1042C00008959C01E199FECF8EE390E09FBB8EBBE9
:1042D000E09A5DB340E008C0F901E80FF91F808162
:1042E000851709F410824F5F842F90E0F901019047
:1042F0000020E9F73197E21BF30B8E179F0760F35D
:104300000895CF92DF92EF92FF920F931F93DF9366
:10431000CF93CDB7DEB767970FB6F894DEBF0FBE69
:10432000CDBF7C01D62EC42E00D000D0ADB7BEB715
:1043300012969C938E93119780E894E014969C9328
:104340008E9313970E94E3B40F900F900F900F90ED
:104350008E01095F1F4FC80165E470E048E050E03E
:104360002CEA32E10E94A3B4F8019E01215F3F4F85
:104370009E2F901B80818D1511F4892F05C03196D9
:10438000E217F307A9F780E0B5E0BC1508F441C0D7
:1043900066E0869FB00111246B5A7F4FCE010196D3
:1043A00046E050E02CEA32E10E94A3B48E01015FA6
:1043B0001F4FFE01EC0DF11D608189E0689FB00187
:1043C000112464557F4FC80149E050E02CEA32E1E6
:1043D0000E94A3B4C8010E94612100D000D000D087
:1043E000EDB7FEB73196ADB7BEB71296FC92EE921E
:1043F00011978DE794E093838283158304830E9451
:10440000E3B4EDB7FEB736960FB6F894FEBF0FBE15
:10441000EDBF67960FB6F894DEBF0FBECDBFCF914C
:10442000DF911F910F91FF90EF90DF90CF90089553
:10443000DF93CF93CDB7DEB72B970FB6F894DEBFDF
:104440000FBECDBF982F9B01FB018085898381859D
:104450008A8387818B8385818C8386818D83848108
:104460008E83992319F0913059F40FC0FB0180819C
:104470008F83818188878281898783818A871B8650
:1044800090E0AE014F5F5F4F0FC0FB0182818F83D1
:10449000838188871986F4CFF901EA0FFB1FA40FE7
:1044A000B51F8C9180839F5FA92FB0E0FA01019026
:1044B0000020E9F73197E41BF50BAE17BF0760F357
:1044C0002B960FB6F894DEBF0FBECDBFCF91DF9114
:1044D0000895CF93DF93EC01FC0101900020E9F7F0
:1044E0003197E81BE230D0F188818033B9F54C2F49
:1044F000DE0190E08C91803369F411968C911197D4
:10450000803311F49F5F06C08E3211F08C3241F47B
:10451000915006C011968A2F841B8E1758F301C044
:104520009F5F9E1710F09E2F915040E0892F90E0E2
:104530002E2F30E0281B390BBE01680F791F09C0F0
:10454000FE01EA0FFB1FA60FB71F8C91808311821B
:104550004F5FA42FB0E0A217B30794F3DF91CF9180
:1045600008950F931F93DF93CF93CDB7DEB7649772
:104570000FB6F894DEBF0FBECDBF00D000D08E01C5
:104580000F5F1F4FEDB7FEB71283018380ED9AE0F6
:10459000948383830E94E3B40F900F900F900F9049
:1045A00080E061E0A8010E941BB3C8010E9469225B
:1045B00080E061E0A8010E941BB300D000D0EDB7FD
:1045C000FEB71283018386EC9AE0948383830E9472
:1045D000E3B40F900F900F900F9080E061E0A8017E
:1045E0000E941BB3C8010E94692280E061E0A8011B
:1045F0000E941BB300D000D0EDB7FEB71283018339
:104600008CEB9AE0948383830E94E3B40F900F9025
:104610000F900F9080E061E0A8010E941BB3C801D9
:104620000E94692280E061E0A8010E941BB300D0D3
:1046300000D0EDB7FEB71283018385EB9AE0948337
:1046400083830E94E3B40F900F900F900F9080E04F
:1046500061E0A8010E941BB3C8010E94692280E0AA
:1046600061E0A8010E941BB300D000D0EDB7FEB7F7
:104670001283018380EB9AE0948383830E94E3B4E6
:104680000F900F900F900F9080E061E0A8010E94C2
:104690001BB3C8010E94692280E061E0A8010E946A
:1046A0001BB300D000D0EDB7FEB7128301838DEAB3
:1046B0009AE0948383830E94E3B40F900F900F904D
:1046C0000F9080E061E0A8010E941BB3C8010E9426
:1046D000692280E061E0A8010E941BB300D000D0F5
:1046E000EDB7FEB7128301838BEA9AE0948383834C
:1046F0000E94E3B40F900F900F900F9080E061E064
:10470000A8010E941BB3C8010E94692280E061E0F9
:10471000A8010E941BB3FFCF1F939C01FC010190D5
:104720000020E9F731971E2F181BFC0140E090E0B4
:1047300050E00DC08081803241F48181803221F4CB
:10474000552319F49F5F01C051E04F5F3196411727
:1047500088F3592F5F5F40E0652F70E009C0F901D1
:10476000E80FF91FDF01A60FB71F8C9180834F5F01
:10477000842F90E0F90101900020E9F73197E21BC6
:10478000F30B8E179F0758F3812F851B05C0F90186
:10479000E80FF11D10828F5F8117C8F31F910895F4
:1047A000CF93DF93EC01FC0101900020E9F73197F2
:1047B000E81BAE2FB0E01197A80FB91F90E020E0E2
:1047C00030E00EC08C91803269F42F5F3F4F11961C
:1047D0008C911197803231F41C929E2F921B11976D
:1047E0002E1780F3FE01E90FF11D8081803209F45C
:1047F00010828881803209F41882FE010190002025
:10480000E9F73197EC1BFD0BEC0FFD1F1082DF91D8
:10481000CF9108951F9310915E0B20E030E0F901D5
:10482000EB5DF44FD901AF56B24F95968C918083D2
:104830002F5F3F4F2431310591F71092390B81E9F9
:104840009DE00E948C2320E030E0F901E65DFA4F04
:10485000D901AB5DB44FDC968C9180832F5F3F4FC5
:104860002832310591F7109252058AE295E00E94B4
:10487000D02320E030E0F901EF59FA4FD901A354D9
:10488000B44F8C9180832F5F3F4F2931310599F7C9
:1048900010927A0581E695E00E94D0238091D60B94
:1048A0008093EB041092EC0420E030E0F901ED5F1E
:1048B000F14FD901A952B44F8C9180832F5F3F4FA4
:1048C0002D30310599F71092100E83E09EE00E9482
:1048D0008C2320E030E0F901EE5FF44FD901AC51B8
:1048E000B44F8C9180832F5F3F4F2A30310599F769
:1048F00010920C0B82E09BE00E94D02320E030E07D
:10490000F901E857F64FD901A251B44F8C91808339
:104910002F5F3F4F2431310599F710929C0988E8A9
:1049200099E00E94D023812F8F521F91089520E09B
:1049300030E006C0FC01E20FF31F10822F5F3F4FF3
:10494000FC0101900020E9F73197E81BF90B2E17C5
:104950003F0780F30895BF92CF92DF92EF92FF92CC
:104960000F931F93DF93CF93CDB7DEB76E970FB63C
:10497000F894DEBF0FBECDBF8C01FC01019000207A
:10498000E9F731972E2F281B2617E0F57E010894B2
:10499000E11CF11CF701BE2C90E301C091938E2F16
:1049A0008B198617D8F3462F50E0CE010196FC01F3
:1049B000E40FF51F1082762F721B6C0130E0241B70
:1049C000350B0CC0E72FF0E0D601AE0FBF1FE00F94
:1049D000F11FE20FF31F80818C937F5F761790F3B6
:1049E0004C0D5D1DDA011C92F80104C0D7018D91B8
:1049F0007D0181938E2D8B198617C0F3060F111D33
:104A0000F80110826E960FB6F894DEBF0FBECDBFD0
:104A1000CF91DF911F910F91FF90EF90DF90CF909A
:104A2000BF9008950F931F93CF93DF93182F062FF6
:104A3000EA01CA016DE00E94AB24812F0E94BD1AD9
:104A4000482F882339F0415081E061E0202F8E010A
:104A50000E94841BDF91CF911F910F9108950F93B6
:104A60001F93CF93DF93182F062FEA01CA016BE043
:104A70000E94AB24812F0E94BD1A482F882339F051
:104A8000415080E061E0202F8E010E94841BDF9165
:104A9000CF911F910F910895EF92FF920F931F9363
:104AA000082F7B01CB016AE00E94AB2400D000D02C
:104AB00000D0EDB7FEB73196ADB7BEB71296FC92F7
:104AC000EE92119787EE93E09383828310E00F704C
:104AD000107085E390E09C01029FC001039F900D40
:104AE000129F900D11248D51984F958384830E94BD
:104AF000E3B48DB79EB706960FB6F8949EBF0FBE6F
:104B00008DBF1F910F91FF90EF900895EF92FF924C
:104B10000F931F93082F7B01CB016AE00E94AB2407
:104B200000D000D000D0EDB7FEB73196ADB7BEB71C
:104B30001296FC92EE9211978AEE93E09383828311
:104B400010E00F70107085E390E09C01029FC0019F
:104B5000039F900D129F900D11248652984F9583BC
:104B600084830E94E3B48DB79EB706960FB6F8947F
:104B70009EBF0FBE8DBF1F910F91FF90EF900895C4
:104B8000CF93DF93EC01DC010D900020E9F7119742
:104B9000A81BB90BA61760F48A2F90E3FE01E80F5B
:104BA000F11D90838F5F8617C8F3C60FD11D188241
:104BB000DF91CF9108952F923F924F925F926F9223
:104BC0007F928F929F92AF92BF92CF92DF92EF929D
:104BD000FF920F931F93DF93CF93CDB7DEB7C655E8
:104BE000D0400FB6F894DEBF0FBECDBF682E1B01BC
:104BF00067965FAF4EAF67975901FE013196CE01C0
:104C000045961192E817F907E1F7CE0189961192BE
:104C1000E817F907E1F7FE01FD96CF0144961192DE
:104C2000E817F907E1F700D000D000D0EDB7FEB7E4
:104C300031968E010F5F1F4FADB7BEB712961C9312
:104C40000E93119785E396E09383828335822482C5
:104C50000E94E3B4EDB7FEB73196CE014596ADB7ED
:104C6000BEB712969C938E93119782E396E093833E
:104C7000828367962EAD3FAD6797358324830E946C
:104C8000E3B48DB79EB706960FB6F8949EBF0FBEDD
:104C90008DBFC8010E949E20813021F065961FAE15
:104CA000659707C0C8010E94A32091E065969FAF59
:104CB00065978E010B5E1F4FC8010E949E208130B8
:104CC00021F064961FAE649707C0C8010E94A3201C
:104CD000A1E06496AFAF6497FE013196DF010D90BD
:104CE0000020E9F7CD0101978E1B9F0BDE01559641
:104CF000FD0101900020E9F731971E2F1A1B1817AC
:104D000008F4182F1F5F7E010894E11CF11CC701F5
:104D1000612F0E94AB24F5E1CF2ED12CCC0EDD1EED
:104D2000C601612F0E94AB24F70101900020E9F732
:104D300031977E2E7E18F60101900020E9F7319719
:104D40009E2E9C18C601B7010E94D020813011F020
:104D500080E042C000D000D000D0EDB7FEB7319661
:104D60008E01075D1F4FADB7BEB712961C930E9311
:104D700011978FE296E093838283F582E4820E940A
:104D8000E3B4EDB7FEB73196ADB7BEB71296FC925D
:104D9000EE9211978CE296E093838283D582C4824F
:104DA0000E94E3B4EDB7FEB73196ADB7BEB7129629
:104DB000DC92CE92119789E296E0938382831583E9
:104DC00004830E94E3B481E0EDB7FEB736960FB6D8
:104DD000F894FEBF0FBEEDBF662039F5813099F41F
:104DE0006596FFAD6597F13039F464962FAD649701
:104DF000213009F090C142C064963FAD64973130D4
:104E000009F080C184C165968FAD6597813039F412
:104E100064969FAD6497913009F07DC173C164962B
:104E2000AFAD6497A13051F572C1B1E06B1631F5A9
:104E3000813091F46596EFAD6597E13031F4649679
:104E4000FFAD6497F130D1F466C164962FAD6497DD
:104E5000213009F05CC156C165963FAD6597313090
:104E600039F464968FAD6497813009F04BC153C11A
:104E700064969FAD6497913009F049C162961FAE68
:104E80006297E72CFF2467010894C108D108AE019E
:104E9000435C5F4F4C0D5D1DCE0101968C010C0DE6
:104EA0001D1DBE01690D711D6C5E7F4F99242C0183
:104EB000E9E38E2E9AE052C0D8018C9180538A305B
:104EC00010F020E001C0282FFB01308130533A3030
:104ED00010F4231740F08A3008F080E03A3008F0F0
:104EE00030E0831B2DC08A3010F4831780F5292D04
:104EF0000AC0F601E21BF109D201AE0FBF1F8C916F
:104F0000803329F48C922F5F271598F310C0282F37
:104F100020532A3008F020E0822F81508A3010F090
:104F200080E302C0822F815DE40DF51D8083F801CE
:104F3000208120532A3008F020E0892F831B820F24
:104F40008A3010F080E301C0805DDA018C93939485
:104F5000415050400150104061507040971408F487
:104F6000ABCF8E01035C1F4FE00EF11EF7011082E4
:104F7000C8010E946922F80101900020E9F73197E9
:104F80003E2F301BD80120E090E04DE213C02223D9
:104F900051F46296FFAD6297F13029F4F501E90F03
:104FA000F11D40839F5FF501E90FF11D8D91808315
:104FB0009F5F2F5F231758F3F501E90FF11D108252
:104FC00095C08E01035C1F4F9E01290D311D2C5E83
:104FD0003F4F472D50E04A01089481089108CE01C7
:104FE00001967C01E80CF91CDD242C0170E3C72E2E
:104FF00043C0D7019C9190539A3008F090E0F9019A
:10500000808180538A3008F080E0890F8A3018F45C
:10501000805DD80128C06AE00E94A3B79A3010F0E2
:1050200090E301C0905DF80190838D2D0EC0D401F6
:10503000A81BB109F201EA0FFB1F908190539A302F
:1050400008F06EC0993029F4C0828F5F871578F31D
:105050000BC0892F8F5F8A3010F080E302C0892F48
:105060008F5CA40DB51D8C93D3940F5F1F4F2150FF
:1050700030400894E108F108D71408F4BACF4C0F77
:105080005D1FDA01DE961C92DE01DD96FD010190C6
:105090000020E9F731975E2F5A1B252F30E0215071
:1050A00030402A0F3B1F40E090E06DE216C04423E1
:1050B00051F46396BFAD6397B13029F4F501E90F60
:1050C000F11D60839F5FF501E90FF11DD9018C91FE
:1050D00080839F5F4F5F21503040451740F3F501BB
:1050E000E90FF11D1082C5010E946922B2E06B1622
:1050F000C9F4C10167966EAD7FAD6797A5010E94A7
:10510000AC2810C0E1E06296EFAF6297BACE63962A
:105110001FAE639756CFF1E06396FFAF639751CF11
:1051200090E097CFCA5ADF4F0FB6F894DEBF0FBE9C
:10513000CDBFCF91DF911F910F91FF90EF90DF9046
:10514000CF90BF90AF909F908F907F906F905F9027
:105150004F903F902F9008954F925F926F927F9261
:105160008F929F92AF92BF92CF92DF92EF92FF9277
:105170000F931F93DF93CF93CDB7DEB7A8970FB6EA
:10518000F894DEBF0FBECDBF3C016B012A010E9427
:105190006922C6010E946922D6010D900020E9F71C
:1051A00011978A2E8C1800D000D08E010F5F1F4FF0
:1051B000ADB7BEB712961C930E93119787E296E097
:1051C00014969C938E9313970E94E3B4A5E1EA2E64
:1051D000F12CEC0EFD1EEDB7FEB7F282E18285E206
:1051E00096E0948383830E94E3B4BB240F900F90D6
:1051F0000F900F90A02E912E082D10E0015010401E
:105200001FC0F801E81BF90BEC0DFD1DC301608107
:10521000A7010E94EE1FF70101900020E9F73197E6
:10522000EE19FF096B2D6E0FC7010E94C02581E0AA
:105230006A2D792DA7012A2D392D0E94DB25B394E3
:10524000F60101900020E9F73197EC19FD098B2D4B
:1052500090E08E179F07A8F200D000D000D0EDB7E5
:10526000FEB73196ADB7BEB712965C924E921197CB
:1052700082E296E093838283A48295820E94E3B4C3
:10528000EDB7FEB736960FB6F894FEBF0FBEEDBF72
:10529000A8960FB6F894DEBF0FBECDBFCF91DF91B9
:1052A0001F910F91FF90EF90DF90CF90BF90AF9044
:1052B0009F908F907F906F905F904F900895CF92C6
:1052C000DF92EF92FF920F931F93DF93CF93CDB7AF
:1052D000DEB764970FB6F894DEBF0FBECDBFD82EF1
:1052E000C92EA82FB92FFD0101900020E9F73197B1
:1052F0004E2F481B20E030E07E010894E11CF11C99
:10530000042F10E00EC0F701E20FF31FC801821B4B
:10531000930B642F70E00E94D0B7605D60832F5FB5
:105320003F4F241780F30E0D1F1DF801108281E0FE
:10533000B7014D2D5C2D2D2D3C2D0E94DB25649653
:105340000FB6F894DEBF0FBECDBFCF91DF911F9196
:105350000F91FF90EF90DF90CF900895BF92CF9282
:10536000DF92EF92FF920F931F93DF93CF93CDB70E
:10537000DEB76E970FB6F894DEBF0FBECDBF8C01BF
:10538000FC0101900020E9F731972E2F281B2617EA
:10539000E0F57E010894E11CF11CF701BE2C90E2BF
:1053A00001C091938E2F8B198617D8F3462F50E0AA
:1053B000CE010196FC01E40FF51F1082762F721BBF
:1053C0006C0130E0241B350B0CC0E72FF0E0D60158
:1053D000AE0FBF1FE00FF11FE20FF31F80818C9310
:1053E0007F5F761790F34C0D5D1DDA011C92F8017A
:1053F00004C0D7018D917D0181938E2D8B19861765
:10540000C0F3060F111DF80110826E960FB6F894C6
:10541000DEBF0FBECDBFCF91DF911F910F91FF90E7
:10542000EF90DF90CF90BF900895CF93DF93EC0182
:10543000DC010D900020E9F71197A81BB90BA61706
:1054400060F48A2F90E2FE01E80FF11D90838F5FD8
:105450008617C8F3C60FD11D1882DF91CF9108952A
:105460000F931F93DF93CF93CDB7DEB72C970FB673
:10547000F894DEBF0FBECDBF482F8B01FE013196E1
:105480009E01235F3F4F1192E217F307E1F7CE0130
:105490000196442369F06DE0469FB00111246252E9
:1054A0007F4F4AE050E02CEA32E10E94A3B414C0DE
:1054B00000D000D0ADB7BEB712969C938E931197D3
:1054C00089E794E014969C938E9313970E94E3B41B
:1054D0000F900F900F900F90DE011196FD0101903B
:1054E0000020E9F73197EA1BEB3008F0EAE0AE0163
:1054F0004F5F5F4F9801BA0106C0DB018D91BD017E
:10550000D9018D939D01862F841B8E17B0F3C8019E
:105510008E0F911DFC011082C8016AE00E94152ABD
:105520002C960FB6F894DEBF0FBECDBFCF91DF91A2
:105530001F910F9108952F923F924F925F926F9219
:105540007F928F929F92AF92BF92CF92DF92EF9213
:10555000FF920F931F93DF93CF93CDB7DEB7C05B5E
:10556000D0400FB6F894DEBF0FBECDBFE82EFE01CF
:105570003796CE0146961192E817F907E1F7CE016A
:1055800085961192E817F907E1F7CE01C4961192BA
:10559000E817F907E1F7CF013F010F961192E817DD
:1055A000F907E1F78E2D0E94BD1A96E0899FB001A0
:1055B0001124615B7F4F8E010F5F1F4FC80146E0D2
:1055C00050E02CEA32E10E94A3B42E2C3324910146
:1055D0002F70307085E390E0289FF001299FF00D37
:1055E000389FF00D1124E954F84FF0804F2C5524CA
:1055F000040D151DD8018C916DE679E00E94302ACA
:1056000087E0882E912C8C0E9D1E8E2DB4010E9459
:10561000862506E1A02EB12CAC0EBD1E8E2DB50147
:105620000E944C2515E2C12ED12CCC0EDD1E8E2DF4
:105630006F2DA6010E942F258E2D6F2DA3010E9494
:105640001225B3E4EB2EF12CEC0EFD1EC7010E94D7
:105650000A1AEDB7FEB774970FB6F894FEBF0FBEE7
:10566000EDBF31968E01095A1F4FADB7BEB71296E6
:105670001C930E9311978CEB93E093838283358276
:105680002482578246828DE699E091878087F3864F
:10569000E28695868486B786A686D18AC08A628A83
:1056A000738A0E94E3B4ADB7BEB754960FB6F894B0
:1056B000BEBF0FBEADBFC8010E949D1EE82E81E097
:1056C00060E0A8010E941BB3F801C801F92ECE01C9
:1056D0008F549F4F1192E817F907E1F700D000D0DF
:1056E00000D0EDB7FEB73196ADB7BEB711960C93AB
:1056F00011971296FC9289EB93E093838283E48264
:1057000015820E94E3B4EDB7FEB736960FB6F89453
:10571000FEBF0FBEEDBF81E061E0402F5F2D0E9414
:105720001BB3C055DF4F0FB6F894DEBF0FBECDBF21
:10573000CF91DF911F910F91FF90EF90DF90CF906D
:10574000BF90AF909F908F907F906F905F904F90A1
:105750003F902F9008958091F901833071F184304A
:1057600028F4813081F08230C0F409C0853009F41A
:1057700049C08530C0F1863009F060C04DC081E07D
:105780008093F80146C08091F3010E949A198230FB
:1057900009F054C01092DB013CC09091F80185E003
:1057A0008093B6079093DE0D81E08093AD01109257
:1057B000BE011092BD0183E02CC08091DB018130DD
:1057C00059F49091F70D8091F801981729F41092EF
:1057D000DB0184E08093F9018091BD019091BE01CD
:1057E0000B9760F115C08091F8010E949B2A80916F
:1057F000F80163E00E9468191092BE011092BD0189
:1058000085E007C08091BD019091BE010297B0F084
:1058100086E08093F90108952091F801E199FECF87
:1058200084E791E09FBB8EBBE09A8DB3821730F086
:105830002F5F2093F80181E08093F9010895BF92D2
:10584000CF92DF92EF92FF920F931F93DF93CF934C
:10585000CDB7DEB76E970FB6F894DEBF0FBECDBFE3
:105860008C01E42EFC0101900020E9F731972E2FE6
:10587000281B2417D0F5AE014F5F5F4FFA01B42EFD
:1058800001C061938E2F8B198E15D8F36E2D70E0A9
:10589000CE010196FC01E60FF71F1082FE2CF21AD2
:1058A0006C0130E0261B370B0CC0EF2DF0E0D60169
:1058B000AE0FBF1FE00FF11FE20FF31F80818C932B
:1058C000F394FE1490F36C0D7D1DDB011C92F80126
:1058D00004C0DA018D91AD018193842F8B198E154F
:1058E000C0F30E0D111DF80110826E960FB6F894DC
:1058F000DEBF0FBECDBFCF91DF911F910F91FF9003
:10590000EF90DF90CF90BF900895CF93DF93EC019D
:10591000DC010D900020E9F71197A81BB90BA41723
:1059200058F48A2FFE01E80FF11D60838F5F841702
:10593000C8F3C40FD11D1882DF91CF910895CF9283
:10594000DF92EF92FF920F931F93CF93DF937C012F
:10595000DC010D900020E9F78D0101501040081B7B
:10596000190BCC24DD240AC084E10E94C212CE0DA2
:10597000DF1D9881981709F4D394C394CC2DD0E0FF
:10598000C017D10788F38D2DDF91CF911F910F9113
:10599000FF90EF90DF90CF9008951F93DF93CF9308
:1059A000CDB7DEB764970FB6F894DEBF0FBECDBF9C
:1059B000162F50E040E0BE016F5F7F4F0CC0280FF4
:1059C000391FD9012C91211729F0FB01E40FF11D9A
:1059D00020834F5F5F5F252F30E0FC0101900020A6
:1059E000E9F73197E81BF90B2E173F0740F39E01AB
:1059F0002F5F3F4FF901E40FF11D108200D000D05E
:105A000000D0EDB7FEB73196ADB7BEB712969C93F6
:105A10008E93119788E197E1938382833583248362
:105A20000E94E3B4EDB7FEB736960FB6F894FEBF0A
:105A30000FBEEDBF64960FB6F894DEBF0FBECDBFAC
:105A4000CF91DF911F9108958F929F92BF92CF9235
:105A5000DF92EF92FF920F931F93DF93CF93CDB717
:105A6000DEB72F970FB6F894DEBF0FBECDBF6C0127
:105A7000BB2440E04E010894811C911C12C0860199
:105A80000E0D1F1DD8016C91605380E00E94181507
:105A9000E80CF91C805DF7018083D8014C914053DC
:105AA000B394EB2CFF24D6010D900020E9F7119759
:105AB000AC19BD09EA16FB0610F3A80DB91D1C921E
:105AC00000D000D000D0EDB7FEB73196ADB7BEB76D
:105AD0001296DC92CE92119783E297E193838283B0
